{
	"contracts/Hish/WBUSD/contract.sol": {
		"WUSD": {
			"abi": [
				{
					"constant": true,
					"inputs": [],
					"name": "name",
					"outputs": [
						{
							"name": "",
							"type": "string"
						}
					],
					"payable": false,
					"stateMutability": "view",
					"type": "function"
				},
				{
					"constant": true,
					"inputs": [],
					"name": "totalSupply",
					"outputs": [
						{
							"name": "",
							"type": "uint256"
						}
					],
					"payable": false,
					"stateMutability": "view",
					"type": "function"
				},
				{
					"constant": true,
					"inputs": [],
					"name": "decimals",
					"outputs": [
						{
							"name": "",
							"type": "uint8"
						}
					],
					"payable": false,
					"stateMutability": "view",
					"type": "function"
				},
				{
					"constant": false,
					"inputs": [
						{
							"name": "_amount",
							"type": "uint256"
						}
					],
					"name": "burn",
					"outputs": [
						{
							"name": "success",
							"type": "bool"
						}
					],
					"payable": false,
					"stateMutability": "nonpayable",
					"type": "function"
				},
				{
					"constant": true,
					"inputs": [
						{
							"name": "",
							"type": "address"
						}
					],
					"name": "balanceOf",
					"outputs": [
						{
							"name": "",
							"type": "uint256"
						}
					],
					"payable": false,
					"stateMutability": "view",
					"type": "function"
				},
				{
					"constant": true,
					"inputs": [],
					"name": "owner",
					"outputs": [
						{
							"name": "",
							"type": "address"
						}
					],
					"payable": false,
					"stateMutability": "view",
					"type": "function"
				},
				{
					"constant": true,
					"inputs": [],
					"name": "symbol",
					"outputs": [
						{
							"name": "",
							"type": "string"
						}
					],
					"payable": false,
					"stateMutability": "view",
					"type": "function"
				},
				{
					"constant": false,
					"inputs": [
						{
							"name": "_amount",
							"type": "uint256"
						}
					],
					"name": "mint",
					"outputs": [
						{
							"name": "success",
							"type": "bool"
						}
					],
					"payable": false,
					"stateMutability": "nonpayable",
					"type": "function"
				},
				{
					"constant": false,
					"inputs": [
						{
							"name": "_to",
							"type": "address"
						},
						{
							"name": "_value",
							"type": "uint256"
						}
					],
					"name": "transfer",
					"outputs": [
						{
							"name": "success",
							"type": "bool"
						}
					],
					"payable": false,
					"stateMutability": "nonpayable",
					"type": "function"
				},
				{
					"inputs": [],
					"payable": false,
					"stateMutability": "nonpayable",
					"type": "constructor"
				},
				{
					"anonymous": false,
					"inputs": [
						{
							"indexed": true,
							"name": "from",
							"type": "address"
						},
						{
							"indexed": true,
							"name": "to",
							"type": "address"
						},
						{
							"indexed": false,
							"name": "value",
							"type": "uint256"
						}
					],
					"name": "Transfer",
					"type": "event"
				},
				{
					"anonymous": false,
					"inputs": [
						{
							"indexed": true,
							"name": "to",
							"type": "address"
						},
						{
							"indexed": false,
							"name": "value",
							"type": "uint256"
						}
					],
					"name": "Mint",
					"type": "event"
				},
				{
					"anonymous": false,
					"inputs": [
						{
							"indexed": true,
							"name": "from",
							"type": "address"
						},
						{
							"indexed": false,
							"name": "value",
							"type": "uint256"
						}
					],
					"name": "Burn",
					"type": "event"
				}
			],
			"devdoc": {
				"methods": {}
			},
			"evm": {
				"assembly": "    /* \"contracts/Hish/WBUSD/contract.sol\":85:117  string public name = \"WethioUSD\" */\n  0xc0\n    /* \"contracts/Hish/WBUSD/contract.sol\":65:2037  contract WUSD {... */\n  0x40\n    /* \"contracts/Hish/WBUSD/contract.sol\":85:117  string public name = \"WethioUSD\" */\n  mstore\n  0x9\n    /* \"contracts/Hish/WBUSD/contract.sol\":65:2037  contract WUSD {... */\n  0x80\n    /* \"contracts/Hish/WBUSD/contract.sol\":85:117  string public name = \"WethioUSD\" */\n  dup2\n  swap1\n  mstore\n  0x57657468696f5553440000000000000000000000000000000000000000000000\n  0xa0\n  swap1\n  dup2\n  mstore\n  tag_1\n  swap2\n  0x0\n  swap2\n  swap1\n  jump\t// in(tag_2)\ntag_1:\n  pop\n    /* \"contracts/Hish/WBUSD/contract.sol\":123:152  string public symbol = \"WUSD\" */\n  0x40\n  dup1\n  mload\n  dup1\n  dup3\n  add\n  swap1\n  swap2\n  mstore\n  0x4\n  dup1\n  dup3\n  mstore\n  0x5755534400000000000000000000000000000000000000000000000000000000\n  0x20\n  swap1\n  swap3\n  add\n  swap2\n  dup3\n  mstore\n  tag_3\n  swap2\n  0x1\n  swap2\n  jump\t// in(tag_2)\ntag_3:\n  pop\n    /* \"contracts/Hish/WBUSD/contract.sol\":182:183  2 */\n  0x2\n    /* \"contracts/Hish/WBUSD/contract.sol\":158:183  uint8 public decimals = 2 */\n  dup1\n  sload\n  not(0xff)\n  and\n  dup2\n  or\n  swap1\n  sstore\n    /* \"contracts/Hish/WBUSD/contract.sol\":605:817  constructor() {... */\n  callvalue\n    /* \"--CODEGEN--\":5:7   */\n  dup1\n  iszero\n  tag_4\n  jumpi\n    /* \"--CODEGEN--\":30:31   */\n  0x0\n    /* \"--CODEGEN--\":27:28   */\n  dup1\n    /* \"--CODEGEN--\":20:32   */\n  revert\n    /* \"--CODEGEN--\":5:7   */\ntag_4:\n  pop\n    /* \"contracts/Hish/WBUSD/contract.sol\":629:634  owner */\n  0x5\n    /* \"contracts/Hish/WBUSD/contract.sol\":629:647  owner = msg.sender */\n  dup1\n  sload\n  not(sub(exp(0x2, 0xa0), 0x1))\n  and\n    /* \"contracts/Hish/WBUSD/contract.sol\":637:647  msg.sender */\n  caller\n    /* \"contracts/Hish/WBUSD/contract.sol\":629:647  owner = msg.sender */\n  or\n  dup1\n  dup3\n  sstore\n    /* \"contracts/Hish/WBUSD/contract.sol\":680:688  decimals */\n  sload(0x2)\n  0xff\n  swap1\n  dup2\n  and\n    /* \"contracts/Hish/WBUSD/contract.sol\":676:678  10 */\n  0xa\n    /* \"contracts/Hish/WBUSD/contract.sol\":676:688  10**decimals */\n  swap1\n  dup2\n  exp\n    /* \"contracts/Hish/WBUSD/contract.sol\":671:688  10 * 10**decimals */\n  mul\n    /* \"contracts/Hish/WBUSD/contract.sol\":657:688  totalSupply = 10 * 10**decimals */\n  and\n    /* \"contracts/Hish/WBUSD/contract.sol\":657:668  totalSupply */\n  0x3\n    /* \"contracts/Hish/WBUSD/contract.sol\":657:688  totalSupply = 10 * 10**decimals */\n  dup2\n  swap1\n  sstore\n  sub(exp(0x2, 0xa0), 0x1)\n    /* \"contracts/Hish/WBUSD/contract.sol\":735:740  owner */\n  swap2\n  dup3\n  and\n    /* \"contracts/Hish/WBUSD/contract.sol\":629:634  owner */\n  0x0\n    /* \"contracts/Hish/WBUSD/contract.sol\":725:741  balanceOf[owner] */\n  swap1\n  dup2\n  mstore\n    /* \"contracts/Hish/WBUSD/contract.sol\":725:734  balanceOf */\n  0x4\n    /* \"contracts/Hish/WBUSD/contract.sol\":725:741  balanceOf[owner] */\n  0x20\n  swap1\n  dup2\n  mstore\n  0x40\n  dup1\n  dup4\n  keccak256\n    /* \"contracts/Hish/WBUSD/contract.sol\":725:755  balanceOf[owner] = totalSupply */\n  dup5\n  swap1\n  sstore\n    /* \"contracts/Hish/WBUSD/contract.sol\":791:796  owner */\n  swap5\n  sload\n    /* \"contracts/Hish/WBUSD/contract.sol\":770:810  Transfer(address(0), owner, totalSupply) */\n  dup6\n  mload\n  swap4\n  dup5\n  mstore\n  swap5\n  mload\n    /* \"contracts/Hish/WBUSD/contract.sol\":791:796  owner */\n  swap5\n  swap1\n  swap4\n  and\n  swap4\n    /* \"contracts/Hish/WBUSD/contract.sol\":629:634  owner */\n  swap1\n  swap3\n    /* \"contracts/Hish/WBUSD/contract.sol\":770:810  Transfer(address(0), owner, totalSupply) */\n  0xddf252ad1be2c89b69c2b068fc378daa952ba7f163c4a11628f55a4df523b3ef\n  swap3\n  dup3\n  swap1\n  sub\n  add\n  swap1\n  log3\n    /* \"contracts/Hish/WBUSD/contract.sol\":65:2037  contract WUSD {... */\n  jump(tag_7)\ntag_2:\n  dup3\n  dup1\n  sload\n  0x1\n  dup2\n  0x1\n  and\n  iszero\n  0x100\n  mul\n  sub\n  and\n  0x2\n  swap1\n  div\n  swap1\n  0x0\n  mstore\n  keccak256(0x0, 0x20)\n  swap1\n  0x1f\n  add\n  0x20\n  swap1\n  div\n  dup2\n  add\n  swap3\n  dup3\n  0x1f\n  lt\n  tag_9\n  jumpi\n  dup1\n  mload\n  not(0xff)\n  and\n  dup4\n  dup1\n  add\n  or\n  dup6\n  sstore\n  jump(tag_11)\ntag_9:\n  dup3\n  dup1\n  add\n  0x1\n  add\n  dup6\n  sstore\n  dup3\n  iszero\n  tag_11\n  jumpi\n  swap2\n  dup3\n  add\ntag_10:\n  dup3\n  dup2\n  gt\n  iszero\n  tag_11\n  jumpi\n  dup3\n  mload\n  dup3\n  sstore\n  swap2\n  0x20\n  add\n  swap2\n  swap1\n  0x1\n  add\n  swap1\n  jump(tag_10)\ntag_11:\n  pop\n  tag_12\n  swap3\n  swap2\n  pop\n  jump\t// in(tag_13)\ntag_12:\n  pop\n  swap1\n  jump\t// out\ntag_13:\n  tag_14\n  swap2\n  swap1\ntag_15:\n  dup1\n  dup3\n  gt\n  iszero\n  tag_12\n  jumpi\n  0x0\n  dup2\n  sstore\n  0x1\n  add\n  jump(tag_15)\ntag_14:\n  swap1\n  jump\t// out\ntag_7:\n  dataSize(sub_0)\n  dup1\n  dataOffset(sub_0)\n  0x0\n  codecopy\n  0x0\n  return\nstop\n\nsub_0: assembly {\n        /* \"contracts/Hish/WBUSD/contract.sol\":65:2037  contract WUSD {... */\n      mstore(0x40, 0x80)\n      jumpi(tag_1, lt(calldatasize, 0x4))\n      and(div(calldataload(0x0), 0x100000000000000000000000000000000000000000000000000000000), 0xffffffff)\n      0x6fdde03\n      dup2\n      eq\n      tag_2\n      jumpi\n      dup1\n      0x18160ddd\n      eq\n      tag_3\n      jumpi\n      dup1\n      0x313ce567\n      eq\n      tag_4\n      jumpi\n      dup1\n      0x42966c68\n      eq\n      tag_5\n      jumpi\n      dup1\n      0x70a08231\n      eq\n      tag_6\n      jumpi\n      dup1\n      0x8da5cb5b\n      eq\n      tag_7\n      jumpi\n      dup1\n      0x95d89b41\n      eq\n      tag_8\n      jumpi\n      dup1\n      0xa0712d68\n      eq\n      tag_9\n      jumpi\n      dup1\n      0xa9059cbb\n      eq\n      tag_10\n      jumpi\n    tag_1:\n      0x0\n      dup1\n      revert\n        /* \"contracts/Hish/WBUSD/contract.sol\":85:117  string public name = \"WethioUSD\" */\n    tag_2:\n      callvalue\n        /* \"--CODEGEN--\":8:17   */\n      dup1\n        /* \"--CODEGEN--\":5:7   */\n      iszero\n      tag_11\n      jumpi\n        /* \"--CODEGEN--\":30:31   */\n      0x0\n        /* \"--CODEGEN--\":27:28   */\n      dup1\n        /* \"--CODEGEN--\":20:32   */\n      revert\n        /* \"--CODEGEN--\":5:7   */\n    tag_11:\n        /* \"contracts/Hish/WBUSD/contract.sol\":85:117  string public name = \"WethioUSD\" */\n      pop\n      tag_12\n      jump(tag_13)\n    tag_12:\n      0x40\n      dup1\n      mload\n      0x20\n      dup1\n      dup3\n      mstore\n      dup4\n      mload\n      dup2\n      dup4\n      add\n      mstore\n      dup4\n      mload\n      swap2\n      swap3\n      dup4\n      swap3\n      swap1\n      dup4\n      add\n      swap2\n      dup6\n      add\n      swap1\n      dup1\n      dup4\n      dup4\n      0x0\n        /* \"--CODEGEN--\":8:108   */\n    tag_14:\n        /* \"--CODEGEN--\":33:36   */\n      dup4\n        /* \"--CODEGEN--\":30:31   */\n      dup2\n        /* \"--CODEGEN--\":27:37   */\n      lt\n        /* \"--CODEGEN--\":8:108   */\n      iszero\n      tag_15\n      jumpi\n        /* \"--CODEGEN--\":90:101   */\n      dup2\n      dup2\n      add\n        /* \"--CODEGEN--\":84:102   */\n      mload\n        /* \"--CODEGEN--\":71:82   */\n      dup4\n      dup3\n      add\n        /* \"--CODEGEN--\":64:103   */\n      mstore\n        /* \"--CODEGEN--\":52:54   */\n      0x20\n        /* \"--CODEGEN--\":45:55   */\n      add\n        /* \"--CODEGEN--\":8:108   */\n      jump(tag_14)\n    tag_15:\n        /* \"--CODEGEN--\":12:26   */\n      pop\n        /* \"contracts/Hish/WBUSD/contract.sol\":85:117  string public name = \"WethioUSD\" */\n      pop\n      pop\n      pop\n      swap1\n      pop\n      swap1\n      dup2\n      add\n      swap1\n      0x1f\n      and\n      dup1\n      iszero\n      tag_17\n      jumpi\n      dup1\n      dup3\n      sub\n      dup1\n      mload\n      0x1\n      dup4\n      0x20\n      sub\n      0x100\n      exp\n      sub\n      not\n      and\n      dup2\n      mstore\n      0x20\n      add\n      swap2\n      pop\n    tag_17:\n      pop\n      swap3\n      pop\n      pop\n      pop\n      mload(0x40)\n      dup1\n      swap2\n      sub\n      swap1\n      return\n        /* \"contracts/Hish/WBUSD/contract.sol\":189:215  uint256 public totalSupply */\n    tag_3:\n      callvalue\n        /* \"--CODEGEN--\":8:17   */\n      dup1\n        /* \"--CODEGEN--\":5:7   */\n      iszero\n      tag_18\n      jumpi\n        /* \"--CODEGEN--\":30:31   */\n      0x0\n        /* \"--CODEGEN--\":27:28   */\n      dup1\n        /* \"--CODEGEN--\":20:32   */\n      revert\n        /* \"--CODEGEN--\":5:7   */\n    tag_18:\n        /* \"contracts/Hish/WBUSD/contract.sol\":189:215  uint256 public totalSupply */\n      pop\n      tag_19\n      jump(tag_20)\n    tag_19:\n      0x40\n      dup1\n      mload\n      swap2\n      dup3\n      mstore\n      mload\n      swap1\n      dup2\n      swap1\n      sub\n      0x20\n      add\n      swap1\n      return\n        /* \"contracts/Hish/WBUSD/contract.sol\":158:183  uint8 public decimals = 2 */\n    tag_4:\n      callvalue\n        /* \"--CODEGEN--\":8:17   */\n      dup1\n        /* \"--CODEGEN--\":5:7   */\n      iszero\n      tag_21\n      jumpi\n        /* \"--CODEGEN--\":30:31   */\n      0x0\n        /* \"--CODEGEN--\":27:28   */\n      dup1\n        /* \"--CODEGEN--\":20:32   */\n      revert\n        /* \"--CODEGEN--\":5:7   */\n    tag_21:\n        /* \"contracts/Hish/WBUSD/contract.sol\":158:183  uint8 public decimals = 2 */\n      pop\n      tag_22\n      jump(tag_23)\n    tag_22:\n      0x40\n      dup1\n      mload\n      0xff\n      swap1\n      swap3\n      and\n      dup3\n      mstore\n      mload\n      swap1\n      dup2\n      swap1\n      sub\n      0x20\n      add\n      swap1\n      return\n        /* \"contracts/Hish/WBUSD/contract.sol\":1565:2035  function burn(uint256 _amount) public onlyOwner returns (bool success) {... */\n    tag_5:\n      callvalue\n        /* \"--CODEGEN--\":8:17   */\n      dup1\n        /* \"--CODEGEN--\":5:7   */\n      iszero\n      tag_24\n      jumpi\n        /* \"--CODEGEN--\":30:31   */\n      0x0\n        /* \"--CODEGEN--\":27:28   */\n      dup1\n        /* \"--CODEGEN--\":20:32   */\n      revert\n        /* \"--CODEGEN--\":5:7   */\n    tag_24:\n      pop\n        /* \"contracts/Hish/WBUSD/contract.sol\":1565:2035  function burn(uint256 _amount) public onlyOwner returns (bool success) {... */\n      tag_25\n      calldataload(0x4)\n      jump(tag_26)\n    tag_25:\n      0x40\n      dup1\n      mload\n      swap2\n      iszero\n      iszero\n      dup3\n      mstore\n      mload\n      swap1\n      dup2\n      swap1\n      sub\n      0x20\n      add\n      swap1\n      return\n        /* \"contracts/Hish/WBUSD/contract.sol\":222:266  mapping(address => uint256) public balanceOf */\n    tag_6:\n      callvalue\n        /* \"--CODEGEN--\":8:17   */\n      dup1\n        /* \"--CODEGEN--\":5:7   */\n      iszero\n      tag_27\n      jumpi\n        /* \"--CODEGEN--\":30:31   */\n      0x0\n        /* \"--CODEGEN--\":27:28   */\n      dup1\n        /* \"--CODEGEN--\":20:32   */\n      revert\n        /* \"--CODEGEN--\":5:7   */\n    tag_27:\n      pop\n        /* \"contracts/Hish/WBUSD/contract.sol\":222:266  mapping(address => uint256) public balanceOf */\n      tag_19\n      and(calldataload(0x4), sub(exp(0x2, 0xa0), 0x1))\n      jump(tag_29)\n        /* \"contracts/Hish/WBUSD/contract.sol\":272:292  address public owner */\n    tag_7:\n      callvalue\n        /* \"--CODEGEN--\":8:17   */\n      dup1\n        /* \"--CODEGEN--\":5:7   */\n      iszero\n      tag_30\n      jumpi\n        /* \"--CODEGEN--\":30:31   */\n      0x0\n        /* \"--CODEGEN--\":27:28   */\n      dup1\n        /* \"--CODEGEN--\":20:32   */\n      revert\n        /* \"--CODEGEN--\":5:7   */\n    tag_30:\n        /* \"contracts/Hish/WBUSD/contract.sol\":272:292  address public owner */\n      pop\n      tag_31\n      jump(tag_32)\n    tag_31:\n      0x40\n      dup1\n      mload\n      sub(exp(0x2, 0xa0), 0x1)\n      swap1\n      swap3\n      and\n      dup3\n      mstore\n      mload\n      swap1\n      dup2\n      swap1\n      sub\n      0x20\n      add\n      swap1\n      return\n        /* \"contracts/Hish/WBUSD/contract.sol\":123:152  string public symbol = \"WUSD\" */\n    tag_8:\n      callvalue\n        /* \"--CODEGEN--\":8:17   */\n      dup1\n        /* \"--CODEGEN--\":5:7   */\n      iszero\n      tag_33\n      jumpi\n        /* \"--CODEGEN--\":30:31   */\n      0x0\n        /* \"--CODEGEN--\":27:28   */\n      dup1\n        /* \"--CODEGEN--\":20:32   */\n      revert\n        /* \"--CODEGEN--\":5:7   */\n    tag_33:\n        /* \"contracts/Hish/WBUSD/contract.sol\":123:152  string public symbol = \"WUSD\" */\n      pop\n      tag_12\n      jump(tag_35)\n        /* \"contracts/Hish/WBUSD/contract.sol\":1187:1559  function mint(uint256 _amount) public onlyOwner returns (bool success) {... */\n    tag_9:\n      callvalue\n        /* \"--CODEGEN--\":8:17   */\n      dup1\n        /* \"--CODEGEN--\":5:7   */\n      iszero\n      tag_40\n      jumpi\n        /* \"--CODEGEN--\":30:31   */\n      0x0\n        /* \"--CODEGEN--\":27:28   */\n      dup1\n        /* \"--CODEGEN--\":20:32   */\n      revert\n        /* \"--CODEGEN--\":5:7   */\n    tag_40:\n      pop\n        /* \"contracts/Hish/WBUSD/contract.sol\":1187:1559  function mint(uint256 _amount) public onlyOwner returns (bool success) {... */\n      tag_25\n      calldataload(0x4)\n      jump(tag_42)\n        /* \"contracts/Hish/WBUSD/contract.sol\":823:1181  function transfer(address _to, uint256 _value) public returns (bool success) {... */\n    tag_10:\n      callvalue\n        /* \"--CODEGEN--\":8:17   */\n      dup1\n        /* \"--CODEGEN--\":5:7   */\n      iszero\n      tag_43\n      jumpi\n        /* \"--CODEGEN--\":30:31   */\n      0x0\n        /* \"--CODEGEN--\":27:28   */\n      dup1\n        /* \"--CODEGEN--\":20:32   */\n      revert\n        /* \"--CODEGEN--\":5:7   */\n    tag_43:\n      pop\n        /* \"contracts/Hish/WBUSD/contract.sol\":823:1181  function transfer(address _to, uint256 _value) public returns (bool success) {... */\n      tag_25\n      and(calldataload(0x4), sub(exp(0x2, 0xa0), 0x1))\n      calldataload(0x24)\n      jump(tag_45)\n        /* \"contracts/Hish/WBUSD/contract.sol\":85:117  string public name = \"WethioUSD\" */\n    tag_13:\n      0x0\n      dup1\n      sload\n      0x40\n      dup1\n      mload\n      0x20\n      0x2\n      0x1\n      dup6\n      and\n      iszero\n      0x100\n      mul\n      not(0x0)\n      add\n      swap1\n      swap5\n      and\n      swap4\n      swap1\n      swap4\n      div\n      0x1f\n      dup2\n      add\n      dup5\n      swap1\n      div\n      dup5\n      mul\n      dup3\n      add\n      dup5\n      add\n      swap1\n      swap3\n      mstore\n      dup2\n      dup2\n      mstore\n      swap3\n      swap2\n      dup4\n      add\n      dup3\n      dup3\n      dup1\n      iszero\n      tag_46\n      jumpi\n      dup1\n      0x1f\n      lt\n      tag_47\n      jumpi\n      0x100\n      dup1\n      dup4\n      sload\n      div\n      mul\n      dup4\n      mstore\n      swap2\n      0x20\n      add\n      swap2\n      jump(tag_46)\n    tag_47:\n      dup3\n      add\n      swap2\n      swap1\n      0x0\n      mstore\n      keccak256(0x0, 0x20)\n      swap1\n    tag_48:\n      dup2\n      sload\n      dup2\n      mstore\n      swap1\n      0x1\n      add\n      swap1\n      0x20\n      add\n      dup1\n      dup4\n      gt\n      tag_48\n      jumpi\n      dup3\n      swap1\n      sub\n      0x1f\n      and\n      dup3\n      add\n      swap2\n    tag_46:\n      pop\n      pop\n      pop\n      pop\n      pop\n      dup2\n      jump\t// out\n        /* \"contracts/Hish/WBUSD/contract.sol\":189:215  uint256 public totalSupply */\n    tag_20:\n      sload(0x3)\n      dup2\n      jump\t// out\n        /* \"contracts/Hish/WBUSD/contract.sol\":158:183  uint8 public decimals = 2 */\n    tag_23:\n      and(0xff, sload(0x2))\n      dup2\n      jump\t// out\n        /* \"contracts/Hish/WBUSD/contract.sol\":1565:2035  function burn(uint256 _amount) public onlyOwner returns (bool success) {... */\n    tag_26:\n        /* \"contracts/Hish/WBUSD/contract.sol\":534:539  owner */\n      sload(0x5)\n        /* \"contracts/Hish/WBUSD/contract.sol\":1622:1634  bool success */\n      0x0\n      swap1\n      dup2\n      swap1\n      sub(exp(0x2, 0xa0), 0x1)\n        /* \"contracts/Hish/WBUSD/contract.sol\":534:539  owner */\n      and\n        /* \"contracts/Hish/WBUSD/contract.sol\":520:530  msg.sender */\n      caller\n        /* \"contracts/Hish/WBUSD/contract.sol\":520:539  msg.sender == owner */\n      eq\n        /* \"contracts/Hish/WBUSD/contract.sol\":512:581  require(msg.sender == owner, \"Only the owner can call this function\") */\n      tag_50\n      jumpi\n      0x40\n      dup1\n      mload\n      mul(0x461bcd, exp(0x2, 0xe5))\n      dup2\n      mstore\n      0x20\n      0x4\n      dup3\n      add\n      mstore\n      0x25\n      0x24\n      dup3\n      add\n      mstore\n      0x4f6e6c7920746865206f776e65722063616e2063616c6c20746869732066756e\n      0x44\n      dup3\n      add\n      mstore\n      0x6374696f6e000000000000000000000000000000000000000000000000000000\n      0x64\n      dup3\n      add\n      mstore\n      swap1\n      mload\n      swap1\n      dup2\n      swap1\n      sub\n      0x84\n      add\n      swap1\n      revert\n    tag_50:\n        /* \"contracts/Hish/WBUSD/contract.sol\":1664:1665  0 */\n      0x0\n        /* \"contracts/Hish/WBUSD/contract.sol\":1654:1665  _amount > 0 */\n      dup4\n      gt\n        /* \"contracts/Hish/WBUSD/contract.sol\":1646:1709  require(_amount > 0, \"Burn amount should be greater than zero\") */\n      tag_52\n      jumpi\n      0x40\n      dup1\n      mload\n      mul(0x461bcd, exp(0x2, 0xe5))\n      dup2\n      mstore\n      0x20\n      0x4\n      dup3\n      add\n      mstore\n      0x27\n      0x24\n      dup3\n      add\n      mstore\n      0x4275726e20616d6f756e742073686f756c642062652067726561746572207468\n      0x44\n      dup3\n      add\n      mstore\n      0x616e207a65726f00000000000000000000000000000000000000000000000000\n      0x64\n      dup3\n      add\n      mstore\n      swap1\n      mload\n      swap1\n      dup2\n      swap1\n      sub\n      0x84\n      add\n      swap1\n      revert\n    tag_52:\n      pop\n        /* \"contracts/Hish/WBUSD/contract.sol\":1750:1758  decimals */\n      sload(0x2)\n        /* \"contracts/Hish/WBUSD/contract.sol\":1786:1796  msg.sender */\n      caller\n        /* \"contracts/Hish/WBUSD/contract.sol\":1750:1758  decimals */\n      0x0\n        /* \"contracts/Hish/WBUSD/contract.sol\":1776:1797  balanceOf[msg.sender] */\n      swap1\n      dup2\n      mstore\n        /* \"contracts/Hish/WBUSD/contract.sol\":1776:1785  balanceOf */\n      0x4\n        /* \"contracts/Hish/WBUSD/contract.sol\":1776:1797  balanceOf[msg.sender] */\n      0x20\n      mstore\n      0x40\n      swap1\n      keccak256\n      sload\n        /* \"contracts/Hish/WBUSD/contract.sol\":1750:1758  decimals */\n      0xff\n      swap2\n      dup3\n      and\n        /* \"contracts/Hish/WBUSD/contract.sol\":1746:1748  10 */\n      0xa\n        /* \"contracts/Hish/WBUSD/contract.sol\":1746:1758  10**decimals */\n      exp\n        /* \"contracts/Hish/WBUSD/contract.sol\":1736:1758  _amount * 10**decimals */\n      swap1\n      swap2\n      and\n      dup4\n      mul\n      swap1\n        /* \"contracts/Hish/WBUSD/contract.sol\":1776:1807  balanceOf[msg.sender] >= amount */\n      dup2\n      gt\n      iszero\n        /* \"contracts/Hish/WBUSD/contract.sol\":1768:1840  require(balanceOf[msg.sender] >= amount, \"Insufficient balance to burn\") */\n      tag_53\n      jumpi\n      0x40\n      dup1\n      mload\n      mul(0x461bcd, exp(0x2, 0xe5))\n      dup2\n      mstore\n      0x20\n      0x4\n      dup3\n      add\n      mstore\n      0x1c\n      0x24\n      dup3\n      add\n      mstore\n      0x496e73756666696369656e742062616c616e636520746f206275726e00000000\n      0x44\n      dup3\n      add\n      mstore\n      swap1\n      mload\n      swap1\n      dup2\n      swap1\n      sub\n      0x64\n      add\n      swap1\n      revert\n    tag_53:\n        /* \"contracts/Hish/WBUSD/contract.sol\":1861:1871  msg.sender */\n      caller\n        /* \"contracts/Hish/WBUSD/contract.sol\":1851:1872  balanceOf[msg.sender] */\n      0x0\n      dup2\n      dup2\n      mstore\n        /* \"contracts/Hish/WBUSD/contract.sol\":1851:1860  balanceOf */\n      0x4\n        /* \"contracts/Hish/WBUSD/contract.sol\":1851:1872  balanceOf[msg.sender] */\n      0x20\n      swap1\n      dup2\n      mstore\n      0x40\n      swap2\n      dup3\n      swap1\n      keccak256\n        /* \"contracts/Hish/WBUSD/contract.sol\":1851:1882  balanceOf[msg.sender] -= amount */\n      dup1\n      sload\n      dup6\n      swap1\n      sub\n      swap1\n      sstore\n        /* \"contracts/Hish/WBUSD/contract.sol\":1892:1903  totalSupply */\n      0x3\n        /* \"contracts/Hish/WBUSD/contract.sol\":1892:1913  totalSupply -= amount */\n      dup1\n      sload\n      dup6\n      swap1\n      sub\n      swap1\n      sstore\n        /* \"contracts/Hish/WBUSD/contract.sol\":1928:1952  Burn(msg.sender, amount) */\n      dup2\n      mload\n      dup5\n      dup2\n      mstore\n      swap2\n      mload\n      0xcc16f5dbb4873280815c1ee09dbd06736cffcc184412cf7a71a0fdb75d397ca5\n      swap3\n      dup2\n      swap1\n      sub\n      swap1\n      swap2\n      add\n      swap1\n      log2\n        /* \"contracts/Hish/WBUSD/contract.sol\":1967:2007  Transfer(msg.sender, address(0), amount) */\n      0x40\n      dup1\n      mload\n      dup3\n      dup2\n      mstore\n      swap1\n      mload\n        /* \"contracts/Hish/WBUSD/contract.sol\":1996:1997  0 */\n      0x0\n      swap2\n        /* \"contracts/Hish/WBUSD/contract.sol\":1976:1986  msg.sender */\n      caller\n      swap2\n        /* \"contracts/Hish/WBUSD/contract.sol\":1967:2007  Transfer(msg.sender, address(0), amount) */\n      0xddf252ad1be2c89b69c2b068fc378daa952ba7f163c4a11628f55a4df523b3ef\n      swap2\n      dup2\n      swap1\n      sub\n      0x20\n      add\n      swap1\n      log3\n      pop\n        /* \"contracts/Hish/WBUSD/contract.sol\":2024:2028  true */\n      0x1\n      swap3\n        /* \"contracts/Hish/WBUSD/contract.sol\":1565:2035  function burn(uint256 _amount) public onlyOwner returns (bool success) {... */\n      swap2\n      pop\n      pop\n      jump\t// out\n        /* \"contracts/Hish/WBUSD/contract.sol\":222:266  mapping(address => uint256) public balanceOf */\n    tag_29:\n      mstore(0x20, 0x4)\n      0x0\n      swap1\n      dup2\n      mstore\n      0x40\n      swap1\n      keccak256\n      sload\n      dup2\n      jump\t// out\n        /* \"contracts/Hish/WBUSD/contract.sol\":272:292  address public owner */\n    tag_32:\n      and(sub(exp(0x2, 0xa0), 0x1), sload(0x5))\n      dup2\n      jump\t// out\n        /* \"contracts/Hish/WBUSD/contract.sol\":123:152  string public symbol = \"WUSD\" */\n    tag_35:\n      0x1\n      dup1\n      sload\n      0x40\n      dup1\n      mload\n      0x20\n      0x2\n      dup5\n      dup7\n      and\n      iszero\n      0x100\n      mul\n      not(0x0)\n      add\n      swap1\n      swap5\n      and\n      swap4\n      swap1\n      swap4\n      div\n      0x1f\n      dup2\n      add\n      dup5\n      swap1\n      div\n      dup5\n      mul\n      dup3\n      add\n      dup5\n      add\n      swap1\n      swap3\n      mstore\n      dup2\n      dup2\n      mstore\n      swap3\n      swap2\n      dup4\n      add\n      dup3\n      dup3\n      dup1\n      iszero\n      tag_46\n      jumpi\n      dup1\n      0x1f\n      lt\n      tag_47\n      jumpi\n      0x100\n      dup1\n      dup4\n      sload\n      div\n      mul\n      dup4\n      mstore\n      swap2\n      0x20\n      add\n      swap2\n      jump(tag_46)\n        /* \"contracts/Hish/WBUSD/contract.sol\":1187:1559  function mint(uint256 _amount) public onlyOwner returns (bool success) {... */\n    tag_42:\n        /* \"contracts/Hish/WBUSD/contract.sol\":534:539  owner */\n      sload(0x5)\n        /* \"contracts/Hish/WBUSD/contract.sol\":1244:1256  bool success */\n      0x0\n      swap1\n      dup2\n      swap1\n      sub(exp(0x2, 0xa0), 0x1)\n        /* \"contracts/Hish/WBUSD/contract.sol\":534:539  owner */\n      and\n        /* \"contracts/Hish/WBUSD/contract.sol\":520:530  msg.sender */\n      caller\n        /* \"contracts/Hish/WBUSD/contract.sol\":520:539  msg.sender == owner */\n      eq\n        /* \"contracts/Hish/WBUSD/contract.sol\":512:581  require(msg.sender == owner, \"Only the owner can call this function\") */\n      tag_58\n      jumpi\n      0x40\n      dup1\n      mload\n      mul(0x461bcd, exp(0x2, 0xe5))\n      dup2\n      mstore\n      0x20\n      0x4\n      dup3\n      add\n      mstore\n      0x25\n      0x24\n      dup3\n      add\n      mstore\n      0x4f6e6c7920746865206f776e65722063616e2063616c6c20746869732066756e\n      0x44\n      dup3\n      add\n      mstore\n      0x6374696f6e000000000000000000000000000000000000000000000000000000\n      0x64\n      dup3\n      add\n      mstore\n      swap1\n      mload\n      swap1\n      dup2\n      swap1\n      sub\n      0x84\n      add\n      swap1\n      revert\n    tag_58:\n        /* \"contracts/Hish/WBUSD/contract.sol\":1286:1287  0 */\n      0x0\n        /* \"contracts/Hish/WBUSD/contract.sol\":1276:1287  _amount > 0 */\n      dup4\n      gt\n        /* \"contracts/Hish/WBUSD/contract.sol\":1268:1331  require(_amount > 0, \"Mint amount should be greater than zero\") */\n      tag_60\n      jumpi\n      0x40\n      dup1\n      mload\n      mul(0x461bcd, exp(0x2, 0xe5))\n      dup2\n      mstore\n      0x20\n      0x4\n      dup3\n      add\n      mstore\n      0x27\n      0x24\n      dup3\n      add\n      mstore\n      0x4d696e7420616d6f756e742073686f756c642062652067726561746572207468\n      0x44\n      dup3\n      add\n      mstore\n      0x616e207a65726f00000000000000000000000000000000000000000000000000\n      0x64\n      dup3\n      add\n      mstore\n      swap1\n      mload\n      swap1\n      dup2\n      swap1\n      sub\n      0x84\n      add\n      swap1\n      revert\n    tag_60:\n      pop\n        /* \"contracts/Hish/WBUSD/contract.sol\":1372:1380  decimals */\n      sload(0x2)\n        /* \"contracts/Hish/WBUSD/contract.sol\":1390:1401  totalSupply */\n      0x3\n        /* \"contracts/Hish/WBUSD/contract.sol\":1390:1411  totalSupply += amount */\n      dup1\n      sload\n        /* \"contracts/Hish/WBUSD/contract.sol\":1372:1380  decimals */\n      0xff\n      swap3\n      dup4\n      and\n        /* \"contracts/Hish/WBUSD/contract.sol\":1368:1370  10 */\n      0xa\n        /* \"contracts/Hish/WBUSD/contract.sol\":1368:1380  10**decimals */\n      exp\n        /* \"contracts/Hish/WBUSD/contract.sol\":1358:1380  _amount * 10**decimals */\n      swap1\n      swap3\n      and\n      dup5\n      mul\n        /* \"contracts/Hish/WBUSD/contract.sol\":1390:1411  totalSupply += amount */\n      swap2\n      dup3\n      add\n      swap1\n      sstore\n        /* \"contracts/Hish/WBUSD/contract.sol\":1431:1436  owner */\n      0x5\n      dup1\n      sload\n      sub(exp(0x2, 0xa0), 0x1)\n      swap1\n      dup2\n      and\n        /* \"contracts/Hish/WBUSD/contract.sol\":1372:1380  decimals */\n      0x0\n        /* \"contracts/Hish/WBUSD/contract.sol\":1421:1437  balanceOf[owner] */\n      swap1\n      dup2\n      mstore\n        /* \"contracts/Hish/WBUSD/contract.sol\":1421:1430  balanceOf */\n      0x4\n        /* \"contracts/Hish/WBUSD/contract.sol\":1421:1437  balanceOf[owner] */\n      0x20\n      swap1\n      dup2\n      mstore\n      0x40\n      swap2\n      dup3\n      swap1\n      keccak256\n        /* \"contracts/Hish/WBUSD/contract.sol\":1421:1447  balanceOf[owner] += amount */\n      dup1\n      sload\n      dup7\n      add\n      swap1\n      sstore\n        /* \"contracts/Hish/WBUSD/contract.sol\":1467:1472  owner */\n      swap3\n      sload\n        /* \"contracts/Hish/WBUSD/contract.sol\":1462:1481  Mint(owner, amount) */\n      dup2\n      mload\n      dup6\n      dup2\n      mstore\n      swap2\n      mload\n        /* \"contracts/Hish/WBUSD/contract.sol\":1467:1472  owner */\n      swap3\n      and\n      swap3\n        /* \"contracts/Hish/WBUSD/contract.sol\":1462:1481  Mint(owner, amount) */\n      0xf6798a560793a54c3bcfe86a93cde1e73087d944c0ea20544137d4121396885\n      swap3\n      swap2\n      dup3\n      swap1\n      sub\n      add\n      swap1\n      log2\n        /* \"contracts/Hish/WBUSD/contract.sol\":1517:1522  owner */\n      sload(0x5)\n        /* \"contracts/Hish/WBUSD/contract.sol\":1496:1531  Transfer(address(0), owner, amount) */\n      0x40\n      dup1\n      mload\n      dup4\n      dup2\n      mstore\n      swap1\n      mload\n      sub(exp(0x2, 0xa0), 0x1)\n        /* \"contracts/Hish/WBUSD/contract.sol\":1517:1522  owner */\n      swap1\n      swap3\n      and\n      swap2\n      0x0\n      swap2\n        /* \"contracts/Hish/WBUSD/contract.sol\":1496:1531  Transfer(address(0), owner, amount) */\n      0xddf252ad1be2c89b69c2b068fc378daa952ba7f163c4a11628f55a4df523b3ef\n      swap2\n      swap1\n      dup2\n      swap1\n      sub\n      0x20\n      add\n      swap1\n      log3\n      pop\n        /* \"contracts/Hish/WBUSD/contract.sol\":1548:1552  true */\n      0x1\n      swap3\n        /* \"contracts/Hish/WBUSD/contract.sol\":1187:1559  function mint(uint256 _amount) public onlyOwner returns (bool success) {... */\n      swap2\n      pop\n      pop\n      jump\t// out\n        /* \"contracts/Hish/WBUSD/contract.sol\":823:1181  function transfer(address _to, uint256 _value) public returns (bool success) {... */\n    tag_45:\n        /* \"contracts/Hish/WBUSD/contract.sol\":928:938  msg.sender */\n      caller\n        /* \"contracts/Hish/WBUSD/contract.sol\":886:898  bool success */\n      0x0\n        /* \"contracts/Hish/WBUSD/contract.sol\":918:939  balanceOf[msg.sender] */\n      swap1\n      dup2\n      mstore\n        /* \"contracts/Hish/WBUSD/contract.sol\":918:927  balanceOf */\n      0x4\n        /* \"contracts/Hish/WBUSD/contract.sol\":918:939  balanceOf[msg.sender] */\n      0x20\n      mstore\n      0x40\n      dup2\n      keccak256\n      sload\n        /* \"contracts/Hish/WBUSD/contract.sol\":918:949  balanceOf[msg.sender] >= _value */\n      dup3\n      gt\n      iszero\n        /* \"contracts/Hish/WBUSD/contract.sol\":910:974  require(balanceOf[msg.sender] >= _value, \"Insufficient balance\") */\n      tag_62\n      jumpi\n      0x40\n      dup1\n      mload\n      mul(0x461bcd, exp(0x2, 0xe5))\n      dup2\n      mstore\n      0x20\n      0x4\n      dup3\n      add\n      mstore\n      0x14\n      0x24\n      dup3\n      add\n      mstore\n      0x496e73756666696369656e742062616c616e6365000000000000000000000000\n      0x44\n      dup3\n      add\n      mstore\n      swap1\n      mload\n      swap1\n      dup2\n      swap1\n      sub\n      0x64\n      add\n      swap1\n      revert\n    tag_62:\n      sub(exp(0x2, 0xa0), 0x1)\n        /* \"contracts/Hish/WBUSD/contract.sol\":992:1009  _to != address(0) */\n      dup4\n      and\n      iszero\n      iszero\n        /* \"contracts/Hish/WBUSD/contract.sol\":984:1029  require(_to != address(0), \"Invalid address\") */\n      tag_63\n      jumpi\n      0x40\n      dup1\n      mload\n      mul(0x461bcd, exp(0x2, 0xe5))\n      dup2\n      mstore\n      0x20\n      0x4\n      dup3\n      add\n      mstore\n      0xf\n      0x24\n      dup3\n      add\n      mstore\n      0x496e76616c696420616464726573730000000000000000000000000000000000\n      0x44\n      dup3\n      add\n      mstore\n      swap1\n      mload\n      swap1\n      dup2\n      swap1\n      sub\n      0x64\n      add\n      swap1\n      revert\n    tag_63:\n        /* \"contracts/Hish/WBUSD/contract.sol\":1050:1060  msg.sender */\n      caller\n        /* \"contracts/Hish/WBUSD/contract.sol\":1040:1061  balanceOf[msg.sender] */\n      0x0\n      dup2\n      dup2\n      mstore\n        /* \"contracts/Hish/WBUSD/contract.sol\":1040:1049  balanceOf */\n      0x4\n        /* \"contracts/Hish/WBUSD/contract.sol\":1040:1061  balanceOf[msg.sender] */\n      0x20\n      swap1\n      dup2\n      mstore\n      0x40\n      dup1\n      dup4\n      keccak256\n        /* \"contracts/Hish/WBUSD/contract.sol\":1040:1071  balanceOf[msg.sender] -= _value */\n      dup1\n      sload\n      dup8\n      swap1\n      sub\n      swap1\n      sstore\n      sub(exp(0x2, 0xa0), 0x1)\n        /* \"contracts/Hish/WBUSD/contract.sol\":1081:1095  balanceOf[_to] */\n      dup8\n      and\n      dup1\n      dup5\n      mstore\n      swap3\n      dup2\n      swap1\n      keccak256\n        /* \"contracts/Hish/WBUSD/contract.sol\":1081:1105  balanceOf[_to] += _value */\n      dup1\n      sload\n      dup8\n      add\n      swap1\n      sstore\n        /* \"contracts/Hish/WBUSD/contract.sol\":1120:1153  Transfer(msg.sender, _to, _value) */\n      dup1\n      mload\n      dup7\n      dup2\n      mstore\n      swap1\n      mload\n        /* \"contracts/Hish/WBUSD/contract.sol\":1081:1095  balanceOf[_to] */\n      swap3\n      swap4\n        /* \"contracts/Hish/WBUSD/contract.sol\":1050:1060  msg.sender */\n      swap3\n        /* \"contracts/Hish/WBUSD/contract.sol\":1120:1153  Transfer(msg.sender, _to, _value) */\n      0xddf252ad1be2c89b69c2b068fc378daa952ba7f163c4a11628f55a4df523b3ef\n      swap3\n      swap2\n      dup2\n      swap1\n      sub\n      swap1\n      swap2\n      add\n      swap1\n      log3\n      pop\n        /* \"contracts/Hish/WBUSD/contract.sol\":1170:1174  true */\n      0x1\n        /* \"contracts/Hish/WBUSD/contract.sol\":823:1181  function transfer(address _to, uint256 _value) public returns (bool success) {... */\n      swap3\n      swap2\n      pop\n      pop\n      jump\t// out\n\n    auxdata: 0xa165627a7a7230582098cf46ab39174abd11b36b9aaa2f5948d479ede2bf0e476208c270403170e71f0029\n}\n",
				"bytecode": {
					"linkReferences": {},
					"object": "60c0604052600960808190527f57657468696f555344000000000000000000000000000000000000000000000060a090815261003e9160009190610120565b506040805180820190915260048082527f5755534400000000000000000000000000000000000000000000000000000000602090920191825261008391600191610120565b506002805460ff19168117905534801561009c57600080fd5b5060058054600160a060020a031916331780825560025460ff908116600a90810a02166003819055600160a060020a039182166000908152600460209081526040808320849055945485519384529451949093169390927fddf252ad1be2c89b69c2b068fc378daa952ba7f163c4a11628f55a4df523b3ef928290030190a36101bb565b828054600181600116156101000203166002900490600052602060002090601f016020900481019282601f1061016157805160ff191683800117855561018e565b8280016001018555821561018e579182015b8281111561018e578251825591602001919060010190610173565b5061019a92915061019e565b5090565b6101b891905b8082111561019a57600081556001016101a4565b90565b6108aa806101ca6000396000f3006080604052600436106100985763ffffffff7c010000000000000000000000000000000000000000000000000000000060003504166306fdde03811461009d57806318160ddd14610127578063313ce5671461014e57806342966c681461017957806370a08231146101a55780638da5cb5b146101c657806395d89b41146101f7578063a0712d681461020c578063a9059cbb14610224575b600080fd5b3480156100a957600080fd5b506100b2610248565b6040805160208082528351818301528351919283929083019185019080838360005b838110156100ec5781810151838201526020016100d4565b50505050905090810190601f1680156101195780820380516001836020036101000a031916815260200191505b509250505060405180910390f35b34801561013357600080fd5b5061013c6102d6565b60408051918252519081900360200190f35b34801561015a57600080fd5b506101636102dc565b6040805160ff9092168252519081900360200190f35b34801561018557600080fd5b506101916004356102e5565b604080519115158252519081900360200190f35b3480156101b157600080fd5b5061013c600160a060020a03600435166104fe565b3480156101d257600080fd5b506101db610510565b60408051600160a060020a039092168252519081900360200190f35b34801561020357600080fd5b506100b261051f565b34801561021857600080fd5b50610191600435610579565b34801561023057600080fd5b50610191600160a060020a0360043516602435610749565b6000805460408051602060026001851615610100026000190190941693909304601f810184900484028201840190925281815292918301828280156102ce5780601f106102a3576101008083540402835291602001916102ce565b820191906000526020600020905b8154815290600101906020018083116102b157829003601f168201915b505050505081565b60035481565b60025460ff1681565b6005546000908190600160a060020a03163314610372576040805160e560020a62461bcd02815260206004820152602560248201527f4f6e6c7920746865206f776e65722063616e2063616c6c20746869732066756e60448201527f6374696f6e000000000000000000000000000000000000000000000000000000606482015290519081900360840190fd5b600083116103f0576040805160e560020a62461bcd02815260206004820152602760248201527f4275726e20616d6f756e742073686f756c64206265206772656174657220746860448201527f616e207a65726f00000000000000000000000000000000000000000000000000606482015290519081900360840190fd5b506002543360009081526004602052604090205460ff918216600a0a909116830290811115610469576040805160e560020a62461bcd02815260206004820152601c60248201527f496e73756666696369656e742062616c616e636520746f206275726e00000000604482015290519081900360640190fd5b3360008181526004602090815260409182902080548590039055600380548590039055815184815291517fcc16f5dbb4873280815c1ee09dbd06736cffcc184412cf7a71a0fdb75d397ca59281900390910190a260408051828152905160009133917fddf252ad1be2c89b69c2b068fc378daa952ba7f163c4a11628f55a4df523b3ef9181900360200190a350600192915050565b60046020526000908152604090205481565b600554600160a060020a031681565b60018054604080516020600284861615610100026000190190941693909304601f810184900484028201840190925281815292918301828280156102ce5780601f106102a3576101008083540402835291602001916102ce565b6005546000908190600160a060020a03163314610606576040805160e560020a62461bcd02815260206004820152602560248201527f4f6e6c7920746865206f776e65722063616e2063616c6c20746869732066756e60448201527f6374696f6e000000000000000000000000000000000000000000000000000000606482015290519081900360840190fd5b60008311610684576040805160e560020a62461bcd02815260206004820152602760248201527f4d696e7420616d6f756e742073686f756c64206265206772656174657220746860448201527f616e207a65726f00000000000000000000000000000000000000000000000000606482015290519081900360840190fd5b506002546003805460ff928316600a0a9092168402918201905560058054600160a060020a039081166000908152600460209081526040918290208054860190559254815185815291519216927f0f6798a560793a54c3bcfe86a93cde1e73087d944c0ea20544137d412139688592918290030190a2600554604080518381529051600160a060020a03909216916000917fddf252ad1be2c89b69c2b068fc378daa952ba7f163c4a11628f55a4df523b3ef919081900360200190a350600192915050565b336000908152600460205260408120548211156107b0576040805160e560020a62461bcd02815260206004820152601460248201527f496e73756666696369656e742062616c616e6365000000000000000000000000604482015290519081900360640190fd5b600160a060020a0383161515610810576040805160e560020a62461bcd02815260206004820152600f60248201527f496e76616c696420616464726573730000000000000000000000000000000000604482015290519081900360640190fd5b33600081815260046020908152604080832080548790039055600160a060020a03871680845292819020805487019055805186815290519293927fddf252ad1be2c89b69c2b068fc378daa952ba7f163c4a11628f55a4df523b3ef929181900390910190a3506001929150505600a165627a7a7230582098cf46ab39174abd11b36b9aaa2f5948d479ede2bf0e476208c270403170e71f0029",
					"opcodes": "PUSH1 0xC0 PUSH1 0x40 MSTORE PUSH1 0x9 PUSH1 0x80 DUP2 SWAP1 MSTORE PUSH32 0x57657468696F5553440000000000000000000000000000000000000000000000 PUSH1 0xA0 SWAP1 DUP2 MSTORE PUSH2 0x3E SWAP2 PUSH1 0x0 SWAP2 SWAP1 PUSH2 0x120 JUMP JUMPDEST POP PUSH1 0x40 DUP1 MLOAD DUP1 DUP3 ADD SWAP1 SWAP2 MSTORE PUSH1 0x4 DUP1 DUP3 MSTORE PUSH32 0x5755534400000000000000000000000000000000000000000000000000000000 PUSH1 0x20 SWAP1 SWAP3 ADD SWAP2 DUP3 MSTORE PUSH2 0x83 SWAP2 PUSH1 0x1 SWAP2 PUSH2 0x120 JUMP JUMPDEST POP PUSH1 0x2 DUP1 SLOAD PUSH1 0xFF NOT AND DUP2 OR SWAP1 SSTORE CALLVALUE DUP1 ISZERO PUSH2 0x9C JUMPI PUSH1 0x0 DUP1 REVERT JUMPDEST POP PUSH1 0x5 DUP1 SLOAD PUSH1 0x1 PUSH1 0xA0 PUSH1 0x2 EXP SUB NOT AND CALLER OR DUP1 DUP3 SSTORE PUSH1 0x2 SLOAD PUSH1 0xFF SWAP1 DUP2 AND PUSH1 0xA SWAP1 DUP2 EXP MUL AND PUSH1 0x3 DUP2 SWAP1 SSTORE PUSH1 0x1 PUSH1 0xA0 PUSH1 0x2 EXP SUB SWAP2 DUP3 AND PUSH1 0x0 SWAP1 DUP2 MSTORE PUSH1 0x4 PUSH1 0x20 SWAP1 DUP2 MSTORE PUSH1 0x40 DUP1 DUP4 KECCAK256 DUP5 SWAP1 SSTORE SWAP5 SLOAD DUP6 MLOAD SWAP4 DUP5 MSTORE SWAP5 MLOAD SWAP5 SWAP1 SWAP4 AND SWAP4 SWAP1 SWAP3 PUSH32 0xDDF252AD1BE2C89B69C2B068FC378DAA952BA7F163C4A11628F55A4DF523B3EF SWAP3 DUP3 SWAP1 SUB ADD SWAP1 LOG3 PUSH2 0x1BB JUMP JUMPDEST DUP3 DUP1 SLOAD PUSH1 0x1 DUP2 PUSH1 0x1 AND ISZERO PUSH2 0x100 MUL SUB AND PUSH1 0x2 SWAP1 DIV SWAP1 PUSH1 0x0 MSTORE PUSH1 0x20 PUSH1 0x0 KECCAK256 SWAP1 PUSH1 0x1F ADD PUSH1 0x20 SWAP1 DIV DUP2 ADD SWAP3 DUP3 PUSH1 0x1F LT PUSH2 0x161 JUMPI DUP1 MLOAD PUSH1 0xFF NOT AND DUP4 DUP1 ADD OR DUP6 SSTORE PUSH2 0x18E JUMP JUMPDEST DUP3 DUP1 ADD PUSH1 0x1 ADD DUP6 SSTORE DUP3 ISZERO PUSH2 0x18E JUMPI SWAP2 DUP3 ADD JUMPDEST DUP3 DUP2 GT ISZERO PUSH2 0x18E JUMPI DUP3 MLOAD DUP3 SSTORE SWAP2 PUSH1 0x20 ADD SWAP2 SWAP1 PUSH1 0x1 ADD SWAP1 PUSH2 0x173 JUMP JUMPDEST POP PUSH2 0x19A SWAP3 SWAP2 POP PUSH2 0x19E JUMP JUMPDEST POP SWAP1 JUMP JUMPDEST PUSH2 0x1B8 SWAP2 SWAP1 JUMPDEST DUP1 DUP3 GT ISZERO PUSH2 0x19A JUMPI PUSH1 0x0 DUP2 SSTORE PUSH1 0x1 ADD PUSH2 0x1A4 JUMP JUMPDEST SWAP1 JUMP JUMPDEST PUSH2 0x8AA DUP1 PUSH2 0x1CA PUSH1 0x0 CODECOPY PUSH1 0x0 RETURN STOP PUSH1 0x80 PUSH1 0x40 MSTORE PUSH1 0x4 CALLDATASIZE LT PUSH2 0x98 JUMPI PUSH4 0xFFFFFFFF PUSH29 0x100000000000000000000000000000000000000000000000000000000 PUSH1 0x0 CALLDATALOAD DIV AND PUSH4 0x6FDDE03 DUP2 EQ PUSH2 0x9D JUMPI DUP1 PUSH4 0x18160DDD EQ PUSH2 0x127 JUMPI DUP1 PUSH4 0x313CE567 EQ PUSH2 0x14E JUMPI DUP1 PUSH4 0x42966C68 EQ PUSH2 0x179 JUMPI DUP1 PUSH4 0x70A08231 EQ PUSH2 0x1A5 JUMPI DUP1 PUSH4 0x8DA5CB5B EQ PUSH2 0x1C6 JUMPI DUP1 PUSH4 0x95D89B41 EQ PUSH2 0x1F7 JUMPI DUP1 PUSH4 0xA0712D68 EQ PUSH2 0x20C JUMPI DUP1 PUSH4 0xA9059CBB EQ PUSH2 0x224 JUMPI JUMPDEST PUSH1 0x0 DUP1 REVERT JUMPDEST CALLVALUE DUP1 ISZERO PUSH2 0xA9 JUMPI PUSH1 0x0 DUP1 REVERT JUMPDEST POP PUSH2 0xB2 PUSH2 0x248 JUMP JUMPDEST PUSH1 0x40 DUP1 MLOAD PUSH1 0x20 DUP1 DUP3 MSTORE DUP4 MLOAD DUP2 DUP4 ADD MSTORE DUP4 MLOAD SWAP2 SWAP3 DUP4 SWAP3 SWAP1 DUP4 ADD SWAP2 DUP6 ADD SWAP1 DUP1 DUP4 DUP4 PUSH1 0x0 JUMPDEST DUP4 DUP2 LT ISZERO PUSH2 0xEC JUMPI DUP2 DUP2 ADD MLOAD DUP4 DUP3 ADD MSTORE PUSH1 0x20 ADD PUSH2 0xD4 JUMP JUMPDEST POP POP POP POP SWAP1 POP SWAP1 DUP2 ADD SWAP1 PUSH1 0x1F AND DUP1 ISZERO PUSH2 0x119 JUMPI DUP1 DUP3 SUB DUP1 MLOAD PUSH1 0x1 DUP4 PUSH1 0x20 SUB PUSH2 0x100 EXP SUB NOT AND DUP2 MSTORE PUSH1 0x20 ADD SWAP2 POP JUMPDEST POP SWAP3 POP POP POP PUSH1 0x40 MLOAD DUP1 SWAP2 SUB SWAP1 RETURN JUMPDEST CALLVALUE DUP1 ISZERO PUSH2 0x133 JUMPI PUSH1 0x0 DUP1 REVERT JUMPDEST POP PUSH2 0x13C PUSH2 0x2D6 JUMP JUMPDEST PUSH1 0x40 DUP1 MLOAD SWAP2 DUP3 MSTORE MLOAD SWAP1 DUP2 SWAP1 SUB PUSH1 0x20 ADD SWAP1 RETURN JUMPDEST CALLVALUE DUP1 ISZERO PUSH2 0x15A JUMPI PUSH1 0x0 DUP1 REVERT JUMPDEST POP PUSH2 0x163 PUSH2 0x2DC JUMP JUMPDEST PUSH1 0x40 DUP1 MLOAD PUSH1 0xFF SWAP1 SWAP3 AND DUP3 MSTORE MLOAD SWAP1 DUP2 SWAP1 SUB PUSH1 0x20 ADD SWAP1 RETURN JUMPDEST CALLVALUE DUP1 ISZERO PUSH2 0x185 JUMPI PUSH1 0x0 DUP1 REVERT JUMPDEST POP PUSH2 0x191 PUSH1 0x4 CALLDATALOAD PUSH2 0x2E5 JUMP JUMPDEST PUSH1 0x40 DUP1 MLOAD SWAP2 ISZERO ISZERO DUP3 MSTORE MLOAD SWAP1 DUP2 SWAP1 SUB PUSH1 0x20 ADD SWAP1 RETURN JUMPDEST CALLVALUE DUP1 ISZERO PUSH2 0x1B1 JUMPI PUSH1 0x0 DUP1 REVERT JUMPDEST POP PUSH2 0x13C PUSH1 0x1 PUSH1 0xA0 PUSH1 0x2 EXP SUB PUSH1 0x4 CALLDATALOAD AND PUSH2 0x4FE JUMP JUMPDEST CALLVALUE DUP1 ISZERO PUSH2 0x1D2 JUMPI PUSH1 0x0 DUP1 REVERT JUMPDEST POP PUSH2 0x1DB PUSH2 0x510 JUMP JUMPDEST PUSH1 0x40 DUP1 MLOAD PUSH1 0x1 PUSH1 0xA0 PUSH1 0x2 EXP SUB SWAP1 SWAP3 AND DUP3 MSTORE MLOAD SWAP1 DUP2 SWAP1 SUB PUSH1 0x20 ADD SWAP1 RETURN JUMPDEST CALLVALUE DUP1 ISZERO PUSH2 0x203 JUMPI PUSH1 0x0 DUP1 REVERT JUMPDEST POP PUSH2 0xB2 PUSH2 0x51F JUMP JUMPDEST CALLVALUE DUP1 ISZERO PUSH2 0x218 JUMPI PUSH1 0x0 DUP1 REVERT JUMPDEST POP PUSH2 0x191 PUSH1 0x4 CALLDATALOAD PUSH2 0x579 JUMP JUMPDEST CALLVALUE DUP1 ISZERO PUSH2 0x230 JUMPI PUSH1 0x0 DUP1 REVERT JUMPDEST POP PUSH2 0x191 PUSH1 0x1 PUSH1 0xA0 PUSH1 0x2 EXP SUB PUSH1 0x4 CALLDATALOAD AND PUSH1 0x24 CALLDATALOAD PUSH2 0x749 JUMP JUMPDEST PUSH1 0x0 DUP1 SLOAD PUSH1 0x40 DUP1 MLOAD PUSH1 0x20 PUSH1 0x2 PUSH1 0x1 DUP6 AND ISZERO PUSH2 0x100 MUL PUSH1 0x0 NOT ADD SWAP1 SWAP5 AND SWAP4 SWAP1 SWAP4 DIV PUSH1 0x1F DUP2 ADD DUP5 SWAP1 DIV DUP5 MUL DUP3 ADD DUP5 ADD SWAP1 SWAP3 MSTORE DUP2 DUP2 MSTORE SWAP3 SWAP2 DUP4 ADD DUP3 DUP3 DUP1 ISZERO PUSH2 0x2CE JUMPI DUP1 PUSH1 0x1F LT PUSH2 0x2A3 JUMPI PUSH2 0x100 DUP1 DUP4 SLOAD DIV MUL DUP4 MSTORE SWAP2 PUSH1 0x20 ADD SWAP2 PUSH2 0x2CE JUMP JUMPDEST DUP3 ADD SWAP2 SWAP1 PUSH1 0x0 MSTORE PUSH1 0x20 PUSH1 0x0 KECCAK256 SWAP1 JUMPDEST DUP2 SLOAD DUP2 MSTORE SWAP1 PUSH1 0x1 ADD SWAP1 PUSH1 0x20 ADD DUP1 DUP4 GT PUSH2 0x2B1 JUMPI DUP3 SWAP1 SUB PUSH1 0x1F AND DUP3 ADD SWAP2 JUMPDEST POP POP POP POP POP DUP2 JUMP JUMPDEST PUSH1 0x3 SLOAD DUP2 JUMP JUMPDEST PUSH1 0x2 SLOAD PUSH1 0xFF AND DUP2 JUMP JUMPDEST PUSH1 0x5 SLOAD PUSH1 0x0 SWAP1 DUP2 SWAP1 PUSH1 0x1 PUSH1 0xA0 PUSH1 0x2 EXP SUB AND CALLER EQ PUSH2 0x372 JUMPI PUSH1 0x40 DUP1 MLOAD PUSH1 0xE5 PUSH1 0x2 EXP PUSH3 0x461BCD MUL DUP2 MSTORE PUSH1 0x20 PUSH1 0x4 DUP3 ADD MSTORE PUSH1 0x25 PUSH1 0x24 DUP3 ADD MSTORE PUSH32 0x4F6E6C7920746865206F776E65722063616E2063616C6C20746869732066756E PUSH1 0x44 DUP3 ADD MSTORE PUSH32 0x6374696F6E000000000000000000000000000000000000000000000000000000 PUSH1 0x64 DUP3 ADD MSTORE SWAP1 MLOAD SWAP1 DUP2 SWAP1 SUB PUSH1 0x84 ADD SWAP1 REVERT JUMPDEST PUSH1 0x0 DUP4 GT PUSH2 0x3F0 JUMPI PUSH1 0x40 DUP1 MLOAD PUSH1 0xE5 PUSH1 0x2 EXP PUSH3 0x461BCD MUL DUP2 MSTORE PUSH1 0x20 PUSH1 0x4 DUP3 ADD MSTORE PUSH1 0x27 PUSH1 0x24 DUP3 ADD MSTORE PUSH32 0x4275726E20616D6F756E742073686F756C642062652067726561746572207468 PUSH1 0x44 DUP3 ADD MSTORE PUSH32 0x616E207A65726F00000000000000000000000000000000000000000000000000 PUSH1 0x64 DUP3 ADD MSTORE SWAP1 MLOAD SWAP1 DUP2 SWAP1 SUB PUSH1 0x84 ADD SWAP1 REVERT JUMPDEST POP PUSH1 0x2 SLOAD CALLER PUSH1 0x0 SWAP1 DUP2 MSTORE PUSH1 0x4 PUSH1 0x20 MSTORE PUSH1 0x40 SWAP1 KECCAK256 SLOAD PUSH1 0xFF SWAP2 DUP3 AND PUSH1 0xA EXP SWAP1 SWAP2 AND DUP4 MUL SWAP1 DUP2 GT ISZERO PUSH2 0x469 JUMPI PUSH1 0x40 DUP1 MLOAD PUSH1 0xE5 PUSH1 0x2 EXP PUSH3 0x461BCD MUL DUP2 MSTORE PUSH1 0x20 PUSH1 0x4 DUP3 ADD MSTORE PUSH1 0x1C PUSH1 0x24 DUP3 ADD MSTORE PUSH32 0x496E73756666696369656E742062616C616E636520746F206275726E00000000 PUSH1 0x44 DUP3 ADD MSTORE SWAP1 MLOAD SWAP1 DUP2 SWAP1 SUB PUSH1 0x64 ADD SWAP1 REVERT JUMPDEST CALLER PUSH1 0x0 DUP2 DUP2 MSTORE PUSH1 0x4 PUSH1 0x20 SWAP1 DUP2 MSTORE PUSH1 0x40 SWAP2 DUP3 SWAP1 KECCAK256 DUP1 SLOAD DUP6 SWAP1 SUB SWAP1 SSTORE PUSH1 0x3 DUP1 SLOAD DUP6 SWAP1 SUB SWAP1 SSTORE DUP2 MLOAD DUP5 DUP2 MSTORE SWAP2 MLOAD PUSH32 0xCC16F5DBB4873280815C1EE09DBD06736CFFCC184412CF7A71A0FDB75D397CA5 SWAP3 DUP2 SWAP1 SUB SWAP1 SWAP2 ADD SWAP1 LOG2 PUSH1 0x40 DUP1 MLOAD DUP3 DUP2 MSTORE SWAP1 MLOAD PUSH1 0x0 SWAP2 CALLER SWAP2 PUSH32 0xDDF252AD1BE2C89B69C2B068FC378DAA952BA7F163C4A11628F55A4DF523B3EF SWAP2 DUP2 SWAP1 SUB PUSH1 0x20 ADD SWAP1 LOG3 POP PUSH1 0x1 SWAP3 SWAP2 POP POP JUMP JUMPDEST PUSH1 0x4 PUSH1 0x20 MSTORE PUSH1 0x0 SWAP1 DUP2 MSTORE PUSH1 0x40 SWAP1 KECCAK256 SLOAD DUP2 JUMP JUMPDEST PUSH1 0x5 SLOAD PUSH1 0x1 PUSH1 0xA0 PUSH1 0x2 EXP SUB AND DUP2 JUMP JUMPDEST PUSH1 0x1 DUP1 SLOAD PUSH1 0x40 DUP1 MLOAD PUSH1 0x20 PUSH1 0x2 DUP5 DUP7 AND ISZERO PUSH2 0x100 MUL PUSH1 0x0 NOT ADD SWAP1 SWAP5 AND SWAP4 SWAP1 SWAP4 DIV PUSH1 0x1F DUP2 ADD DUP5 SWAP1 DIV DUP5 MUL DUP3 ADD DUP5 ADD SWAP1 SWAP3 MSTORE DUP2 DUP2 MSTORE SWAP3 SWAP2 DUP4 ADD DUP3 DUP3 DUP1 ISZERO PUSH2 0x2CE JUMPI DUP1 PUSH1 0x1F LT PUSH2 0x2A3 JUMPI PUSH2 0x100 DUP1 DUP4 SLOAD DIV MUL DUP4 MSTORE SWAP2 PUSH1 0x20 ADD SWAP2 PUSH2 0x2CE JUMP JUMPDEST PUSH1 0x5 SLOAD PUSH1 0x0 SWAP1 DUP2 SWAP1 PUSH1 0x1 PUSH1 0xA0 PUSH1 0x2 EXP SUB AND CALLER EQ PUSH2 0x606 JUMPI PUSH1 0x40 DUP1 MLOAD PUSH1 0xE5 PUSH1 0x2 EXP PUSH3 0x461BCD MUL DUP2 MSTORE PUSH1 0x20 PUSH1 0x4 DUP3 ADD MSTORE PUSH1 0x25 PUSH1 0x24 DUP3 ADD MSTORE PUSH32 0x4F6E6C7920746865206F776E65722063616E2063616C6C20746869732066756E PUSH1 0x44 DUP3 ADD MSTORE PUSH32 0x6374696F6E000000000000000000000000000000000000000000000000000000 PUSH1 0x64 DUP3 ADD MSTORE SWAP1 MLOAD SWAP1 DUP2 SWAP1 SUB PUSH1 0x84 ADD SWAP1 REVERT JUMPDEST PUSH1 0x0 DUP4 GT PUSH2 0x684 JUMPI PUSH1 0x40 DUP1 MLOAD PUSH1 0xE5 PUSH1 0x2 EXP PUSH3 0x461BCD MUL DUP2 MSTORE PUSH1 0x20 PUSH1 0x4 DUP3 ADD MSTORE PUSH1 0x27 PUSH1 0x24 DUP3 ADD MSTORE PUSH32 0x4D696E7420616D6F756E742073686F756C642062652067726561746572207468 PUSH1 0x44 DUP3 ADD MSTORE PUSH32 0x616E207A65726F00000000000000000000000000000000000000000000000000 PUSH1 0x64 DUP3 ADD MSTORE SWAP1 MLOAD SWAP1 DUP2 SWAP1 SUB PUSH1 0x84 ADD SWAP1 REVERT JUMPDEST POP PUSH1 0x2 SLOAD PUSH1 0x3 DUP1 SLOAD PUSH1 0xFF SWAP3 DUP4 AND PUSH1 0xA EXP SWAP1 SWAP3 AND DUP5 MUL SWAP2 DUP3 ADD SWAP1 SSTORE PUSH1 0x5 DUP1 SLOAD PUSH1 0x1 PUSH1 0xA0 PUSH1 0x2 EXP SUB SWAP1 DUP2 AND PUSH1 0x0 SWAP1 DUP2 MSTORE PUSH1 0x4 PUSH1 0x20 SWAP1 DUP2 MSTORE PUSH1 0x40 SWAP2 DUP3 SWAP1 KECCAK256 DUP1 SLOAD DUP7 ADD SWAP1 SSTORE SWAP3 SLOAD DUP2 MLOAD DUP6 DUP2 MSTORE SWAP2 MLOAD SWAP3 AND SWAP3 PUSH32 0xF6798A560793A54C3BCFE86A93CDE1E73087D944C0EA20544137D4121396885 SWAP3 SWAP2 DUP3 SWAP1 SUB ADD SWAP1 LOG2 PUSH1 0x5 SLOAD PUSH1 0x40 DUP1 MLOAD DUP4 DUP2 MSTORE SWAP1 MLOAD PUSH1 0x1 PUSH1 0xA0 PUSH1 0x2 EXP SUB SWAP1 SWAP3 AND SWAP2 PUSH1 0x0 SWAP2 PUSH32 0xDDF252AD1BE2C89B69C2B068FC378DAA952BA7F163C4A11628F55A4DF523B3EF SWAP2 SWAP1 DUP2 SWAP1 SUB PUSH1 0x20 ADD SWAP1 LOG3 POP PUSH1 0x1 SWAP3 SWAP2 POP POP JUMP JUMPDEST CALLER PUSH1 0x0 SWAP1 DUP2 MSTORE PUSH1 0x4 PUSH1 0x20 MSTORE PUSH1 0x40 DUP2 KECCAK256 SLOAD DUP3 GT ISZERO PUSH2 0x7B0 JUMPI PUSH1 0x40 DUP1 MLOAD PUSH1 0xE5 PUSH1 0x2 EXP PUSH3 0x461BCD MUL DUP2 MSTORE PUSH1 0x20 PUSH1 0x4 DUP3 ADD MSTORE PUSH1 0x14 PUSH1 0x24 DUP3 ADD MSTORE PUSH32 0x496E73756666696369656E742062616C616E6365000000000000000000000000 PUSH1 0x44 DUP3 ADD MSTORE SWAP1 MLOAD SWAP1 DUP2 SWAP1 SUB PUSH1 0x64 ADD SWAP1 REVERT JUMPDEST PUSH1 0x1 PUSH1 0xA0 PUSH1 0x2 EXP SUB DUP4 AND ISZERO ISZERO PUSH2 0x810 JUMPI PUSH1 0x40 DUP1 MLOAD PUSH1 0xE5 PUSH1 0x2 EXP PUSH3 0x461BCD MUL DUP2 MSTORE PUSH1 0x20 PUSH1 0x4 DUP3 ADD MSTORE PUSH1 0xF PUSH1 0x24 DUP3 ADD MSTORE PUSH32 0x496E76616C696420616464726573730000000000000000000000000000000000 PUSH1 0x44 DUP3 ADD MSTORE SWAP1 MLOAD SWAP1 DUP2 SWAP1 SUB PUSH1 0x64 ADD SWAP1 REVERT JUMPDEST CALLER PUSH1 0x0 DUP2 DUP2 MSTORE PUSH1 0x4 PUSH1 0x20 SWAP1 DUP2 MSTORE PUSH1 0x40 DUP1 DUP4 KECCAK256 DUP1 SLOAD DUP8 SWAP1 SUB SWAP1 SSTORE PUSH1 0x1 PUSH1 0xA0 PUSH1 0x2 EXP SUB DUP8 AND DUP1 DUP5 MSTORE SWAP3 DUP2 SWAP1 KECCAK256 DUP1 SLOAD DUP8 ADD SWAP1 SSTORE DUP1 MLOAD DUP7 DUP2 MSTORE SWAP1 MLOAD SWAP3 SWAP4 SWAP3 PUSH32 0xDDF252AD1BE2C89B69C2B068FC378DAA952BA7F163C4A11628F55A4DF523B3EF SWAP3 SWAP2 DUP2 SWAP1 SUB SWAP1 SWAP2 ADD SWAP1 LOG3 POP PUSH1 0x1 SWAP3 SWAP2 POP POP JUMP STOP LOG1 PUSH6 0x627A7A723058 KECCAK256 SWAP9 0xcf 0x46 0xab CODECOPY OR 0x4a 0xbd GT 0xb3 PUSH12 0x9AAA2F5948D479EDE2BF0E47 PUSH3 0x8C270 BLOCKHASH BALANCE PUSH17 0xE71F002900000000000000000000000000 "
				},
				"gasEstimates": {
					"creation": {
						"codeDepositCost": "443600",
						"executionCost": "infinite",
						"totalCost": "infinite"
					},
					"external": {
						"balanceOf(address)": "619",
						"burn(uint256)": "46507",
						"decimals()": "443",
						"mint(uint256)": "47074",
						"name()": "infinite",
						"owner()": "647",
						"symbol()": "infinite",
						"totalSupply()": "406",
						"transfer(address,uint256)": "43315"
					}
				},
				"methodIdentifiers": {
					"balanceOf(address)": "70a08231",
					"burn(uint256)": "42966c68",
					"decimals()": "313ce567",
					"mint(uint256)": "a0712d68",
					"name()": "06fdde03",
					"owner()": "8da5cb5b",
					"symbol()": "95d89b41",
					"totalSupply()": "18160ddd",
					"transfer(address,uint256)": "a9059cbb"
				}
			},
			"userdoc": {
				"methods": {}
			}
		}
	}
}