{
	"contracts/etherTransfer/etherTransfer.sol": {
		"EtherTransferFrom": {
			"abi": [
				{
					"constant": true,
					"inputs": [],
					"name": "getBalance",
					"outputs": [
						{
							"name": "",
							"type": "uint256"
						}
					],
					"payable": false,
					"stateMutability": "view",
					"type": "function"
				},
				{
					"constant": true,
					"inputs": [],
					"name": "getBalanceOfInstance",
					"outputs": [
						{
							"name": "",
							"type": "uint256"
						}
					],
					"payable": false,
					"stateMutability": "view",
					"type": "function"
				},
				{
					"inputs": [],
					"payable": false,
					"stateMutability": "nonpayable",
					"type": "constructor"
				},
				{
					"payable": true,
					"stateMutability": "payable",
					"type": "fallback"
				}
			],
			"devdoc": {
				"methods": {}
			},
			"evm": {
				"assembly": "    /* \"contracts/etherTransfer/etherTransfer.sol\":189:692  contract EtherTransferFrom {... */\n  mstore(0x40, 0x80)\n    /* \"contracts/etherTransfer/etherTransfer.sol\":262:333  constructor() public {... */\n  callvalue\n    /* \"--CODEGEN--\":8:17   */\n  dup1\n    /* \"--CODEGEN--\":5:7   */\n  iszero\n  tag_1\n  jumpi\n    /* \"--CODEGEN--\":30:31   */\n  0x0\n    /* \"--CODEGEN--\":27:28   */\n  dup1\n    /* \"--CODEGEN--\":20:32   */\n  revert\n    /* \"--CODEGEN--\":5:7   */\ntag_1:\n    /* \"contracts/etherTransfer/etherTransfer.sol\":262:333  constructor() public {... */\n  pop\n    /* \"contracts/etherTransfer/etherTransfer.sol\":305:326  new EtherTransferTo() */\n  tag_4\n  jump\t// in(tag_5)\ntag_4:\n  mload(0x40)\n  dup1\n  swap2\n  sub\n  swap1\n  0x0\n  create\n  dup1\n  iszero\n    /* \"--CODEGEN--\":8:17   */\n  dup1\n    /* \"--CODEGEN--\":5:7   */\n  iszero\n  tag_6\n  jumpi\n    /* \"--CODEGEN--\":45:61   */\n  returndatasize\n    /* \"--CODEGEN--\":42:43   */\n  0x0\n    /* \"--CODEGEN--\":39:40   */\n  dup1\n    /* \"--CODEGEN--\":24:62   */\n  returndatacopy\n    /* \"--CODEGEN--\":77:93   */\n  returndatasize\n    /* \"--CODEGEN--\":74:75   */\n  0x0\n    /* \"--CODEGEN--\":67:94   */\n  revert\n    /* \"--CODEGEN--\":5:7   */\ntag_6:\n    /* \"contracts/etherTransfer/etherTransfer.sol\":305:326  new EtherTransferTo() */\n  pop\n    /* \"contracts/etherTransfer/etherTransfer.sol\":293:302  _instance */\n  0x0\n  dup1\n    /* \"contracts/etherTransfer/etherTransfer.sol\":293:326  _instance = new EtherTransferTo() */\n  0x100\n  exp\n  dup2\n  sload\n  dup2\n  0xffffffffffffffffffffffffffffffffffffffff\n  mul\n  not\n  and\n  swap1\n  dup4\n  0xffffffffffffffffffffffffffffffffffffffff\n  and\n  mul\n  or\n  swap1\n  sstore\n  pop\n    /* \"contracts/etherTransfer/etherTransfer.sol\":189:692  contract EtherTransferFrom {... */\n  jump(tag_7)\ntag_5:\n  mload(0x40)\n  dataSize(sub_1)\n  dup1\n  dataOffset(sub_1)\n  dup4\n  codecopy\n  add\n  swap1\n  jump\t// out\ntag_7:\n  dataSize(sub_0)\n  dup1\n  dataOffset(sub_0)\n  0x0\n  codecopy\n  0x0\n  return\nstop\n\nsub_0: assembly {\n        /* \"contracts/etherTransfer/etherTransfer.sol\":189:692  contract EtherTransferFrom {... */\n      mstore(0x40, 0x80)\n      jumpi(tag_1, lt(calldatasize, 0x4))\n      calldataload(0x0)\n      0x100000000000000000000000000000000000000000000000000000000\n      swap1\n      div\n      0xffffffff\n      and\n      dup1\n      0x12065fe0\n      eq\n      tag_2\n      jumpi\n      dup1\n      0xd7e0e776\n      eq\n      tag_3\n      jumpi\n    tag_1:\n        /* \"contracts/etherTransfer/etherTransfer.sol\":590:599  bool sent */\n      0x0\n        /* \"contracts/etherTransfer/etherTransfer.sol\":610:619  _instance */\n      dup1\n      0x0\n      swap1\n      sload\n      swap1\n      0x100\n      exp\n      swap1\n      div\n      0xffffffffffffffffffffffffffffffffffffffff\n      and\n        /* \"contracts/etherTransfer/etherTransfer.sol\":602:625  address(_instance).send */\n      0xffffffffffffffffffffffffffffffffffffffff\n      and\n        /* \"contracts/etherTransfer/etherTransfer.sol\":602:636  address(_instance).send(msg.value) */\n      0x8fc\n        /* \"contracts/etherTransfer/etherTransfer.sol\":626:635  msg.value */\n      callvalue\n        /* \"contracts/etherTransfer/etherTransfer.sol\":602:636  address(_instance).send(msg.value) */\n      swap1\n      dup2\n      iszero\n      mul\n      swap1\n      mload(0x40)\n      0x0\n      mload(0x40)\n      dup1\n      dup4\n      sub\n      dup2\n      dup6\n      dup9\n      dup9\n      call\n      swap4\n      pop\n      pop\n      pop\n      pop\n        /* \"contracts/etherTransfer/etherTransfer.sol\":590:636  bool sent = address(_instance).send(msg.value) */\n      swap1\n      pop\n        /* \"contracts/etherTransfer/etherTransfer.sol\":654:658  sent */\n      dup1\n        /* \"contracts/etherTransfer/etherTransfer.sol\":646:683  require(sent, \"Failed to send Ether\") */\n      iszero\n      iszero\n      tag_6\n      jumpi\n      mload(0x40)\n      0x8c379a000000000000000000000000000000000000000000000000000000000\n      dup2\n      mstore\n      0x4\n      add\n      dup1\n      dup1\n      0x20\n      add\n      dup3\n      dup2\n      sub\n      dup3\n      mstore\n      0x14\n      dup2\n      mstore\n      0x20\n      add\n      dup1\n      0x4661696c656420746f2073656e64204574686572000000000000000000000000\n      dup2\n      mstore\n      pop\n      0x20\n      add\n      swap2\n      pop\n      pop\n      mload(0x40)\n      dup1\n      swap2\n      sub\n      swap1\n      revert\n    tag_6:\n        /* \"contracts/etherTransfer/etherTransfer.sol\":554:690  function() public payable {... */\n      pop\n        /* \"contracts/etherTransfer/etherTransfer.sol\":189:692  contract EtherTransferFrom {... */\n      stop\n        /* \"contracts/etherTransfer/etherTransfer.sol\":339:433  function getBalance() public view returns (uint) {... */\n    tag_2:\n      callvalue\n        /* \"--CODEGEN--\":8:17   */\n      dup1\n        /* \"--CODEGEN--\":5:7   */\n      iszero\n      tag_7\n      jumpi\n        /* \"--CODEGEN--\":30:31   */\n      0x0\n        /* \"--CODEGEN--\":27:28   */\n      dup1\n        /* \"--CODEGEN--\":20:32   */\n      revert\n        /* \"--CODEGEN--\":5:7   */\n    tag_7:\n        /* \"contracts/etherTransfer/etherTransfer.sol\":339:433  function getBalance() public view returns (uint) {... */\n      pop\n      tag_8\n      jump(tag_9)\n    tag_8:\n      mload(0x40)\n      dup1\n      dup3\n      dup2\n      mstore\n      0x20\n      add\n      swap2\n      pop\n      pop\n      mload(0x40)\n      dup1\n      swap2\n      sub\n      swap1\n      return\n        /* \"contracts/etherTransfer/etherTransfer.sol\":439:548  function getBalanceOfInstance() public view returns (uint) {... */\n    tag_3:\n      callvalue\n        /* \"--CODEGEN--\":8:17   */\n      dup1\n        /* \"--CODEGEN--\":5:7   */\n      iszero\n      tag_10\n      jumpi\n        /* \"--CODEGEN--\":30:31   */\n      0x0\n        /* \"--CODEGEN--\":27:28   */\n      dup1\n        /* \"--CODEGEN--\":20:32   */\n      revert\n        /* \"--CODEGEN--\":5:7   */\n    tag_10:\n        /* \"contracts/etherTransfer/etherTransfer.sol\":439:548  function getBalanceOfInstance() public view returns (uint) {... */\n      pop\n      tag_11\n      jump(tag_12)\n    tag_11:\n      mload(0x40)\n      dup1\n      dup3\n      dup2\n      mstore\n      0x20\n      add\n      swap2\n      pop\n      pop\n      mload(0x40)\n      dup1\n      swap2\n      sub\n      swap1\n      return\n        /* \"contracts/etherTransfer/etherTransfer.sol\":339:433  function getBalance() public view returns (uint) {... */\n    tag_9:\n        /* \"contracts/etherTransfer/etherTransfer.sol\":382:386  uint */\n      0x0\n        /* \"contracts/etherTransfer/etherTransfer.sol\":413:417  this */\n      address\n        /* \"contracts/etherTransfer/etherTransfer.sol\":405:426  address(this).balance */\n      0xffffffffffffffffffffffffffffffffffffffff\n      and\n      balance\n        /* \"contracts/etherTransfer/etherTransfer.sol\":398:426  return address(this).balance */\n      swap1\n      pop\n        /* \"contracts/etherTransfer/etherTransfer.sol\":339:433  function getBalance() public view returns (uint) {... */\n      swap1\n      jump\t// out\n        /* \"contracts/etherTransfer/etherTransfer.sol\":439:548  function getBalanceOfInstance() public view returns (uint) {... */\n    tag_12:\n        /* \"contracts/etherTransfer/etherTransfer.sol\":492:496  uint */\n      0x0\n        /* \"contracts/etherTransfer/etherTransfer.sol\":523:532  _instance */\n      dup1\n      0x0\n      swap1\n      sload\n      swap1\n      0x100\n      exp\n      swap1\n      div\n      0xffffffffffffffffffffffffffffffffffffffff\n      and\n        /* \"contracts/etherTransfer/etherTransfer.sol\":515:541  address(_instance).balance */\n      0xffffffffffffffffffffffffffffffffffffffff\n      and\n      balance\n        /* \"contracts/etherTransfer/etherTransfer.sol\":508:541  return address(_instance).balance */\n      swap1\n      pop\n        /* \"contracts/etherTransfer/etherTransfer.sol\":439:548  function getBalanceOfInstance() public view returns (uint) {... */\n      swap1\n      jump\t// out\n\n    auxdata: 0xa165627a7a72305820fd0c3b925594ee8ddc97a2f2249d50d718a2476ea85412914e517f130801a9030029\n}\n\nsub_1: assembly {\n        /* \"contracts/etherTransfer/etherTransfer.sol\":26:187  contract EtherTransferTo {... */\n      mstore(0x40, 0x80)\n      callvalue\n        /* \"--CODEGEN--\":8:17   */\n      dup1\n        /* \"--CODEGEN--\":5:7   */\n      iszero\n      tag_1\n      jumpi\n        /* \"--CODEGEN--\":30:31   */\n      0x0\n        /* \"--CODEGEN--\":27:28   */\n      dup1\n        /* \"--CODEGEN--\":20:32   */\n      revert\n        /* \"--CODEGEN--\":5:7   */\n    tag_1:\n        /* \"contracts/etherTransfer/etherTransfer.sol\":26:187  contract EtherTransferTo {... */\n      pop\n      dataSize(sub_0)\n      dup1\n      dataOffset(sub_0)\n      0x0\n      codecopy\n      0x0\n      return\n    stop\n\n    sub_0: assembly {\n            /* \"contracts/etherTransfer/etherTransfer.sol\":26:187  contract EtherTransferTo {... */\n          mstore(0x40, 0x80)\n          jumpi(tag_1, lt(calldatasize, 0x4))\n          calldataload(0x0)\n          0x100000000000000000000000000000000000000000000000000000000\n          swap1\n          div\n          0xffffffff\n          and\n          dup1\n          0x12065fe0\n          eq\n          tag_2\n          jumpi\n        tag_1:\n          stop\n            /* \"contracts/etherTransfer/etherTransfer.sol\":91:185  function getBalance() view public returns (uint) {... */\n        tag_2:\n          callvalue\n            /* \"--CODEGEN--\":8:17   */\n          dup1\n            /* \"--CODEGEN--\":5:7   */\n          iszero\n          tag_5\n          jumpi\n            /* \"--CODEGEN--\":30:31   */\n          0x0\n            /* \"--CODEGEN--\":27:28   */\n          dup1\n            /* \"--CODEGEN--\":20:32   */\n          revert\n            /* \"--CODEGEN--\":5:7   */\n        tag_5:\n            /* \"contracts/etherTransfer/etherTransfer.sol\":91:185  function getBalance() view public returns (uint) {... */\n          pop\n          tag_6\n          jump(tag_7)\n        tag_6:\n          mload(0x40)\n          dup1\n          dup3\n          dup2\n          mstore\n          0x20\n          add\n          swap2\n          pop\n          pop\n          mload(0x40)\n          dup1\n          swap2\n          sub\n          swap1\n          return\n        tag_7:\n            /* \"contracts/etherTransfer/etherTransfer.sol\":134:138  uint */\n          0x0\n            /* \"contracts/etherTransfer/etherTransfer.sol\":165:169  this */\n          address\n            /* \"contracts/etherTransfer/etherTransfer.sol\":157:178  address(this).balance */\n          0xffffffffffffffffffffffffffffffffffffffff\n          and\n          balance\n            /* \"contracts/etherTransfer/etherTransfer.sol\":150:178  return address(this).balance */\n          swap1\n          pop\n            /* \"contracts/etherTransfer/etherTransfer.sol\":91:185  function getBalance() view public returns (uint) {... */\n          swap1\n          jump\t// out\n\n        auxdata: 0xa165627a7a72305820e4e9605ec608072d1fd5bfd3cb54870e11290843beb6eb3161d3985be9471eb20029\n    }\n}\n",
				"bytecode": {
					"linkReferences": {},
					"object": "608060405234801561001057600080fd5b5061001961007a565b604051809103906000f080158015610035573d6000803e3d6000fd5b506000806101000a81548173ffffffffffffffffffffffffffffffffffffffff021916908373ffffffffffffffffffffffffffffffffffffffff160217905550610089565b60405160d28061029783390190565b6101ff806100986000396000f30060806040526004361061004c576000357c0100000000000000000000000000000000000000000000000000000000900463ffffffff16806312065fe01461011e578063d7e0e77614610149575b60008060009054906101000a900473ffffffffffffffffffffffffffffffffffffffff1673ffffffffffffffffffffffffffffffffffffffff166108fc349081150290604051600060405180830381858888f19350505050905080151561011b576040517f08c379a00000000000000000000000000000000000000000000000000000000081526004018080602001828103825260148152602001807f4661696c656420746f2073656e6420457468657200000000000000000000000081525060200191505060405180910390fd5b50005b34801561012a57600080fd5b50610133610174565b6040518082815260200191505060405180910390f35b34801561015557600080fd5b5061015e610193565b6040518082815260200191505060405180910390f35b60003073ffffffffffffffffffffffffffffffffffffffff1631905090565b60008060009054906101000a900473ffffffffffffffffffffffffffffffffffffffff1673ffffffffffffffffffffffffffffffffffffffff16319050905600a165627a7a72305820fd0c3b925594ee8ddc97a2f2249d50d718a2476ea85412914e517f130801a90300296080604052348015600f57600080fd5b5060b48061001e6000396000f300608060405260043610603f576000357c0100000000000000000000000000000000000000000000000000000000900463ffffffff16806312065fe0146041575b005b348015604c57600080fd5b5060536069565b6040518082815260200191505060405180910390f35b60003073ffffffffffffffffffffffffffffffffffffffff16319050905600a165627a7a72305820e4e9605ec608072d1fd5bfd3cb54870e11290843beb6eb3161d3985be9471eb20029",
					"opcodes": "PUSH1 0x80 PUSH1 0x40 MSTORE CALLVALUE DUP1 ISZERO PUSH2 0x10 JUMPI PUSH1 0x0 DUP1 REVERT JUMPDEST POP PUSH2 0x19 PUSH2 0x7A JUMP JUMPDEST PUSH1 0x40 MLOAD DUP1 SWAP2 SUB SWAP1 PUSH1 0x0 CREATE DUP1 ISZERO DUP1 ISZERO PUSH2 0x35 JUMPI RETURNDATASIZE PUSH1 0x0 DUP1 RETURNDATACOPY RETURNDATASIZE PUSH1 0x0 REVERT JUMPDEST POP PUSH1 0x0 DUP1 PUSH2 0x100 EXP DUP2 SLOAD DUP2 PUSH20 0xFFFFFFFFFFFFFFFFFFFFFFFFFFFFFFFFFFFFFFFF MUL NOT AND SWAP1 DUP4 PUSH20 0xFFFFFFFFFFFFFFFFFFFFFFFFFFFFFFFFFFFFFFFF AND MUL OR SWAP1 SSTORE POP PUSH2 0x89 JUMP JUMPDEST PUSH1 0x40 MLOAD PUSH1 0xD2 DUP1 PUSH2 0x297 DUP4 CODECOPY ADD SWAP1 JUMP JUMPDEST PUSH2 0x1FF DUP1 PUSH2 0x98 PUSH1 0x0 CODECOPY PUSH1 0x0 RETURN STOP PUSH1 0x80 PUSH1 0x40 MSTORE PUSH1 0x4 CALLDATASIZE LT PUSH2 0x4C JUMPI PUSH1 0x0 CALLDATALOAD PUSH29 0x100000000000000000000000000000000000000000000000000000000 SWAP1 DIV PUSH4 0xFFFFFFFF AND DUP1 PUSH4 0x12065FE0 EQ PUSH2 0x11E JUMPI DUP1 PUSH4 0xD7E0E776 EQ PUSH2 0x149 JUMPI JUMPDEST PUSH1 0x0 DUP1 PUSH1 0x0 SWAP1 SLOAD SWAP1 PUSH2 0x100 EXP SWAP1 DIV PUSH20 0xFFFFFFFFFFFFFFFFFFFFFFFFFFFFFFFFFFFFFFFF AND PUSH20 0xFFFFFFFFFFFFFFFFFFFFFFFFFFFFFFFFFFFFFFFF AND PUSH2 0x8FC CALLVALUE SWAP1 DUP2 ISZERO MUL SWAP1 PUSH1 0x40 MLOAD PUSH1 0x0 PUSH1 0x40 MLOAD DUP1 DUP4 SUB DUP2 DUP6 DUP9 DUP9 CALL SWAP4 POP POP POP POP SWAP1 POP DUP1 ISZERO ISZERO PUSH2 0x11B JUMPI PUSH1 0x40 MLOAD PUSH32 0x8C379A000000000000000000000000000000000000000000000000000000000 DUP2 MSTORE PUSH1 0x4 ADD DUP1 DUP1 PUSH1 0x20 ADD DUP3 DUP2 SUB DUP3 MSTORE PUSH1 0x14 DUP2 MSTORE PUSH1 0x20 ADD DUP1 PUSH32 0x4661696C656420746F2073656E64204574686572000000000000000000000000 DUP2 MSTORE POP PUSH1 0x20 ADD SWAP2 POP POP PUSH1 0x40 MLOAD DUP1 SWAP2 SUB SWAP1 REVERT JUMPDEST POP STOP JUMPDEST CALLVALUE DUP1 ISZERO PUSH2 0x12A JUMPI PUSH1 0x0 DUP1 REVERT JUMPDEST POP PUSH2 0x133 PUSH2 0x174 JUMP JUMPDEST PUSH1 0x40 MLOAD DUP1 DUP3 DUP2 MSTORE PUSH1 0x20 ADD SWAP2 POP POP PUSH1 0x40 MLOAD DUP1 SWAP2 SUB SWAP1 RETURN JUMPDEST CALLVALUE DUP1 ISZERO PUSH2 0x155 JUMPI PUSH1 0x0 DUP1 REVERT JUMPDEST POP PUSH2 0x15E PUSH2 0x193 JUMP JUMPDEST PUSH1 0x40 MLOAD DUP1 DUP3 DUP2 MSTORE PUSH1 0x20 ADD SWAP2 POP POP PUSH1 0x40 MLOAD DUP1 SWAP2 SUB SWAP1 RETURN JUMPDEST PUSH1 0x0 ADDRESS PUSH20 0xFFFFFFFFFFFFFFFFFFFFFFFFFFFFFFFFFFFFFFFF AND BALANCE SWAP1 POP SWAP1 JUMP JUMPDEST PUSH1 0x0 DUP1 PUSH1 0x0 SWAP1 SLOAD SWAP1 PUSH2 0x100 EXP SWAP1 DIV PUSH20 0xFFFFFFFFFFFFFFFFFFFFFFFFFFFFFFFFFFFFFFFF AND PUSH20 0xFFFFFFFFFFFFFFFFFFFFFFFFFFFFFFFFFFFFFFFF AND BALANCE SWAP1 POP SWAP1 JUMP STOP LOG1 PUSH6 0x627A7A723058 KECCAK256 REVERT 0xc EXTCODESIZE SWAP3 SSTORE SWAP5 0xee DUP14 0xdc SWAP8 LOG2 CALLCODE 0x24 SWAP14 POP 0xd7 XOR LOG2 0x47 PUSH15 0xA85412914E517F130801A903002960 DUP1 PUSH1 0x40 MSTORE CALLVALUE DUP1 ISZERO PUSH1 0xF JUMPI PUSH1 0x0 DUP1 REVERT JUMPDEST POP PUSH1 0xB4 DUP1 PUSH2 0x1E PUSH1 0x0 CODECOPY PUSH1 0x0 RETURN STOP PUSH1 0x80 PUSH1 0x40 MSTORE PUSH1 0x4 CALLDATASIZE LT PUSH1 0x3F JUMPI PUSH1 0x0 CALLDATALOAD PUSH29 0x100000000000000000000000000000000000000000000000000000000 SWAP1 DIV PUSH4 0xFFFFFFFF AND DUP1 PUSH4 0x12065FE0 EQ PUSH1 0x41 JUMPI JUMPDEST STOP JUMPDEST CALLVALUE DUP1 ISZERO PUSH1 0x4C JUMPI PUSH1 0x0 DUP1 REVERT JUMPDEST POP PUSH1 0x53 PUSH1 0x69 JUMP JUMPDEST PUSH1 0x40 MLOAD DUP1 DUP3 DUP2 MSTORE PUSH1 0x20 ADD SWAP2 POP POP PUSH1 0x40 MLOAD DUP1 SWAP2 SUB SWAP1 RETURN JUMPDEST PUSH1 0x0 ADDRESS PUSH20 0xFFFFFFFFFFFFFFFFFFFFFFFFFFFFFFFFFFFFFFFF AND BALANCE SWAP1 POP SWAP1 JUMP STOP LOG1 PUSH6 0x627A7A723058 KECCAK256 0xe4 0xe9 PUSH1 0x5E 0xc6 ADDMOD SMOD 0x2d 0x1f 0xd5 0xbf 0xd3 0xcb SLOAD DUP8 0xe GT 0x29 ADDMOD NUMBER 0xbe 0xb6 0xeb BALANCE PUSH2 0xD398 JUMPDEST 0xe9 0x47 0x1e 0xb2 STOP 0x29 "
				},
				"gasEstimates": {
					"creation": {
						"codeDepositCost": "102200",
						"executionCost": "infinite",
						"totalCost": "infinite"
					},
					"external": {
						"": "infinite",
						"getBalance()": "607",
						"getBalanceOfInstance()": "866"
					}
				},
				"methodIdentifiers": {
					"getBalance()": "12065fe0",
					"getBalanceOfInstance()": "d7e0e776"
				}
			},
			"userdoc": {
				"methods": {}
			}
		}
	}
}