{
	"contracts/ss.sol": {
		"WethioValidator": {
			"abi": [
				{
					"constant": false,
					"inputs": [
						{
							"name": "_candidate",
							"type": "address"
						}
					],
					"name": "propose",
					"outputs": [],
					"payable": true,
					"stateMutability": "payable",
					"type": "function"
				},
				{
					"constant": false,
					"inputs": [
						{
							"name": "_candidate",
							"type": "address"
						},
						{
							"name": "_cap",
							"type": "uint256"
						}
					],
					"name": "unvote",
					"outputs": [],
					"payable": false,
					"stateMutability": "nonpayable",
					"type": "function"
				},
				{
					"constant": true,
					"inputs": [],
					"name": "getCandidates",
					"outputs": [
						{
							"name": "",
							"type": "address[]"
						}
					],
					"payable": false,
					"stateMutability": "view",
					"type": "function"
				},
				{
					"constant": true,
					"inputs": [
						{
							"name": "_blockNumber",
							"type": "uint256"
						}
					],
					"name": "getWithdrawCap",
					"outputs": [
						{
							"name": "",
							"type": "uint256"
						}
					],
					"payable": false,
					"stateMutability": "view",
					"type": "function"
				},
				{
					"constant": true,
					"inputs": [
						{
							"name": "_candidate",
							"type": "address"
						}
					],
					"name": "getVoters",
					"outputs": [
						{
							"name": "",
							"type": "address[]"
						}
					],
					"payable": false,
					"stateMutability": "view",
					"type": "function"
				},
				{
					"constant": true,
					"inputs": [],
					"name": "getWithdrawBlockNumbers",
					"outputs": [
						{
							"name": "",
							"type": "uint256[]"
						}
					],
					"payable": false,
					"stateMutability": "view",
					"type": "function"
				},
				{
					"constant": true,
					"inputs": [
						{
							"name": "_candidate",
							"type": "address"
						},
						{
							"name": "_voter",
							"type": "address"
						}
					],
					"name": "getVoterCap",
					"outputs": [
						{
							"name": "",
							"type": "uint256"
						}
					],
					"payable": false,
					"stateMutability": "view",
					"type": "function"
				},
				{
					"constant": true,
					"inputs": [
						{
							"name": "",
							"type": "uint256"
						}
					],
					"name": "candidates",
					"outputs": [
						{
							"name": "",
							"type": "address"
						}
					],
					"payable": false,
					"stateMutability": "view",
					"type": "function"
				},
				{
					"constant": false,
					"inputs": [
						{
							"name": "_blockNumber",
							"type": "uint256"
						},
						{
							"name": "_index",
							"type": "uint256"
						}
					],
					"name": "withdraw",
					"outputs": [],
					"payable": false,
					"stateMutability": "nonpayable",
					"type": "function"
				},
				{
					"constant": true,
					"inputs": [
						{
							"name": "_candidate",
							"type": "address"
						}
					],
					"name": "getCandidateCap",
					"outputs": [
						{
							"name": "",
							"type": "uint256"
						}
					],
					"payable": false,
					"stateMutability": "view",
					"type": "function"
				},
				{
					"constant": false,
					"inputs": [
						{
							"name": "_candidate",
							"type": "address"
						}
					],
					"name": "vote",
					"outputs": [],
					"payable": true,
					"stateMutability": "payable",
					"type": "function"
				},
				{
					"constant": true,
					"inputs": [],
					"name": "candidateCount",
					"outputs": [
						{
							"name": "",
							"type": "uint256"
						}
					],
					"payable": false,
					"stateMutability": "view",
					"type": "function"
				},
				{
					"constant": true,
					"inputs": [],
					"name": "voterWithdrawDelay",
					"outputs": [
						{
							"name": "",
							"type": "uint256"
						}
					],
					"payable": false,
					"stateMutability": "view",
					"type": "function"
				},
				{
					"constant": false,
					"inputs": [
						{
							"name": "_candidate",
							"type": "address"
						}
					],
					"name": "resign",
					"outputs": [],
					"payable": false,
					"stateMutability": "nonpayable",
					"type": "function"
				},
				{
					"constant": true,
					"inputs": [
						{
							"name": "_candidate",
							"type": "address"
						}
					],
					"name": "getCandidateOwner",
					"outputs": [
						{
							"name": "",
							"type": "address"
						}
					],
					"payable": false,
					"stateMutability": "view",
					"type": "function"
				},
				{
					"constant": true,
					"inputs": [],
					"name": "maxValidatorNumber",
					"outputs": [
						{
							"name": "",
							"type": "uint256"
						}
					],
					"payable": false,
					"stateMutability": "view",
					"type": "function"
				},
				{
					"constant": true,
					"inputs": [],
					"name": "candidateWithdrawDelay",
					"outputs": [
						{
							"name": "",
							"type": "uint256"
						}
					],
					"payable": false,
					"stateMutability": "view",
					"type": "function"
				},
				{
					"constant": true,
					"inputs": [
						{
							"name": "_candidate",
							"type": "address"
						}
					],
					"name": "isCandidate",
					"outputs": [
						{
							"name": "",
							"type": "bool"
						}
					],
					"payable": false,
					"stateMutability": "view",
					"type": "function"
				},
				{
					"constant": true,
					"inputs": [],
					"name": "minCandidateCap",
					"outputs": [
						{
							"name": "",
							"type": "uint256"
						}
					],
					"payable": false,
					"stateMutability": "view",
					"type": "function"
				},
				{
					"constant": true,
					"inputs": [],
					"name": "minVoterCap",
					"outputs": [
						{
							"name": "",
							"type": "uint256"
						}
					],
					"payable": false,
					"stateMutability": "view",
					"type": "function"
				},
				{
					"inputs": [
						{
							"name": "_candidates",
							"type": "address[]"
						},
						{
							"name": "_caps",
							"type": "uint256[]"
						},
						{
							"name": "_firstOwner",
							"type": "address"
						},
						{
							"name": "_minCandidateCap",
							"type": "uint256"
						},
						{
							"name": "_minVoterCap",
							"type": "uint256"
						},
						{
							"name": "_maxValidatorNumber",
							"type": "uint256"
						},
						{
							"name": "_candidateWithdrawDelay",
							"type": "uint256"
						},
						{
							"name": "_voterWithdrawDelay",
							"type": "uint256"
						}
					],
					"payable": false,
					"stateMutability": "nonpayable",
					"type": "constructor"
				},
				{
					"anonymous": false,
					"inputs": [
						{
							"indexed": false,
							"name": "_voter",
							"type": "address"
						},
						{
							"indexed": false,
							"name": "_candidate",
							"type": "address"
						},
						{
							"indexed": false,
							"name": "_cap",
							"type": "uint256"
						}
					],
					"name": "Vote",
					"type": "event"
				},
				{
					"anonymous": false,
					"inputs": [
						{
							"indexed": false,
							"name": "_voter",
							"type": "address"
						},
						{
							"indexed": false,
							"name": "_candidate",
							"type": "address"
						},
						{
							"indexed": false,
							"name": "_cap",
							"type": "uint256"
						}
					],
					"name": "Unvote",
					"type": "event"
				},
				{
					"anonymous": false,
					"inputs": [
						{
							"indexed": false,
							"name": "_owner",
							"type": "address"
						},
						{
							"indexed": false,
							"name": "_candidate",
							"type": "address"
						},
						{
							"indexed": false,
							"name": "_cap",
							"type": "uint256"
						}
					],
					"name": "Propose",
					"type": "event"
				},
				{
					"anonymous": false,
					"inputs": [
						{
							"indexed": false,
							"name": "_owner",
							"type": "address"
						},
						{
							"indexed": false,
							"name": "_candidate",
							"type": "address"
						}
					],
					"name": "Resign",
					"type": "event"
				},
				{
					"anonymous": false,
					"inputs": [
						{
							"indexed": false,
							"name": "_owner",
							"type": "address"
						},
						{
							"indexed": false,
							"name": "_blockNumber",
							"type": "uint256"
						},
						{
							"indexed": false,
							"name": "_cap",
							"type": "uint256"
						}
					],
					"name": "Withdraw",
					"type": "event"
				}
			],
			"devdoc": {
				"methods": {}
			},
			"evm": {
				"assembly": "    /* \"contracts/ss.sol\":1147:8922  contract WethioValidator {... */\n  mstore(0x40, 0x80)\n    /* \"contracts/ss.sol\":2013:2014  0 */\n  0x0\n    /* \"contracts/ss.sol\":1981:2014  uint256 public candidateCount = 0 */\n  0x4\n  sstore\n    /* \"contracts/ss.sol\":3627:4652  function WethioValidator (... */\n  callvalue\n    /* \"--CODEGEN--\":8:17   */\n  dup1\n    /* \"--CODEGEN--\":5:7   */\n  iszero\n  tag_1\n  jumpi\n    /* \"--CODEGEN--\":30:31   */\n  0x0\n    /* \"--CODEGEN--\":27:28   */\n  dup1\n    /* \"--CODEGEN--\":20:32   */\n  revert\n    /* \"--CODEGEN--\":5:7   */\ntag_1:\n    /* \"contracts/ss.sol\":3627:4652  function WethioValidator (... */\n  pop\n  mload(0x40)\n  sub(codesize, bytecodeSize)\n  dup1\n  bytecodeSize\n  dup4\n  codecopy\n  dup2\n  add\n  dup1\n  0x40\n  mstore\n  dup2\n  add\n  swap1\n  dup1\n  dup1\n  mload\n  dup3\n  add\n  swap3\n  swap2\n  swap1\n  0x20\n  add\n  dup1\n  mload\n  dup3\n  add\n  swap3\n  swap2\n  swap1\n  0x20\n  add\n  dup1\n  mload\n  swap1\n  0x20\n  add\n  swap1\n  swap3\n  swap2\n  swap1\n  dup1\n  mload\n  swap1\n  0x20\n  add\n  swap1\n  swap3\n  swap2\n  swap1\n  dup1\n  mload\n  swap1\n  0x20\n  add\n  swap1\n  swap3\n  swap2\n  swap1\n  dup1\n  mload\n  swap1\n  0x20\n  add\n  swap1\n  swap3\n  swap2\n  swap1\n  dup1\n  mload\n  swap1\n  0x20\n  add\n  swap1\n  swap3\n  swap2\n  swap1\n  dup1\n  mload\n  swap1\n  0x20\n  add\n  swap1\n  swap3\n  swap2\n  swap1\n  pop\n  pop\n  pop\n    /* \"contracts/ss.sol\":4229:4238  uint256 i */\n  0x0\n    /* \"contracts/ss.sol\":3958:3974  _minCandidateCap */\n  dup6\n    /* \"contracts/ss.sol\":3940:3955  minCandidateCap */\n  0x5\n    /* \"contracts/ss.sol\":3940:3974  minCandidateCap = _minCandidateCap */\n  dup2\n  swap1\n  sstore\n  pop\n    /* \"contracts/ss.sol\":3998:4010  _minVoterCap */\n  dup5\n    /* \"contracts/ss.sol\":3984:3995  minVoterCap */\n  0x6\n    /* \"contracts/ss.sol\":3984:4010  minVoterCap = _minVoterCap */\n  dup2\n  swap1\n  sstore\n  pop\n    /* \"contracts/ss.sol\":4041:4060  _maxValidatorNumber */\n  dup4\n    /* \"contracts/ss.sol\":4020:4038  maxValidatorNumber */\n  0x7\n    /* \"contracts/ss.sol\":4020:4060  maxValidatorNumber = _maxValidatorNumber */\n  dup2\n  swap1\n  sstore\n  pop\n    /* \"contracts/ss.sol\":4095:4118  _candidateWithdrawDelay */\n  dup3\n    /* \"contracts/ss.sol\":4070:4092  candidateWithdrawDelay */\n  0x8\n    /* \"contracts/ss.sol\":4070:4118  candidateWithdrawDelay = _candidateWithdrawDelay */\n  dup2\n  swap1\n  sstore\n  pop\n    /* \"contracts/ss.sol\":4149:4168  _voterWithdrawDelay */\n  dup2\n    /* \"contracts/ss.sol\":4128:4146  voterWithdrawDelay */\n  0x9\n    /* \"contracts/ss.sol\":4128:4168  voterWithdrawDelay = _voterWithdrawDelay */\n  dup2\n  swap1\n  sstore\n  pop\n    /* \"contracts/ss.sol\":4195:4206  _candidates */\n  dup9\n    /* \"contracts/ss.sol\":4195:4213  _candidates.length */\n  mload\n    /* \"contracts/ss.sol\":4178:4192  candidateCount */\n  0x4\n    /* \"contracts/ss.sol\":4178:4213  candidateCount = _candidates.length */\n  dup2\n  swap1\n  sstore\n  pop\n    /* \"contracts/ss.sol\":4241:4242  0 */\n  0x0\n    /* \"contracts/ss.sol\":4229:4242  uint256 i = 0 */\n  swap1\n  pop\n    /* \"contracts/ss.sol\":4224:4646  for (uint256 i = 0; i < _candidates.length; i++) {... */\ntag_4:\n    /* \"contracts/ss.sol\":4248:4259  _candidates */\n  dup9\n    /* \"contracts/ss.sol\":4248:4266  _candidates.length */\n  mload\n    /* \"contracts/ss.sol\":4244:4245  i */\n  dup2\n    /* \"contracts/ss.sol\":4244:4266  i < _candidates.length */\n  lt\n    /* \"contracts/ss.sol\":4224:4646  for (uint256 i = 0; i < _candidates.length; i++) {... */\n  iszero\n  tag_5\n  jumpi\n    /* \"contracts/ss.sol\":4287:4297  candidates */\n  0x3\n    /* \"contracts/ss.sol\":4303:4314  _candidates */\n  dup10\n    /* \"contracts/ss.sol\":4315:4316  i */\n  dup3\n    /* \"contracts/ss.sol\":4303:4317  _candidates[i] */\n  dup2\n  mload\n  dup2\n  lt\n  iszero\n  iszero\n  tag_7\n  jumpi\n  invalid\ntag_7:\n  swap1\n  0x20\n  add\n  swap1\n  0x20\n  mul\n  add\n  mload\n    /* \"contracts/ss.sol\":4287:4318  candidates.push(_candidates[i]) */\n  swap1\n  dup1\n    /* \"--CODEGEN--\":39:40   */\n  0x1\n    /* \"--CODEGEN--\":33:36   */\n  dup2\n    /* \"--CODEGEN--\":27:37   */\n  sload\n    /* \"--CODEGEN--\":23:41   */\n  add\n    /* \"--CODEGEN--\":57:67   */\n  dup1\n    /* \"--CODEGEN--\":52:55   */\n  dup3\n    /* \"--CODEGEN--\":45:68   */\n  sstore\n    /* \"--CODEGEN--\":79:89   */\n  dup1\n    /* \"--CODEGEN--\":72:89   */\n  swap2\n  pop\n    /* \"--CODEGEN--\":0:93   */\n  pop\n    /* \"contracts/ss.sol\":4287:4318  candidates.push(_candidates[i]) */\n  swap1\n  0x1\n  dup3\n  sub\n  swap1\n  0x0\n  mstore\n  keccak256(0x0, 0x20)\n  add\n  0x0\n  swap1\n  swap2\n  swap3\n  swap1\n  swap2\n  swap1\n  swap2\n  0x100\n  exp\n  dup2\n  sload\n  dup2\n  0xffffffffffffffffffffffffffffffffffffffff\n  mul\n  not\n  and\n  swap1\n  dup4\n  0xffffffffffffffffffffffffffffffffffffffff\n  and\n  mul\n  or\n  swap1\n  sstore\n  pop\n  pop\n    /* \"contracts/ss.sol\":4366:4498  ValidatorState({... */\n  0x60\n  mload(0x40)\n  swap1\n  dup2\n  add\n  0x40\n  mstore\n  dup1\n    /* \"contracts/ss.sol\":4406:4417  _firstOwner */\n  dup9\n    /* \"contracts/ss.sol\":4366:4498  ValidatorState({... */\n  0xffffffffffffffffffffffffffffffffffffffff\n  and\n  dup2\n  mstore\n  0x20\n  add\n    /* \"contracts/ss.sol\":4448:4452  true */\n  0x1\n    /* \"contracts/ss.sol\":4366:4498  ValidatorState({... */\n  iszero\n  iszero\n  dup2\n  mstore\n  0x20\n  add\n    /* \"contracts/ss.sol\":4475:4480  _caps */\n  dup10\n    /* \"contracts/ss.sol\":4481:4482  i */\n  dup4\n    /* \"contracts/ss.sol\":4475:4483  _caps[i] */\n  dup2\n  mload\n  dup2\n  lt\n  iszero\n  iszero\n  tag_9\n  jumpi\n  invalid\ntag_9:\n  swap1\n  0x20\n  add\n  swap1\n  0x20\n  mul\n  add\n  mload\n    /* \"contracts/ss.sol\":4366:4498  ValidatorState({... */\n  dup2\n  mstore\n  pop\n    /* \"contracts/ss.sol\":4332:4347  validatorsState */\n  0x1\n    /* \"contracts/ss.sol\":4332:4363  validatorsState[_candidates[i]] */\n  0x0\n    /* \"contracts/ss.sol\":4348:4359  _candidates */\n  dup12\n    /* \"contracts/ss.sol\":4360:4361  i */\n  dup5\n    /* \"contracts/ss.sol\":4348:4362  _candidates[i] */\n  dup2\n  mload\n  dup2\n  lt\n  iszero\n  iszero\n  tag_10\n  jumpi\n  invalid\ntag_10:\n  swap1\n  0x20\n  add\n  swap1\n  0x20\n  mul\n  add\n  mload\n    /* \"contracts/ss.sol\":4332:4363  validatorsState[_candidates[i]] */\n  0xffffffffffffffffffffffffffffffffffffffff\n  and\n  0xffffffffffffffffffffffffffffffffffffffff\n  and\n  dup2\n  mstore\n  0x20\n  add\n  swap1\n  dup2\n  mstore\n  0x20\n  add\n  0x0\n  keccak256\n    /* \"contracts/ss.sol\":4332:4498  validatorsState[_candidates[i]] = ValidatorState({... */\n  0x0\n  dup3\n  add\n  mload\n  dup2\n  0x0\n  add\n  exp(0x100, 0x0)\n  dup2\n  sload\n  dup2\n  0xffffffffffffffffffffffffffffffffffffffff\n  mul\n  not\n  and\n  swap1\n  dup4\n  0xffffffffffffffffffffffffffffffffffffffff\n  and\n  mul\n  or\n  swap1\n  sstore\n  pop\n  0x20\n  dup3\n  add\n  mload\n  dup2\n  0x0\n  add\n  exp(0x100, 0x14)\n  dup2\n  sload\n  dup2\n  0xff\n  mul\n  not\n  and\n  swap1\n  dup4\n  iszero\n  iszero\n  mul\n  or\n  swap1\n  sstore\n  pop\n  0x40\n  dup3\n  add\n  mload\n  dup2\n  0x1\n  add\n  sstore\n  swap1\n  pop\n  pop\n    /* \"contracts/ss.sol\":4512:4518  voters */\n  0x2\n    /* \"contracts/ss.sol\":4512:4534  voters[_candidates[i]] */\n  0x0\n    /* \"contracts/ss.sol\":4519:4530  _candidates */\n  dup11\n    /* \"contracts/ss.sol\":4531:4532  i */\n  dup4\n    /* \"contracts/ss.sol\":4519:4533  _candidates[i] */\n  dup2\n  mload\n  dup2\n  lt\n  iszero\n  iszero\n  tag_11\n  jumpi\n  invalid\ntag_11:\n  swap1\n  0x20\n  add\n  swap1\n  0x20\n  mul\n  add\n  mload\n    /* \"contracts/ss.sol\":4512:4534  voters[_candidates[i]] */\n  0xffffffffffffffffffffffffffffffffffffffff\n  and\n  0xffffffffffffffffffffffffffffffffffffffff\n  and\n  dup2\n  mstore\n  0x20\n  add\n  swap1\n  dup2\n  mstore\n  0x20\n  add\n  0x0\n  keccak256\n    /* \"contracts/ss.sol\":4540:4551  _firstOwner */\n  dup8\n    /* \"contracts/ss.sol\":4512:4552  voters[_candidates[i]].push(_firstOwner) */\n  swap1\n  dup1\n    /* \"--CODEGEN--\":39:40   */\n  0x1\n    /* \"--CODEGEN--\":33:36   */\n  dup2\n    /* \"--CODEGEN--\":27:37   */\n  sload\n    /* \"--CODEGEN--\":23:41   */\n  add\n    /* \"--CODEGEN--\":57:67   */\n  dup1\n    /* \"--CODEGEN--\":52:55   */\n  dup3\n    /* \"--CODEGEN--\":45:68   */\n  sstore\n    /* \"--CODEGEN--\":79:89   */\n  dup1\n    /* \"--CODEGEN--\":72:89   */\n  swap2\n  pop\n    /* \"--CODEGEN--\":0:93   */\n  pop\n    /* \"contracts/ss.sol\":4512:4552  voters[_candidates[i]].push(_firstOwner) */\n  swap1\n  0x1\n  dup3\n  sub\n  swap1\n  0x0\n  mstore\n  keccak256(0x0, 0x20)\n  add\n  0x0\n  swap1\n  swap2\n  swap3\n  swap1\n  swap2\n  swap1\n  swap2\n  0x100\n  exp\n  dup2\n  sload\n  dup2\n  0xffffffffffffffffffffffffffffffffffffffff\n  mul\n  not\n  and\n  swap1\n  dup4\n  0xffffffffffffffffffffffffffffffffffffffff\n  and\n  mul\n  or\n  swap1\n  sstore\n  pop\n  pop\n    /* \"contracts/ss.sol\":4620:4635  minCandidateCap */\n  sload(0x5)\n    /* \"contracts/ss.sol\":4566:4581  validatorsState */\n  0x1\n    /* \"contracts/ss.sol\":4566:4597  validatorsState[_candidates[i]] */\n  0x0\n    /* \"contracts/ss.sol\":4582:4593  _candidates */\n  dup12\n    /* \"contracts/ss.sol\":4594:4595  i */\n  dup5\n    /* \"contracts/ss.sol\":4582:4596  _candidates[i] */\n  dup2\n  mload\n  dup2\n  lt\n  iszero\n  iszero\n  tag_13\n  jumpi\n  invalid\ntag_13:\n  swap1\n  0x20\n  add\n  swap1\n  0x20\n  mul\n  add\n  mload\n    /* \"contracts/ss.sol\":4566:4597  validatorsState[_candidates[i]] */\n  0xffffffffffffffffffffffffffffffffffffffff\n  and\n  0xffffffffffffffffffffffffffffffffffffffff\n  and\n  dup2\n  mstore\n  0x20\n  add\n  swap1\n  dup2\n  mstore\n  0x20\n  add\n  0x0\n  keccak256\n    /* \"contracts/ss.sol\":4566:4604  validatorsState[_candidates[i]].voters */\n  0x2\n  add\n    /* \"contracts/ss.sol\":4566:4617  validatorsState[_candidates[i]].voters[_firstOwner] */\n  0x0\n    /* \"contracts/ss.sol\":4605:4616  _firstOwner */\n  dup10\n    /* \"contracts/ss.sol\":4566:4617  validatorsState[_candidates[i]].voters[_firstOwner] */\n  0xffffffffffffffffffffffffffffffffffffffff\n  and\n  0xffffffffffffffffffffffffffffffffffffffff\n  and\n  dup2\n  mstore\n  0x20\n  add\n  swap1\n  dup2\n  mstore\n  0x20\n  add\n  0x0\n  keccak256\n    /* \"contracts/ss.sol\":4566:4635  validatorsState[_candidates[i]].voters[_firstOwner] = minCandidateCap */\n  dup2\n  swap1\n  sstore\n  pop\n    /* \"contracts/ss.sol\":4268:4271  i++ */\n  dup1\n  dup1\n  0x1\n  add\n  swap2\n  pop\n  pop\n    /* \"contracts/ss.sol\":4224:4646  for (uint256 i = 0; i < _candidates.length; i++) {... */\n  jump(tag_4)\ntag_5:\n    /* \"contracts/ss.sol\":3627:4652  function WethioValidator (... */\n  pop\n  pop\n  pop\n  pop\n  pop\n  pop\n  pop\n  pop\n  pop\n    /* \"contracts/ss.sol\":1147:8922  contract WethioValidator {... */\n  dataSize(sub_0)\n  dup1\n  dataOffset(sub_0)\n  0x0\n  codecopy\n  0x0\n  return\nstop\n\nsub_0: assembly {\n        /* \"contracts/ss.sol\":1147:8922  contract WethioValidator {... */\n      mstore(0x40, 0x80)\n      jumpi(tag_1, lt(calldatasize, 0x4))\n      calldataload(0x0)\n      0x100000000000000000000000000000000000000000000000000000000\n      swap1\n      div\n      0xffffffff\n      and\n      dup1\n      0x1267951\n      eq\n      tag_2\n      jumpi\n      dup1\n      0x2aa9be2\n      eq\n      tag_3\n      jumpi\n      dup1\n      0x6a49fce\n      eq\n      tag_4\n      jumpi\n      dup1\n      0x15febd68\n      eq\n      tag_5\n      jumpi\n      dup1\n      0x2d15cc04\n      eq\n      tag_6\n      jumpi\n      dup1\n      0x2f9c4bba\n      eq\n      tag_7\n      jumpi\n      dup1\n      0x302b6872\n      eq\n      tag_8\n      jumpi\n      dup1\n      0x3477ee2e\n      eq\n      tag_9\n      jumpi\n      dup1\n      0x441a3e70\n      eq\n      tag_10\n      jumpi\n      dup1\n      0x58e7525f\n      eq\n      tag_11\n      jumpi\n      dup1\n      0x6dd7d8ea\n      eq\n      tag_12\n      jumpi\n      dup1\n      0xa9a981a3\n      eq\n      tag_13\n      jumpi\n      dup1\n      0xa9ff959e\n      eq\n      tag_14\n      jumpi\n      dup1\n      0xae6e43f5\n      eq\n      tag_15\n      jumpi\n      dup1\n      0xb642facd\n      eq\n      tag_16\n      jumpi\n      dup1\n      0xd09f1ab4\n      eq\n      tag_17\n      jumpi\n      dup1\n      0xd161c767\n      eq\n      tag_18\n      jumpi\n      dup1\n      0xd51b9e93\n      eq\n      tag_19\n      jumpi\n      dup1\n      0xd55b7dff\n      eq\n      tag_20\n      jumpi\n      dup1\n      0xf8ac9dd5\n      eq\n      tag_21\n      jumpi\n    tag_1:\n      0x0\n      dup1\n      revert\n        /* \"contracts/ss.sol\":4658:5297  function propose(address _candidate) external payable onlyValidCandidateCap onlyNotCandidate(_candidate) {... */\n    tag_2:\n      tag_22\n      0x4\n      dup1\n      calldatasize\n      sub\n      dup2\n      add\n      swap1\n      dup1\n      dup1\n      calldataload\n      0xffffffffffffffffffffffffffffffffffffffff\n      and\n      swap1\n      0x20\n      add\n      swap1\n      swap3\n      swap2\n      swap1\n      pop\n      pop\n      pop\n      jump(tag_23)\n    tag_22:\n      stop\n        /* \"contracts/ss.sol\":6873:7539  function unvote(address _candidate, uint256 _cap) public onlyValidVote(_candidate, _cap) {... */\n    tag_3:\n      callvalue\n        /* \"--CODEGEN--\":8:17   */\n      dup1\n        /* \"--CODEGEN--\":5:7   */\n      iszero\n      tag_24\n      jumpi\n        /* \"--CODEGEN--\":30:31   */\n      0x0\n        /* \"--CODEGEN--\":27:28   */\n      dup1\n        /* \"--CODEGEN--\":20:32   */\n      revert\n        /* \"--CODEGEN--\":5:7   */\n    tag_24:\n        /* \"contracts/ss.sol\":6873:7539  function unvote(address _candidate, uint256 _cap) public onlyValidVote(_candidate, _cap) {... */\n      pop\n      tag_25\n      0x4\n      dup1\n      calldatasize\n      sub\n      dup2\n      add\n      swap1\n      dup1\n      dup1\n      calldataload\n      0xffffffffffffffffffffffffffffffffffffffff\n      and\n      swap1\n      0x20\n      add\n      swap1\n      swap3\n      swap2\n      swap1\n      dup1\n      calldataload\n      swap1\n      0x20\n      add\n      swap1\n      swap3\n      swap2\n      swap1\n      pop\n      pop\n      pop\n      jump(tag_26)\n    tag_25:\n      stop\n        /* \"contracts/ss.sol\":5806:5896  function getCandidates() public view returns(address[]) {... */\n    tag_4:\n      callvalue\n        /* \"--CODEGEN--\":8:17   */\n      dup1\n        /* \"--CODEGEN--\":5:7   */\n      iszero\n      tag_27\n      jumpi\n        /* \"--CODEGEN--\":30:31   */\n      0x0\n        /* \"--CODEGEN--\":27:28   */\n      dup1\n        /* \"--CODEGEN--\":20:32   */\n      revert\n        /* \"--CODEGEN--\":5:7   */\n    tag_27:\n        /* \"contracts/ss.sol\":5806:5896  function getCandidates() public view returns(address[]) {... */\n      pop\n      tag_28\n      jump(tag_29)\n    tag_28:\n      mload(0x40)\n      dup1\n      dup1\n      0x20\n      add\n      dup3\n      dup2\n      sub\n      dup3\n      mstore\n      dup4\n      dup2\n      dup2\n      mload\n      dup2\n      mstore\n      0x20\n      add\n      swap2\n      pop\n      dup1\n      mload\n      swap1\n      0x20\n      add\n      swap1\n      0x20\n      mul\n      dup1\n      dup4\n      dup4\n        /* \"--CODEGEN--\":23:24   */\n      0x0\n        /* \"--CODEGEN--\":8:108   */\n    tag_30:\n        /* \"--CODEGEN--\":33:36   */\n      dup4\n        /* \"--CODEGEN--\":30:31   */\n      dup2\n        /* \"--CODEGEN--\":27:37   */\n      lt\n        /* \"--CODEGEN--\":8:108   */\n      iszero\n      tag_31\n      jumpi\n        /* \"--CODEGEN--\":99:100   */\n      dup1\n        /* \"--CODEGEN--\":94:97   */\n      dup3\n        /* \"--CODEGEN--\":90:101   */\n      add\n        /* \"--CODEGEN--\":84:102   */\n      mload\n        /* \"--CODEGEN--\":80:81   */\n      dup2\n        /* \"--CODEGEN--\":75:78   */\n      dup5\n        /* \"--CODEGEN--\":71:82   */\n      add\n        /* \"--CODEGEN--\":64:103   */\n      mstore\n        /* \"--CODEGEN--\":52:54   */\n      0x20\n        /* \"--CODEGEN--\":49:50   */\n      dup2\n        /* \"--CODEGEN--\":45:55   */\n      add\n        /* \"--CODEGEN--\":40:55   */\n      swap1\n      pop\n        /* \"--CODEGEN--\":8:108   */\n      jump(tag_30)\n    tag_31:\n        /* \"--CODEGEN--\":12:26   */\n      pop\n        /* \"contracts/ss.sol\":5806:5896  function getCandidates() public view returns(address[]) {... */\n      pop\n      pop\n      pop\n      swap1\n      pop\n      add\n      swap3\n      pop\n      pop\n      pop\n      mload(0x40)\n      dup1\n      swap2\n      sub\n      swap1\n      return\n        /* \"contracts/ss.sol\":6723:6867  function getWithdrawCap(uint256 _blockNumber) public view returns(uint256) {... */\n    tag_5:\n      callvalue\n        /* \"--CODEGEN--\":8:17   */\n      dup1\n        /* \"--CODEGEN--\":5:7   */\n      iszero\n      tag_33\n      jumpi\n        /* \"--CODEGEN--\":30:31   */\n      0x0\n        /* \"--CODEGEN--\":27:28   */\n      dup1\n        /* \"--CODEGEN--\":20:32   */\n      revert\n        /* \"--CODEGEN--\":5:7   */\n    tag_33:\n        /* \"contracts/ss.sol\":6723:6867  function getWithdrawCap(uint256 _blockNumber) public view returns(uint256) {... */\n      pop\n      tag_34\n      0x4\n      dup1\n      calldatasize\n      sub\n      dup2\n      add\n      swap1\n      dup1\n      dup1\n      calldataload\n      swap1\n      0x20\n      add\n      swap1\n      swap3\n      swap2\n      swap1\n      pop\n      pop\n      pop\n      jump(tag_35)\n    tag_34:\n      mload(0x40)\n      dup1\n      dup3\n      dup2\n      mstore\n      0x20\n      add\n      swap2\n      pop\n      pop\n      mload(0x40)\n      dup1\n      swap2\n      sub\n      swap1\n      return\n        /* \"contracts/ss.sol\":6334:6446  function getVoters(address _candidate) public view returns(address[]) {... */\n    tag_6:\n      callvalue\n        /* \"--CODEGEN--\":8:17   */\n      dup1\n        /* \"--CODEGEN--\":5:7   */\n      iszero\n      tag_36\n      jumpi\n        /* \"--CODEGEN--\":30:31   */\n      0x0\n        /* \"--CODEGEN--\":27:28   */\n      dup1\n        /* \"--CODEGEN--\":20:32   */\n      revert\n        /* \"--CODEGEN--\":5:7   */\n    tag_36:\n        /* \"contracts/ss.sol\":6334:6446  function getVoters(address _candidate) public view returns(address[]) {... */\n      pop\n      tag_37\n      0x4\n      dup1\n      calldatasize\n      sub\n      dup2\n      add\n      swap1\n      dup1\n      dup1\n      calldataload\n      0xffffffffffffffffffffffffffffffffffffffff\n      and\n      swap1\n      0x20\n      add\n      swap1\n      swap3\n      swap2\n      swap1\n      pop\n      pop\n      pop\n      jump(tag_38)\n    tag_37:\n      mload(0x40)\n      dup1\n      dup1\n      0x20\n      add\n      dup3\n      dup2\n      sub\n      dup3\n      mstore\n      dup4\n      dup2\n      dup2\n      mload\n      dup2\n      mstore\n      0x20\n      add\n      swap2\n      pop\n      dup1\n      mload\n      swap1\n      0x20\n      add\n      swap1\n      0x20\n      mul\n      dup1\n      dup4\n      dup4\n        /* \"--CODEGEN--\":23:24   */\n      0x0\n        /* \"--CODEGEN--\":8:108   */\n    tag_39:\n        /* \"--CODEGEN--\":33:36   */\n      dup4\n        /* \"--CODEGEN--\":30:31   */\n      dup2\n        /* \"--CODEGEN--\":27:37   */\n      lt\n        /* \"--CODEGEN--\":8:108   */\n      iszero\n      tag_40\n      jumpi\n        /* \"--CODEGEN--\":99:100   */\n      dup1\n        /* \"--CODEGEN--\":94:97   */\n      dup3\n        /* \"--CODEGEN--\":90:101   */\n      add\n        /* \"--CODEGEN--\":84:102   */\n      mload\n        /* \"--CODEGEN--\":80:81   */\n      dup2\n        /* \"--CODEGEN--\":75:78   */\n      dup5\n        /* \"--CODEGEN--\":71:82   */\n      add\n        /* \"--CODEGEN--\":64:103   */\n      mstore\n        /* \"--CODEGEN--\":52:54   */\n      0x20\n        /* \"--CODEGEN--\":49:50   */\n      dup2\n        /* \"--CODEGEN--\":45:55   */\n      add\n        /* \"--CODEGEN--\":40:55   */\n      swap1\n      pop\n        /* \"--CODEGEN--\":8:108   */\n      jump(tag_39)\n    tag_40:\n        /* \"--CODEGEN--\":12:26   */\n      pop\n        /* \"contracts/ss.sol\":6334:6446  function getVoters(address _candidate) public view returns(address[]) {... */\n      pop\n      pop\n      pop\n      swap1\n      pop\n      add\n      swap3\n      pop\n      pop\n      pop\n      mload(0x40)\n      dup1\n      swap2\n      sub\n      swap1\n      return\n        /* \"contracts/ss.sol\":6588:6717  function getWithdrawBlockNumbers() public view returns(uint256[]) {... */\n    tag_7:\n      callvalue\n        /* \"--CODEGEN--\":8:17   */\n      dup1\n        /* \"--CODEGEN--\":5:7   */\n      iszero\n      tag_42\n      jumpi\n        /* \"--CODEGEN--\":30:31   */\n      0x0\n        /* \"--CODEGEN--\":27:28   */\n      dup1\n        /* \"--CODEGEN--\":20:32   */\n      revert\n        /* \"--CODEGEN--\":5:7   */\n    tag_42:\n        /* \"contracts/ss.sol\":6588:6717  function getWithdrawBlockNumbers() public view returns(uint256[]) {... */\n      pop\n      tag_43\n      jump(tag_44)\n    tag_43:\n      mload(0x40)\n      dup1\n      dup1\n      0x20\n      add\n      dup3\n      dup2\n      sub\n      dup3\n      mstore\n      dup4\n      dup2\n      dup2\n      mload\n      dup2\n      mstore\n      0x20\n      add\n      swap2\n      pop\n      dup1\n      mload\n      swap1\n      0x20\n      add\n      swap1\n      0x20\n      mul\n      dup1\n      dup4\n      dup4\n        /* \"--CODEGEN--\":23:24   */\n      0x0\n        /* \"--CODEGEN--\":8:108   */\n    tag_45:\n        /* \"--CODEGEN--\":33:36   */\n      dup4\n        /* \"--CODEGEN--\":30:31   */\n      dup2\n        /* \"--CODEGEN--\":27:37   */\n      lt\n        /* \"--CODEGEN--\":8:108   */\n      iszero\n      tag_46\n      jumpi\n        /* \"--CODEGEN--\":99:100   */\n      dup1\n        /* \"--CODEGEN--\":94:97   */\n      dup3\n        /* \"--CODEGEN--\":90:101   */\n      add\n        /* \"--CODEGEN--\":84:102   */\n      mload\n        /* \"--CODEGEN--\":80:81   */\n      dup2\n        /* \"--CODEGEN--\":75:78   */\n      dup5\n        /* \"--CODEGEN--\":71:82   */\n      add\n        /* \"--CODEGEN--\":64:103   */\n      mstore\n        /* \"--CODEGEN--\":52:54   */\n      0x20\n        /* \"--CODEGEN--\":49:50   */\n      dup2\n        /* \"--CODEGEN--\":45:55   */\n      add\n        /* \"--CODEGEN--\":40:55   */\n      swap1\n      pop\n        /* \"--CODEGEN--\":8:108   */\n      jump(tag_45)\n    tag_46:\n        /* \"--CODEGEN--\":12:26   */\n      pop\n        /* \"contracts/ss.sol\":6588:6717  function getWithdrawBlockNumbers() public view returns(uint256[]) {... */\n      pop\n      pop\n      pop\n      swap1\n      pop\n      add\n      swap3\n      pop\n      pop\n      pop\n      mload(0x40)\n      dup1\n      swap2\n      sub\n      swap1\n      return\n        /* \"contracts/ss.sol\":6176:6328  function getVoterCap(address _candidate, address _voter) public view returns(uint256) {... */\n    tag_8:\n      callvalue\n        /* \"--CODEGEN--\":8:17   */\n      dup1\n        /* \"--CODEGEN--\":5:7   */\n      iszero\n      tag_48\n      jumpi\n        /* \"--CODEGEN--\":30:31   */\n      0x0\n        /* \"--CODEGEN--\":27:28   */\n      dup1\n        /* \"--CODEGEN--\":20:32   */\n      revert\n        /* \"--CODEGEN--\":5:7   */\n    tag_48:\n        /* \"contracts/ss.sol\":6176:6328  function getVoterCap(address _candidate, address _voter) public view returns(uint256) {... */\n      pop\n      tag_49\n      0x4\n      dup1\n      calldatasize\n      sub\n      dup2\n      add\n      swap1\n      dup1\n      dup1\n      calldataload\n      0xffffffffffffffffffffffffffffffffffffffff\n      and\n      swap1\n      0x20\n      add\n      swap1\n      swap3\n      swap2\n      swap1\n      dup1\n      calldataload\n      0xffffffffffffffffffffffffffffffffffffffff\n      and\n      swap1\n      0x20\n      add\n      swap1\n      swap3\n      swap2\n      swap1\n      pop\n      pop\n      pop\n      jump(tag_50)\n    tag_49:\n      mload(0x40)\n      dup1\n      dup3\n      dup2\n      mstore\n      0x20\n      add\n      swap2\n      pop\n      pop\n      mload(0x40)\n      dup1\n      swap2\n      sub\n      swap1\n      return\n        /* \"contracts/ss.sol\":1947:1974  address[] public candidates */\n    tag_9:\n      callvalue\n        /* \"--CODEGEN--\":8:17   */\n      dup1\n        /* \"--CODEGEN--\":5:7   */\n      iszero\n      tag_51\n      jumpi\n        /* \"--CODEGEN--\":30:31   */\n      0x0\n        /* \"--CODEGEN--\":27:28   */\n      dup1\n        /* \"--CODEGEN--\":20:32   */\n      revert\n        /* \"--CODEGEN--\":5:7   */\n    tag_51:\n        /* \"contracts/ss.sol\":1947:1974  address[] public candidates */\n      pop\n      tag_52\n      0x4\n      dup1\n      calldatasize\n      sub\n      dup2\n      add\n      swap1\n      dup1\n      dup1\n      calldataload\n      swap1\n      0x20\n      add\n      swap1\n      swap3\n      swap2\n      swap1\n      pop\n      pop\n      pop\n      jump(tag_53)\n    tag_52:\n      mload(0x40)\n      dup1\n      dup3\n      0xffffffffffffffffffffffffffffffffffffffff\n      and\n      0xffffffffffffffffffffffffffffffffffffffff\n      and\n      dup2\n      mstore\n      0x20\n      add\n      swap2\n      pop\n      pop\n      mload(0x40)\n      dup1\n      swap2\n      sub\n      swap1\n      return\n        /* \"contracts/ss.sol\":8530:8920  function withdraw(uint256 _blockNumber, uint _index) public onlyValidWithdraw(_blockNumber, _index) {... */\n    tag_10:\n      callvalue\n        /* \"--CODEGEN--\":8:17   */\n      dup1\n        /* \"--CODEGEN--\":5:7   */\n      iszero\n      tag_54\n      jumpi\n        /* \"--CODEGEN--\":30:31   */\n      0x0\n        /* \"--CODEGEN--\":27:28   */\n      dup1\n        /* \"--CODEGEN--\":20:32   */\n      revert\n        /* \"--CODEGEN--\":5:7   */\n    tag_54:\n        /* \"contracts/ss.sol\":8530:8920  function withdraw(uint256 _blockNumber, uint _index) public onlyValidWithdraw(_blockNumber, _index) {... */\n      pop\n      tag_55\n      0x4\n      dup1\n      calldatasize\n      sub\n      dup2\n      add\n      swap1\n      dup1\n      dup1\n      calldataload\n      swap1\n      0x20\n      add\n      swap1\n      swap3\n      swap2\n      swap1\n      dup1\n      calldataload\n      swap1\n      0x20\n      add\n      swap1\n      swap3\n      swap2\n      swap1\n      pop\n      pop\n      pop\n      jump(tag_56)\n    tag_55:\n      stop\n        /* \"contracts/ss.sol\":5902:6031  function getCandidateCap(address _candidate) public view returns(uint256) {... */\n    tag_11:\n      callvalue\n        /* \"--CODEGEN--\":8:17   */\n      dup1\n        /* \"--CODEGEN--\":5:7   */\n      iszero\n      tag_57\n      jumpi\n        /* \"--CODEGEN--\":30:31   */\n      0x0\n        /* \"--CODEGEN--\":27:28   */\n      dup1\n        /* \"--CODEGEN--\":20:32   */\n      revert\n        /* \"--CODEGEN--\":5:7   */\n    tag_57:\n        /* \"contracts/ss.sol\":5902:6031  function getCandidateCap(address _candidate) public view returns(uint256) {... */\n      pop\n      tag_58\n      0x4\n      dup1\n      calldatasize\n      sub\n      dup2\n      add\n      swap1\n      dup1\n      dup1\n      calldataload\n      0xffffffffffffffffffffffffffffffffffffffff\n      and\n      swap1\n      0x20\n      add\n      swap1\n      swap3\n      swap2\n      swap1\n      pop\n      pop\n      pop\n      jump(tag_59)\n    tag_58:\n      mload(0x40)\n      dup1\n      dup3\n      dup2\n      mstore\n      0x20\n      add\n      swap2\n      pop\n      pop\n      mload(0x40)\n      dup1\n      swap2\n      sub\n      swap1\n      return\n        /* \"contracts/ss.sol\":5303:5800  function vote(address _candidate) external payable onlyValidVoterCap onlyValidCandidate(_candidate) {... */\n    tag_12:\n      tag_60\n      0x4\n      dup1\n      calldatasize\n      sub\n      dup2\n      add\n      swap1\n      dup1\n      dup1\n      calldataload\n      0xffffffffffffffffffffffffffffffffffffffff\n      and\n      swap1\n      0x20\n      add\n      swap1\n      swap3\n      swap2\n      swap1\n      pop\n      pop\n      pop\n      jump(tag_61)\n    tag_60:\n      stop\n        /* \"contracts/ss.sol\":1981:2014  uint256 public candidateCount = 0 */\n    tag_13:\n      callvalue\n        /* \"--CODEGEN--\":8:17   */\n      dup1\n        /* \"--CODEGEN--\":5:7   */\n      iszero\n      tag_62\n      jumpi\n        /* \"--CODEGEN--\":30:31   */\n      0x0\n        /* \"--CODEGEN--\":27:28   */\n      dup1\n        /* \"--CODEGEN--\":20:32   */\n      revert\n        /* \"--CODEGEN--\":5:7   */\n    tag_62:\n        /* \"contracts/ss.sol\":1981:2014  uint256 public candidateCount = 0 */\n      pop\n      tag_63\n      jump(tag_64)\n    tag_63:\n      mload(0x40)\n      dup1\n      dup3\n      dup2\n      mstore\n      0x20\n      add\n      swap2\n      pop\n      pop\n      mload(0x40)\n      dup1\n      swap2\n      sub\n      swap1\n      return\n        /* \"contracts/ss.sol\":2170:2203  uint256 public voterWithdrawDelay */\n    tag_14:\n      callvalue\n        /* \"--CODEGEN--\":8:17   */\n      dup1\n        /* \"--CODEGEN--\":5:7   */\n      iszero\n      tag_65\n      jumpi\n        /* \"--CODEGEN--\":30:31   */\n      0x0\n        /* \"--CODEGEN--\":27:28   */\n      dup1\n        /* \"--CODEGEN--\":20:32   */\n      revert\n        /* \"--CODEGEN--\":5:7   */\n    tag_65:\n        /* \"contracts/ss.sol\":2170:2203  uint256 public voterWithdrawDelay */\n      pop\n      tag_66\n      jump(tag_67)\n    tag_66:\n      mload(0x40)\n      dup1\n      dup3\n      dup2\n      mstore\n      0x20\n      add\n      swap2\n      pop\n      pop\n      mload(0x40)\n      dup1\n      swap2\n      sub\n      swap1\n      return\n        /* \"contracts/ss.sol\":7545:8524  function resign(address _candidate) public onlyOwner(_candidate) onlyCandidate(_candidate) {... */\n    tag_15:\n      callvalue\n        /* \"--CODEGEN--\":8:17   */\n      dup1\n        /* \"--CODEGEN--\":5:7   */\n      iszero\n      tag_68\n      jumpi\n        /* \"--CODEGEN--\":30:31   */\n      0x0\n        /* \"--CODEGEN--\":27:28   */\n      dup1\n        /* \"--CODEGEN--\":20:32   */\n      revert\n        /* \"--CODEGEN--\":5:7   */\n    tag_68:\n        /* \"contracts/ss.sol\":7545:8524  function resign(address _candidate) public onlyOwner(_candidate) onlyCandidate(_candidate) {... */\n      pop\n      tag_69\n      0x4\n      dup1\n      calldatasize\n      sub\n      dup2\n      add\n      swap1\n      dup1\n      dup1\n      calldataload\n      0xffffffffffffffffffffffffffffffffffffffff\n      and\n      swap1\n      0x20\n      add\n      swap1\n      swap3\n      swap2\n      swap1\n      pop\n      pop\n      pop\n      jump(tag_70)\n    tag_69:\n      stop\n        /* \"contracts/ss.sol\":6037:6170  function getCandidateOwner(address _candidate) public view returns(address) {... */\n    tag_16:\n      callvalue\n        /* \"--CODEGEN--\":8:17   */\n      dup1\n        /* \"--CODEGEN--\":5:7   */\n      iszero\n      tag_71\n      jumpi\n        /* \"--CODEGEN--\":30:31   */\n      0x0\n        /* \"--CODEGEN--\":27:28   */\n      dup1\n        /* \"--CODEGEN--\":20:32   */\n      revert\n        /* \"--CODEGEN--\":5:7   */\n    tag_71:\n        /* \"contracts/ss.sol\":6037:6170  function getCandidateOwner(address _candidate) public view returns(address) {... */\n      pop\n      tag_72\n      0x4\n      dup1\n      calldatasize\n      sub\n      dup2\n      add\n      swap1\n      dup1\n      dup1\n      calldataload\n      0xffffffffffffffffffffffffffffffffffffffff\n      and\n      swap1\n      0x20\n      add\n      swap1\n      swap3\n      swap2\n      swap1\n      pop\n      pop\n      pop\n      jump(tag_73)\n    tag_72:\n      mload(0x40)\n      dup1\n      dup3\n      0xffffffffffffffffffffffffffffffffffffffff\n      and\n      0xffffffffffffffffffffffffffffffffffffffff\n      and\n      dup2\n      mstore\n      0x20\n      add\n      swap2\n      pop\n      pop\n      mload(0x40)\n      dup1\n      swap2\n      sub\n      swap1\n      return\n        /* \"contracts/ss.sol\":2088:2121  uint256 public maxValidatorNumber */\n    tag_17:\n      callvalue\n        /* \"--CODEGEN--\":8:17   */\n      dup1\n        /* \"--CODEGEN--\":5:7   */\n      iszero\n      tag_74\n      jumpi\n        /* \"--CODEGEN--\":30:31   */\n      0x0\n        /* \"--CODEGEN--\":27:28   */\n      dup1\n        /* \"--CODEGEN--\":20:32   */\n      revert\n        /* \"--CODEGEN--\":5:7   */\n    tag_74:\n        /* \"contracts/ss.sol\":2088:2121  uint256 public maxValidatorNumber */\n      pop\n      tag_75\n      jump(tag_76)\n    tag_75:\n      mload(0x40)\n      dup1\n      dup3\n      dup2\n      mstore\n      0x20\n      add\n      swap2\n      pop\n      pop\n      mload(0x40)\n      dup1\n      swap2\n      sub\n      swap1\n      return\n        /* \"contracts/ss.sol\":2127:2164  uint256 public candidateWithdrawDelay */\n    tag_18:\n      callvalue\n        /* \"--CODEGEN--\":8:17   */\n      dup1\n        /* \"--CODEGEN--\":5:7   */\n      iszero\n      tag_77\n      jumpi\n        /* \"--CODEGEN--\":30:31   */\n      0x0\n        /* \"--CODEGEN--\":27:28   */\n      dup1\n        /* \"--CODEGEN--\":20:32   */\n      revert\n        /* \"--CODEGEN--\":5:7   */\n    tag_77:\n        /* \"contracts/ss.sol\":2127:2164  uint256 public candidateWithdrawDelay */\n      pop\n      tag_78\n      jump(tag_79)\n    tag_78:\n      mload(0x40)\n      dup1\n      dup3\n      dup2\n      mstore\n      0x20\n      add\n      swap2\n      pop\n      pop\n      mload(0x40)\n      dup1\n      swap2\n      sub\n      swap1\n      return\n        /* \"contracts/ss.sol\":6452:6582  function isCandidate(address _candidate) public view returns(bool) {... */\n    tag_19:\n      callvalue\n        /* \"--CODEGEN--\":8:17   */\n      dup1\n        /* \"--CODEGEN--\":5:7   */\n      iszero\n      tag_80\n      jumpi\n        /* \"--CODEGEN--\":30:31   */\n      0x0\n        /* \"--CODEGEN--\":27:28   */\n      dup1\n        /* \"--CODEGEN--\":20:32   */\n      revert\n        /* \"--CODEGEN--\":5:7   */\n    tag_80:\n        /* \"contracts/ss.sol\":6452:6582  function isCandidate(address _candidate) public view returns(bool) {... */\n      pop\n      tag_81\n      0x4\n      dup1\n      calldatasize\n      sub\n      dup2\n      add\n      swap1\n      dup1\n      dup1\n      calldataload\n      0xffffffffffffffffffffffffffffffffffffffff\n      and\n      swap1\n      0x20\n      add\n      swap1\n      swap3\n      swap2\n      swap1\n      pop\n      pop\n      pop\n      jump(tag_82)\n    tag_81:\n      mload(0x40)\n      dup1\n      dup3\n      iszero\n      iszero\n      iszero\n      iszero\n      dup2\n      mstore\n      0x20\n      add\n      swap2\n      pop\n      pop\n      mload(0x40)\n      dup1\n      swap2\n      sub\n      swap1\n      return\n        /* \"contracts/ss.sol\":2020:2050  uint256 public minCandidateCap */\n    tag_20:\n      callvalue\n        /* \"--CODEGEN--\":8:17   */\n      dup1\n        /* \"--CODEGEN--\":5:7   */\n      iszero\n      tag_83\n      jumpi\n        /* \"--CODEGEN--\":30:31   */\n      0x0\n        /* \"--CODEGEN--\":27:28   */\n      dup1\n        /* \"--CODEGEN--\":20:32   */\n      revert\n        /* \"--CODEGEN--\":5:7   */\n    tag_83:\n        /* \"contracts/ss.sol\":2020:2050  uint256 public minCandidateCap */\n      pop\n      tag_84\n      jump(tag_85)\n    tag_84:\n      mload(0x40)\n      dup1\n      dup3\n      dup2\n      mstore\n      0x20\n      add\n      swap2\n      pop\n      pop\n      mload(0x40)\n      dup1\n      swap2\n      sub\n      swap1\n      return\n        /* \"contracts/ss.sol\":2056:2082  uint256 public minVoterCap */\n    tag_21:\n      callvalue\n        /* \"--CODEGEN--\":8:17   */\n      dup1\n        /* \"--CODEGEN--\":5:7   */\n      iszero\n      tag_86\n      jumpi\n        /* \"--CODEGEN--\":30:31   */\n      0x0\n        /* \"--CODEGEN--\":27:28   */\n      dup1\n        /* \"--CODEGEN--\":20:32   */\n      revert\n        /* \"--CODEGEN--\":5:7   */\n    tag_86:\n        /* \"contracts/ss.sol\":2056:2082  uint256 public minVoterCap */\n      pop\n      tag_87\n      jump(tag_88)\n    tag_87:\n      mload(0x40)\n      dup1\n      dup3\n      dup2\n      mstore\n      0x20\n      add\n      swap2\n      pop\n      pop\n      mload(0x40)\n      dup1\n      swap2\n      sub\n      swap1\n      return\n        /* \"contracts/ss.sol\":4658:5297  function propose(address _candidate) external payable onlyValidCandidateCap onlyNotCandidate(_candidate) {... */\n    tag_23:\n        /* \"contracts/ss.sol\":4773:4784  uint256 cap */\n      0x0\n        /* \"contracts/ss.sol\":2333:2348  minCandidateCap */\n      sload(0x5)\n        /* \"contracts/ss.sol\":2320:2329  msg.value */\n      callvalue\n        /* \"contracts/ss.sol\":2320:2348  msg.value >= minCandidateCap */\n      lt\n      iszero\n        /* \"contracts/ss.sol\":2312:2349  require(msg.value >= minCandidateCap) */\n      iszero\n      iszero\n      tag_90\n      jumpi\n      0x0\n      dup1\n      revert\n    tag_90:\n        /* \"contracts/ss.sol\":4751:4761  _candidate */\n      dup2\n        /* \"contracts/ss.sol\":2918:2933  validatorsState */\n      0x1\n        /* \"contracts/ss.sol\":2918:2945  validatorsState[_candidate] */\n      0x0\n        /* \"contracts/ss.sol\":2934:2944  _candidate */\n      dup3\n        /* \"contracts/ss.sol\":2918:2945  validatorsState[_candidate] */\n      0xffffffffffffffffffffffffffffffffffffffff\n      and\n      0xffffffffffffffffffffffffffffffffffffffff\n      and\n      dup2\n      mstore\n      0x20\n      add\n      swap1\n      dup2\n      mstore\n      0x20\n      add\n      0x0\n      keccak256\n        /* \"contracts/ss.sol\":2918:2957  validatorsState[_candidate].isCandidate */\n      0x0\n      add\n      0x14\n      swap1\n      sload\n      swap1\n      0x100\n      exp\n      swap1\n      div\n      0xff\n      and\n        /* \"contracts/ss.sol\":2917:2957  !validatorsState[_candidate].isCandidate */\n      iszero\n        /* \"contracts/ss.sol\":2909:2958  require(!validatorsState[_candidate].isCandidate) */\n      iszero\n      iszero\n      tag_92\n      jumpi\n      0x0\n      dup1\n      revert\n    tag_92:\n        /* \"contracts/ss.sol\":4787:4833  validatorsState[_candidate].cap.add(msg.value) */\n      tag_94\n        /* \"contracts/ss.sol\":4823:4832  msg.value */\n      callvalue\n        /* \"contracts/ss.sol\":4787:4802  validatorsState */\n      0x1\n        /* \"contracts/ss.sol\":4787:4814  validatorsState[_candidate] */\n      0x0\n        /* \"contracts/ss.sol\":4803:4813  _candidate */\n      dup7\n        /* \"contracts/ss.sol\":4787:4814  validatorsState[_candidate] */\n      0xffffffffffffffffffffffffffffffffffffffff\n      and\n      0xffffffffffffffffffffffffffffffffffffffff\n      and\n      dup2\n      mstore\n      0x20\n      add\n      swap1\n      dup2\n      mstore\n      0x20\n      add\n      0x0\n      keccak256\n        /* \"contracts/ss.sol\":4787:4818  validatorsState[_candidate].cap */\n      0x1\n      add\n      sload\n        /* \"contracts/ss.sol\":4787:4822  validatorsState[_candidate].cap.add */\n      tag_95\n      swap1\n        /* \"contracts/ss.sol\":4787:4833  validatorsState[_candidate].cap.add(msg.value) */\n      swap2\n      swap1\n      0xffffffff\n      and\n      jump\t// in\n    tag_94:\n        /* \"contracts/ss.sol\":4773:4833  uint256 cap = validatorsState[_candidate].cap.add(msg.value) */\n      swap2\n      pop\n        /* \"contracts/ss.sol\":4843:4853  candidates */\n      0x3\n        /* \"contracts/ss.sol\":4859:4869  _candidate */\n      dup4\n        /* \"contracts/ss.sol\":4843:4870  candidates.push(_candidate) */\n      swap1\n      dup1\n        /* \"--CODEGEN--\":39:40   */\n      0x1\n        /* \"--CODEGEN--\":33:36   */\n      dup2\n        /* \"--CODEGEN--\":27:37   */\n      sload\n        /* \"--CODEGEN--\":23:41   */\n      add\n        /* \"--CODEGEN--\":57:67   */\n      dup1\n        /* \"--CODEGEN--\":52:55   */\n      dup3\n        /* \"--CODEGEN--\":45:68   */\n      sstore\n        /* \"--CODEGEN--\":79:89   */\n      dup1\n        /* \"--CODEGEN--\":72:89   */\n      swap2\n      pop\n        /* \"--CODEGEN--\":0:93   */\n      pop\n        /* \"contracts/ss.sol\":4843:4870  candidates.push(_candidate) */\n      swap1\n      0x1\n      dup3\n      sub\n      swap1\n      0x0\n      mstore\n      keccak256(0x0, 0x20)\n      add\n      0x0\n      swap1\n      swap2\n      swap3\n      swap1\n      swap2\n      swap1\n      swap2\n      0x100\n      exp\n      dup2\n      sload\n      dup2\n      0xffffffffffffffffffffffffffffffffffffffff\n      mul\n      not\n      and\n      swap1\n      dup4\n      0xffffffffffffffffffffffffffffffffffffffff\n      and\n      mul\n      or\n      swap1\n      sstore\n      pop\n      pop\n        /* \"contracts/ss.sol\":4910:5020  ValidatorState({... */\n      0x60\n      mload(0x40)\n      swap1\n      dup2\n      add\n      0x40\n      mstore\n      dup1\n        /* \"contracts/ss.sol\":4946:4956  msg.sender */\n      caller\n        /* \"contracts/ss.sol\":4910:5020  ValidatorState({... */\n      0xffffffffffffffffffffffffffffffffffffffff\n      and\n      dup2\n      mstore\n      0x20\n      add\n        /* \"contracts/ss.sol\":4983:4987  true */\n      0x1\n        /* \"contracts/ss.sol\":4910:5020  ValidatorState({... */\n      iszero\n      iszero\n      dup2\n      mstore\n      0x20\n      add\n        /* \"contracts/ss.sol\":5006:5009  cap */\n      dup4\n        /* \"contracts/ss.sol\":4910:5020  ValidatorState({... */\n      dup2\n      mstore\n      pop\n        /* \"contracts/ss.sol\":4880:4895  validatorsState */\n      0x1\n        /* \"contracts/ss.sol\":4880:4907  validatorsState[_candidate] */\n      0x0\n        /* \"contracts/ss.sol\":4896:4906  _candidate */\n      dup6\n        /* \"contracts/ss.sol\":4880:4907  validatorsState[_candidate] */\n      0xffffffffffffffffffffffffffffffffffffffff\n      and\n      0xffffffffffffffffffffffffffffffffffffffff\n      and\n      dup2\n      mstore\n      0x20\n      add\n      swap1\n      dup2\n      mstore\n      0x20\n      add\n      0x0\n      keccak256\n        /* \"contracts/ss.sol\":4880:5020  validatorsState[_candidate] = ValidatorState({... */\n      0x0\n      dup3\n      add\n      mload\n      dup2\n      0x0\n      add\n      exp(0x100, 0x0)\n      dup2\n      sload\n      dup2\n      0xffffffffffffffffffffffffffffffffffffffff\n      mul\n      not\n      and\n      swap1\n      dup4\n      0xffffffffffffffffffffffffffffffffffffffff\n      and\n      mul\n      or\n      swap1\n      sstore\n      pop\n      0x20\n      dup3\n      add\n      mload\n      dup2\n      0x0\n      add\n      exp(0x100, 0x14)\n      dup2\n      sload\n      dup2\n      0xff\n      mul\n      not\n      and\n      swap1\n      dup4\n      iszero\n      iszero\n      mul\n      or\n      swap1\n      sstore\n      pop\n      0x40\n      dup3\n      add\n      mload\n      dup2\n      0x1\n      add\n      sstore\n      swap1\n      pop\n      pop\n        /* \"contracts/ss.sol\":5079:5140  validatorsState[_candidate].voters[msg.sender].add(msg.value) */\n      tag_97\n        /* \"contracts/ss.sol\":5130:5139  msg.value */\n      callvalue\n        /* \"contracts/ss.sol\":5079:5094  validatorsState */\n      0x1\n        /* \"contracts/ss.sol\":5079:5106  validatorsState[_candidate] */\n      0x0\n        /* \"contracts/ss.sol\":5095:5105  _candidate */\n      dup7\n        /* \"contracts/ss.sol\":5079:5106  validatorsState[_candidate] */\n      0xffffffffffffffffffffffffffffffffffffffff\n      and\n      0xffffffffffffffffffffffffffffffffffffffff\n      and\n      dup2\n      mstore\n      0x20\n      add\n      swap1\n      dup2\n      mstore\n      0x20\n      add\n      0x0\n      keccak256\n        /* \"contracts/ss.sol\":5079:5113  validatorsState[_candidate].voters */\n      0x2\n      add\n        /* \"contracts/ss.sol\":5079:5125  validatorsState[_candidate].voters[msg.sender] */\n      0x0\n        /* \"contracts/ss.sol\":5114:5124  msg.sender */\n      caller\n        /* \"contracts/ss.sol\":5079:5125  validatorsState[_candidate].voters[msg.sender] */\n      0xffffffffffffffffffffffffffffffffffffffff\n      and\n      0xffffffffffffffffffffffffffffffffffffffff\n      and\n      dup2\n      mstore\n      0x20\n      add\n      swap1\n      dup2\n      mstore\n      0x20\n      add\n      0x0\n      keccak256\n      sload\n        /* \"contracts/ss.sol\":5079:5129  validatorsState[_candidate].voters[msg.sender].add */\n      tag_95\n      swap1\n        /* \"contracts/ss.sol\":5079:5140  validatorsState[_candidate].voters[msg.sender].add(msg.value) */\n      swap2\n      swap1\n      0xffffffff\n      and\n      jump\t// in\n    tag_97:\n        /* \"contracts/ss.sol\":5030:5045  validatorsState */\n      0x1\n        /* \"contracts/ss.sol\":5030:5057  validatorsState[_candidate] */\n      0x0\n        /* \"contracts/ss.sol\":5046:5056  _candidate */\n      dup6\n        /* \"contracts/ss.sol\":5030:5057  validatorsState[_candidate] */\n      0xffffffffffffffffffffffffffffffffffffffff\n      and\n      0xffffffffffffffffffffffffffffffffffffffff\n      and\n      dup2\n      mstore\n      0x20\n      add\n      swap1\n      dup2\n      mstore\n      0x20\n      add\n      0x0\n      keccak256\n        /* \"contracts/ss.sol\":5030:5064  validatorsState[_candidate].voters */\n      0x2\n      add\n        /* \"contracts/ss.sol\":5030:5076  validatorsState[_candidate].voters[msg.sender] */\n      0x0\n        /* \"contracts/ss.sol\":5065:5075  msg.sender */\n      caller\n        /* \"contracts/ss.sol\":5030:5076  validatorsState[_candidate].voters[msg.sender] */\n      0xffffffffffffffffffffffffffffffffffffffff\n      and\n      0xffffffffffffffffffffffffffffffffffffffff\n      and\n      dup2\n      mstore\n      0x20\n      add\n      swap1\n      dup2\n      mstore\n      0x20\n      add\n      0x0\n      keccak256\n        /* \"contracts/ss.sol\":5030:5140  validatorsState[_candidate].voters[msg.sender] = validatorsState[_candidate].voters[msg.sender].add(msg.value) */\n      dup2\n      swap1\n      sstore\n      pop\n        /* \"contracts/ss.sol\":5167:5188  candidateCount.add(1) */\n      tag_98\n        /* \"contracts/ss.sol\":5186:5187  1 */\n      0x1\n        /* \"contracts/ss.sol\":5167:5181  candidateCount */\n      sload(0x4)\n        /* \"contracts/ss.sol\":5167:5185  candidateCount.add */\n      tag_95\n      swap1\n        /* \"contracts/ss.sol\":5167:5188  candidateCount.add(1) */\n      swap2\n      swap1\n      0xffffffff\n      and\n      jump\t// in\n    tag_98:\n        /* \"contracts/ss.sol\":5150:5164  candidateCount */\n      0x4\n        /* \"contracts/ss.sol\":5150:5188  candidateCount = candidateCount.add(1) */\n      dup2\n      swap1\n      sstore\n      pop\n        /* \"contracts/ss.sol\":5198:5204  voters */\n      0x2\n        /* \"contracts/ss.sol\":5198:5216  voters[_candidate] */\n      0x0\n        /* \"contracts/ss.sol\":5205:5215  _candidate */\n      dup5\n        /* \"contracts/ss.sol\":5198:5216  voters[_candidate] */\n      0xffffffffffffffffffffffffffffffffffffffff\n      and\n      0xffffffffffffffffffffffffffffffffffffffff\n      and\n      dup2\n      mstore\n      0x20\n      add\n      swap1\n      dup2\n      mstore\n      0x20\n      add\n      0x0\n      keccak256\n        /* \"contracts/ss.sol\":5222:5232  msg.sender */\n      caller\n        /* \"contracts/ss.sol\":5198:5233  voters[_candidate].push(msg.sender) */\n      swap1\n      dup1\n        /* \"--CODEGEN--\":39:40   */\n      0x1\n        /* \"--CODEGEN--\":33:36   */\n      dup2\n        /* \"--CODEGEN--\":27:37   */\n      sload\n        /* \"--CODEGEN--\":23:41   */\n      add\n        /* \"--CODEGEN--\":57:67   */\n      dup1\n        /* \"--CODEGEN--\":52:55   */\n      dup3\n        /* \"--CODEGEN--\":45:68   */\n      sstore\n        /* \"--CODEGEN--\":79:89   */\n      dup1\n        /* \"--CODEGEN--\":72:89   */\n      swap2\n      pop\n        /* \"--CODEGEN--\":0:93   */\n      pop\n        /* \"contracts/ss.sol\":5198:5233  voters[_candidate].push(msg.sender) */\n      swap1\n      0x1\n      dup3\n      sub\n      swap1\n      0x0\n      mstore\n      keccak256(0x0, 0x20)\n      add\n      0x0\n      swap1\n      swap2\n      swap3\n      swap1\n      swap2\n      swap1\n      swap2\n      0x100\n      exp\n      dup2\n      sload\n      dup2\n      0xffffffffffffffffffffffffffffffffffffffff\n      mul\n      not\n      and\n      swap1\n      dup4\n      0xffffffffffffffffffffffffffffffffffffffff\n      and\n      mul\n      or\n      swap1\n      sstore\n      pop\n      pop\n        /* \"contracts/ss.sol\":5248:5290  Propose(msg.sender, _candidate, msg.value) */\n      0x7635f1d87b47fba9f2b09e56eb4be75cca030e0cb179c1602ac9261d39a8f5c1\n        /* \"contracts/ss.sol\":5256:5266  msg.sender */\n      caller\n        /* \"contracts/ss.sol\":5268:5278  _candidate */\n      dup5\n        /* \"contracts/ss.sol\":5280:5289  msg.value */\n      callvalue\n        /* \"contracts/ss.sol\":5248:5290  Propose(msg.sender, _candidate, msg.value) */\n      mload(0x40)\n      dup1\n      dup5\n      0xffffffffffffffffffffffffffffffffffffffff\n      and\n      0xffffffffffffffffffffffffffffffffffffffff\n      and\n      dup2\n      mstore\n      0x20\n      add\n      dup4\n      0xffffffffffffffffffffffffffffffffffffffff\n      and\n      0xffffffffffffffffffffffffffffffffffffffff\n      and\n      dup2\n      mstore\n      0x20\n      add\n      dup3\n      dup2\n      mstore\n      0x20\n      add\n      swap4\n      pop\n      pop\n      pop\n      pop\n      mload(0x40)\n      dup1\n      swap2\n      sub\n      swap1\n      log1\n        /* \"contracts/ss.sol\":2359:2360  _ */\n      pop\n        /* \"contracts/ss.sol\":4658:5297  function propose(address _candidate) external payable onlyValidCandidateCap onlyNotCandidate(_candidate) {... */\n      pop\n      pop\n      jump\t// out\n        /* \"contracts/ss.sol\":6873:7539  function unvote(address _candidate, uint256 _cap) public onlyValidVote(_candidate, _cap) {... */\n    tag_26:\n        /* \"contracts/ss.sol\":7212:7239  uint256 withdrawBlockNumber */\n      0x0\n        /* \"contracts/ss.sol\":6944:6954  _candidate */\n      dup3\n        /* \"contracts/ss.sol\":6956:6960  _cap */\n      dup3\n        /* \"contracts/ss.sol\":3108:3112  _cap */\n      dup1\n        /* \"contracts/ss.sol\":3058:3073  validatorsState */\n      0x1\n        /* \"contracts/ss.sol\":3058:3085  validatorsState[_candidate] */\n      0x0\n        /* \"contracts/ss.sol\":3074:3084  _candidate */\n      dup5\n        /* \"contracts/ss.sol\":3058:3085  validatorsState[_candidate] */\n      0xffffffffffffffffffffffffffffffffffffffff\n      and\n      0xffffffffffffffffffffffffffffffffffffffff\n      and\n      dup2\n      mstore\n      0x20\n      add\n      swap1\n      dup2\n      mstore\n      0x20\n      add\n      0x0\n      keccak256\n        /* \"contracts/ss.sol\":3058:3092  validatorsState[_candidate].voters */\n      0x2\n      add\n        /* \"contracts/ss.sol\":3058:3104  validatorsState[_candidate].voters[msg.sender] */\n      0x0\n        /* \"contracts/ss.sol\":3093:3103  msg.sender */\n      caller\n        /* \"contracts/ss.sol\":3058:3104  validatorsState[_candidate].voters[msg.sender] */\n      0xffffffffffffffffffffffffffffffffffffffff\n      and\n      0xffffffffffffffffffffffffffffffffffffffff\n      and\n      dup2\n      mstore\n      0x20\n      add\n      swap1\n      dup2\n      mstore\n      0x20\n      add\n      0x0\n      keccak256\n      sload\n        /* \"contracts/ss.sol\":3058:3112  validatorsState[_candidate].voters[msg.sender] >= _cap */\n      lt\n      iszero\n        /* \"contracts/ss.sol\":3050:3113  require(validatorsState[_candidate].voters[msg.sender] >= _cap) */\n      iszero\n      iszero\n      tag_101\n      jumpi\n      0x0\n      dup1\n      revert\n    tag_101:\n        /* \"contracts/ss.sol\":3164:3174  msg.sender */\n      caller\n        /* \"contracts/ss.sol\":3127:3174  validatorsState[_candidate].owner == msg.sender */\n      0xffffffffffffffffffffffffffffffffffffffff\n      and\n        /* \"contracts/ss.sol\":3127:3142  validatorsState */\n      0x1\n        /* \"contracts/ss.sol\":3127:3154  validatorsState[_candidate] */\n      0x0\n        /* \"contracts/ss.sol\":3143:3153  _candidate */\n      dup5\n        /* \"contracts/ss.sol\":3127:3154  validatorsState[_candidate] */\n      0xffffffffffffffffffffffffffffffffffffffff\n      and\n      0xffffffffffffffffffffffffffffffffffffffff\n      and\n      dup2\n      mstore\n      0x20\n      add\n      swap1\n      dup2\n      mstore\n      0x20\n      add\n      0x0\n      keccak256\n        /* \"contracts/ss.sol\":3127:3160  validatorsState[_candidate].owner */\n      0x0\n      add\n      0x0\n      swap1\n      sload\n      swap1\n      0x100\n      exp\n      swap1\n      div\n      0xffffffffffffffffffffffffffffffffffffffff\n      and\n        /* \"contracts/ss.sol\":3127:3174  validatorsState[_candidate].owner == msg.sender */\n      0xffffffffffffffffffffffffffffffffffffffff\n      and\n      eq\n        /* \"contracts/ss.sol\":3123:3285  if (validatorsState[_candidate].owner == msg.sender) {... */\n      iszero\n      tag_102\n      jumpi\n        /* \"contracts/ss.sol\":3258:3273  minCandidateCap */\n      sload(0x5)\n        /* \"contracts/ss.sol\":3198:3254  validatorsState[_candidate].voters[msg.sender].sub(_cap) */\n      tag_103\n        /* \"contracts/ss.sol\":3249:3253  _cap */\n      dup3\n        /* \"contracts/ss.sol\":3198:3213  validatorsState */\n      0x1\n        /* \"contracts/ss.sol\":3198:3225  validatorsState[_candidate] */\n      0x0\n        /* \"contracts/ss.sol\":3214:3224  _candidate */\n      dup7\n        /* \"contracts/ss.sol\":3198:3225  validatorsState[_candidate] */\n      0xffffffffffffffffffffffffffffffffffffffff\n      and\n      0xffffffffffffffffffffffffffffffffffffffff\n      and\n      dup2\n      mstore\n      0x20\n      add\n      swap1\n      dup2\n      mstore\n      0x20\n      add\n      0x0\n      keccak256\n        /* \"contracts/ss.sol\":3198:3232  validatorsState[_candidate].voters */\n      0x2\n      add\n        /* \"contracts/ss.sol\":3198:3244  validatorsState[_candidate].voters[msg.sender] */\n      0x0\n        /* \"contracts/ss.sol\":3233:3243  msg.sender */\n      caller\n        /* \"contracts/ss.sol\":3198:3244  validatorsState[_candidate].voters[msg.sender] */\n      0xffffffffffffffffffffffffffffffffffffffff\n      and\n      0xffffffffffffffffffffffffffffffffffffffff\n      and\n      dup2\n      mstore\n      0x20\n      add\n      swap1\n      dup2\n      mstore\n      0x20\n      add\n      0x0\n      keccak256\n      sload\n        /* \"contracts/ss.sol\":3198:3248  validatorsState[_candidate].voters[msg.sender].sub */\n      tag_104\n      swap1\n        /* \"contracts/ss.sol\":3198:3254  validatorsState[_candidate].voters[msg.sender].sub(_cap) */\n      swap2\n      swap1\n      0xffffffff\n      and\n      jump\t// in\n    tag_103:\n        /* \"contracts/ss.sol\":3198:3273  validatorsState[_candidate].voters[msg.sender].sub(_cap) >= minCandidateCap */\n      lt\n      iszero\n        /* \"contracts/ss.sol\":3190:3274  require(validatorsState[_candidate].voters[msg.sender].sub(_cap) >= minCandidateCap) */\n      iszero\n      iszero\n      tag_105\n      jumpi\n      0x0\n      dup1\n      revert\n    tag_105:\n        /* \"contracts/ss.sol\":3123:3285  if (validatorsState[_candidate].owner == msg.sender) {... */\n    tag_102:\n        /* \"contracts/ss.sol\":7006:7047  validatorsState[_candidate].cap.sub(_cap) */\n      tag_107\n        /* \"contracts/ss.sol\":7042:7046  _cap */\n      dup5\n        /* \"contracts/ss.sol\":7006:7021  validatorsState */\n      0x1\n        /* \"contracts/ss.sol\":7006:7033  validatorsState[_candidate] */\n      0x0\n        /* \"contracts/ss.sol\":7022:7032  _candidate */\n      dup9\n        /* \"contracts/ss.sol\":7006:7033  validatorsState[_candidate] */\n      0xffffffffffffffffffffffffffffffffffffffff\n      and\n      0xffffffffffffffffffffffffffffffffffffffff\n      and\n      dup2\n      mstore\n      0x20\n      add\n      swap1\n      dup2\n      mstore\n      0x20\n      add\n      0x0\n      keccak256\n        /* \"contracts/ss.sol\":7006:7037  validatorsState[_candidate].cap */\n      0x1\n      add\n      sload\n        /* \"contracts/ss.sol\":7006:7041  validatorsState[_candidate].cap.sub */\n      tag_104\n      swap1\n        /* \"contracts/ss.sol\":7006:7047  validatorsState[_candidate].cap.sub(_cap) */\n      swap2\n      swap1\n      0xffffffff\n      and\n      jump\t// in\n    tag_107:\n        /* \"contracts/ss.sol\":6972:6987  validatorsState */\n      0x1\n        /* \"contracts/ss.sol\":6972:6999  validatorsState[_candidate] */\n      0x0\n        /* \"contracts/ss.sol\":6988:6998  _candidate */\n      dup8\n        /* \"contracts/ss.sol\":6972:6999  validatorsState[_candidate] */\n      0xffffffffffffffffffffffffffffffffffffffff\n      and\n      0xffffffffffffffffffffffffffffffffffffffff\n      and\n      dup2\n      mstore\n      0x20\n      add\n      swap1\n      dup2\n      mstore\n      0x20\n      add\n      0x0\n      keccak256\n        /* \"contracts/ss.sol\":6972:7003  validatorsState[_candidate].cap */\n      0x1\n      add\n        /* \"contracts/ss.sol\":6972:7047  validatorsState[_candidate].cap = validatorsState[_candidate].cap.sub(_cap) */\n      dup2\n      swap1\n      sstore\n      pop\n        /* \"contracts/ss.sol\":7106:7162  validatorsState[_candidate].voters[msg.sender].sub(_cap) */\n      tag_108\n        /* \"contracts/ss.sol\":7157:7161  _cap */\n      dup5\n        /* \"contracts/ss.sol\":7106:7121  validatorsState */\n      0x1\n        /* \"contracts/ss.sol\":7106:7133  validatorsState[_candidate] */\n      0x0\n        /* \"contracts/ss.sol\":7122:7132  _candidate */\n      dup9\n        /* \"contracts/ss.sol\":7106:7133  validatorsState[_candidate] */\n      0xffffffffffffffffffffffffffffffffffffffff\n      and\n      0xffffffffffffffffffffffffffffffffffffffff\n      and\n      dup2\n      mstore\n      0x20\n      add\n      swap1\n      dup2\n      mstore\n      0x20\n      add\n      0x0\n      keccak256\n        /* \"contracts/ss.sol\":7106:7140  validatorsState[_candidate].voters */\n      0x2\n      add\n        /* \"contracts/ss.sol\":7106:7152  validatorsState[_candidate].voters[msg.sender] */\n      0x0\n        /* \"contracts/ss.sol\":7141:7151  msg.sender */\n      caller\n        /* \"contracts/ss.sol\":7106:7152  validatorsState[_candidate].voters[msg.sender] */\n      0xffffffffffffffffffffffffffffffffffffffff\n      and\n      0xffffffffffffffffffffffffffffffffffffffff\n      and\n      dup2\n      mstore\n      0x20\n      add\n      swap1\n      dup2\n      mstore\n      0x20\n      add\n      0x0\n      keccak256\n      sload\n        /* \"contracts/ss.sol\":7106:7156  validatorsState[_candidate].voters[msg.sender].sub */\n      tag_104\n      swap1\n        /* \"contracts/ss.sol\":7106:7162  validatorsState[_candidate].voters[msg.sender].sub(_cap) */\n      swap2\n      swap1\n      0xffffffff\n      and\n      jump\t// in\n    tag_108:\n        /* \"contracts/ss.sol\":7057:7072  validatorsState */\n      0x1\n        /* \"contracts/ss.sol\":7057:7084  validatorsState[_candidate] */\n      0x0\n        /* \"contracts/ss.sol\":7073:7083  _candidate */\n      dup8\n        /* \"contracts/ss.sol\":7057:7084  validatorsState[_candidate] */\n      0xffffffffffffffffffffffffffffffffffffffff\n      and\n      0xffffffffffffffffffffffffffffffffffffffff\n      and\n      dup2\n      mstore\n      0x20\n      add\n      swap1\n      dup2\n      mstore\n      0x20\n      add\n      0x0\n      keccak256\n        /* \"contracts/ss.sol\":7057:7091  validatorsState[_candidate].voters */\n      0x2\n      add\n        /* \"contracts/ss.sol\":7057:7103  validatorsState[_candidate].voters[msg.sender] */\n      0x0\n        /* \"contracts/ss.sol\":7092:7102  msg.sender */\n      caller\n        /* \"contracts/ss.sol\":7057:7103  validatorsState[_candidate].voters[msg.sender] */\n      0xffffffffffffffffffffffffffffffffffffffff\n      and\n      0xffffffffffffffffffffffffffffffffffffffff\n      and\n      dup2\n      mstore\n      0x20\n      add\n      swap1\n      dup2\n      mstore\n      0x20\n      add\n      0x0\n      keccak256\n        /* \"contracts/ss.sol\":7057:7162  validatorsState[_candidate].voters[msg.sender] = validatorsState[_candidate].voters[msg.sender].sub(_cap) */\n      dup2\n      swap1\n      sstore\n      pop\n        /* \"contracts/ss.sol\":7242:7278  voterWithdrawDelay.add(block.number) */\n      tag_109\n        /* \"contracts/ss.sol\":7265:7277  block.number */\n      number\n        /* \"contracts/ss.sol\":7242:7260  voterWithdrawDelay */\n      sload(0x9)\n        /* \"contracts/ss.sol\":7242:7264  voterWithdrawDelay.add */\n      tag_95\n      swap1\n        /* \"contracts/ss.sol\":7242:7278  voterWithdrawDelay.add(block.number) */\n      swap2\n      swap1\n      0xffffffff\n      and\n      jump\t// in\n    tag_109:\n        /* \"contracts/ss.sol\":7212:7278  uint256 withdrawBlockNumber = voterWithdrawDelay.add(block.number) */\n      swap3\n      pop\n        /* \"contracts/ss.sol\":7343:7405  withdrawsState[msg.sender].caps[withdrawBlockNumber].add(_cap) */\n      tag_110\n        /* \"contracts/ss.sol\":7400:7404  _cap */\n      dup5\n        /* \"contracts/ss.sol\":7343:7357  withdrawsState */\n      0x0\n        /* \"contracts/ss.sol\":7343:7369  withdrawsState[msg.sender] */\n      dup1\n        /* \"contracts/ss.sol\":7358:7368  msg.sender */\n      caller\n        /* \"contracts/ss.sol\":7343:7369  withdrawsState[msg.sender] */\n      0xffffffffffffffffffffffffffffffffffffffff\n      and\n      0xffffffffffffffffffffffffffffffffffffffff\n      and\n      dup2\n      mstore\n      0x20\n      add\n      swap1\n      dup2\n      mstore\n      0x20\n      add\n      0x0\n      keccak256\n        /* \"contracts/ss.sol\":7343:7374  withdrawsState[msg.sender].caps */\n      0x0\n      add\n        /* \"contracts/ss.sol\":7343:7395  withdrawsState[msg.sender].caps[withdrawBlockNumber] */\n      0x0\n        /* \"contracts/ss.sol\":7375:7394  withdrawBlockNumber */\n      dup7\n        /* \"contracts/ss.sol\":7343:7395  withdrawsState[msg.sender].caps[withdrawBlockNumber] */\n      dup2\n      mstore\n      0x20\n      add\n      swap1\n      dup2\n      mstore\n      0x20\n      add\n      0x0\n      keccak256\n      sload\n        /* \"contracts/ss.sol\":7343:7399  withdrawsState[msg.sender].caps[withdrawBlockNumber].add */\n      tag_95\n      swap1\n        /* \"contracts/ss.sol\":7343:7405  withdrawsState[msg.sender].caps[withdrawBlockNumber].add(_cap) */\n      swap2\n      swap1\n      0xffffffff\n      and\n      jump\t// in\n    tag_110:\n        /* \"contracts/ss.sol\":7288:7302  withdrawsState */\n      0x0\n        /* \"contracts/ss.sol\":7288:7314  withdrawsState[msg.sender] */\n      dup1\n        /* \"contracts/ss.sol\":7303:7313  msg.sender */\n      caller\n        /* \"contracts/ss.sol\":7288:7314  withdrawsState[msg.sender] */\n      0xffffffffffffffffffffffffffffffffffffffff\n      and\n      0xffffffffffffffffffffffffffffffffffffffff\n      and\n      dup2\n      mstore\n      0x20\n      add\n      swap1\n      dup2\n      mstore\n      0x20\n      add\n      0x0\n      keccak256\n        /* \"contracts/ss.sol\":7288:7319  withdrawsState[msg.sender].caps */\n      0x0\n      add\n        /* \"contracts/ss.sol\":7288:7340  withdrawsState[msg.sender].caps[withdrawBlockNumber] */\n      0x0\n        /* \"contracts/ss.sol\":7320:7339  withdrawBlockNumber */\n      dup6\n        /* \"contracts/ss.sol\":7288:7340  withdrawsState[msg.sender].caps[withdrawBlockNumber] */\n      dup2\n      mstore\n      0x20\n      add\n      swap1\n      dup2\n      mstore\n      0x20\n      add\n      0x0\n      keccak256\n        /* \"contracts/ss.sol\":7288:7405  withdrawsState[msg.sender].caps[withdrawBlockNumber] = withdrawsState[msg.sender].caps[withdrawBlockNumber].add(_cap) */\n      dup2\n      swap1\n      sstore\n      pop\n        /* \"contracts/ss.sol\":7415:7429  withdrawsState */\n      0x0\n        /* \"contracts/ss.sol\":7415:7441  withdrawsState[msg.sender] */\n      dup1\n        /* \"contracts/ss.sol\":7430:7440  msg.sender */\n      caller\n        /* \"contracts/ss.sol\":7415:7441  withdrawsState[msg.sender] */\n      0xffffffffffffffffffffffffffffffffffffffff\n      and\n      0xffffffffffffffffffffffffffffffffffffffff\n      and\n      dup2\n      mstore\n      0x20\n      add\n      swap1\n      dup2\n      mstore\n      0x20\n      add\n      0x0\n      keccak256\n        /* \"contracts/ss.sol\":7415:7454  withdrawsState[msg.sender].blockNumbers */\n      0x1\n      add\n        /* \"contracts/ss.sol\":7460:7479  withdrawBlockNumber */\n      dup4\n        /* \"contracts/ss.sol\":7415:7480  withdrawsState[msg.sender].blockNumbers.push(withdrawBlockNumber) */\n      swap1\n      dup1\n        /* \"--CODEGEN--\":39:40   */\n      0x1\n        /* \"--CODEGEN--\":33:36   */\n      dup2\n        /* \"--CODEGEN--\":27:37   */\n      sload\n        /* \"--CODEGEN--\":23:41   */\n      add\n        /* \"--CODEGEN--\":57:67   */\n      dup1\n        /* \"--CODEGEN--\":52:55   */\n      dup3\n        /* \"--CODEGEN--\":45:68   */\n      sstore\n        /* \"--CODEGEN--\":79:89   */\n      dup1\n        /* \"--CODEGEN--\":72:89   */\n      swap2\n      pop\n        /* \"--CODEGEN--\":0:93   */\n      pop\n        /* \"contracts/ss.sol\":7415:7480  withdrawsState[msg.sender].blockNumbers.push(withdrawBlockNumber) */\n      swap1\n      0x1\n      dup3\n      sub\n      swap1\n      0x0\n      mstore\n      keccak256(0x0, 0x20)\n      add\n      0x0\n      swap1\n      swap2\n      swap3\n      swap1\n      swap2\n      swap1\n      swap2\n      pop\n      sstore\n      pop\n        /* \"contracts/ss.sol\":7496:7532  Unvote(msg.sender, _candidate, _cap) */\n      0xaa0e554f781c3c3b2be110a0557f260f11af9a8aa2c64bc1e7a31dbb21e32fa2\n        /* \"contracts/ss.sol\":7503:7513  msg.sender */\n      caller\n        /* \"contracts/ss.sol\":7515:7525  _candidate */\n      dup7\n        /* \"contracts/ss.sol\":7527:7531  _cap */\n      dup7\n        /* \"contracts/ss.sol\":7496:7532  Unvote(msg.sender, _candidate, _cap) */\n      mload(0x40)\n      dup1\n      dup5\n      0xffffffffffffffffffffffffffffffffffffffff\n      and\n      0xffffffffffffffffffffffffffffffffffffffff\n      and\n      dup2\n      mstore\n      0x20\n      add\n      dup4\n      0xffffffffffffffffffffffffffffffffffffffff\n      and\n      0xffffffffffffffffffffffffffffffffffffffff\n      and\n      dup2\n      mstore\n      0x20\n      add\n      dup3\n      dup2\n      mstore\n      0x20\n      add\n      swap4\n      pop\n      pop\n      pop\n      pop\n      mload(0x40)\n      dup1\n      swap2\n      sub\n      swap1\n      log1\n        /* \"contracts/ss.sol\":6873:7539  function unvote(address _candidate, uint256 _cap) public onlyValidVote(_candidate, _cap) {... */\n      pop\n      pop\n      pop\n      pop\n      pop\n      jump\t// out\n        /* \"contracts/ss.sol\":5806:5896  function getCandidates() public view returns(address[]) {... */\n    tag_29:\n        /* \"contracts/ss.sol\":5851:5860  address[] */\n      0x60\n        /* \"contracts/ss.sol\":5879:5889  candidates */\n      0x3\n        /* \"contracts/ss.sol\":5872:5889  return candidates */\n      dup1\n      sload\n      dup1\n      0x20\n      mul\n      0x20\n      add\n      mload(0x40)\n      swap1\n      dup2\n      add\n      0x40\n      mstore\n      dup1\n      swap3\n      swap2\n      swap1\n      dup2\n      dup2\n      mstore\n      0x20\n      add\n      dup3\n      dup1\n      sload\n      dup1\n      iszero\n      tag_113\n      jumpi\n      0x20\n      mul\n      dup3\n      add\n      swap2\n      swap1\n      0x0\n      mstore\n      keccak256(0x0, 0x20)\n      swap1\n    tag_114:\n      dup2\n      0x0\n      swap1\n      sload\n      swap1\n      0x100\n      exp\n      swap1\n      div\n      0xffffffffffffffffffffffffffffffffffffffff\n      and\n      0xffffffffffffffffffffffffffffffffffffffff\n      and\n      dup2\n      mstore\n      0x20\n      add\n      swap1\n      0x1\n      add\n      swap1\n      dup1\n      dup4\n      gt\n      tag_114\n      jumpi\n    tag_113:\n      pop\n      pop\n      pop\n      pop\n      pop\n      swap1\n      pop\n        /* \"contracts/ss.sol\":5806:5896  function getCandidates() public view returns(address[]) {... */\n      swap1\n      jump\t// out\n        /* \"contracts/ss.sol\":6723:6867  function getWithdrawCap(uint256 _blockNumber) public view returns(uint256) {... */\n    tag_35:\n        /* \"contracts/ss.sol\":6789:6796  uint256 */\n      0x0\n        /* \"contracts/ss.sol\":6815:6829  withdrawsState */\n      dup1\n        /* \"contracts/ss.sol\":6815:6841  withdrawsState[msg.sender] */\n      0x0\n        /* \"contracts/ss.sol\":6830:6840  msg.sender */\n      caller\n        /* \"contracts/ss.sol\":6815:6841  withdrawsState[msg.sender] */\n      0xffffffffffffffffffffffffffffffffffffffff\n      and\n      0xffffffffffffffffffffffffffffffffffffffff\n      and\n      dup2\n      mstore\n      0x20\n      add\n      swap1\n      dup2\n      mstore\n      0x20\n      add\n      0x0\n      keccak256\n        /* \"contracts/ss.sol\":6815:6846  withdrawsState[msg.sender].caps */\n      0x0\n      add\n        /* \"contracts/ss.sol\":6815:6860  withdrawsState[msg.sender].caps[_blockNumber] */\n      0x0\n        /* \"contracts/ss.sol\":6847:6859  _blockNumber */\n      dup4\n        /* \"contracts/ss.sol\":6815:6860  withdrawsState[msg.sender].caps[_blockNumber] */\n      dup2\n      mstore\n      0x20\n      add\n      swap1\n      dup2\n      mstore\n      0x20\n      add\n      0x0\n      keccak256\n      sload\n        /* \"contracts/ss.sol\":6808:6860  return withdrawsState[msg.sender].caps[_blockNumber] */\n      swap1\n      pop\n        /* \"contracts/ss.sol\":6723:6867  function getWithdrawCap(uint256 _blockNumber) public view returns(uint256) {... */\n      swap2\n      swap1\n      pop\n      jump\t// out\n        /* \"contracts/ss.sol\":6334:6446  function getVoters(address _candidate) public view returns(address[]) {... */\n    tag_38:\n        /* \"contracts/ss.sol\":6393:6402  address[] */\n      0x60\n        /* \"contracts/ss.sol\":6421:6427  voters */\n      0x2\n        /* \"contracts/ss.sol\":6421:6439  voters[_candidate] */\n      0x0\n        /* \"contracts/ss.sol\":6428:6438  _candidate */\n      dup4\n        /* \"contracts/ss.sol\":6421:6439  voters[_candidate] */\n      0xffffffffffffffffffffffffffffffffffffffff\n      and\n      0xffffffffffffffffffffffffffffffffffffffff\n      and\n      dup2\n      mstore\n      0x20\n      add\n      swap1\n      dup2\n      mstore\n      0x20\n      add\n      0x0\n      keccak256\n        /* \"contracts/ss.sol\":6414:6439  return voters[_candidate] */\n      dup1\n      sload\n      dup1\n      0x20\n      mul\n      0x20\n      add\n      mload(0x40)\n      swap1\n      dup2\n      add\n      0x40\n      mstore\n      dup1\n      swap3\n      swap2\n      swap1\n      dup2\n      dup2\n      mstore\n      0x20\n      add\n      dup3\n      dup1\n      sload\n      dup1\n      iszero\n      tag_117\n      jumpi\n      0x20\n      mul\n      dup3\n      add\n      swap2\n      swap1\n      0x0\n      mstore\n      keccak256(0x0, 0x20)\n      swap1\n    tag_118:\n      dup2\n      0x0\n      swap1\n      sload\n      swap1\n      0x100\n      exp\n      swap1\n      div\n      0xffffffffffffffffffffffffffffffffffffffff\n      and\n      0xffffffffffffffffffffffffffffffffffffffff\n      and\n      dup2\n      mstore\n      0x20\n      add\n      swap1\n      0x1\n      add\n      swap1\n      dup1\n      dup4\n      gt\n      tag_118\n      jumpi\n    tag_117:\n      pop\n      pop\n      pop\n      pop\n      pop\n      swap1\n      pop\n        /* \"contracts/ss.sol\":6334:6446  function getVoters(address _candidate) public view returns(address[]) {... */\n      swap2\n      swap1\n      pop\n      jump\t// out\n        /* \"contracts/ss.sol\":6588:6717  function getWithdrawBlockNumbers() public view returns(uint256[]) {... */\n    tag_44:\n        /* \"contracts/ss.sol\":6643:6652  uint256[] */\n      0x60\n        /* \"contracts/ss.sol\":6671:6685  withdrawsState */\n      0x0\n        /* \"contracts/ss.sol\":6671:6697  withdrawsState[msg.sender] */\n      dup1\n        /* \"contracts/ss.sol\":6686:6696  msg.sender */\n      caller\n        /* \"contracts/ss.sol\":6671:6697  withdrawsState[msg.sender] */\n      0xffffffffffffffffffffffffffffffffffffffff\n      and\n      0xffffffffffffffffffffffffffffffffffffffff\n      and\n      dup2\n      mstore\n      0x20\n      add\n      swap1\n      dup2\n      mstore\n      0x20\n      add\n      0x0\n      keccak256\n        /* \"contracts/ss.sol\":6671:6710  withdrawsState[msg.sender].blockNumbers */\n      0x1\n      add\n        /* \"contracts/ss.sol\":6664:6710  return withdrawsState[msg.sender].blockNumbers */\n      dup1\n      sload\n      dup1\n      0x20\n      mul\n      0x20\n      add\n      mload(0x40)\n      swap1\n      dup2\n      add\n      0x40\n      mstore\n      dup1\n      swap3\n      swap2\n      swap1\n      dup2\n      dup2\n      mstore\n      0x20\n      add\n      dup3\n      dup1\n      sload\n      dup1\n      iszero\n      tag_120\n      jumpi\n      0x20\n      mul\n      dup3\n      add\n      swap2\n      swap1\n      0x0\n      mstore\n      keccak256(0x0, 0x20)\n      swap1\n    tag_121:\n      dup2\n      sload\n      dup2\n      mstore\n      0x20\n      add\n      swap1\n      0x1\n      add\n      swap1\n      dup1\n      dup4\n      gt\n      tag_121\n      jumpi\n    tag_120:\n      pop\n      pop\n      pop\n      pop\n      pop\n      swap1\n      pop\n        /* \"contracts/ss.sol\":6588:6717  function getWithdrawBlockNumbers() public view returns(uint256[]) {... */\n      swap1\n      jump\t// out\n        /* \"contracts/ss.sol\":6176:6328  function getVoterCap(address _candidate, address _voter) public view returns(uint256) {... */\n    tag_50:\n        /* \"contracts/ss.sol\":6253:6260  uint256 */\n      0x0\n        /* \"contracts/ss.sol\":6279:6294  validatorsState */\n      0x1\n        /* \"contracts/ss.sol\":6279:6306  validatorsState[_candidate] */\n      0x0\n        /* \"contracts/ss.sol\":6295:6305  _candidate */\n      dup5\n        /* \"contracts/ss.sol\":6279:6306  validatorsState[_candidate] */\n      0xffffffffffffffffffffffffffffffffffffffff\n      and\n      0xffffffffffffffffffffffffffffffffffffffff\n      and\n      dup2\n      mstore\n      0x20\n      add\n      swap1\n      dup2\n      mstore\n      0x20\n      add\n      0x0\n      keccak256\n        /* \"contracts/ss.sol\":6279:6313  validatorsState[_candidate].voters */\n      0x2\n      add\n        /* \"contracts/ss.sol\":6279:6321  validatorsState[_candidate].voters[_voter] */\n      0x0\n        /* \"contracts/ss.sol\":6314:6320  _voter */\n      dup4\n        /* \"contracts/ss.sol\":6279:6321  validatorsState[_candidate].voters[_voter] */\n      0xffffffffffffffffffffffffffffffffffffffff\n      and\n      0xffffffffffffffffffffffffffffffffffffffff\n      and\n      dup2\n      mstore\n      0x20\n      add\n      swap1\n      dup2\n      mstore\n      0x20\n      add\n      0x0\n      keccak256\n      sload\n        /* \"contracts/ss.sol\":6272:6321  return validatorsState[_candidate].voters[_voter] */\n      swap1\n      pop\n        /* \"contracts/ss.sol\":6176:6328  function getVoterCap(address _candidate, address _voter) public view returns(uint256) {... */\n      swap3\n      swap2\n      pop\n      pop\n      jump\t// out\n        /* \"contracts/ss.sol\":1947:1974  address[] public candidates */\n    tag_53:\n      0x3\n      dup2\n      dup2\n      sload\n      dup2\n      lt\n      iszero\n      iszero\n      tag_123\n      jumpi\n      invalid\n    tag_123:\n      swap1\n      0x0\n      mstore\n      keccak256(0x0, 0x20)\n      add\n      0x0\n      swap2\n      pop\n      sload\n      swap1\n      0x100\n      exp\n      swap1\n      div\n      0xffffffffffffffffffffffffffffffffffffffff\n      and\n      dup2\n      jump\t// out\n        /* \"contracts/ss.sol\":8530:8920  function withdraw(uint256 _blockNumber, uint _index) public onlyValidWithdraw(_blockNumber, _index) {... */\n    tag_56:\n        /* \"contracts/ss.sol\":8640:8651  uint256 cap */\n      0x0\n        /* \"contracts/ss.sol\":8608:8620  _blockNumber */\n      dup3\n        /* \"contracts/ss.sol\":8622:8628  _index */\n      dup3\n        /* \"contracts/ss.sol\":3404:3405  0 */\n      0x0\n        /* \"contracts/ss.sol\":3389:3401  _blockNumber */\n      dup3\n        /* \"contracts/ss.sol\":3389:3405  _blockNumber > 0 */\n      gt\n        /* \"contracts/ss.sol\":3381:3406  require(_blockNumber > 0) */\n      iszero\n      iszero\n      tag_126\n      jumpi\n      0x0\n      dup1\n      revert\n    tag_126:\n        /* \"contracts/ss.sol\":3440:3452  _blockNumber */\n      dup2\n        /* \"contracts/ss.sol\":3424:3436  block.number */\n      number\n        /* \"contracts/ss.sol\":3424:3452  block.number >= _blockNumber */\n      lt\n      iszero\n        /* \"contracts/ss.sol\":3416:3453  require(block.number >= _blockNumber) */\n      iszero\n      iszero\n      tag_127\n      jumpi\n      0x0\n      dup1\n      revert\n    tag_127:\n        /* \"contracts/ss.sol\":3519:3520  0 */\n      0x0\n        /* \"contracts/ss.sol\":3471:3485  withdrawsState */\n      dup1\n        /* \"contracts/ss.sol\":3471:3497  withdrawsState[msg.sender] */\n      0x0\n        /* \"contracts/ss.sol\":3486:3496  msg.sender */\n      caller\n        /* \"contracts/ss.sol\":3471:3497  withdrawsState[msg.sender] */\n      0xffffffffffffffffffffffffffffffffffffffff\n      and\n      0xffffffffffffffffffffffffffffffffffffffff\n      and\n      dup2\n      mstore\n      0x20\n      add\n      swap1\n      dup2\n      mstore\n      0x20\n      add\n      0x0\n      keccak256\n        /* \"contracts/ss.sol\":3471:3502  withdrawsState[msg.sender].caps */\n      0x0\n      add\n        /* \"contracts/ss.sol\":3471:3516  withdrawsState[msg.sender].caps[_blockNumber] */\n      0x0\n        /* \"contracts/ss.sol\":3503:3515  _blockNumber */\n      dup5\n        /* \"contracts/ss.sol\":3471:3516  withdrawsState[msg.sender].caps[_blockNumber] */\n      dup2\n      mstore\n      0x20\n      add\n      swap1\n      dup2\n      mstore\n      0x20\n      add\n      0x0\n      keccak256\n      sload\n        /* \"contracts/ss.sol\":3471:3520  withdrawsState[msg.sender].caps[_blockNumber] > 0 */\n      gt\n        /* \"contracts/ss.sol\":3463:3521  require(withdrawsState[msg.sender].caps[_blockNumber] > 0) */\n      iszero\n      iszero\n      tag_128\n      jumpi\n      0x0\n      dup1\n      revert\n    tag_128:\n        /* \"contracts/ss.sol\":3590:3602  _blockNumber */\n      dup2\n        /* \"contracts/ss.sol\":3539:3553  withdrawsState */\n      0x0\n        /* \"contracts/ss.sol\":3539:3565  withdrawsState[msg.sender] */\n      dup1\n        /* \"contracts/ss.sol\":3554:3564  msg.sender */\n      caller\n        /* \"contracts/ss.sol\":3539:3565  withdrawsState[msg.sender] */\n      0xffffffffffffffffffffffffffffffffffffffff\n      and\n      0xffffffffffffffffffffffffffffffffffffffff\n      and\n      dup2\n      mstore\n      0x20\n      add\n      swap1\n      dup2\n      mstore\n      0x20\n      add\n      0x0\n      keccak256\n        /* \"contracts/ss.sol\":3539:3578  withdrawsState[msg.sender].blockNumbers */\n      0x1\n      add\n        /* \"contracts/ss.sol\":3579:3585  _index */\n      dup3\n        /* \"contracts/ss.sol\":3539:3586  withdrawsState[msg.sender].blockNumbers[_index] */\n      dup2\n      sload\n      dup2\n      lt\n      iszero\n      iszero\n      tag_129\n      jumpi\n      invalid\n    tag_129:\n      swap1\n      0x0\n      mstore\n      keccak256(0x0, 0x20)\n      add\n      sload\n        /* \"contracts/ss.sol\":3539:3602  withdrawsState[msg.sender].blockNumbers[_index] == _blockNumber */\n      eq\n        /* \"contracts/ss.sol\":3531:3603  require(withdrawsState[msg.sender].blockNumbers[_index] == _blockNumber) */\n      iszero\n      iszero\n      tag_131\n      jumpi\n      0x0\n      dup1\n      revert\n    tag_131:\n        /* \"contracts/ss.sol\":8654:8668  withdrawsState */\n      0x0\n        /* \"contracts/ss.sol\":8654:8680  withdrawsState[msg.sender] */\n      dup1\n        /* \"contracts/ss.sol\":8669:8679  msg.sender */\n      caller\n        /* \"contracts/ss.sol\":8654:8680  withdrawsState[msg.sender] */\n      0xffffffffffffffffffffffffffffffffffffffff\n      and\n      0xffffffffffffffffffffffffffffffffffffffff\n      and\n      dup2\n      mstore\n      0x20\n      add\n      swap1\n      dup2\n      mstore\n      0x20\n      add\n      0x0\n      keccak256\n        /* \"contracts/ss.sol\":8654:8685  withdrawsState[msg.sender].caps */\n      0x0\n      add\n        /* \"contracts/ss.sol\":8654:8699  withdrawsState[msg.sender].caps[_blockNumber] */\n      0x0\n        /* \"contracts/ss.sol\":8686:8698  _blockNumber */\n      dup7\n        /* \"contracts/ss.sol\":8654:8699  withdrawsState[msg.sender].caps[_blockNumber] */\n      dup2\n      mstore\n      0x20\n      add\n      swap1\n      dup2\n      mstore\n      0x20\n      add\n      0x0\n      keccak256\n      sload\n        /* \"contracts/ss.sol\":8640:8699  uint256 cap = withdrawsState[msg.sender].caps[_blockNumber] */\n      swap3\n      pop\n        /* \"contracts/ss.sol\":8716:8730  withdrawsState */\n      0x0\n        /* \"contracts/ss.sol\":8716:8742  withdrawsState[msg.sender] */\n      dup1\n        /* \"contracts/ss.sol\":8731:8741  msg.sender */\n      caller\n        /* \"contracts/ss.sol\":8716:8742  withdrawsState[msg.sender] */\n      0xffffffffffffffffffffffffffffffffffffffff\n      and\n      0xffffffffffffffffffffffffffffffffffffffff\n      and\n      dup2\n      mstore\n      0x20\n      add\n      swap1\n      dup2\n      mstore\n      0x20\n      add\n      0x0\n      keccak256\n        /* \"contracts/ss.sol\":8716:8747  withdrawsState[msg.sender].caps */\n      0x0\n      add\n        /* \"contracts/ss.sol\":8716:8761  withdrawsState[msg.sender].caps[_blockNumber] */\n      0x0\n        /* \"contracts/ss.sol\":8748:8760  _blockNumber */\n      dup7\n        /* \"contracts/ss.sol\":8716:8761  withdrawsState[msg.sender].caps[_blockNumber] */\n      dup2\n      mstore\n      0x20\n      add\n      swap1\n      dup2\n      mstore\n      0x20\n      add\n      0x0\n      keccak256\n        /* \"contracts/ss.sol\":8709:8761  delete withdrawsState[msg.sender].caps[_blockNumber] */\n      0x0\n      swap1\n      sstore\n        /* \"contracts/ss.sol\":8778:8792  withdrawsState */\n      0x0\n        /* \"contracts/ss.sol\":8778:8804  withdrawsState[msg.sender] */\n      dup1\n        /* \"contracts/ss.sol\":8793:8803  msg.sender */\n      caller\n        /* \"contracts/ss.sol\":8778:8804  withdrawsState[msg.sender] */\n      0xffffffffffffffffffffffffffffffffffffffff\n      and\n      0xffffffffffffffffffffffffffffffffffffffff\n      and\n      dup2\n      mstore\n      0x20\n      add\n      swap1\n      dup2\n      mstore\n      0x20\n      add\n      0x0\n      keccak256\n        /* \"contracts/ss.sol\":8778:8817  withdrawsState[msg.sender].blockNumbers */\n      0x1\n      add\n        /* \"contracts/ss.sol\":8818:8824  _index */\n      dup5\n        /* \"contracts/ss.sol\":8778:8825  withdrawsState[msg.sender].blockNumbers[_index] */\n      dup2\n      sload\n      dup2\n      lt\n      iszero\n      iszero\n      tag_133\n      jumpi\n      invalid\n    tag_133:\n      swap1\n      0x0\n      mstore\n      keccak256(0x0, 0x20)\n      add\n        /* \"contracts/ss.sol\":8771:8825  delete withdrawsState[msg.sender].blockNumbers[_index] */\n      0x0\n      swap1\n      sstore\n        /* \"contracts/ss.sol\":8835:8845  msg.sender */\n      caller\n        /* \"contracts/ss.sol\":8835:8854  msg.sender.transfer */\n      0xffffffffffffffffffffffffffffffffffffffff\n      and\n        /* \"contracts/ss.sol\":8835:8859  msg.sender.transfer(cap) */\n      0x8fc\n        /* \"contracts/ss.sol\":8855:8858  cap */\n      dup5\n        /* \"contracts/ss.sol\":8835:8859  msg.sender.transfer(cap) */\n      swap1\n      dup2\n      iszero\n      mul\n      swap1\n      mload(0x40)\n      0x0\n      mload(0x40)\n      dup1\n      dup4\n      sub\n      dup2\n      dup6\n      dup9\n      dup9\n      call\n      swap4\n      pop\n      pop\n      pop\n      pop\n      iszero\n        /* \"--CODEGEN--\":8:17   */\n      dup1\n        /* \"--CODEGEN--\":5:7   */\n      iszero\n      tag_135\n      jumpi\n        /* \"--CODEGEN--\":45:61   */\n      returndatasize\n        /* \"--CODEGEN--\":42:43   */\n      0x0\n        /* \"--CODEGEN--\":39:40   */\n      dup1\n        /* \"--CODEGEN--\":24:62   */\n      returndatacopy\n        /* \"--CODEGEN--\":77:93   */\n      returndatasize\n        /* \"--CODEGEN--\":74:75   */\n      0x0\n        /* \"--CODEGEN--\":67:94   */\n      revert\n        /* \"--CODEGEN--\":5:7   */\n    tag_135:\n        /* \"contracts/ss.sol\":8835:8859  msg.sender.transfer(cap) */\n      pop\n        /* \"contracts/ss.sol\":8874:8913  Withdraw(msg.sender, _blockNumber, cap) */\n      0xf279e6a1f5e320cca91135676d9cb6e44ca8a08c0b88342bcdb1144f6511b568\n        /* \"contracts/ss.sol\":8883:8893  msg.sender */\n      caller\n        /* \"contracts/ss.sol\":8895:8907  _blockNumber */\n      dup7\n        /* \"contracts/ss.sol\":8909:8912  cap */\n      dup6\n        /* \"contracts/ss.sol\":8874:8913  Withdraw(msg.sender, _blockNumber, cap) */\n      mload(0x40)\n      dup1\n      dup5\n      0xffffffffffffffffffffffffffffffffffffffff\n      and\n      0xffffffffffffffffffffffffffffffffffffffff\n      and\n      dup2\n      mstore\n      0x20\n      add\n      dup4\n      dup2\n      mstore\n      0x20\n      add\n      dup3\n      dup2\n      mstore\n      0x20\n      add\n      swap4\n      pop\n      pop\n      pop\n      pop\n      mload(0x40)\n      dup1\n      swap2\n      sub\n      swap1\n      log1\n        /* \"contracts/ss.sol\":8530:8920  function withdraw(uint256 _blockNumber, uint _index) public onlyValidWithdraw(_blockNumber, _index) {... */\n      pop\n      pop\n      pop\n      pop\n      pop\n      jump\t// out\n        /* \"contracts/ss.sol\":5902:6031  function getCandidateCap(address _candidate) public view returns(uint256) {... */\n    tag_59:\n        /* \"contracts/ss.sol\":5967:5974  uint256 */\n      0x0\n        /* \"contracts/ss.sol\":5993:6008  validatorsState */\n      0x1\n        /* \"contracts/ss.sol\":5993:6020  validatorsState[_candidate] */\n      0x0\n        /* \"contracts/ss.sol\":6009:6019  _candidate */\n      dup4\n        /* \"contracts/ss.sol\":5993:6020  validatorsState[_candidate] */\n      0xffffffffffffffffffffffffffffffffffffffff\n      and\n      0xffffffffffffffffffffffffffffffffffffffff\n      and\n      dup2\n      mstore\n      0x20\n      add\n      swap1\n      dup2\n      mstore\n      0x20\n      add\n      0x0\n      keccak256\n        /* \"contracts/ss.sol\":5993:6024  validatorsState[_candidate].cap */\n      0x1\n      add\n      sload\n        /* \"contracts/ss.sol\":5986:6024  return validatorsState[_candidate].cap */\n      swap1\n      pop\n        /* \"contracts/ss.sol\":5902:6031  function getCandidateCap(address _candidate) public view returns(uint256) {... */\n      swap2\n      swap1\n      pop\n      jump\t// out\n        /* \"contracts/ss.sol\":5303:5800  function vote(address _candidate) external payable onlyValidVoterCap onlyValidCandidate(_candidate) {... */\n    tag_61:\n        /* \"contracts/ss.sol\":2431:2442  minVoterCap */\n      sload(0x6)\n        /* \"contracts/ss.sol\":2418:2427  msg.value */\n      callvalue\n        /* \"contracts/ss.sol\":2418:2442  msg.value >= minVoterCap */\n      lt\n      iszero\n        /* \"contracts/ss.sol\":2410:2443  require(msg.value >= minVoterCap) */\n      iszero\n      iszero\n      tag_138\n      jumpi\n      0x0\n      dup1\n      revert\n    tag_138:\n        /* \"contracts/ss.sol\":5391:5401  _candidate */\n      dup1\n        /* \"contracts/ss.sol\":2788:2803  validatorsState */\n      0x1\n        /* \"contracts/ss.sol\":2788:2815  validatorsState[_candidate] */\n      0x0\n        /* \"contracts/ss.sol\":2804:2814  _candidate */\n      dup3\n        /* \"contracts/ss.sol\":2788:2815  validatorsState[_candidate] */\n      0xffffffffffffffffffffffffffffffffffffffff\n      and\n      0xffffffffffffffffffffffffffffffffffffffff\n      and\n      dup2\n      mstore\n      0x20\n      add\n      swap1\n      dup2\n      mstore\n      0x20\n      add\n      0x0\n      keccak256\n        /* \"contracts/ss.sol\":2788:2827  validatorsState[_candidate].isCandidate */\n      0x0\n      add\n      0x14\n      swap1\n      sload\n      swap1\n      0x100\n      exp\n      swap1\n      div\n      0xff\n      and\n        /* \"contracts/ss.sol\":2780:2828  require(validatorsState[_candidate].isCandidate) */\n      iszero\n      iszero\n      tag_140\n      jumpi\n      0x0\n      dup1\n      revert\n    tag_140:\n        /* \"contracts/ss.sol\":5447:5493  validatorsState[_candidate].cap.add(msg.value) */\n      tag_142\n        /* \"contracts/ss.sol\":5483:5492  msg.value */\n      callvalue\n        /* \"contracts/ss.sol\":5447:5462  validatorsState */\n      0x1\n        /* \"contracts/ss.sol\":5447:5474  validatorsState[_candidate] */\n      0x0\n        /* \"contracts/ss.sol\":5463:5473  _candidate */\n      dup6\n        /* \"contracts/ss.sol\":5447:5474  validatorsState[_candidate] */\n      0xffffffffffffffffffffffffffffffffffffffff\n      and\n      0xffffffffffffffffffffffffffffffffffffffff\n      and\n      dup2\n      mstore\n      0x20\n      add\n      swap1\n      dup2\n      mstore\n      0x20\n      add\n      0x0\n      keccak256\n        /* \"contracts/ss.sol\":5447:5478  validatorsState[_candidate].cap */\n      0x1\n      add\n      sload\n        /* \"contracts/ss.sol\":5447:5482  validatorsState[_candidate].cap.add */\n      tag_95\n      swap1\n        /* \"contracts/ss.sol\":5447:5493  validatorsState[_candidate].cap.add(msg.value) */\n      swap2\n      swap1\n      0xffffffff\n      and\n      jump\t// in\n    tag_142:\n        /* \"contracts/ss.sol\":5413:5428  validatorsState */\n      0x1\n        /* \"contracts/ss.sol\":5413:5440  validatorsState[_candidate] */\n      0x0\n        /* \"contracts/ss.sol\":5429:5439  _candidate */\n      dup5\n        /* \"contracts/ss.sol\":5413:5440  validatorsState[_candidate] */\n      0xffffffffffffffffffffffffffffffffffffffff\n      and\n      0xffffffffffffffffffffffffffffffffffffffff\n      and\n      dup2\n      mstore\n      0x20\n      add\n      swap1\n      dup2\n      mstore\n      0x20\n      add\n      0x0\n      keccak256\n        /* \"contracts/ss.sol\":5413:5444  validatorsState[_candidate].cap */\n      0x1\n      add\n        /* \"contracts/ss.sol\":5413:5493  validatorsState[_candidate].cap = validatorsState[_candidate].cap.add(msg.value) */\n      dup2\n      swap1\n      sstore\n      pop\n        /* \"contracts/ss.sol\":5557:5558  0 */\n      0x0\n        /* \"contracts/ss.sol\":5507:5522  validatorsState */\n      0x1\n        /* \"contracts/ss.sol\":5507:5534  validatorsState[_candidate] */\n      0x0\n        /* \"contracts/ss.sol\":5523:5533  _candidate */\n      dup5\n        /* \"contracts/ss.sol\":5507:5534  validatorsState[_candidate] */\n      0xffffffffffffffffffffffffffffffffffffffff\n      and\n      0xffffffffffffffffffffffffffffffffffffffff\n      and\n      dup2\n      mstore\n      0x20\n      add\n      swap1\n      dup2\n      mstore\n      0x20\n      add\n      0x0\n      keccak256\n        /* \"contracts/ss.sol\":5507:5541  validatorsState[_candidate].voters */\n      0x2\n      add\n        /* \"contracts/ss.sol\":5507:5553  validatorsState[_candidate].voters[msg.sender] */\n      0x0\n        /* \"contracts/ss.sol\":5542:5552  msg.sender */\n      caller\n        /* \"contracts/ss.sol\":5507:5553  validatorsState[_candidate].voters[msg.sender] */\n      0xffffffffffffffffffffffffffffffffffffffff\n      and\n      0xffffffffffffffffffffffffffffffffffffffff\n      and\n      dup2\n      mstore\n      0x20\n      add\n      swap1\n      dup2\n      mstore\n      0x20\n      add\n      0x0\n      keccak256\n      sload\n        /* \"contracts/ss.sol\":5507:5558  validatorsState[_candidate].voters[msg.sender] == 0 */\n      eq\n        /* \"contracts/ss.sol\":5503:5620  if (validatorsState[_candidate].voters[msg.sender] == 0) {... */\n      iszero\n      tag_143\n      jumpi\n        /* \"contracts/ss.sol\":5574:5580  voters */\n      0x2\n        /* \"contracts/ss.sol\":5574:5592  voters[_candidate] */\n      0x0\n        /* \"contracts/ss.sol\":5581:5591  _candidate */\n      dup4\n        /* \"contracts/ss.sol\":5574:5592  voters[_candidate] */\n      0xffffffffffffffffffffffffffffffffffffffff\n      and\n      0xffffffffffffffffffffffffffffffffffffffff\n      and\n      dup2\n      mstore\n      0x20\n      add\n      swap1\n      dup2\n      mstore\n      0x20\n      add\n      0x0\n      keccak256\n        /* \"contracts/ss.sol\":5598:5608  msg.sender */\n      caller\n        /* \"contracts/ss.sol\":5574:5609  voters[_candidate].push(msg.sender) */\n      swap1\n      dup1\n        /* \"--CODEGEN--\":39:40   */\n      0x1\n        /* \"--CODEGEN--\":33:36   */\n      dup2\n        /* \"--CODEGEN--\":27:37   */\n      sload\n        /* \"--CODEGEN--\":23:41   */\n      add\n        /* \"--CODEGEN--\":57:67   */\n      dup1\n        /* \"--CODEGEN--\":52:55   */\n      dup3\n        /* \"--CODEGEN--\":45:68   */\n      sstore\n        /* \"--CODEGEN--\":79:89   */\n      dup1\n        /* \"--CODEGEN--\":72:89   */\n      swap2\n      pop\n        /* \"--CODEGEN--\":0:93   */\n      pop\n        /* \"contracts/ss.sol\":5574:5609  voters[_candidate].push(msg.sender) */\n      swap1\n      0x1\n      dup3\n      sub\n      swap1\n      0x0\n      mstore\n      keccak256(0x0, 0x20)\n      add\n      0x0\n      swap1\n      swap2\n      swap3\n      swap1\n      swap2\n      swap1\n      swap2\n      0x100\n      exp\n      dup2\n      sload\n      dup2\n      0xffffffffffffffffffffffffffffffffffffffff\n      mul\n      not\n      and\n      swap1\n      dup4\n      0xffffffffffffffffffffffffffffffffffffffff\n      and\n      mul\n      or\n      swap1\n      sstore\n      pop\n      pop\n        /* \"contracts/ss.sol\":5503:5620  if (validatorsState[_candidate].voters[msg.sender] == 0) {... */\n    tag_143:\n        /* \"contracts/ss.sol\":5678:5739  validatorsState[_candidate].voters[msg.sender].add(msg.value) */\n      tag_145\n        /* \"contracts/ss.sol\":5729:5738  msg.value */\n      callvalue\n        /* \"contracts/ss.sol\":5678:5693  validatorsState */\n      0x1\n        /* \"contracts/ss.sol\":5678:5705  validatorsState[_candidate] */\n      0x0\n        /* \"contracts/ss.sol\":5694:5704  _candidate */\n      dup6\n        /* \"contracts/ss.sol\":5678:5705  validatorsState[_candidate] */\n      0xffffffffffffffffffffffffffffffffffffffff\n      and\n      0xffffffffffffffffffffffffffffffffffffffff\n      and\n      dup2\n      mstore\n      0x20\n      add\n      swap1\n      dup2\n      mstore\n      0x20\n      add\n      0x0\n      keccak256\n        /* \"contracts/ss.sol\":5678:5712  validatorsState[_candidate].voters */\n      0x2\n      add\n        /* \"contracts/ss.sol\":5678:5724  validatorsState[_candidate].voters[msg.sender] */\n      0x0\n        /* \"contracts/ss.sol\":5713:5723  msg.sender */\n      caller\n        /* \"contracts/ss.sol\":5678:5724  validatorsState[_candidate].voters[msg.sender] */\n      0xffffffffffffffffffffffffffffffffffffffff\n      and\n      0xffffffffffffffffffffffffffffffffffffffff\n      and\n      dup2\n      mstore\n      0x20\n      add\n      swap1\n      dup2\n      mstore\n      0x20\n      add\n      0x0\n      keccak256\n      sload\n        /* \"contracts/ss.sol\":5678:5728  validatorsState[_candidate].voters[msg.sender].add */\n      tag_95\n      swap1\n        /* \"contracts/ss.sol\":5678:5739  validatorsState[_candidate].voters[msg.sender].add(msg.value) */\n      swap2\n      swap1\n      0xffffffff\n      and\n      jump\t// in\n    tag_145:\n        /* \"contracts/ss.sol\":5629:5644  validatorsState */\n      0x1\n        /* \"contracts/ss.sol\":5629:5656  validatorsState[_candidate] */\n      0x0\n        /* \"contracts/ss.sol\":5645:5655  _candidate */\n      dup5\n        /* \"contracts/ss.sol\":5629:5656  validatorsState[_candidate] */\n      0xffffffffffffffffffffffffffffffffffffffff\n      and\n      0xffffffffffffffffffffffffffffffffffffffff\n      and\n      dup2\n      mstore\n      0x20\n      add\n      swap1\n      dup2\n      mstore\n      0x20\n      add\n      0x0\n      keccak256\n        /* \"contracts/ss.sol\":5629:5663  validatorsState[_candidate].voters */\n      0x2\n      add\n        /* \"contracts/ss.sol\":5629:5675  validatorsState[_candidate].voters[msg.sender] */\n      0x0\n        /* \"contracts/ss.sol\":5664:5674  msg.sender */\n      caller\n        /* \"contracts/ss.sol\":5629:5675  validatorsState[_candidate].voters[msg.sender] */\n      0xffffffffffffffffffffffffffffffffffffffff\n      and\n      0xffffffffffffffffffffffffffffffffffffffff\n      and\n      dup2\n      mstore\n      0x20\n      add\n      swap1\n      dup2\n      mstore\n      0x20\n      add\n      0x0\n      keccak256\n        /* \"contracts/ss.sol\":5629:5739  validatorsState[_candidate].voters[msg.sender] = validatorsState[_candidate].voters[msg.sender].add(msg.value) */\n      dup2\n      swap1\n      sstore\n      pop\n        /* \"contracts/ss.sol\":5754:5793  Vote(msg.sender, _candidate, msg.value) */\n      0x66a9138482c99e9baf08860110ef332cc0c23b4a199a53593d8db0fc8f96fbfc\n        /* \"contracts/ss.sol\":5759:5769  msg.sender */\n      caller\n        /* \"contracts/ss.sol\":5771:5781  _candidate */\n      dup4\n        /* \"contracts/ss.sol\":5783:5792  msg.value */\n      callvalue\n        /* \"contracts/ss.sol\":5754:5793  Vote(msg.sender, _candidate, msg.value) */\n      mload(0x40)\n      dup1\n      dup5\n      0xffffffffffffffffffffffffffffffffffffffff\n      and\n      0xffffffffffffffffffffffffffffffffffffffff\n      and\n      dup2\n      mstore\n      0x20\n      add\n      dup4\n      0xffffffffffffffffffffffffffffffffffffffff\n      and\n      0xffffffffffffffffffffffffffffffffffffffff\n      and\n      dup2\n      mstore\n      0x20\n      add\n      dup3\n      dup2\n      mstore\n      0x20\n      add\n      swap4\n      pop\n      pop\n      pop\n      pop\n      mload(0x40)\n      dup1\n      swap2\n      sub\n      swap1\n      log1\n        /* \"contracts/ss.sol\":2453:2454  _ */\n      pop\n        /* \"contracts/ss.sol\":5303:5800  function vote(address _candidate) external payable onlyValidVoterCap onlyValidCandidate(_candidate) {... */\n      pop\n      jump\t// out\n        /* \"contracts/ss.sol\":1981:2014  uint256 public candidateCount = 0 */\n    tag_64:\n      sload(0x4)\n      dup2\n      jump\t// out\n        /* \"contracts/ss.sol\":2170:2203  uint256 public voterWithdrawDelay */\n    tag_67:\n      sload(0x9)\n      dup2\n      jump\t// out\n        /* \"contracts/ss.sol\":7545:8524  function resign(address _candidate) public onlyOwner(_candidate) onlyCandidate(_candidate) {... */\n    tag_70:\n        /* \"contracts/ss.sol\":7756:7765  uint256 i */\n      0x0\n        /* \"contracts/ss.sol\":7941:7952  uint256 cap */\n      dup1\n        /* \"contracts/ss.sol\":8201:8228  uint256 withdrawBlockNumber */\n      0x0\n        /* \"contracts/ss.sol\":7598:7608  _candidate */\n      dup4\n        /* \"contracts/ss.sol\":2561:2571  msg.sender */\n      caller\n        /* \"contracts/ss.sol\":2524:2571  validatorsState[_candidate].owner == msg.sender */\n      0xffffffffffffffffffffffffffffffffffffffff\n      and\n        /* \"contracts/ss.sol\":2524:2539  validatorsState */\n      0x1\n        /* \"contracts/ss.sol\":2524:2551  validatorsState[_candidate] */\n      0x0\n        /* \"contracts/ss.sol\":2540:2550  _candidate */\n      dup4\n        /* \"contracts/ss.sol\":2524:2551  validatorsState[_candidate] */\n      0xffffffffffffffffffffffffffffffffffffffff\n      and\n      0xffffffffffffffffffffffffffffffffffffffff\n      and\n      dup2\n      mstore\n      0x20\n      add\n      swap1\n      dup2\n      mstore\n      0x20\n      add\n      0x0\n      keccak256\n        /* \"contracts/ss.sol\":2524:2557  validatorsState[_candidate].owner */\n      0x0\n      add\n      0x0\n      swap1\n      sload\n      swap1\n      0x100\n      exp\n      swap1\n      div\n      0xffffffffffffffffffffffffffffffffffffffff\n      and\n        /* \"contracts/ss.sol\":2524:2571  validatorsState[_candidate].owner == msg.sender */\n      0xffffffffffffffffffffffffffffffffffffffff\n      and\n      eq\n        /* \"contracts/ss.sol\":2516:2572  require(validatorsState[_candidate].owner == msg.sender) */\n      iszero\n      iszero\n      tag_147\n      jumpi\n      0x0\n      dup1\n      revert\n    tag_147:\n        /* \"contracts/ss.sol\":7624:7634  _candidate */\n      dup5\n        /* \"contracts/ss.sol\":2657:2672  validatorsState */\n      0x1\n        /* \"contracts/ss.sol\":2657:2684  validatorsState[_candidate] */\n      0x0\n        /* \"contracts/ss.sol\":2673:2683  _candidate */\n      dup3\n        /* \"contracts/ss.sol\":2657:2684  validatorsState[_candidate] */\n      0xffffffffffffffffffffffffffffffffffffffff\n      and\n      0xffffffffffffffffffffffffffffffffffffffff\n      and\n      dup2\n      mstore\n      0x20\n      add\n      swap1\n      dup2\n      mstore\n      0x20\n      add\n      0x0\n      keccak256\n        /* \"contracts/ss.sol\":2657:2696  validatorsState[_candidate].isCandidate */\n      0x0\n      add\n      0x14\n      swap1\n      sload\n      swap1\n      0x100\n      exp\n      swap1\n      div\n      0xff\n      and\n        /* \"contracts/ss.sol\":2649:2697  require(validatorsState[_candidate].isCandidate) */\n      iszero\n      iszero\n      tag_149\n      jumpi\n      0x0\n      dup1\n      revert\n    tag_149:\n        /* \"contracts/ss.sol\":7688:7693  false */\n      0x0\n        /* \"contracts/ss.sol\":7646:7661  validatorsState */\n      0x1\n        /* \"contracts/ss.sol\":7646:7673  validatorsState[_candidate] */\n      0x0\n        /* \"contracts/ss.sol\":7662:7672  _candidate */\n      dup9\n        /* \"contracts/ss.sol\":7646:7673  validatorsState[_candidate] */\n      0xffffffffffffffffffffffffffffffffffffffff\n      and\n      0xffffffffffffffffffffffffffffffffffffffff\n      and\n      dup2\n      mstore\n      0x20\n      add\n      swap1\n      dup2\n      mstore\n      0x20\n      add\n      0x0\n      keccak256\n        /* \"contracts/ss.sol\":7646:7685  validatorsState[_candidate].isCandidate */\n      0x0\n      add\n      0x14\n        /* \"contracts/ss.sol\":7646:7693  validatorsState[_candidate].isCandidate = false */\n      0x100\n      exp\n      dup2\n      sload\n      dup2\n      0xff\n      mul\n      not\n      and\n      swap1\n      dup4\n      iszero\n      iszero\n      mul\n      or\n      swap1\n      sstore\n      pop\n        /* \"contracts/ss.sol\":7720:7741  candidateCount.sub(1) */\n      tag_151\n        /* \"contracts/ss.sol\":7739:7740  1 */\n      0x1\n        /* \"contracts/ss.sol\":7720:7734  candidateCount */\n      sload(0x4)\n        /* \"contracts/ss.sol\":7720:7738  candidateCount.sub */\n      tag_104\n      swap1\n        /* \"contracts/ss.sol\":7720:7741  candidateCount.sub(1) */\n      swap2\n      swap1\n      0xffffffff\n      and\n      jump\t// in\n    tag_151:\n        /* \"contracts/ss.sol\":7703:7717  candidateCount */\n      0x4\n        /* \"contracts/ss.sol\":7703:7741  candidateCount = candidateCount.sub(1) */\n      dup2\n      swap1\n      sstore\n      pop\n        /* \"contracts/ss.sol\":7768:7769  0 */\n      0x0\n        /* \"contracts/ss.sol\":7756:7769  uint256 i = 0 */\n      swap5\n      pop\n        /* \"contracts/ss.sol\":7751:7932  for (uint256 i = 0; i < candidates.length; i++) {... */\n    tag_152:\n        /* \"contracts/ss.sol\":7775:7785  candidates */\n      0x3\n        /* \"contracts/ss.sol\":7775:7792  candidates.length */\n      dup1\n      sload\n      swap1\n      pop\n        /* \"contracts/ss.sol\":7771:7772  i */\n      dup6\n        /* \"contracts/ss.sol\":7771:7792  i < candidates.length */\n      lt\n        /* \"contracts/ss.sol\":7751:7932  for (uint256 i = 0; i < candidates.length; i++) {... */\n      iszero\n      tag_153\n      jumpi\n        /* \"contracts/ss.sol\":7834:7844  _candidate */\n      dup6\n        /* \"contracts/ss.sol\":7817:7844  candidates[i] == _candidate */\n      0xffffffffffffffffffffffffffffffffffffffff\n      and\n        /* \"contracts/ss.sol\":7817:7827  candidates */\n      0x3\n        /* \"contracts/ss.sol\":7828:7829  i */\n      dup7\n        /* \"contracts/ss.sol\":7817:7830  candidates[i] */\n      dup2\n      sload\n      dup2\n      lt\n      iszero\n      iszero\n      tag_155\n      jumpi\n      invalid\n    tag_155:\n      swap1\n      0x0\n      mstore\n      keccak256(0x0, 0x20)\n      add\n      0x0\n      swap1\n      sload\n      swap1\n      0x100\n      exp\n      swap1\n      div\n      0xffffffffffffffffffffffffffffffffffffffff\n      and\n        /* \"contracts/ss.sol\":7817:7844  candidates[i] == _candidate */\n      0xffffffffffffffffffffffffffffffffffffffff\n      and\n      eq\n        /* \"contracts/ss.sol\":7813:7922  if (candidates[i] == _candidate) {... */\n      iszero\n      tag_157\n      jumpi\n        /* \"contracts/ss.sol\":7871:7881  candidates */\n      0x3\n        /* \"contracts/ss.sol\":7882:7883  i */\n      dup6\n        /* \"contracts/ss.sol\":7871:7884  candidates[i] */\n      dup2\n      sload\n      dup2\n      lt\n      iszero\n      iszero\n      tag_158\n      jumpi\n      invalid\n    tag_158:\n      swap1\n      0x0\n      mstore\n      keccak256(0x0, 0x20)\n      add\n      0x0\n        /* \"contracts/ss.sol\":7864:7884  delete candidates[i] */\n      0x100\n      exp\n      dup2\n      sload\n      swap1\n      0xffffffffffffffffffffffffffffffffffffffff\n      mul\n      not\n      and\n      swap1\n      sstore\n        /* \"contracts/ss.sol\":7902:7907  break */\n      jump(tag_153)\n        /* \"contracts/ss.sol\":7813:7922  if (candidates[i] == _candidate) {... */\n    tag_157:\n        /* \"contracts/ss.sol\":7794:7797  i++ */\n      dup5\n      dup1\n      0x1\n      add\n      swap6\n      pop\n      pop\n        /* \"contracts/ss.sol\":7751:7932  for (uint256 i = 0; i < candidates.length; i++) {... */\n      jump(tag_152)\n    tag_153:\n        /* \"contracts/ss.sol\":7955:7970  validatorsState */\n      0x1\n        /* \"contracts/ss.sol\":7955:7982  validatorsState[_candidate] */\n      0x0\n        /* \"contracts/ss.sol\":7971:7981  _candidate */\n      dup8\n        /* \"contracts/ss.sol\":7955:7982  validatorsState[_candidate] */\n      0xffffffffffffffffffffffffffffffffffffffff\n      and\n      0xffffffffffffffffffffffffffffffffffffffff\n      and\n      dup2\n      mstore\n      0x20\n      add\n      swap1\n      dup2\n      mstore\n      0x20\n      add\n      0x0\n      keccak256\n        /* \"contracts/ss.sol\":7955:7989  validatorsState[_candidate].voters */\n      0x2\n      add\n        /* \"contracts/ss.sol\":7955:8001  validatorsState[_candidate].voters[msg.sender] */\n      0x0\n        /* \"contracts/ss.sol\":7990:8000  msg.sender */\n      caller\n        /* \"contracts/ss.sol\":7955:8001  validatorsState[_candidate].voters[msg.sender] */\n      0xffffffffffffffffffffffffffffffffffffffff\n      and\n      0xffffffffffffffffffffffffffffffffffffffff\n      and\n      dup2\n      mstore\n      0x20\n      add\n      swap1\n      dup2\n      mstore\n      0x20\n      add\n      0x0\n      keccak256\n      sload\n        /* \"contracts/ss.sol\":7941:8001  uint256 cap = validatorsState[_candidate].voters[msg.sender] */\n      swap4\n      pop\n        /* \"contracts/ss.sol\":8045:8085  validatorsState[_candidate].cap.sub(cap) */\n      tag_160\n        /* \"contracts/ss.sol\":8081:8084  cap */\n      dup5\n        /* \"contracts/ss.sol\":8045:8060  validatorsState */\n      0x1\n        /* \"contracts/ss.sol\":8045:8072  validatorsState[_candidate] */\n      0x0\n        /* \"contracts/ss.sol\":8061:8071  _candidate */\n      dup10\n        /* \"contracts/ss.sol\":8045:8072  validatorsState[_candidate] */\n      0xffffffffffffffffffffffffffffffffffffffff\n      and\n      0xffffffffffffffffffffffffffffffffffffffff\n      and\n      dup2\n      mstore\n      0x20\n      add\n      swap1\n      dup2\n      mstore\n      0x20\n      add\n      0x0\n      keccak256\n        /* \"contracts/ss.sol\":8045:8076  validatorsState[_candidate].cap */\n      0x1\n      add\n      sload\n        /* \"contracts/ss.sol\":8045:8080  validatorsState[_candidate].cap.sub */\n      tag_104\n      swap1\n        /* \"contracts/ss.sol\":8045:8085  validatorsState[_candidate].cap.sub(cap) */\n      swap2\n      swap1\n      0xffffffff\n      and\n      jump\t// in\n    tag_160:\n        /* \"contracts/ss.sol\":8011:8026  validatorsState */\n      0x1\n        /* \"contracts/ss.sol\":8011:8038  validatorsState[_candidate] */\n      0x0\n        /* \"contracts/ss.sol\":8027:8037  _candidate */\n      dup9\n        /* \"contracts/ss.sol\":8011:8038  validatorsState[_candidate] */\n      0xffffffffffffffffffffffffffffffffffffffff\n      and\n      0xffffffffffffffffffffffffffffffffffffffff\n      and\n      dup2\n      mstore\n      0x20\n      add\n      swap1\n      dup2\n      mstore\n      0x20\n      add\n      0x0\n      keccak256\n        /* \"contracts/ss.sol\":8011:8042  validatorsState[_candidate].cap */\n      0x1\n      add\n        /* \"contracts/ss.sol\":8011:8085  validatorsState[_candidate].cap = validatorsState[_candidate].cap.sub(cap) */\n      dup2\n      swap1\n      sstore\n      pop\n        /* \"contracts/ss.sol\":8144:8145  0 */\n      0x0\n        /* \"contracts/ss.sol\":8095:8110  validatorsState */\n      0x1\n        /* \"contracts/ss.sol\":8095:8122  validatorsState[_candidate] */\n      0x0\n        /* \"contracts/ss.sol\":8111:8121  _candidate */\n      dup9\n        /* \"contracts/ss.sol\":8095:8122  validatorsState[_candidate] */\n      0xffffffffffffffffffffffffffffffffffffffff\n      and\n      0xffffffffffffffffffffffffffffffffffffffff\n      and\n      dup2\n      mstore\n      0x20\n      add\n      swap1\n      dup2\n      mstore\n      0x20\n      add\n      0x0\n      keccak256\n        /* \"contracts/ss.sol\":8095:8129  validatorsState[_candidate].voters */\n      0x2\n      add\n        /* \"contracts/ss.sol\":8095:8141  validatorsState[_candidate].voters[msg.sender] */\n      0x0\n        /* \"contracts/ss.sol\":8130:8140  msg.sender */\n      caller\n        /* \"contracts/ss.sol\":8095:8141  validatorsState[_candidate].voters[msg.sender] */\n      0xffffffffffffffffffffffffffffffffffffffff\n      and\n      0xffffffffffffffffffffffffffffffffffffffff\n      and\n      dup2\n      mstore\n      0x20\n      add\n      swap1\n      dup2\n      mstore\n      0x20\n      add\n      0x0\n      keccak256\n        /* \"contracts/ss.sol\":8095:8145  validatorsState[_candidate].voters[msg.sender] = 0 */\n      dup2\n      swap1\n      sstore\n      pop\n        /* \"contracts/ss.sol\":8231:8271  candidateWithdrawDelay.add(block.number) */\n      tag_161\n        /* \"contracts/ss.sol\":8258:8270  block.number */\n      number\n        /* \"contracts/ss.sol\":8231:8253  candidateWithdrawDelay */\n      sload(0x8)\n        /* \"contracts/ss.sol\":8231:8257  candidateWithdrawDelay.add */\n      tag_95\n      swap1\n        /* \"contracts/ss.sol\":8231:8271  candidateWithdrawDelay.add(block.number) */\n      swap2\n      swap1\n      0xffffffff\n      and\n      jump\t// in\n    tag_161:\n        /* \"contracts/ss.sol\":8201:8271  uint256 withdrawBlockNumber = candidateWithdrawDelay.add(block.number) */\n      swap3\n      pop\n        /* \"contracts/ss.sol\":8336:8397  withdrawsState[msg.sender].caps[withdrawBlockNumber].add(cap) */\n      tag_162\n        /* \"contracts/ss.sol\":8393:8396  cap */\n      dup5\n        /* \"contracts/ss.sol\":8336:8350  withdrawsState */\n      0x0\n        /* \"contracts/ss.sol\":8336:8362  withdrawsState[msg.sender] */\n      dup1\n        /* \"contracts/ss.sol\":8351:8361  msg.sender */\n      caller\n        /* \"contracts/ss.sol\":8336:8362  withdrawsState[msg.sender] */\n      0xffffffffffffffffffffffffffffffffffffffff\n      and\n      0xffffffffffffffffffffffffffffffffffffffff\n      and\n      dup2\n      mstore\n      0x20\n      add\n      swap1\n      dup2\n      mstore\n      0x20\n      add\n      0x0\n      keccak256\n        /* \"contracts/ss.sol\":8336:8367  withdrawsState[msg.sender].caps */\n      0x0\n      add\n        /* \"contracts/ss.sol\":8336:8388  withdrawsState[msg.sender].caps[withdrawBlockNumber] */\n      0x0\n        /* \"contracts/ss.sol\":8368:8387  withdrawBlockNumber */\n      dup7\n        /* \"contracts/ss.sol\":8336:8388  withdrawsState[msg.sender].caps[withdrawBlockNumber] */\n      dup2\n      mstore\n      0x20\n      add\n      swap1\n      dup2\n      mstore\n      0x20\n      add\n      0x0\n      keccak256\n      sload\n        /* \"contracts/ss.sol\":8336:8392  withdrawsState[msg.sender].caps[withdrawBlockNumber].add */\n      tag_95\n      swap1\n        /* \"contracts/ss.sol\":8336:8397  withdrawsState[msg.sender].caps[withdrawBlockNumber].add(cap) */\n      swap2\n      swap1\n      0xffffffff\n      and\n      jump\t// in\n    tag_162:\n        /* \"contracts/ss.sol\":8281:8295  withdrawsState */\n      0x0\n        /* \"contracts/ss.sol\":8281:8307  withdrawsState[msg.sender] */\n      dup1\n        /* \"contracts/ss.sol\":8296:8306  msg.sender */\n      caller\n        /* \"contracts/ss.sol\":8281:8307  withdrawsState[msg.sender] */\n      0xffffffffffffffffffffffffffffffffffffffff\n      and\n      0xffffffffffffffffffffffffffffffffffffffff\n      and\n      dup2\n      mstore\n      0x20\n      add\n      swap1\n      dup2\n      mstore\n      0x20\n      add\n      0x0\n      keccak256\n        /* \"contracts/ss.sol\":8281:8312  withdrawsState[msg.sender].caps */\n      0x0\n      add\n        /* \"contracts/ss.sol\":8281:8333  withdrawsState[msg.sender].caps[withdrawBlockNumber] */\n      0x0\n        /* \"contracts/ss.sol\":8313:8332  withdrawBlockNumber */\n      dup6\n        /* \"contracts/ss.sol\":8281:8333  withdrawsState[msg.sender].caps[withdrawBlockNumber] */\n      dup2\n      mstore\n      0x20\n      add\n      swap1\n      dup2\n      mstore\n      0x20\n      add\n      0x0\n      keccak256\n        /* \"contracts/ss.sol\":8281:8397  withdrawsState[msg.sender].caps[withdrawBlockNumber] = withdrawsState[msg.sender].caps[withdrawBlockNumber].add(cap) */\n      dup2\n      swap1\n      sstore\n      pop\n        /* \"contracts/ss.sol\":8407:8421  withdrawsState */\n      0x0\n        /* \"contracts/ss.sol\":8407:8433  withdrawsState[msg.sender] */\n      dup1\n        /* \"contracts/ss.sol\":8422:8432  msg.sender */\n      caller\n        /* \"contracts/ss.sol\":8407:8433  withdrawsState[msg.sender] */\n      0xffffffffffffffffffffffffffffffffffffffff\n      and\n      0xffffffffffffffffffffffffffffffffffffffff\n      and\n      dup2\n      mstore\n      0x20\n      add\n      swap1\n      dup2\n      mstore\n      0x20\n      add\n      0x0\n      keccak256\n        /* \"contracts/ss.sol\":8407:8446  withdrawsState[msg.sender].blockNumbers */\n      0x1\n      add\n        /* \"contracts/ss.sol\":8452:8471  withdrawBlockNumber */\n      dup4\n        /* \"contracts/ss.sol\":8407:8472  withdrawsState[msg.sender].blockNumbers.push(withdrawBlockNumber) */\n      swap1\n      dup1\n        /* \"--CODEGEN--\":39:40   */\n      0x1\n        /* \"--CODEGEN--\":33:36   */\n      dup2\n        /* \"--CODEGEN--\":27:37   */\n      sload\n        /* \"--CODEGEN--\":23:41   */\n      add\n        /* \"--CODEGEN--\":57:67   */\n      dup1\n        /* \"--CODEGEN--\":52:55   */\n      dup3\n        /* \"--CODEGEN--\":45:68   */\n      sstore\n        /* \"--CODEGEN--\":79:89   */\n      dup1\n        /* \"--CODEGEN--\":72:89   */\n      swap2\n      pop\n        /* \"--CODEGEN--\":0:93   */\n      pop\n        /* \"contracts/ss.sol\":8407:8472  withdrawsState[msg.sender].blockNumbers.push(withdrawBlockNumber) */\n      swap1\n      0x1\n      dup3\n      sub\n      swap1\n      0x0\n      mstore\n      keccak256(0x0, 0x20)\n      add\n      0x0\n      swap1\n      swap2\n      swap3\n      swap1\n      swap2\n      swap1\n      swap2\n      pop\n      sstore\n      pop\n        /* \"contracts/ss.sol\":8487:8517  Resign(msg.sender, _candidate) */\n      0x4edf3e325d0063213a39f9085522994a1c44bea5f39e7d63ef61260a1e58c6d3\n        /* \"contracts/ss.sol\":8494:8504  msg.sender */\n      caller\n        /* \"contracts/ss.sol\":8506:8516  _candidate */\n      dup8\n        /* \"contracts/ss.sol\":8487:8517  Resign(msg.sender, _candidate) */\n      mload(0x40)\n      dup1\n      dup4\n      0xffffffffffffffffffffffffffffffffffffffff\n      and\n      0xffffffffffffffffffffffffffffffffffffffff\n      and\n      dup2\n      mstore\n      0x20\n      add\n      dup3\n      0xffffffffffffffffffffffffffffffffffffffff\n      and\n      0xffffffffffffffffffffffffffffffffffffffff\n      and\n      dup2\n      mstore\n      0x20\n      add\n      swap3\n      pop\n      pop\n      pop\n      mload(0x40)\n      dup1\n      swap2\n      sub\n      swap1\n      log1\n        /* \"contracts/ss.sol\":2582:2583  _ */\n      pop\n        /* \"contracts/ss.sol\":7545:8524  function resign(address _candidate) public onlyOwner(_candidate) onlyCandidate(_candidate) {... */\n      pop\n      pop\n      pop\n      pop\n      pop\n      jump\t// out\n        /* \"contracts/ss.sol\":6037:6170  function getCandidateOwner(address _candidate) public view returns(address) {... */\n    tag_73:\n        /* \"contracts/ss.sol\":6104:6111  address */\n      0x0\n        /* \"contracts/ss.sol\":6130:6145  validatorsState */\n      0x1\n        /* \"contracts/ss.sol\":6130:6157  validatorsState[_candidate] */\n      0x0\n        /* \"contracts/ss.sol\":6146:6156  _candidate */\n      dup4\n        /* \"contracts/ss.sol\":6130:6157  validatorsState[_candidate] */\n      0xffffffffffffffffffffffffffffffffffffffff\n      and\n      0xffffffffffffffffffffffffffffffffffffffff\n      and\n      dup2\n      mstore\n      0x20\n      add\n      swap1\n      dup2\n      mstore\n      0x20\n      add\n      0x0\n      keccak256\n        /* \"contracts/ss.sol\":6130:6163  validatorsState[_candidate].owner */\n      0x0\n      add\n      0x0\n      swap1\n      sload\n      swap1\n      0x100\n      exp\n      swap1\n      div\n      0xffffffffffffffffffffffffffffffffffffffff\n      and\n        /* \"contracts/ss.sol\":6123:6163  return validatorsState[_candidate].owner */\n      swap1\n      pop\n        /* \"contracts/ss.sol\":6037:6170  function getCandidateOwner(address _candidate) public view returns(address) {... */\n      swap2\n      swap1\n      pop\n      jump\t// out\n        /* \"contracts/ss.sol\":2088:2121  uint256 public maxValidatorNumber */\n    tag_76:\n      sload(0x7)\n      dup2\n      jump\t// out\n        /* \"contracts/ss.sol\":2127:2164  uint256 public candidateWithdrawDelay */\n    tag_79:\n      sload(0x8)\n      dup2\n      jump\t// out\n        /* \"contracts/ss.sol\":6452:6582  function isCandidate(address _candidate) public view returns(bool) {... */\n    tag_82:\n        /* \"contracts/ss.sol\":6513:6517  bool */\n      0x0\n        /* \"contracts/ss.sol\":6536:6551  validatorsState */\n      0x1\n        /* \"contracts/ss.sol\":6536:6563  validatorsState[_candidate] */\n      0x0\n        /* \"contracts/ss.sol\":6552:6562  _candidate */\n      dup4\n        /* \"contracts/ss.sol\":6536:6563  validatorsState[_candidate] */\n      0xffffffffffffffffffffffffffffffffffffffff\n      and\n      0xffffffffffffffffffffffffffffffffffffffff\n      and\n      dup2\n      mstore\n      0x20\n      add\n      swap1\n      dup2\n      mstore\n      0x20\n      add\n      0x0\n      keccak256\n        /* \"contracts/ss.sol\":6536:6575  validatorsState[_candidate].isCandidate */\n      0x0\n      add\n      0x14\n      swap1\n      sload\n      swap1\n      0x100\n      exp\n      swap1\n      div\n      0xff\n      and\n        /* \"contracts/ss.sol\":6529:6575  return validatorsState[_candidate].isCandidate */\n      swap1\n      pop\n        /* \"contracts/ss.sol\":6452:6582  function isCandidate(address _candidate) public view returns(bool) {... */\n      swap2\n      swap1\n      pop\n      jump\t// out\n        /* \"contracts/ss.sol\":2020:2050  uint256 public minCandidateCap */\n    tag_85:\n      sload(0x5)\n      dup2\n      jump\t// out\n        /* \"contracts/ss.sol\":2056:2082  uint256 public minVoterCap */\n    tag_88:\n      sload(0x6)\n      dup2\n      jump\t// out\n        /* \"contracts/ss.sol\":1014:1143  function add(uint256 a, uint256 b) internal pure returns (uint256) {... */\n    tag_95:\n        /* \"contracts/ss.sol\":1072:1079  uint256 */\n      0x0\n        /* \"contracts/ss.sol\":1087:1096  uint256 c */\n      dup1\n        /* \"contracts/ss.sol\":1103:1104  b */\n      dup3\n        /* \"contracts/ss.sol\":1099:1100  a */\n      dup5\n        /* \"contracts/ss.sol\":1099:1104  a + b */\n      add\n        /* \"contracts/ss.sol\":1087:1104  uint256 c = a + b */\n      swap1\n      pop\n        /* \"contracts/ss.sol\":1122:1123  a */\n      dup4\n        /* \"contracts/ss.sol\":1117:1118  c */\n      dup2\n        /* \"contracts/ss.sol\":1117:1123  c >= a */\n      lt\n      iszero\n        /* \"contracts/ss.sol\":1110:1124  assert(c >= a) */\n      iszero\n      iszero\n      tag_167\n      jumpi\n      invalid\n    tag_167:\n        /* \"contracts/ss.sol\":1137:1138  c */\n      dup1\n        /* \"contracts/ss.sol\":1130:1138  return c */\n      swap2\n      pop\n        /* \"contracts/ss.sol\":1014:1143  function add(uint256 a, uint256 b) internal pure returns (uint256) {... */\n      pop\n      swap3\n      swap2\n      pop\n      pop\n      jump\t// out\n        /* \"contracts/ss.sol\":842:952  function sub(uint256 a, uint256 b) internal pure returns (uint256) {... */\n    tag_104:\n        /* \"contracts/ss.sol\":900:907  uint256 */\n      0x0\n        /* \"contracts/ss.sol\":927:928  a */\n      dup3\n        /* \"contracts/ss.sol\":922:923  b */\n      dup3\n        /* \"contracts/ss.sol\":922:928  b <= a */\n      gt\n      iszero\n        /* \"contracts/ss.sol\":915:929  assert(b <= a) */\n      iszero\n      iszero\n      tag_169\n      jumpi\n      invalid\n    tag_169:\n        /* \"contracts/ss.sol\":946:947  b */\n      dup2\n        /* \"contracts/ss.sol\":942:943  a */\n      dup4\n        /* \"contracts/ss.sol\":942:947  a - b */\n      sub\n        /* \"contracts/ss.sol\":935:947  return a - b */\n      swap1\n      pop\n        /* \"contracts/ss.sol\":842:952  function sub(uint256 a, uint256 b) internal pure returns (uint256) {... */\n      swap3\n      swap2\n      pop\n      pop\n      jump\t// out\n\n    auxdata: 0xa165627a7a7230582084c5528f08b22368d3db09a2ff23aa22cff706342a7487c44eb06df2b4fae0910029\n}\n",
				"bytecode": {
					"linkReferences": {},
					"object": "608060405260006004553480156200001657600080fd5b50604051620025e2380380620025e28339810180604052810190808051820192919060200180518201929190602001805190602001909291908051906020019092919080519060200190929190805190602001909291908051906020019092919080519060200190929190505050600085600581905550846006819055508360078190555082600881905550816009819055508851600481905550600090505b8851811015620003bd5760038982815181101515620000d157fe5b9060200190602002015190806001815401808255809150509060018203906000526020600020016000909192909190916101000a81548173ffffffffffffffffffffffffffffffffffffffff021916908373ffffffffffffffffffffffffffffffffffffffff160217905550506060604051908101604052808873ffffffffffffffffffffffffffffffffffffffff16815260200160011515815260200189838151811015156200017e57fe5b90602001906020020151815250600160008b848151811015156200019e57fe5b9060200190602002015173ffffffffffffffffffffffffffffffffffffffff1673ffffffffffffffffffffffffffffffffffffffff16815260200190815260200160002060008201518160000160006101000a81548173ffffffffffffffffffffffffffffffffffffffff021916908373ffffffffffffffffffffffffffffffffffffffff16021790555060208201518160000160146101000a81548160ff02191690831515021790555060408201518160010155905050600260008a838151811015156200026957fe5b9060200190602002015173ffffffffffffffffffffffffffffffffffffffff1673ffffffffffffffffffffffffffffffffffffffff1681526020019081526020016000208790806001815401808255809150509060018203906000526020600020016000909192909190916101000a81548173ffffffffffffffffffffffffffffffffffffffff021916908373ffffffffffffffffffffffffffffffffffffffff16021790555050600554600160008b848151811015156200032757fe5b9060200190602002015173ffffffffffffffffffffffffffffffffffffffff1673ffffffffffffffffffffffffffffffffffffffff16815260200190815260200160002060020160008973ffffffffffffffffffffffffffffffffffffffff1673ffffffffffffffffffffffffffffffffffffffff168152602001908152602001600020819055508080600101915050620000b6565b50505050505050505061220c80620003d66000396000f300608060405260043610610112576000357c0100000000000000000000000000000000000000000000000000000000900463ffffffff168063012679511461011757806302aa9be21461014d57806306a49fce1461019a57806315febd68146102065780632d15cc04146102475780632f9c4bba146102df578063302b68721461034b5780633477ee2e146103c2578063441a3e701461042f57806358e7525f146104665780636dd7d8ea146104bd578063a9a981a3146104f3578063a9ff959e1461051e578063ae6e43f514610549578063b642facd1461058c578063d09f1ab41461060f578063d161c7671461063a578063d51b9e9314610665578063d55b7dff146106c0578063f8ac9dd5146106eb575b600080fd5b61014b600480360381019080803573ffffffffffffffffffffffffffffffffffffffff169060200190929190505050610716565b005b34801561015957600080fd5b50610198600480360381019080803573ffffffffffffffffffffffffffffffffffffffff16906020019092919080359060200190929190505050610ba3565b005b3480156101a657600080fd5b506101af611101565b6040518080602001828103825283818151815260200191508051906020019060200280838360005b838110156101f25780820151818401526020810190506101d7565b505050509050019250505060405180910390f35b34801561021257600080fd5b506102316004803603810190808035906020019092919050505061118f565b6040518082815260200191505060405180910390f35b34801561025357600080fd5b50610288600480360381019080803573ffffffffffffffffffffffffffffffffffffffff1690602001909291905050506111eb565b6040518080602001828103825283818151815260200191508051906020019060200280838360005b838110156102cb5780820151818401526020810190506102b0565b505050509050019250505060405180910390f35b3480156102eb57600080fd5b506102f46112b8565b6040518080602001828103825283818151815260200191508051906020019060200280838360005b8381101561033757808201518184015260208101905061031c565b505050509050019250505060405180910390f35b34801561035757600080fd5b506103ac600480360381019080803573ffffffffffffffffffffffffffffffffffffffff169060200190929190803573ffffffffffffffffffffffffffffffffffffffff16906020019092919050505061134f565b6040518082815260200191505060405180910390f35b3480156103ce57600080fd5b506103ed600480360381019080803590602001909291905050506113d9565b604051808273ffffffffffffffffffffffffffffffffffffffff1673ffffffffffffffffffffffffffffffffffffffff16815260200191505060405180910390f35b34801561043b57600080fd5b506104646004803603810190808035906020019092919080359060200190929190505050611417565b005b34801561047257600080fd5b506104a7600480360381019080803573ffffffffffffffffffffffffffffffffffffffff1690602001909291905050506116c8565b6040518082815260200191505060405180910390f35b6104f1600480360381019080803573ffffffffffffffffffffffffffffffffffffffff169060200190929190505050611714565b005b3480156104ff57600080fd5b50610508611b00565b6040518082815260200191505060405180910390f35b34801561052a57600080fd5b50610533611b06565b6040518082815260200191505060405180910390f35b34801561055557600080fd5b5061058a600480360381019080803573ffffffffffffffffffffffffffffffffffffffff169060200190929190505050611b0c565b005b34801561059857600080fd5b506105cd600480360381019080803573ffffffffffffffffffffffffffffffffffffffff1690602001909291905050506120cc565b604051808273ffffffffffffffffffffffffffffffffffffffff1673ffffffffffffffffffffffffffffffffffffffff16815260200191505060405180910390f35b34801561061b57600080fd5b50610624612138565b6040518082815260200191505060405180910390f35b34801561064657600080fd5b5061064f61213e565b6040518082815260200191505060405180910390f35b34801561067157600080fd5b506106a6600480360381019080803573ffffffffffffffffffffffffffffffffffffffff169060200190929190505050612144565b604051808215151515815260200191505060405180910390f35b3480156106cc57600080fd5b506106d561219d565b6040518082815260200191505060405180910390f35b3480156106f757600080fd5b506107006121a3565b6040518082815260200191505060405180910390f35b6000600554341015151561072957600080fd5b81600160008273ffffffffffffffffffffffffffffffffffffffff1673ffffffffffffffffffffffffffffffffffffffff16815260200190815260200160002060000160149054906101000a900460ff1615151561078657600080fd5b6107db34600160008673ffffffffffffffffffffffffffffffffffffffff1673ffffffffffffffffffffffffffffffffffffffff168152602001908152602001600020600101546121a990919063ffffffff16565b915060038390806001815401808255809150509060018203906000526020600020016000909192909190916101000a81548173ffffffffffffffffffffffffffffffffffffffff021916908373ffffffffffffffffffffffffffffffffffffffff160217905550506060604051908101604052803373ffffffffffffffffffffffffffffffffffffffff16815260200160011515815260200183815250600160008573ffffffffffffffffffffffffffffffffffffffff1673ffffffffffffffffffffffffffffffffffffffff16815260200190815260200160002060008201518160000160006101000a81548173ffffffffffffffffffffffffffffffffffffffff021916908373ffffffffffffffffffffffffffffffffffffffff16021790555060208201518160000160146101000a81548160ff021916908315150217905550604082015181600101559050506109bd34600160008673ffffffffffffffffffffffffffffffffffffffff1673ffffffffffffffffffffffffffffffffffffffff16815260200190815260200160002060020160003373ffffffffffffffffffffffffffffffffffffffff1673ffffffffffffffffffffffffffffffffffffffff168152602001908152602001600020546121a990919063ffffffff16565b600160008573ffffffffffffffffffffffffffffffffffffffff1673ffffffffffffffffffffffffffffffffffffffff16815260200190815260200160002060020160003373ffffffffffffffffffffffffffffffffffffffff1673ffffffffffffffffffffffffffffffffffffffff16815260200190815260200160002081905550610a5660016004546121a990919063ffffffff16565b600481905550600260008473ffffffffffffffffffffffffffffffffffffffff1673ffffffffffffffffffffffffffffffffffffffff1681526020019081526020016000203390806001815401808255809150509060018203906000526020600020016000909192909190916101000a81548173ffffffffffffffffffffffffffffffffffffffff021916908373ffffffffffffffffffffffffffffffffffffffff160217905550507f7635f1d87b47fba9f2b09e56eb4be75cca030e0cb179c1602ac9261d39a8f5c1338434604051808473ffffffffffffffffffffffffffffffffffffffff1673ffffffffffffffffffffffffffffffffffffffff1681526020018373ffffffffffffffffffffffffffffffffffffffff1673ffffffffffffffffffffffffffffffffffffffff168152602001828152602001935050505060405180910390a1505050565b6000828280600160008473ffffffffffffffffffffffffffffffffffffffff1673ffffffffffffffffffffffffffffffffffffffff16815260200190815260200160002060020160003373ffffffffffffffffffffffffffffffffffffffff1673ffffffffffffffffffffffffffffffffffffffff1681526020019081526020016000205410151515610c3557600080fd5b3373ffffffffffffffffffffffffffffffffffffffff16600160008473ffffffffffffffffffffffffffffffffffffffff1673ffffffffffffffffffffffffffffffffffffffff16815260200190815260200160002060000160009054906101000a900473ffffffffffffffffffffffffffffffffffffffff1673ffffffffffffffffffffffffffffffffffffffff161415610d6e57600554610d6082600160008673ffffffffffffffffffffffffffffffffffffffff1673ffffffffffffffffffffffffffffffffffffffff16815260200190815260200160002060020160003373ffffffffffffffffffffffffffffffffffffffff1673ffffffffffffffffffffffffffffffffffffffff168152602001908152602001600020546121c790919063ffffffff16565b10151515610d6d57600080fd5b5b610dc384600160008873ffffffffffffffffffffffffffffffffffffffff1673ffffffffffffffffffffffffffffffffffffffff168152602001908152602001600020600101546121c790919063ffffffff16565b600160008773ffffffffffffffffffffffffffffffffffffffff1673ffffffffffffffffffffffffffffffffffffffff16815260200190815260200160002060010181905550610e9b84600160008873ffffffffffffffffffffffffffffffffffffffff1673ffffffffffffffffffffffffffffffffffffffff16815260200190815260200160002060020160003373ffffffffffffffffffffffffffffffffffffffff1673ffffffffffffffffffffffffffffffffffffffff168152602001908152602001600020546121c790919063ffffffff16565b600160008773ffffffffffffffffffffffffffffffffffffffff1673ffffffffffffffffffffffffffffffffffffffff16815260200190815260200160002060020160003373ffffffffffffffffffffffffffffffffffffffff1673ffffffffffffffffffffffffffffffffffffffff16815260200190815260200160002081905550610f33436009546121a990919063ffffffff16565b9250610f9a846000803373ffffffffffffffffffffffffffffffffffffffff1673ffffffffffffffffffffffffffffffffffffffff1681526020019081526020016000206000016000868152602001908152602001600020546121a990919063ffffffff16565b6000803373ffffffffffffffffffffffffffffffffffffffff1673ffffffffffffffffffffffffffffffffffffffff1681526020019081526020016000206000016000858152602001908152602001600020819055506000803373ffffffffffffffffffffffffffffffffffffffff1673ffffffffffffffffffffffffffffffffffffffff1681526020019081526020016000206001018390806001815401808255809150509060018203906000526020600020016000909192909190915055507faa0e554f781c3c3b2be110a0557f260f11af9a8aa2c64bc1e7a31dbb21e32fa2338686604051808473ffffffffffffffffffffffffffffffffffffffff1673ffffffffffffffffffffffffffffffffffffffff1681526020018373ffffffffffffffffffffffffffffffffffffffff1673ffffffffffffffffffffffffffffffffffffffff168152602001828152602001935050505060405180910390a15050505050565b6060600380548060200260200160405190810160405280929190818152602001828054801561118557602002820191906000526020600020905b8160009054906101000a900473ffffffffffffffffffffffffffffffffffffffff1673ffffffffffffffffffffffffffffffffffffffff168152602001906001019080831161113b575b5050505050905090565b60008060003373ffffffffffffffffffffffffffffffffffffffff1673ffffffffffffffffffffffffffffffffffffffff1681526020019081526020016000206000016000838152602001908152602001600020549050919050565b6060600260008373ffffffffffffffffffffffffffffffffffffffff1673ffffffffffffffffffffffffffffffffffffffff1681526020019081526020016000208054806020026020016040519081016040528092919081815260200182805480156112ac57602002820191906000526020600020905b8160009054906101000a900473ffffffffffffffffffffffffffffffffffffffff1673ffffffffffffffffffffffffffffffffffffffff1681526020019060010190808311611262575b50505050509050919050565b60606000803373ffffffffffffffffffffffffffffffffffffffff1673ffffffffffffffffffffffffffffffffffffffff16815260200190815260200160002060010180548060200260200160405190810160405280929190818152602001828054801561134557602002820191906000526020600020905b815481526020019060010190808311611331575b5050505050905090565b6000600160008473ffffffffffffffffffffffffffffffffffffffff1673ffffffffffffffffffffffffffffffffffffffff16815260200190815260200160002060020160008373ffffffffffffffffffffffffffffffffffffffff1673ffffffffffffffffffffffffffffffffffffffff16815260200190815260200160002054905092915050565b6003818154811015156113e857fe5b906000526020600020016000915054906101000a900473ffffffffffffffffffffffffffffffffffffffff1681565b6000828260008211151561142a57600080fd5b81431015151561143957600080fd5b60008060003373ffffffffffffffffffffffffffffffffffffffff1673ffffffffffffffffffffffffffffffffffffffff16815260200190815260200160002060000160008481526020019081526020016000205411151561149a57600080fd5b816000803373ffffffffffffffffffffffffffffffffffffffff1673ffffffffffffffffffffffffffffffffffffffff168152602001908152602001600020600101828154811015156114e957fe5b906000526020600020015414151561150057600080fd5b6000803373ffffffffffffffffffffffffffffffffffffffff1673ffffffffffffffffffffffffffffffffffffffff16815260200190815260200160002060000160008681526020019081526020016000205492506000803373ffffffffffffffffffffffffffffffffffffffff1673ffffffffffffffffffffffffffffffffffffffff1681526020019081526020016000206000016000868152602001908152602001600020600090556000803373ffffffffffffffffffffffffffffffffffffffff1673ffffffffffffffffffffffffffffffffffffffff168152602001908152602001600020600101848154811015156115f957fe5b90600052602060002001600090553373ffffffffffffffffffffffffffffffffffffffff166108fc849081150290604051600060405180830381858888f1935050505015801561164d573d6000803e3d6000fd5b507ff279e6a1f5e320cca91135676d9cb6e44ca8a08c0b88342bcdb1144f6511b568338685604051808473ffffffffffffffffffffffffffffffffffffffff1673ffffffffffffffffffffffffffffffffffffffff168152602001838152602001828152602001935050505060405180910390a15050505050565b6000600160008373ffffffffffffffffffffffffffffffffffffffff1673ffffffffffffffffffffffffffffffffffffffff168152602001908152602001600020600101549050919050565b600654341015151561172557600080fd5b80600160008273ffffffffffffffffffffffffffffffffffffffff1673ffffffffffffffffffffffffffffffffffffffff16815260200190815260200160002060000160149054906101000a900460ff16151561178157600080fd5b6117d634600160008573ffffffffffffffffffffffffffffffffffffffff1673ffffffffffffffffffffffffffffffffffffffff168152602001908152602001600020600101546121a990919063ffffffff16565b600160008473ffffffffffffffffffffffffffffffffffffffff1673ffffffffffffffffffffffffffffffffffffffff168152602001908152602001600020600101819055506000600160008473ffffffffffffffffffffffffffffffffffffffff1673ffffffffffffffffffffffffffffffffffffffff16815260200190815260200160002060020160003373ffffffffffffffffffffffffffffffffffffffff1673ffffffffffffffffffffffffffffffffffffffff16815260200190815260200160002054141561194857600260008373ffffffffffffffffffffffffffffffffffffffff1673ffffffffffffffffffffffffffffffffffffffff1681526020019081526020016000203390806001815401808255809150509060018203906000526020600020016000909192909190916101000a81548173ffffffffffffffffffffffffffffffffffffffff021916908373ffffffffffffffffffffffffffffffffffffffff160217905550505b6119da34600160008573ffffffffffffffffffffffffffffffffffffffff1673ffffffffffffffffffffffffffffffffffffffff16815260200190815260200160002060020160003373ffffffffffffffffffffffffffffffffffffffff1673ffffffffffffffffffffffffffffffffffffffff168152602001908152602001600020546121a990919063ffffffff16565b600160008473ffffffffffffffffffffffffffffffffffffffff1673ffffffffffffffffffffffffffffffffffffffff16815260200190815260200160002060020160003373ffffffffffffffffffffffffffffffffffffffff1673ffffffffffffffffffffffffffffffffffffffff168152602001908152602001600020819055507f66a9138482c99e9baf08860110ef332cc0c23b4a199a53593d8db0fc8f96fbfc338334604051808473ffffffffffffffffffffffffffffffffffffffff1673ffffffffffffffffffffffffffffffffffffffff1681526020018373ffffffffffffffffffffffffffffffffffffffff1673ffffffffffffffffffffffffffffffffffffffff168152602001828152602001935050505060405180910390a15050565b60045481565b60095481565b6000806000833373ffffffffffffffffffffffffffffffffffffffff16600160008373ffffffffffffffffffffffffffffffffffffffff1673ffffffffffffffffffffffffffffffffffffffff16815260200190815260200160002060000160009054906101000a900473ffffffffffffffffffffffffffffffffffffffff1673ffffffffffffffffffffffffffffffffffffffff16141515611bae57600080fd5b84600160008273ffffffffffffffffffffffffffffffffffffffff1673ffffffffffffffffffffffffffffffffffffffff16815260200190815260200160002060000160149054906101000a900460ff161515611c0a57600080fd5b6000600160008873ffffffffffffffffffffffffffffffffffffffff1673ffffffffffffffffffffffffffffffffffffffff16815260200190815260200160002060000160146101000a81548160ff021916908315150217905550611c7b60016004546121c790919063ffffffff16565b600481905550600094505b600380549050851015611d4e578573ffffffffffffffffffffffffffffffffffffffff16600386815481101515611cb957fe5b9060005260206000200160009054906101000a900473ffffffffffffffffffffffffffffffffffffffff1673ffffffffffffffffffffffffffffffffffffffff161415611d4157600385815481101515611d0f57fe5b9060005260206000200160006101000a81549073ffffffffffffffffffffffffffffffffffffffff0219169055611d4e565b8480600101955050611c86565b600160008773ffffffffffffffffffffffffffffffffffffffff1673ffffffffffffffffffffffffffffffffffffffff16815260200190815260200160002060020160003373ffffffffffffffffffffffffffffffffffffffff1673ffffffffffffffffffffffffffffffffffffffff168152602001908152602001600020549350611e2584600160008973ffffffffffffffffffffffffffffffffffffffff1673ffffffffffffffffffffffffffffffffffffffff168152602001908152602001600020600101546121c790919063ffffffff16565b600160008873ffffffffffffffffffffffffffffffffffffffff1673ffffffffffffffffffffffffffffffffffffffff168152602001908152602001600020600101819055506000600160008873ffffffffffffffffffffffffffffffffffffffff1673ffffffffffffffffffffffffffffffffffffffff16815260200190815260200160002060020160003373ffffffffffffffffffffffffffffffffffffffff1673ffffffffffffffffffffffffffffffffffffffff16815260200190815260200160002081905550611f05436008546121a990919063ffffffff16565b9250611f6c846000803373ffffffffffffffffffffffffffffffffffffffff1673ffffffffffffffffffffffffffffffffffffffff1681526020019081526020016000206000016000868152602001908152602001600020546121a990919063ffffffff16565b6000803373ffffffffffffffffffffffffffffffffffffffff1673ffffffffffffffffffffffffffffffffffffffff1681526020019081526020016000206000016000858152602001908152602001600020819055506000803373ffffffffffffffffffffffffffffffffffffffff1673ffffffffffffffffffffffffffffffffffffffff1681526020019081526020016000206001018390806001815401808255809150509060018203906000526020600020016000909192909190915055507f4edf3e325d0063213a39f9085522994a1c44bea5f39e7d63ef61260a1e58c6d33387604051808373ffffffffffffffffffffffffffffffffffffffff1673ffffffffffffffffffffffffffffffffffffffff1681526020018273ffffffffffffffffffffffffffffffffffffffff1673ffffffffffffffffffffffffffffffffffffffff1681526020019250505060405180910390a1505050505050565b6000600160008373ffffffffffffffffffffffffffffffffffffffff1673ffffffffffffffffffffffffffffffffffffffff16815260200190815260200160002060000160009054906101000a900473ffffffffffffffffffffffffffffffffffffffff169050919050565b60075481565b60085481565b6000600160008373ffffffffffffffffffffffffffffffffffffffff1673ffffffffffffffffffffffffffffffffffffffff16815260200190815260200160002060000160149054906101000a900460ff169050919050565b60055481565b60065481565b60008082840190508381101515156121bd57fe5b8091505092915050565b60008282111515156121d557fe5b8183039050929150505600a165627a7a7230582084c5528f08b22368d3db09a2ff23aa22cff706342a7487c44eb06df2b4fae0910029",
					"opcodes": "PUSH1 0x80 PUSH1 0x40 MSTORE PUSH1 0x0 PUSH1 0x4 SSTORE CALLVALUE DUP1 ISZERO PUSH3 0x16 JUMPI PUSH1 0x0 DUP1 REVERT JUMPDEST POP PUSH1 0x40 MLOAD PUSH3 0x25E2 CODESIZE SUB DUP1 PUSH3 0x25E2 DUP4 CODECOPY DUP2 ADD DUP1 PUSH1 0x40 MSTORE DUP2 ADD SWAP1 DUP1 DUP1 MLOAD DUP3 ADD SWAP3 SWAP2 SWAP1 PUSH1 0x20 ADD DUP1 MLOAD DUP3 ADD SWAP3 SWAP2 SWAP1 PUSH1 0x20 ADD DUP1 MLOAD SWAP1 PUSH1 0x20 ADD SWAP1 SWAP3 SWAP2 SWAP1 DUP1 MLOAD SWAP1 PUSH1 0x20 ADD SWAP1 SWAP3 SWAP2 SWAP1 DUP1 MLOAD SWAP1 PUSH1 0x20 ADD SWAP1 SWAP3 SWAP2 SWAP1 DUP1 MLOAD SWAP1 PUSH1 0x20 ADD SWAP1 SWAP3 SWAP2 SWAP1 DUP1 MLOAD SWAP1 PUSH1 0x20 ADD SWAP1 SWAP3 SWAP2 SWAP1 DUP1 MLOAD SWAP1 PUSH1 0x20 ADD SWAP1 SWAP3 SWAP2 SWAP1 POP POP POP PUSH1 0x0 DUP6 PUSH1 0x5 DUP2 SWAP1 SSTORE POP DUP5 PUSH1 0x6 DUP2 SWAP1 SSTORE POP DUP4 PUSH1 0x7 DUP2 SWAP1 SSTORE POP DUP3 PUSH1 0x8 DUP2 SWAP1 SSTORE POP DUP2 PUSH1 0x9 DUP2 SWAP1 SSTORE POP DUP9 MLOAD PUSH1 0x4 DUP2 SWAP1 SSTORE POP PUSH1 0x0 SWAP1 POP JUMPDEST DUP9 MLOAD DUP2 LT ISZERO PUSH3 0x3BD JUMPI PUSH1 0x3 DUP10 DUP3 DUP2 MLOAD DUP2 LT ISZERO ISZERO PUSH3 0xD1 JUMPI INVALID JUMPDEST SWAP1 PUSH1 0x20 ADD SWAP1 PUSH1 0x20 MUL ADD MLOAD SWAP1 DUP1 PUSH1 0x1 DUP2 SLOAD ADD DUP1 DUP3 SSTORE DUP1 SWAP2 POP POP SWAP1 PUSH1 0x1 DUP3 SUB SWAP1 PUSH1 0x0 MSTORE PUSH1 0x20 PUSH1 0x0 KECCAK256 ADD PUSH1 0x0 SWAP1 SWAP2 SWAP3 SWAP1 SWAP2 SWAP1 SWAP2 PUSH2 0x100 EXP DUP2 SLOAD DUP2 PUSH20 0xFFFFFFFFFFFFFFFFFFFFFFFFFFFFFFFFFFFFFFFF MUL NOT AND SWAP1 DUP4 PUSH20 0xFFFFFFFFFFFFFFFFFFFFFFFFFFFFFFFFFFFFFFFF AND MUL OR SWAP1 SSTORE POP POP PUSH1 0x60 PUSH1 0x40 MLOAD SWAP1 DUP2 ADD PUSH1 0x40 MSTORE DUP1 DUP9 PUSH20 0xFFFFFFFFFFFFFFFFFFFFFFFFFFFFFFFFFFFFFFFF AND DUP2 MSTORE PUSH1 0x20 ADD PUSH1 0x1 ISZERO ISZERO DUP2 MSTORE PUSH1 0x20 ADD DUP10 DUP4 DUP2 MLOAD DUP2 LT ISZERO ISZERO PUSH3 0x17E JUMPI INVALID JUMPDEST SWAP1 PUSH1 0x20 ADD SWAP1 PUSH1 0x20 MUL ADD MLOAD DUP2 MSTORE POP PUSH1 0x1 PUSH1 0x0 DUP12 DUP5 DUP2 MLOAD DUP2 LT ISZERO ISZERO PUSH3 0x19E JUMPI INVALID JUMPDEST SWAP1 PUSH1 0x20 ADD SWAP1 PUSH1 0x20 MUL ADD MLOAD PUSH20 0xFFFFFFFFFFFFFFFFFFFFFFFFFFFFFFFFFFFFFFFF AND PUSH20 0xFFFFFFFFFFFFFFFFFFFFFFFFFFFFFFFFFFFFFFFF AND DUP2 MSTORE PUSH1 0x20 ADD SWAP1 DUP2 MSTORE PUSH1 0x20 ADD PUSH1 0x0 KECCAK256 PUSH1 0x0 DUP3 ADD MLOAD DUP2 PUSH1 0x0 ADD PUSH1 0x0 PUSH2 0x100 EXP DUP2 SLOAD DUP2 PUSH20 0xFFFFFFFFFFFFFFFFFFFFFFFFFFFFFFFFFFFFFFFF MUL NOT AND SWAP1 DUP4 PUSH20 0xFFFFFFFFFFFFFFFFFFFFFFFFFFFFFFFFFFFFFFFF AND MUL OR SWAP1 SSTORE POP PUSH1 0x20 DUP3 ADD MLOAD DUP2 PUSH1 0x0 ADD PUSH1 0x14 PUSH2 0x100 EXP DUP2 SLOAD DUP2 PUSH1 0xFF MUL NOT AND SWAP1 DUP4 ISZERO ISZERO MUL OR SWAP1 SSTORE POP PUSH1 0x40 DUP3 ADD MLOAD DUP2 PUSH1 0x1 ADD SSTORE SWAP1 POP POP PUSH1 0x2 PUSH1 0x0 DUP11 DUP4 DUP2 MLOAD DUP2 LT ISZERO ISZERO PUSH3 0x269 JUMPI INVALID JUMPDEST SWAP1 PUSH1 0x20 ADD SWAP1 PUSH1 0x20 MUL ADD MLOAD PUSH20 0xFFFFFFFFFFFFFFFFFFFFFFFFFFFFFFFFFFFFFFFF AND PUSH20 0xFFFFFFFFFFFFFFFFFFFFFFFFFFFFFFFFFFFFFFFF AND DUP2 MSTORE PUSH1 0x20 ADD SWAP1 DUP2 MSTORE PUSH1 0x20 ADD PUSH1 0x0 KECCAK256 DUP8 SWAP1 DUP1 PUSH1 0x1 DUP2 SLOAD ADD DUP1 DUP3 SSTORE DUP1 SWAP2 POP POP SWAP1 PUSH1 0x1 DUP3 SUB SWAP1 PUSH1 0x0 MSTORE PUSH1 0x20 PUSH1 0x0 KECCAK256 ADD PUSH1 0x0 SWAP1 SWAP2 SWAP3 SWAP1 SWAP2 SWAP1 SWAP2 PUSH2 0x100 EXP DUP2 SLOAD DUP2 PUSH20 0xFFFFFFFFFFFFFFFFFFFFFFFFFFFFFFFFFFFFFFFF MUL NOT AND SWAP1 DUP4 PUSH20 0xFFFFFFFFFFFFFFFFFFFFFFFFFFFFFFFFFFFFFFFF AND MUL OR SWAP1 SSTORE POP POP PUSH1 0x5 SLOAD PUSH1 0x1 PUSH1 0x0 DUP12 DUP5 DUP2 MLOAD DUP2 LT ISZERO ISZERO PUSH3 0x327 JUMPI INVALID JUMPDEST SWAP1 PUSH1 0x20 ADD SWAP1 PUSH1 0x20 MUL ADD MLOAD PUSH20 0xFFFFFFFFFFFFFFFFFFFFFFFFFFFFFFFFFFFFFFFF AND PUSH20 0xFFFFFFFFFFFFFFFFFFFFFFFFFFFFFFFFFFFFFFFF AND DUP2 MSTORE PUSH1 0x20 ADD SWAP1 DUP2 MSTORE PUSH1 0x20 ADD PUSH1 0x0 KECCAK256 PUSH1 0x2 ADD PUSH1 0x0 DUP10 PUSH20 0xFFFFFFFFFFFFFFFFFFFFFFFFFFFFFFFFFFFFFFFF AND PUSH20 0xFFFFFFFFFFFFFFFFFFFFFFFFFFFFFFFFFFFFFFFF AND DUP2 MSTORE PUSH1 0x20 ADD SWAP1 DUP2 MSTORE PUSH1 0x20 ADD PUSH1 0x0 KECCAK256 DUP2 SWAP1 SSTORE POP DUP1 DUP1 PUSH1 0x1 ADD SWAP2 POP POP PUSH3 0xB6 JUMP JUMPDEST POP POP POP POP POP POP POP POP POP PUSH2 0x220C DUP1 PUSH3 0x3D6 PUSH1 0x0 CODECOPY PUSH1 0x0 RETURN STOP PUSH1 0x80 PUSH1 0x40 MSTORE PUSH1 0x4 CALLDATASIZE LT PUSH2 0x112 JUMPI PUSH1 0x0 CALLDATALOAD PUSH29 0x100000000000000000000000000000000000000000000000000000000 SWAP1 DIV PUSH4 0xFFFFFFFF AND DUP1 PUSH4 0x1267951 EQ PUSH2 0x117 JUMPI DUP1 PUSH4 0x2AA9BE2 EQ PUSH2 0x14D JUMPI DUP1 PUSH4 0x6A49FCE EQ PUSH2 0x19A JUMPI DUP1 PUSH4 0x15FEBD68 EQ PUSH2 0x206 JUMPI DUP1 PUSH4 0x2D15CC04 EQ PUSH2 0x247 JUMPI DUP1 PUSH4 0x2F9C4BBA EQ PUSH2 0x2DF JUMPI DUP1 PUSH4 0x302B6872 EQ PUSH2 0x34B JUMPI DUP1 PUSH4 0x3477EE2E EQ PUSH2 0x3C2 JUMPI DUP1 PUSH4 0x441A3E70 EQ PUSH2 0x42F JUMPI DUP1 PUSH4 0x58E7525F EQ PUSH2 0x466 JUMPI DUP1 PUSH4 0x6DD7D8EA EQ PUSH2 0x4BD JUMPI DUP1 PUSH4 0xA9A981A3 EQ PUSH2 0x4F3 JUMPI DUP1 PUSH4 0xA9FF959E EQ PUSH2 0x51E JUMPI DUP1 PUSH4 0xAE6E43F5 EQ PUSH2 0x549 JUMPI DUP1 PUSH4 0xB642FACD EQ PUSH2 0x58C JUMPI DUP1 PUSH4 0xD09F1AB4 EQ PUSH2 0x60F JUMPI DUP1 PUSH4 0xD161C767 EQ PUSH2 0x63A JUMPI DUP1 PUSH4 0xD51B9E93 EQ PUSH2 0x665 JUMPI DUP1 PUSH4 0xD55B7DFF EQ PUSH2 0x6C0 JUMPI DUP1 PUSH4 0xF8AC9DD5 EQ PUSH2 0x6EB JUMPI JUMPDEST PUSH1 0x0 DUP1 REVERT JUMPDEST PUSH2 0x14B PUSH1 0x4 DUP1 CALLDATASIZE SUB DUP2 ADD SWAP1 DUP1 DUP1 CALLDATALOAD PUSH20 0xFFFFFFFFFFFFFFFFFFFFFFFFFFFFFFFFFFFFFFFF AND SWAP1 PUSH1 0x20 ADD SWAP1 SWAP3 SWAP2 SWAP1 POP POP POP PUSH2 0x716 JUMP JUMPDEST STOP JUMPDEST CALLVALUE DUP1 ISZERO PUSH2 0x159 JUMPI PUSH1 0x0 DUP1 REVERT JUMPDEST POP PUSH2 0x198 PUSH1 0x4 DUP1 CALLDATASIZE SUB DUP2 ADD SWAP1 DUP1 DUP1 CALLDATALOAD PUSH20 0xFFFFFFFFFFFFFFFFFFFFFFFFFFFFFFFFFFFFFFFF AND SWAP1 PUSH1 0x20 ADD SWAP1 SWAP3 SWAP2 SWAP1 DUP1 CALLDATALOAD SWAP1 PUSH1 0x20 ADD SWAP1 SWAP3 SWAP2 SWAP1 POP POP POP PUSH2 0xBA3 JUMP JUMPDEST STOP JUMPDEST CALLVALUE DUP1 ISZERO PUSH2 0x1A6 JUMPI PUSH1 0x0 DUP1 REVERT JUMPDEST POP PUSH2 0x1AF PUSH2 0x1101 JUMP JUMPDEST PUSH1 0x40 MLOAD DUP1 DUP1 PUSH1 0x20 ADD DUP3 DUP2 SUB DUP3 MSTORE DUP4 DUP2 DUP2 MLOAD DUP2 MSTORE PUSH1 0x20 ADD SWAP2 POP DUP1 MLOAD SWAP1 PUSH1 0x20 ADD SWAP1 PUSH1 0x20 MUL DUP1 DUP4 DUP4 PUSH1 0x0 JUMPDEST DUP4 DUP2 LT ISZERO PUSH2 0x1F2 JUMPI DUP1 DUP3 ADD MLOAD DUP2 DUP5 ADD MSTORE PUSH1 0x20 DUP2 ADD SWAP1 POP PUSH2 0x1D7 JUMP JUMPDEST POP POP POP POP SWAP1 POP ADD SWAP3 POP POP POP PUSH1 0x40 MLOAD DUP1 SWAP2 SUB SWAP1 RETURN JUMPDEST CALLVALUE DUP1 ISZERO PUSH2 0x212 JUMPI PUSH1 0x0 DUP1 REVERT JUMPDEST POP PUSH2 0x231 PUSH1 0x4 DUP1 CALLDATASIZE SUB DUP2 ADD SWAP1 DUP1 DUP1 CALLDATALOAD SWAP1 PUSH1 0x20 ADD SWAP1 SWAP3 SWAP2 SWAP1 POP POP POP PUSH2 0x118F JUMP JUMPDEST PUSH1 0x40 MLOAD DUP1 DUP3 DUP2 MSTORE PUSH1 0x20 ADD SWAP2 POP POP PUSH1 0x40 MLOAD DUP1 SWAP2 SUB SWAP1 RETURN JUMPDEST CALLVALUE DUP1 ISZERO PUSH2 0x253 JUMPI PUSH1 0x0 DUP1 REVERT JUMPDEST POP PUSH2 0x288 PUSH1 0x4 DUP1 CALLDATASIZE SUB DUP2 ADD SWAP1 DUP1 DUP1 CALLDATALOAD PUSH20 0xFFFFFFFFFFFFFFFFFFFFFFFFFFFFFFFFFFFFFFFF AND SWAP1 PUSH1 0x20 ADD SWAP1 SWAP3 SWAP2 SWAP1 POP POP POP PUSH2 0x11EB JUMP JUMPDEST PUSH1 0x40 MLOAD DUP1 DUP1 PUSH1 0x20 ADD DUP3 DUP2 SUB DUP3 MSTORE DUP4 DUP2 DUP2 MLOAD DUP2 MSTORE PUSH1 0x20 ADD SWAP2 POP DUP1 MLOAD SWAP1 PUSH1 0x20 ADD SWAP1 PUSH1 0x20 MUL DUP1 DUP4 DUP4 PUSH1 0x0 JUMPDEST DUP4 DUP2 LT ISZERO PUSH2 0x2CB JUMPI DUP1 DUP3 ADD MLOAD DUP2 DUP5 ADD MSTORE PUSH1 0x20 DUP2 ADD SWAP1 POP PUSH2 0x2B0 JUMP JUMPDEST POP POP POP POP SWAP1 POP ADD SWAP3 POP POP POP PUSH1 0x40 MLOAD DUP1 SWAP2 SUB SWAP1 RETURN JUMPDEST CALLVALUE DUP1 ISZERO PUSH2 0x2EB JUMPI PUSH1 0x0 DUP1 REVERT JUMPDEST POP PUSH2 0x2F4 PUSH2 0x12B8 JUMP JUMPDEST PUSH1 0x40 MLOAD DUP1 DUP1 PUSH1 0x20 ADD DUP3 DUP2 SUB DUP3 MSTORE DUP4 DUP2 DUP2 MLOAD DUP2 MSTORE PUSH1 0x20 ADD SWAP2 POP DUP1 MLOAD SWAP1 PUSH1 0x20 ADD SWAP1 PUSH1 0x20 MUL DUP1 DUP4 DUP4 PUSH1 0x0 JUMPDEST DUP4 DUP2 LT ISZERO PUSH2 0x337 JUMPI DUP1 DUP3 ADD MLOAD DUP2 DUP5 ADD MSTORE PUSH1 0x20 DUP2 ADD SWAP1 POP PUSH2 0x31C JUMP JUMPDEST POP POP POP POP SWAP1 POP ADD SWAP3 POP POP POP PUSH1 0x40 MLOAD DUP1 SWAP2 SUB SWAP1 RETURN JUMPDEST CALLVALUE DUP1 ISZERO PUSH2 0x357 JUMPI PUSH1 0x0 DUP1 REVERT JUMPDEST POP PUSH2 0x3AC PUSH1 0x4 DUP1 CALLDATASIZE SUB DUP2 ADD SWAP1 DUP1 DUP1 CALLDATALOAD PUSH20 0xFFFFFFFFFFFFFFFFFFFFFFFFFFFFFFFFFFFFFFFF AND SWAP1 PUSH1 0x20 ADD SWAP1 SWAP3 SWAP2 SWAP1 DUP1 CALLDATALOAD PUSH20 0xFFFFFFFFFFFFFFFFFFFFFFFFFFFFFFFFFFFFFFFF AND SWAP1 PUSH1 0x20 ADD SWAP1 SWAP3 SWAP2 SWAP1 POP POP POP PUSH2 0x134F JUMP JUMPDEST PUSH1 0x40 MLOAD DUP1 DUP3 DUP2 MSTORE PUSH1 0x20 ADD SWAP2 POP POP PUSH1 0x40 MLOAD DUP1 SWAP2 SUB SWAP1 RETURN JUMPDEST CALLVALUE DUP1 ISZERO PUSH2 0x3CE JUMPI PUSH1 0x0 DUP1 REVERT JUMPDEST POP PUSH2 0x3ED PUSH1 0x4 DUP1 CALLDATASIZE SUB DUP2 ADD SWAP1 DUP1 DUP1 CALLDATALOAD SWAP1 PUSH1 0x20 ADD SWAP1 SWAP3 SWAP2 SWAP1 POP POP POP PUSH2 0x13D9 JUMP JUMPDEST PUSH1 0x40 MLOAD DUP1 DUP3 PUSH20 0xFFFFFFFFFFFFFFFFFFFFFFFFFFFFFFFFFFFFFFFF AND PUSH20 0xFFFFFFFFFFFFFFFFFFFFFFFFFFFFFFFFFFFFFFFF AND DUP2 MSTORE PUSH1 0x20 ADD SWAP2 POP POP PUSH1 0x40 MLOAD DUP1 SWAP2 SUB SWAP1 RETURN JUMPDEST CALLVALUE DUP1 ISZERO PUSH2 0x43B JUMPI PUSH1 0x0 DUP1 REVERT JUMPDEST POP PUSH2 0x464 PUSH1 0x4 DUP1 CALLDATASIZE SUB DUP2 ADD SWAP1 DUP1 DUP1 CALLDATALOAD SWAP1 PUSH1 0x20 ADD SWAP1 SWAP3 SWAP2 SWAP1 DUP1 CALLDATALOAD SWAP1 PUSH1 0x20 ADD SWAP1 SWAP3 SWAP2 SWAP1 POP POP POP PUSH2 0x1417 JUMP JUMPDEST STOP JUMPDEST CALLVALUE DUP1 ISZERO PUSH2 0x472 JUMPI PUSH1 0x0 DUP1 REVERT JUMPDEST POP PUSH2 0x4A7 PUSH1 0x4 DUP1 CALLDATASIZE SUB DUP2 ADD SWAP1 DUP1 DUP1 CALLDATALOAD PUSH20 0xFFFFFFFFFFFFFFFFFFFFFFFFFFFFFFFFFFFFFFFF AND SWAP1 PUSH1 0x20 ADD SWAP1 SWAP3 SWAP2 SWAP1 POP POP POP PUSH2 0x16C8 JUMP JUMPDEST PUSH1 0x40 MLOAD DUP1 DUP3 DUP2 MSTORE PUSH1 0x20 ADD SWAP2 POP POP PUSH1 0x40 MLOAD DUP1 SWAP2 SUB SWAP1 RETURN JUMPDEST PUSH2 0x4F1 PUSH1 0x4 DUP1 CALLDATASIZE SUB DUP2 ADD SWAP1 DUP1 DUP1 CALLDATALOAD PUSH20 0xFFFFFFFFFFFFFFFFFFFFFFFFFFFFFFFFFFFFFFFF AND SWAP1 PUSH1 0x20 ADD SWAP1 SWAP3 SWAP2 SWAP1 POP POP POP PUSH2 0x1714 JUMP JUMPDEST STOP JUMPDEST CALLVALUE DUP1 ISZERO PUSH2 0x4FF JUMPI PUSH1 0x0 DUP1 REVERT JUMPDEST POP PUSH2 0x508 PUSH2 0x1B00 JUMP JUMPDEST PUSH1 0x40 MLOAD DUP1 DUP3 DUP2 MSTORE PUSH1 0x20 ADD SWAP2 POP POP PUSH1 0x40 MLOAD DUP1 SWAP2 SUB SWAP1 RETURN JUMPDEST CALLVALUE DUP1 ISZERO PUSH2 0x52A JUMPI PUSH1 0x0 DUP1 REVERT JUMPDEST POP PUSH2 0x533 PUSH2 0x1B06 JUMP JUMPDEST PUSH1 0x40 MLOAD DUP1 DUP3 DUP2 MSTORE PUSH1 0x20 ADD SWAP2 POP POP PUSH1 0x40 MLOAD DUP1 SWAP2 SUB SWAP1 RETURN JUMPDEST CALLVALUE DUP1 ISZERO PUSH2 0x555 JUMPI PUSH1 0x0 DUP1 REVERT JUMPDEST POP PUSH2 0x58A PUSH1 0x4 DUP1 CALLDATASIZE SUB DUP2 ADD SWAP1 DUP1 DUP1 CALLDATALOAD PUSH20 0xFFFFFFFFFFFFFFFFFFFFFFFFFFFFFFFFFFFFFFFF AND SWAP1 PUSH1 0x20 ADD SWAP1 SWAP3 SWAP2 SWAP1 POP POP POP PUSH2 0x1B0C JUMP JUMPDEST STOP JUMPDEST CALLVALUE DUP1 ISZERO PUSH2 0x598 JUMPI PUSH1 0x0 DUP1 REVERT JUMPDEST POP PUSH2 0x5CD PUSH1 0x4 DUP1 CALLDATASIZE SUB DUP2 ADD SWAP1 DUP1 DUP1 CALLDATALOAD PUSH20 0xFFFFFFFFFFFFFFFFFFFFFFFFFFFFFFFFFFFFFFFF AND SWAP1 PUSH1 0x20 ADD SWAP1 SWAP3 SWAP2 SWAP1 POP POP POP PUSH2 0x20CC JUMP JUMPDEST PUSH1 0x40 MLOAD DUP1 DUP3 PUSH20 0xFFFFFFFFFFFFFFFFFFFFFFFFFFFFFFFFFFFFFFFF AND PUSH20 0xFFFFFFFFFFFFFFFFFFFFFFFFFFFFFFFFFFFFFFFF AND DUP2 MSTORE PUSH1 0x20 ADD SWAP2 POP POP PUSH1 0x40 MLOAD DUP1 SWAP2 SUB SWAP1 RETURN JUMPDEST CALLVALUE DUP1 ISZERO PUSH2 0x61B JUMPI PUSH1 0x0 DUP1 REVERT JUMPDEST POP PUSH2 0x624 PUSH2 0x2138 JUMP JUMPDEST PUSH1 0x40 MLOAD DUP1 DUP3 DUP2 MSTORE PUSH1 0x20 ADD SWAP2 POP POP PUSH1 0x40 MLOAD DUP1 SWAP2 SUB SWAP1 RETURN JUMPDEST CALLVALUE DUP1 ISZERO PUSH2 0x646 JUMPI PUSH1 0x0 DUP1 REVERT JUMPDEST POP PUSH2 0x64F PUSH2 0x213E JUMP JUMPDEST PUSH1 0x40 MLOAD DUP1 DUP3 DUP2 MSTORE PUSH1 0x20 ADD SWAP2 POP POP PUSH1 0x40 MLOAD DUP1 SWAP2 SUB SWAP1 RETURN JUMPDEST CALLVALUE DUP1 ISZERO PUSH2 0x671 JUMPI PUSH1 0x0 DUP1 REVERT JUMPDEST POP PUSH2 0x6A6 PUSH1 0x4 DUP1 CALLDATASIZE SUB DUP2 ADD SWAP1 DUP1 DUP1 CALLDATALOAD PUSH20 0xFFFFFFFFFFFFFFFFFFFFFFFFFFFFFFFFFFFFFFFF AND SWAP1 PUSH1 0x20 ADD SWAP1 SWAP3 SWAP2 SWAP1 POP POP POP PUSH2 0x2144 JUMP JUMPDEST PUSH1 0x40 MLOAD DUP1 DUP3 ISZERO ISZERO ISZERO ISZERO DUP2 MSTORE PUSH1 0x20 ADD SWAP2 POP POP PUSH1 0x40 MLOAD DUP1 SWAP2 SUB SWAP1 RETURN JUMPDEST CALLVALUE DUP1 ISZERO PUSH2 0x6CC JUMPI PUSH1 0x0 DUP1 REVERT JUMPDEST POP PUSH2 0x6D5 PUSH2 0x219D JUMP JUMPDEST PUSH1 0x40 MLOAD DUP1 DUP3 DUP2 MSTORE PUSH1 0x20 ADD SWAP2 POP POP PUSH1 0x40 MLOAD DUP1 SWAP2 SUB SWAP1 RETURN JUMPDEST CALLVALUE DUP1 ISZERO PUSH2 0x6F7 JUMPI PUSH1 0x0 DUP1 REVERT JUMPDEST POP PUSH2 0x700 PUSH2 0x21A3 JUMP JUMPDEST PUSH1 0x40 MLOAD DUP1 DUP3 DUP2 MSTORE PUSH1 0x20 ADD SWAP2 POP POP PUSH1 0x40 MLOAD DUP1 SWAP2 SUB SWAP1 RETURN JUMPDEST PUSH1 0x0 PUSH1 0x5 SLOAD CALLVALUE LT ISZERO ISZERO ISZERO PUSH2 0x729 JUMPI PUSH1 0x0 DUP1 REVERT JUMPDEST DUP2 PUSH1 0x1 PUSH1 0x0 DUP3 PUSH20 0xFFFFFFFFFFFFFFFFFFFFFFFFFFFFFFFFFFFFFFFF AND PUSH20 0xFFFFFFFFFFFFFFFFFFFFFFFFFFFFFFFFFFFFFFFF AND DUP2 MSTORE PUSH1 0x20 ADD SWAP1 DUP2 MSTORE PUSH1 0x20 ADD PUSH1 0x0 KECCAK256 PUSH1 0x0 ADD PUSH1 0x14 SWAP1 SLOAD SWAP1 PUSH2 0x100 EXP SWAP1 DIV PUSH1 0xFF AND ISZERO ISZERO ISZERO PUSH2 0x786 JUMPI PUSH1 0x0 DUP1 REVERT JUMPDEST PUSH2 0x7DB CALLVALUE PUSH1 0x1 PUSH1 0x0 DUP7 PUSH20 0xFFFFFFFFFFFFFFFFFFFFFFFFFFFFFFFFFFFFFFFF AND PUSH20 0xFFFFFFFFFFFFFFFFFFFFFFFFFFFFFFFFFFFFFFFF AND DUP2 MSTORE PUSH1 0x20 ADD SWAP1 DUP2 MSTORE PUSH1 0x20 ADD PUSH1 0x0 KECCAK256 PUSH1 0x1 ADD SLOAD PUSH2 0x21A9 SWAP1 SWAP2 SWAP1 PUSH4 0xFFFFFFFF AND JUMP JUMPDEST SWAP2 POP PUSH1 0x3 DUP4 SWAP1 DUP1 PUSH1 0x1 DUP2 SLOAD ADD DUP1 DUP3 SSTORE DUP1 SWAP2 POP POP SWAP1 PUSH1 0x1 DUP3 SUB SWAP1 PUSH1 0x0 MSTORE PUSH1 0x20 PUSH1 0x0 KECCAK256 ADD PUSH1 0x0 SWAP1 SWAP2 SWAP3 SWAP1 SWAP2 SWAP1 SWAP2 PUSH2 0x100 EXP DUP2 SLOAD DUP2 PUSH20 0xFFFFFFFFFFFFFFFFFFFFFFFFFFFFFFFFFFFFFFFF MUL NOT AND SWAP1 DUP4 PUSH20 0xFFFFFFFFFFFFFFFFFFFFFFFFFFFFFFFFFFFFFFFF AND MUL OR SWAP1 SSTORE POP POP PUSH1 0x60 PUSH1 0x40 MLOAD SWAP1 DUP2 ADD PUSH1 0x40 MSTORE DUP1 CALLER PUSH20 0xFFFFFFFFFFFFFFFFFFFFFFFFFFFFFFFFFFFFFFFF AND DUP2 MSTORE PUSH1 0x20 ADD PUSH1 0x1 ISZERO ISZERO DUP2 MSTORE PUSH1 0x20 ADD DUP4 DUP2 MSTORE POP PUSH1 0x1 PUSH1 0x0 DUP6 PUSH20 0xFFFFFFFFFFFFFFFFFFFFFFFFFFFFFFFFFFFFFFFF AND PUSH20 0xFFFFFFFFFFFFFFFFFFFFFFFFFFFFFFFFFFFFFFFF AND DUP2 MSTORE PUSH1 0x20 ADD SWAP1 DUP2 MSTORE PUSH1 0x20 ADD PUSH1 0x0 KECCAK256 PUSH1 0x0 DUP3 ADD MLOAD DUP2 PUSH1 0x0 ADD PUSH1 0x0 PUSH2 0x100 EXP DUP2 SLOAD DUP2 PUSH20 0xFFFFFFFFFFFFFFFFFFFFFFFFFFFFFFFFFFFFFFFF MUL NOT AND SWAP1 DUP4 PUSH20 0xFFFFFFFFFFFFFFFFFFFFFFFFFFFFFFFFFFFFFFFF AND MUL OR SWAP1 SSTORE POP PUSH1 0x20 DUP3 ADD MLOAD DUP2 PUSH1 0x0 ADD PUSH1 0x14 PUSH2 0x100 EXP DUP2 SLOAD DUP2 PUSH1 0xFF MUL NOT AND SWAP1 DUP4 ISZERO ISZERO MUL OR SWAP1 SSTORE POP PUSH1 0x40 DUP3 ADD MLOAD DUP2 PUSH1 0x1 ADD SSTORE SWAP1 POP POP PUSH2 0x9BD CALLVALUE PUSH1 0x1 PUSH1 0x0 DUP7 PUSH20 0xFFFFFFFFFFFFFFFFFFFFFFFFFFFFFFFFFFFFFFFF AND PUSH20 0xFFFFFFFFFFFFFFFFFFFFFFFFFFFFFFFFFFFFFFFF AND DUP2 MSTORE PUSH1 0x20 ADD SWAP1 DUP2 MSTORE PUSH1 0x20 ADD PUSH1 0x0 KECCAK256 PUSH1 0x2 ADD PUSH1 0x0 CALLER PUSH20 0xFFFFFFFFFFFFFFFFFFFFFFFFFFFFFFFFFFFFFFFF AND PUSH20 0xFFFFFFFFFFFFFFFFFFFFFFFFFFFFFFFFFFFFFFFF AND DUP2 MSTORE PUSH1 0x20 ADD SWAP1 DUP2 MSTORE PUSH1 0x20 ADD PUSH1 0x0 KECCAK256 SLOAD PUSH2 0x21A9 SWAP1 SWAP2 SWAP1 PUSH4 0xFFFFFFFF AND JUMP JUMPDEST PUSH1 0x1 PUSH1 0x0 DUP6 PUSH20 0xFFFFFFFFFFFFFFFFFFFFFFFFFFFFFFFFFFFFFFFF AND PUSH20 0xFFFFFFFFFFFFFFFFFFFFFFFFFFFFFFFFFFFFFFFF AND DUP2 MSTORE PUSH1 0x20 ADD SWAP1 DUP2 MSTORE PUSH1 0x20 ADD PUSH1 0x0 KECCAK256 PUSH1 0x2 ADD PUSH1 0x0 CALLER PUSH20 0xFFFFFFFFFFFFFFFFFFFFFFFFFFFFFFFFFFFFFFFF AND PUSH20 0xFFFFFFFFFFFFFFFFFFFFFFFFFFFFFFFFFFFFFFFF AND DUP2 MSTORE PUSH1 0x20 ADD SWAP1 DUP2 MSTORE PUSH1 0x20 ADD PUSH1 0x0 KECCAK256 DUP2 SWAP1 SSTORE POP PUSH2 0xA56 PUSH1 0x1 PUSH1 0x4 SLOAD PUSH2 0x21A9 SWAP1 SWAP2 SWAP1 PUSH4 0xFFFFFFFF AND JUMP JUMPDEST PUSH1 0x4 DUP2 SWAP1 SSTORE POP PUSH1 0x2 PUSH1 0x0 DUP5 PUSH20 0xFFFFFFFFFFFFFFFFFFFFFFFFFFFFFFFFFFFFFFFF AND PUSH20 0xFFFFFFFFFFFFFFFFFFFFFFFFFFFFFFFFFFFFFFFF AND DUP2 MSTORE PUSH1 0x20 ADD SWAP1 DUP2 MSTORE PUSH1 0x20 ADD PUSH1 0x0 KECCAK256 CALLER SWAP1 DUP1 PUSH1 0x1 DUP2 SLOAD ADD DUP1 DUP3 SSTORE DUP1 SWAP2 POP POP SWAP1 PUSH1 0x1 DUP3 SUB SWAP1 PUSH1 0x0 MSTORE PUSH1 0x20 PUSH1 0x0 KECCAK256 ADD PUSH1 0x0 SWAP1 SWAP2 SWAP3 SWAP1 SWAP2 SWAP1 SWAP2 PUSH2 0x100 EXP DUP2 SLOAD DUP2 PUSH20 0xFFFFFFFFFFFFFFFFFFFFFFFFFFFFFFFFFFFFFFFF MUL NOT AND SWAP1 DUP4 PUSH20 0xFFFFFFFFFFFFFFFFFFFFFFFFFFFFFFFFFFFFFFFF AND MUL OR SWAP1 SSTORE POP POP PUSH32 0x7635F1D87B47FBA9F2B09E56EB4BE75CCA030E0CB179C1602AC9261D39A8F5C1 CALLER DUP5 CALLVALUE PUSH1 0x40 MLOAD DUP1 DUP5 PUSH20 0xFFFFFFFFFFFFFFFFFFFFFFFFFFFFFFFFFFFFFFFF AND PUSH20 0xFFFFFFFFFFFFFFFFFFFFFFFFFFFFFFFFFFFFFFFF AND DUP2 MSTORE PUSH1 0x20 ADD DUP4 PUSH20 0xFFFFFFFFFFFFFFFFFFFFFFFFFFFFFFFFFFFFFFFF AND PUSH20 0xFFFFFFFFFFFFFFFFFFFFFFFFFFFFFFFFFFFFFFFF AND DUP2 MSTORE PUSH1 0x20 ADD DUP3 DUP2 MSTORE PUSH1 0x20 ADD SWAP4 POP POP POP POP PUSH1 0x40 MLOAD DUP1 SWAP2 SUB SWAP1 LOG1 POP POP POP JUMP JUMPDEST PUSH1 0x0 DUP3 DUP3 DUP1 PUSH1 0x1 PUSH1 0x0 DUP5 PUSH20 0xFFFFFFFFFFFFFFFFFFFFFFFFFFFFFFFFFFFFFFFF AND PUSH20 0xFFFFFFFFFFFFFFFFFFFFFFFFFFFFFFFFFFFFFFFF AND DUP2 MSTORE PUSH1 0x20 ADD SWAP1 DUP2 MSTORE PUSH1 0x20 ADD PUSH1 0x0 KECCAK256 PUSH1 0x2 ADD PUSH1 0x0 CALLER PUSH20 0xFFFFFFFFFFFFFFFFFFFFFFFFFFFFFFFFFFFFFFFF AND PUSH20 0xFFFFFFFFFFFFFFFFFFFFFFFFFFFFFFFFFFFFFFFF AND DUP2 MSTORE PUSH1 0x20 ADD SWAP1 DUP2 MSTORE PUSH1 0x20 ADD PUSH1 0x0 KECCAK256 SLOAD LT ISZERO ISZERO ISZERO PUSH2 0xC35 JUMPI PUSH1 0x0 DUP1 REVERT JUMPDEST CALLER PUSH20 0xFFFFFFFFFFFFFFFFFFFFFFFFFFFFFFFFFFFFFFFF AND PUSH1 0x1 PUSH1 0x0 DUP5 PUSH20 0xFFFFFFFFFFFFFFFFFFFFFFFFFFFFFFFFFFFFFFFF AND PUSH20 0xFFFFFFFFFFFFFFFFFFFFFFFFFFFFFFFFFFFFFFFF AND DUP2 MSTORE PUSH1 0x20 ADD SWAP1 DUP2 MSTORE PUSH1 0x20 ADD PUSH1 0x0 KECCAK256 PUSH1 0x0 ADD PUSH1 0x0 SWAP1 SLOAD SWAP1 PUSH2 0x100 EXP SWAP1 DIV PUSH20 0xFFFFFFFFFFFFFFFFFFFFFFFFFFFFFFFFFFFFFFFF AND PUSH20 0xFFFFFFFFFFFFFFFFFFFFFFFFFFFFFFFFFFFFFFFF AND EQ ISZERO PUSH2 0xD6E JUMPI PUSH1 0x5 SLOAD PUSH2 0xD60 DUP3 PUSH1 0x1 PUSH1 0x0 DUP7 PUSH20 0xFFFFFFFFFFFFFFFFFFFFFFFFFFFFFFFFFFFFFFFF AND PUSH20 0xFFFFFFFFFFFFFFFFFFFFFFFFFFFFFFFFFFFFFFFF AND DUP2 MSTORE PUSH1 0x20 ADD SWAP1 DUP2 MSTORE PUSH1 0x20 ADD PUSH1 0x0 KECCAK256 PUSH1 0x2 ADD PUSH1 0x0 CALLER PUSH20 0xFFFFFFFFFFFFFFFFFFFFFFFFFFFFFFFFFFFFFFFF AND PUSH20 0xFFFFFFFFFFFFFFFFFFFFFFFFFFFFFFFFFFFFFFFF AND DUP2 MSTORE PUSH1 0x20 ADD SWAP1 DUP2 MSTORE PUSH1 0x20 ADD PUSH1 0x0 KECCAK256 SLOAD PUSH2 0x21C7 SWAP1 SWAP2 SWAP1 PUSH4 0xFFFFFFFF AND JUMP JUMPDEST LT ISZERO ISZERO ISZERO PUSH2 0xD6D JUMPI PUSH1 0x0 DUP1 REVERT JUMPDEST JUMPDEST PUSH2 0xDC3 DUP5 PUSH1 0x1 PUSH1 0x0 DUP9 PUSH20 0xFFFFFFFFFFFFFFFFFFFFFFFFFFFFFFFFFFFFFFFF AND PUSH20 0xFFFFFFFFFFFFFFFFFFFFFFFFFFFFFFFFFFFFFFFF AND DUP2 MSTORE PUSH1 0x20 ADD SWAP1 DUP2 MSTORE PUSH1 0x20 ADD PUSH1 0x0 KECCAK256 PUSH1 0x1 ADD SLOAD PUSH2 0x21C7 SWAP1 SWAP2 SWAP1 PUSH4 0xFFFFFFFF AND JUMP JUMPDEST PUSH1 0x1 PUSH1 0x0 DUP8 PUSH20 0xFFFFFFFFFFFFFFFFFFFFFFFFFFFFFFFFFFFFFFFF AND PUSH20 0xFFFFFFFFFFFFFFFFFFFFFFFFFFFFFFFFFFFFFFFF AND DUP2 MSTORE PUSH1 0x20 ADD SWAP1 DUP2 MSTORE PUSH1 0x20 ADD PUSH1 0x0 KECCAK256 PUSH1 0x1 ADD DUP2 SWAP1 SSTORE POP PUSH2 0xE9B DUP5 PUSH1 0x1 PUSH1 0x0 DUP9 PUSH20 0xFFFFFFFFFFFFFFFFFFFFFFFFFFFFFFFFFFFFFFFF AND PUSH20 0xFFFFFFFFFFFFFFFFFFFFFFFFFFFFFFFFFFFFFFFF AND DUP2 MSTORE PUSH1 0x20 ADD SWAP1 DUP2 MSTORE PUSH1 0x20 ADD PUSH1 0x0 KECCAK256 PUSH1 0x2 ADD PUSH1 0x0 CALLER PUSH20 0xFFFFFFFFFFFFFFFFFFFFFFFFFFFFFFFFFFFFFFFF AND PUSH20 0xFFFFFFFFFFFFFFFFFFFFFFFFFFFFFFFFFFFFFFFF AND DUP2 MSTORE PUSH1 0x20 ADD SWAP1 DUP2 MSTORE PUSH1 0x20 ADD PUSH1 0x0 KECCAK256 SLOAD PUSH2 0x21C7 SWAP1 SWAP2 SWAP1 PUSH4 0xFFFFFFFF AND JUMP JUMPDEST PUSH1 0x1 PUSH1 0x0 DUP8 PUSH20 0xFFFFFFFFFFFFFFFFFFFFFFFFFFFFFFFFFFFFFFFF AND PUSH20 0xFFFFFFFFFFFFFFFFFFFFFFFFFFFFFFFFFFFFFFFF AND DUP2 MSTORE PUSH1 0x20 ADD SWAP1 DUP2 MSTORE PUSH1 0x20 ADD PUSH1 0x0 KECCAK256 PUSH1 0x2 ADD PUSH1 0x0 CALLER PUSH20 0xFFFFFFFFFFFFFFFFFFFFFFFFFFFFFFFFFFFFFFFF AND PUSH20 0xFFFFFFFFFFFFFFFFFFFFFFFFFFFFFFFFFFFFFFFF AND DUP2 MSTORE PUSH1 0x20 ADD SWAP1 DUP2 MSTORE PUSH1 0x20 ADD PUSH1 0x0 KECCAK256 DUP2 SWAP1 SSTORE POP PUSH2 0xF33 NUMBER PUSH1 0x9 SLOAD PUSH2 0x21A9 SWAP1 SWAP2 SWAP1 PUSH4 0xFFFFFFFF AND JUMP JUMPDEST SWAP3 POP PUSH2 0xF9A DUP5 PUSH1 0x0 DUP1 CALLER PUSH20 0xFFFFFFFFFFFFFFFFFFFFFFFFFFFFFFFFFFFFFFFF AND PUSH20 0xFFFFFFFFFFFFFFFFFFFFFFFFFFFFFFFFFFFFFFFF AND DUP2 MSTORE PUSH1 0x20 ADD SWAP1 DUP2 MSTORE PUSH1 0x20 ADD PUSH1 0x0 KECCAK256 PUSH1 0x0 ADD PUSH1 0x0 DUP7 DUP2 MSTORE PUSH1 0x20 ADD SWAP1 DUP2 MSTORE PUSH1 0x20 ADD PUSH1 0x0 KECCAK256 SLOAD PUSH2 0x21A9 SWAP1 SWAP2 SWAP1 PUSH4 0xFFFFFFFF AND JUMP JUMPDEST PUSH1 0x0 DUP1 CALLER PUSH20 0xFFFFFFFFFFFFFFFFFFFFFFFFFFFFFFFFFFFFFFFF AND PUSH20 0xFFFFFFFFFFFFFFFFFFFFFFFFFFFFFFFFFFFFFFFF AND DUP2 MSTORE PUSH1 0x20 ADD SWAP1 DUP2 MSTORE PUSH1 0x20 ADD PUSH1 0x0 KECCAK256 PUSH1 0x0 ADD PUSH1 0x0 DUP6 DUP2 MSTORE PUSH1 0x20 ADD SWAP1 DUP2 MSTORE PUSH1 0x20 ADD PUSH1 0x0 KECCAK256 DUP2 SWAP1 SSTORE POP PUSH1 0x0 DUP1 CALLER PUSH20 0xFFFFFFFFFFFFFFFFFFFFFFFFFFFFFFFFFFFFFFFF AND PUSH20 0xFFFFFFFFFFFFFFFFFFFFFFFFFFFFFFFFFFFFFFFF AND DUP2 MSTORE PUSH1 0x20 ADD SWAP1 DUP2 MSTORE PUSH1 0x20 ADD PUSH1 0x0 KECCAK256 PUSH1 0x1 ADD DUP4 SWAP1 DUP1 PUSH1 0x1 DUP2 SLOAD ADD DUP1 DUP3 SSTORE DUP1 SWAP2 POP POP SWAP1 PUSH1 0x1 DUP3 SUB SWAP1 PUSH1 0x0 MSTORE PUSH1 0x20 PUSH1 0x0 KECCAK256 ADD PUSH1 0x0 SWAP1 SWAP2 SWAP3 SWAP1 SWAP2 SWAP1 SWAP2 POP SSTORE POP PUSH32 0xAA0E554F781C3C3B2BE110A0557F260F11AF9A8AA2C64BC1E7A31DBB21E32FA2 CALLER DUP7 DUP7 PUSH1 0x40 MLOAD DUP1 DUP5 PUSH20 0xFFFFFFFFFFFFFFFFFFFFFFFFFFFFFFFFFFFFFFFF AND PUSH20 0xFFFFFFFFFFFFFFFFFFFFFFFFFFFFFFFFFFFFFFFF AND DUP2 MSTORE PUSH1 0x20 ADD DUP4 PUSH20 0xFFFFFFFFFFFFFFFFFFFFFFFFFFFFFFFFFFFFFFFF AND PUSH20 0xFFFFFFFFFFFFFFFFFFFFFFFFFFFFFFFFFFFFFFFF AND DUP2 MSTORE PUSH1 0x20 ADD DUP3 DUP2 MSTORE PUSH1 0x20 ADD SWAP4 POP POP POP POP PUSH1 0x40 MLOAD DUP1 SWAP2 SUB SWAP1 LOG1 POP POP POP POP POP JUMP JUMPDEST PUSH1 0x60 PUSH1 0x3 DUP1 SLOAD DUP1 PUSH1 0x20 MUL PUSH1 0x20 ADD PUSH1 0x40 MLOAD SWAP1 DUP2 ADD PUSH1 0x40 MSTORE DUP1 SWAP3 SWAP2 SWAP1 DUP2 DUP2 MSTORE PUSH1 0x20 ADD DUP3 DUP1 SLOAD DUP1 ISZERO PUSH2 0x1185 JUMPI PUSH1 0x20 MUL DUP3 ADD SWAP2 SWAP1 PUSH1 0x0 MSTORE PUSH1 0x20 PUSH1 0x0 KECCAK256 SWAP1 JUMPDEST DUP2 PUSH1 0x0 SWAP1 SLOAD SWAP1 PUSH2 0x100 EXP SWAP1 DIV PUSH20 0xFFFFFFFFFFFFFFFFFFFFFFFFFFFFFFFFFFFFFFFF AND PUSH20 0xFFFFFFFFFFFFFFFFFFFFFFFFFFFFFFFFFFFFFFFF AND DUP2 MSTORE PUSH1 0x20 ADD SWAP1 PUSH1 0x1 ADD SWAP1 DUP1 DUP4 GT PUSH2 0x113B JUMPI JUMPDEST POP POP POP POP POP SWAP1 POP SWAP1 JUMP JUMPDEST PUSH1 0x0 DUP1 PUSH1 0x0 CALLER PUSH20 0xFFFFFFFFFFFFFFFFFFFFFFFFFFFFFFFFFFFFFFFF AND PUSH20 0xFFFFFFFFFFFFFFFFFFFFFFFFFFFFFFFFFFFFFFFF AND DUP2 MSTORE PUSH1 0x20 ADD SWAP1 DUP2 MSTORE PUSH1 0x20 ADD PUSH1 0x0 KECCAK256 PUSH1 0x0 ADD PUSH1 0x0 DUP4 DUP2 MSTORE PUSH1 0x20 ADD SWAP1 DUP2 MSTORE PUSH1 0x20 ADD PUSH1 0x0 KECCAK256 SLOAD SWAP1 POP SWAP2 SWAP1 POP JUMP JUMPDEST PUSH1 0x60 PUSH1 0x2 PUSH1 0x0 DUP4 PUSH20 0xFFFFFFFFFFFFFFFFFFFFFFFFFFFFFFFFFFFFFFFF AND PUSH20 0xFFFFFFFFFFFFFFFFFFFFFFFFFFFFFFFFFFFFFFFF AND DUP2 MSTORE PUSH1 0x20 ADD SWAP1 DUP2 MSTORE PUSH1 0x20 ADD PUSH1 0x0 KECCAK256 DUP1 SLOAD DUP1 PUSH1 0x20 MUL PUSH1 0x20 ADD PUSH1 0x40 MLOAD SWAP1 DUP2 ADD PUSH1 0x40 MSTORE DUP1 SWAP3 SWAP2 SWAP1 DUP2 DUP2 MSTORE PUSH1 0x20 ADD DUP3 DUP1 SLOAD DUP1 ISZERO PUSH2 0x12AC JUMPI PUSH1 0x20 MUL DUP3 ADD SWAP2 SWAP1 PUSH1 0x0 MSTORE PUSH1 0x20 PUSH1 0x0 KECCAK256 SWAP1 JUMPDEST DUP2 PUSH1 0x0 SWAP1 SLOAD SWAP1 PUSH2 0x100 EXP SWAP1 DIV PUSH20 0xFFFFFFFFFFFFFFFFFFFFFFFFFFFFFFFFFFFFFFFF AND PUSH20 0xFFFFFFFFFFFFFFFFFFFFFFFFFFFFFFFFFFFFFFFF AND DUP2 MSTORE PUSH1 0x20 ADD SWAP1 PUSH1 0x1 ADD SWAP1 DUP1 DUP4 GT PUSH2 0x1262 JUMPI JUMPDEST POP POP POP POP POP SWAP1 POP SWAP2 SWAP1 POP JUMP JUMPDEST PUSH1 0x60 PUSH1 0x0 DUP1 CALLER PUSH20 0xFFFFFFFFFFFFFFFFFFFFFFFFFFFFFFFFFFFFFFFF AND PUSH20 0xFFFFFFFFFFFFFFFFFFFFFFFFFFFFFFFFFFFFFFFF AND DUP2 MSTORE PUSH1 0x20 ADD SWAP1 DUP2 MSTORE PUSH1 0x20 ADD PUSH1 0x0 KECCAK256 PUSH1 0x1 ADD DUP1 SLOAD DUP1 PUSH1 0x20 MUL PUSH1 0x20 ADD PUSH1 0x40 MLOAD SWAP1 DUP2 ADD PUSH1 0x40 MSTORE DUP1 SWAP3 SWAP2 SWAP1 DUP2 DUP2 MSTORE PUSH1 0x20 ADD DUP3 DUP1 SLOAD DUP1 ISZERO PUSH2 0x1345 JUMPI PUSH1 0x20 MUL DUP3 ADD SWAP2 SWAP1 PUSH1 0x0 MSTORE PUSH1 0x20 PUSH1 0x0 KECCAK256 SWAP1 JUMPDEST DUP2 SLOAD DUP2 MSTORE PUSH1 0x20 ADD SWAP1 PUSH1 0x1 ADD SWAP1 DUP1 DUP4 GT PUSH2 0x1331 JUMPI JUMPDEST POP POP POP POP POP SWAP1 POP SWAP1 JUMP JUMPDEST PUSH1 0x0 PUSH1 0x1 PUSH1 0x0 DUP5 PUSH20 0xFFFFFFFFFFFFFFFFFFFFFFFFFFFFFFFFFFFFFFFF AND PUSH20 0xFFFFFFFFFFFFFFFFFFFFFFFFFFFFFFFFFFFFFFFF AND DUP2 MSTORE PUSH1 0x20 ADD SWAP1 DUP2 MSTORE PUSH1 0x20 ADD PUSH1 0x0 KECCAK256 PUSH1 0x2 ADD PUSH1 0x0 DUP4 PUSH20 0xFFFFFFFFFFFFFFFFFFFFFFFFFFFFFFFFFFFFFFFF AND PUSH20 0xFFFFFFFFFFFFFFFFFFFFFFFFFFFFFFFFFFFFFFFF AND DUP2 MSTORE PUSH1 0x20 ADD SWAP1 DUP2 MSTORE PUSH1 0x20 ADD PUSH1 0x0 KECCAK256 SLOAD SWAP1 POP SWAP3 SWAP2 POP POP JUMP JUMPDEST PUSH1 0x3 DUP2 DUP2 SLOAD DUP2 LT ISZERO ISZERO PUSH2 0x13E8 JUMPI INVALID JUMPDEST SWAP1 PUSH1 0x0 MSTORE PUSH1 0x20 PUSH1 0x0 KECCAK256 ADD PUSH1 0x0 SWAP2 POP SLOAD SWAP1 PUSH2 0x100 EXP SWAP1 DIV PUSH20 0xFFFFFFFFFFFFFFFFFFFFFFFFFFFFFFFFFFFFFFFF AND DUP2 JUMP JUMPDEST PUSH1 0x0 DUP3 DUP3 PUSH1 0x0 DUP3 GT ISZERO ISZERO PUSH2 0x142A JUMPI PUSH1 0x0 DUP1 REVERT JUMPDEST DUP2 NUMBER LT ISZERO ISZERO ISZERO PUSH2 0x1439 JUMPI PUSH1 0x0 DUP1 REVERT JUMPDEST PUSH1 0x0 DUP1 PUSH1 0x0 CALLER PUSH20 0xFFFFFFFFFFFFFFFFFFFFFFFFFFFFFFFFFFFFFFFF AND PUSH20 0xFFFFFFFFFFFFFFFFFFFFFFFFFFFFFFFFFFFFFFFF AND DUP2 MSTORE PUSH1 0x20 ADD SWAP1 DUP2 MSTORE PUSH1 0x20 ADD PUSH1 0x0 KECCAK256 PUSH1 0x0 ADD PUSH1 0x0 DUP5 DUP2 MSTORE PUSH1 0x20 ADD SWAP1 DUP2 MSTORE PUSH1 0x20 ADD PUSH1 0x0 KECCAK256 SLOAD GT ISZERO ISZERO PUSH2 0x149A JUMPI PUSH1 0x0 DUP1 REVERT JUMPDEST DUP2 PUSH1 0x0 DUP1 CALLER PUSH20 0xFFFFFFFFFFFFFFFFFFFFFFFFFFFFFFFFFFFFFFFF AND PUSH20 0xFFFFFFFFFFFFFFFFFFFFFFFFFFFFFFFFFFFFFFFF AND DUP2 MSTORE PUSH1 0x20 ADD SWAP1 DUP2 MSTORE PUSH1 0x20 ADD PUSH1 0x0 KECCAK256 PUSH1 0x1 ADD DUP3 DUP2 SLOAD DUP2 LT ISZERO ISZERO PUSH2 0x14E9 JUMPI INVALID JUMPDEST SWAP1 PUSH1 0x0 MSTORE PUSH1 0x20 PUSH1 0x0 KECCAK256 ADD SLOAD EQ ISZERO ISZERO PUSH2 0x1500 JUMPI PUSH1 0x0 DUP1 REVERT JUMPDEST PUSH1 0x0 DUP1 CALLER PUSH20 0xFFFFFFFFFFFFFFFFFFFFFFFFFFFFFFFFFFFFFFFF AND PUSH20 0xFFFFFFFFFFFFFFFFFFFFFFFFFFFFFFFFFFFFFFFF AND DUP2 MSTORE PUSH1 0x20 ADD SWAP1 DUP2 MSTORE PUSH1 0x20 ADD PUSH1 0x0 KECCAK256 PUSH1 0x0 ADD PUSH1 0x0 DUP7 DUP2 MSTORE PUSH1 0x20 ADD SWAP1 DUP2 MSTORE PUSH1 0x20 ADD PUSH1 0x0 KECCAK256 SLOAD SWAP3 POP PUSH1 0x0 DUP1 CALLER PUSH20 0xFFFFFFFFFFFFFFFFFFFFFFFFFFFFFFFFFFFFFFFF AND PUSH20 0xFFFFFFFFFFFFFFFFFFFFFFFFFFFFFFFFFFFFFFFF AND DUP2 MSTORE PUSH1 0x20 ADD SWAP1 DUP2 MSTORE PUSH1 0x20 ADD PUSH1 0x0 KECCAK256 PUSH1 0x0 ADD PUSH1 0x0 DUP7 DUP2 MSTORE PUSH1 0x20 ADD SWAP1 DUP2 MSTORE PUSH1 0x20 ADD PUSH1 0x0 KECCAK256 PUSH1 0x0 SWAP1 SSTORE PUSH1 0x0 DUP1 CALLER PUSH20 0xFFFFFFFFFFFFFFFFFFFFFFFFFFFFFFFFFFFFFFFF AND PUSH20 0xFFFFFFFFFFFFFFFFFFFFFFFFFFFFFFFFFFFFFFFF AND DUP2 MSTORE PUSH1 0x20 ADD SWAP1 DUP2 MSTORE PUSH1 0x20 ADD PUSH1 0x0 KECCAK256 PUSH1 0x1 ADD DUP5 DUP2 SLOAD DUP2 LT ISZERO ISZERO PUSH2 0x15F9 JUMPI INVALID JUMPDEST SWAP1 PUSH1 0x0 MSTORE PUSH1 0x20 PUSH1 0x0 KECCAK256 ADD PUSH1 0x0 SWAP1 SSTORE CALLER PUSH20 0xFFFFFFFFFFFFFFFFFFFFFFFFFFFFFFFFFFFFFFFF AND PUSH2 0x8FC DUP5 SWAP1 DUP2 ISZERO MUL SWAP1 PUSH1 0x40 MLOAD PUSH1 0x0 PUSH1 0x40 MLOAD DUP1 DUP4 SUB DUP2 DUP6 DUP9 DUP9 CALL SWAP4 POP POP POP POP ISZERO DUP1 ISZERO PUSH2 0x164D JUMPI RETURNDATASIZE PUSH1 0x0 DUP1 RETURNDATACOPY RETURNDATASIZE PUSH1 0x0 REVERT JUMPDEST POP PUSH32 0xF279E6A1F5E320CCA91135676D9CB6E44CA8A08C0B88342BCDB1144F6511B568 CALLER DUP7 DUP6 PUSH1 0x40 MLOAD DUP1 DUP5 PUSH20 0xFFFFFFFFFFFFFFFFFFFFFFFFFFFFFFFFFFFFFFFF AND PUSH20 0xFFFFFFFFFFFFFFFFFFFFFFFFFFFFFFFFFFFFFFFF AND DUP2 MSTORE PUSH1 0x20 ADD DUP4 DUP2 MSTORE PUSH1 0x20 ADD DUP3 DUP2 MSTORE PUSH1 0x20 ADD SWAP4 POP POP POP POP PUSH1 0x40 MLOAD DUP1 SWAP2 SUB SWAP1 LOG1 POP POP POP POP POP JUMP JUMPDEST PUSH1 0x0 PUSH1 0x1 PUSH1 0x0 DUP4 PUSH20 0xFFFFFFFFFFFFFFFFFFFFFFFFFFFFFFFFFFFFFFFF AND PUSH20 0xFFFFFFFFFFFFFFFFFFFFFFFFFFFFFFFFFFFFFFFF AND DUP2 MSTORE PUSH1 0x20 ADD SWAP1 DUP2 MSTORE PUSH1 0x20 ADD PUSH1 0x0 KECCAK256 PUSH1 0x1 ADD SLOAD SWAP1 POP SWAP2 SWAP1 POP JUMP JUMPDEST PUSH1 0x6 SLOAD CALLVALUE LT ISZERO ISZERO ISZERO PUSH2 0x1725 JUMPI PUSH1 0x0 DUP1 REVERT JUMPDEST DUP1 PUSH1 0x1 PUSH1 0x0 DUP3 PUSH20 0xFFFFFFFFFFFFFFFFFFFFFFFFFFFFFFFFFFFFFFFF AND PUSH20 0xFFFFFFFFFFFFFFFFFFFFFFFFFFFFFFFFFFFFFFFF AND DUP2 MSTORE PUSH1 0x20 ADD SWAP1 DUP2 MSTORE PUSH1 0x20 ADD PUSH1 0x0 KECCAK256 PUSH1 0x0 ADD PUSH1 0x14 SWAP1 SLOAD SWAP1 PUSH2 0x100 EXP SWAP1 DIV PUSH1 0xFF AND ISZERO ISZERO PUSH2 0x1781 JUMPI PUSH1 0x0 DUP1 REVERT JUMPDEST PUSH2 0x17D6 CALLVALUE PUSH1 0x1 PUSH1 0x0 DUP6 PUSH20 0xFFFFFFFFFFFFFFFFFFFFFFFFFFFFFFFFFFFFFFFF AND PUSH20 0xFFFFFFFFFFFFFFFFFFFFFFFFFFFFFFFFFFFFFFFF AND DUP2 MSTORE PUSH1 0x20 ADD SWAP1 DUP2 MSTORE PUSH1 0x20 ADD PUSH1 0x0 KECCAK256 PUSH1 0x1 ADD SLOAD PUSH2 0x21A9 SWAP1 SWAP2 SWAP1 PUSH4 0xFFFFFFFF AND JUMP JUMPDEST PUSH1 0x1 PUSH1 0x0 DUP5 PUSH20 0xFFFFFFFFFFFFFFFFFFFFFFFFFFFFFFFFFFFFFFFF AND PUSH20 0xFFFFFFFFFFFFFFFFFFFFFFFFFFFFFFFFFFFFFFFF AND DUP2 MSTORE PUSH1 0x20 ADD SWAP1 DUP2 MSTORE PUSH1 0x20 ADD PUSH1 0x0 KECCAK256 PUSH1 0x1 ADD DUP2 SWAP1 SSTORE POP PUSH1 0x0 PUSH1 0x1 PUSH1 0x0 DUP5 PUSH20 0xFFFFFFFFFFFFFFFFFFFFFFFFFFFFFFFFFFFFFFFF AND PUSH20 0xFFFFFFFFFFFFFFFFFFFFFFFFFFFFFFFFFFFFFFFF AND DUP2 MSTORE PUSH1 0x20 ADD SWAP1 DUP2 MSTORE PUSH1 0x20 ADD PUSH1 0x0 KECCAK256 PUSH1 0x2 ADD PUSH1 0x0 CALLER PUSH20 0xFFFFFFFFFFFFFFFFFFFFFFFFFFFFFFFFFFFFFFFF AND PUSH20 0xFFFFFFFFFFFFFFFFFFFFFFFFFFFFFFFFFFFFFFFF AND DUP2 MSTORE PUSH1 0x20 ADD SWAP1 DUP2 MSTORE PUSH1 0x20 ADD PUSH1 0x0 KECCAK256 SLOAD EQ ISZERO PUSH2 0x1948 JUMPI PUSH1 0x2 PUSH1 0x0 DUP4 PUSH20 0xFFFFFFFFFFFFFFFFFFFFFFFFFFFFFFFFFFFFFFFF AND PUSH20 0xFFFFFFFFFFFFFFFFFFFFFFFFFFFFFFFFFFFFFFFF AND DUP2 MSTORE PUSH1 0x20 ADD SWAP1 DUP2 MSTORE PUSH1 0x20 ADD PUSH1 0x0 KECCAK256 CALLER SWAP1 DUP1 PUSH1 0x1 DUP2 SLOAD ADD DUP1 DUP3 SSTORE DUP1 SWAP2 POP POP SWAP1 PUSH1 0x1 DUP3 SUB SWAP1 PUSH1 0x0 MSTORE PUSH1 0x20 PUSH1 0x0 KECCAK256 ADD PUSH1 0x0 SWAP1 SWAP2 SWAP3 SWAP1 SWAP2 SWAP1 SWAP2 PUSH2 0x100 EXP DUP2 SLOAD DUP2 PUSH20 0xFFFFFFFFFFFFFFFFFFFFFFFFFFFFFFFFFFFFFFFF MUL NOT AND SWAP1 DUP4 PUSH20 0xFFFFFFFFFFFFFFFFFFFFFFFFFFFFFFFFFFFFFFFF AND MUL OR SWAP1 SSTORE POP POP JUMPDEST PUSH2 0x19DA CALLVALUE PUSH1 0x1 PUSH1 0x0 DUP6 PUSH20 0xFFFFFFFFFFFFFFFFFFFFFFFFFFFFFFFFFFFFFFFF AND PUSH20 0xFFFFFFFFFFFFFFFFFFFFFFFFFFFFFFFFFFFFFFFF AND DUP2 MSTORE PUSH1 0x20 ADD SWAP1 DUP2 MSTORE PUSH1 0x20 ADD PUSH1 0x0 KECCAK256 PUSH1 0x2 ADD PUSH1 0x0 CALLER PUSH20 0xFFFFFFFFFFFFFFFFFFFFFFFFFFFFFFFFFFFFFFFF AND PUSH20 0xFFFFFFFFFFFFFFFFFFFFFFFFFFFFFFFFFFFFFFFF AND DUP2 MSTORE PUSH1 0x20 ADD SWAP1 DUP2 MSTORE PUSH1 0x20 ADD PUSH1 0x0 KECCAK256 SLOAD PUSH2 0x21A9 SWAP1 SWAP2 SWAP1 PUSH4 0xFFFFFFFF AND JUMP JUMPDEST PUSH1 0x1 PUSH1 0x0 DUP5 PUSH20 0xFFFFFFFFFFFFFFFFFFFFFFFFFFFFFFFFFFFFFFFF AND PUSH20 0xFFFFFFFFFFFFFFFFFFFFFFFFFFFFFFFFFFFFFFFF AND DUP2 MSTORE PUSH1 0x20 ADD SWAP1 DUP2 MSTORE PUSH1 0x20 ADD PUSH1 0x0 KECCAK256 PUSH1 0x2 ADD PUSH1 0x0 CALLER PUSH20 0xFFFFFFFFFFFFFFFFFFFFFFFFFFFFFFFFFFFFFFFF AND PUSH20 0xFFFFFFFFFFFFFFFFFFFFFFFFFFFFFFFFFFFFFFFF AND DUP2 MSTORE PUSH1 0x20 ADD SWAP1 DUP2 MSTORE PUSH1 0x20 ADD PUSH1 0x0 KECCAK256 DUP2 SWAP1 SSTORE POP PUSH32 0x66A9138482C99E9BAF08860110EF332CC0C23B4A199A53593D8DB0FC8F96FBFC CALLER DUP4 CALLVALUE PUSH1 0x40 MLOAD DUP1 DUP5 PUSH20 0xFFFFFFFFFFFFFFFFFFFFFFFFFFFFFFFFFFFFFFFF AND PUSH20 0xFFFFFFFFFFFFFFFFFFFFFFFFFFFFFFFFFFFFFFFF AND DUP2 MSTORE PUSH1 0x20 ADD DUP4 PUSH20 0xFFFFFFFFFFFFFFFFFFFFFFFFFFFFFFFFFFFFFFFF AND PUSH20 0xFFFFFFFFFFFFFFFFFFFFFFFFFFFFFFFFFFFFFFFF AND DUP2 MSTORE PUSH1 0x20 ADD DUP3 DUP2 MSTORE PUSH1 0x20 ADD SWAP4 POP POP POP POP PUSH1 0x40 MLOAD DUP1 SWAP2 SUB SWAP1 LOG1 POP POP JUMP JUMPDEST PUSH1 0x4 SLOAD DUP2 JUMP JUMPDEST PUSH1 0x9 SLOAD DUP2 JUMP JUMPDEST PUSH1 0x0 DUP1 PUSH1 0x0 DUP4 CALLER PUSH20 0xFFFFFFFFFFFFFFFFFFFFFFFFFFFFFFFFFFFFFFFF AND PUSH1 0x1 PUSH1 0x0 DUP4 PUSH20 0xFFFFFFFFFFFFFFFFFFFFFFFFFFFFFFFFFFFFFFFF AND PUSH20 0xFFFFFFFFFFFFFFFFFFFFFFFFFFFFFFFFFFFFFFFF AND DUP2 MSTORE PUSH1 0x20 ADD SWAP1 DUP2 MSTORE PUSH1 0x20 ADD PUSH1 0x0 KECCAK256 PUSH1 0x0 ADD PUSH1 0x0 SWAP1 SLOAD SWAP1 PUSH2 0x100 EXP SWAP1 DIV PUSH20 0xFFFFFFFFFFFFFFFFFFFFFFFFFFFFFFFFFFFFFFFF AND PUSH20 0xFFFFFFFFFFFFFFFFFFFFFFFFFFFFFFFFFFFFFFFF AND EQ ISZERO ISZERO PUSH2 0x1BAE JUMPI PUSH1 0x0 DUP1 REVERT JUMPDEST DUP5 PUSH1 0x1 PUSH1 0x0 DUP3 PUSH20 0xFFFFFFFFFFFFFFFFFFFFFFFFFFFFFFFFFFFFFFFF AND PUSH20 0xFFFFFFFFFFFFFFFFFFFFFFFFFFFFFFFFFFFFFFFF AND DUP2 MSTORE PUSH1 0x20 ADD SWAP1 DUP2 MSTORE PUSH1 0x20 ADD PUSH1 0x0 KECCAK256 PUSH1 0x0 ADD PUSH1 0x14 SWAP1 SLOAD SWAP1 PUSH2 0x100 EXP SWAP1 DIV PUSH1 0xFF AND ISZERO ISZERO PUSH2 0x1C0A JUMPI PUSH1 0x0 DUP1 REVERT JUMPDEST PUSH1 0x0 PUSH1 0x1 PUSH1 0x0 DUP9 PUSH20 0xFFFFFFFFFFFFFFFFFFFFFFFFFFFFFFFFFFFFFFFF AND PUSH20 0xFFFFFFFFFFFFFFFFFFFFFFFFFFFFFFFFFFFFFFFF AND DUP2 MSTORE PUSH1 0x20 ADD SWAP1 DUP2 MSTORE PUSH1 0x20 ADD PUSH1 0x0 KECCAK256 PUSH1 0x0 ADD PUSH1 0x14 PUSH2 0x100 EXP DUP2 SLOAD DUP2 PUSH1 0xFF MUL NOT AND SWAP1 DUP4 ISZERO ISZERO MUL OR SWAP1 SSTORE POP PUSH2 0x1C7B PUSH1 0x1 PUSH1 0x4 SLOAD PUSH2 0x21C7 SWAP1 SWAP2 SWAP1 PUSH4 0xFFFFFFFF AND JUMP JUMPDEST PUSH1 0x4 DUP2 SWAP1 SSTORE POP PUSH1 0x0 SWAP5 POP JUMPDEST PUSH1 0x3 DUP1 SLOAD SWAP1 POP DUP6 LT ISZERO PUSH2 0x1D4E JUMPI DUP6 PUSH20 0xFFFFFFFFFFFFFFFFFFFFFFFFFFFFFFFFFFFFFFFF AND PUSH1 0x3 DUP7 DUP2 SLOAD DUP2 LT ISZERO ISZERO PUSH2 0x1CB9 JUMPI INVALID JUMPDEST SWAP1 PUSH1 0x0 MSTORE PUSH1 0x20 PUSH1 0x0 KECCAK256 ADD PUSH1 0x0 SWAP1 SLOAD SWAP1 PUSH2 0x100 EXP SWAP1 DIV PUSH20 0xFFFFFFFFFFFFFFFFFFFFFFFFFFFFFFFFFFFFFFFF AND PUSH20 0xFFFFFFFFFFFFFFFFFFFFFFFFFFFFFFFFFFFFFFFF AND EQ ISZERO PUSH2 0x1D41 JUMPI PUSH1 0x3 DUP6 DUP2 SLOAD DUP2 LT ISZERO ISZERO PUSH2 0x1D0F JUMPI INVALID JUMPDEST SWAP1 PUSH1 0x0 MSTORE PUSH1 0x20 PUSH1 0x0 KECCAK256 ADD PUSH1 0x0 PUSH2 0x100 EXP DUP2 SLOAD SWAP1 PUSH20 0xFFFFFFFFFFFFFFFFFFFFFFFFFFFFFFFFFFFFFFFF MUL NOT AND SWAP1 SSTORE PUSH2 0x1D4E JUMP JUMPDEST DUP5 DUP1 PUSH1 0x1 ADD SWAP6 POP POP PUSH2 0x1C86 JUMP JUMPDEST PUSH1 0x1 PUSH1 0x0 DUP8 PUSH20 0xFFFFFFFFFFFFFFFFFFFFFFFFFFFFFFFFFFFFFFFF AND PUSH20 0xFFFFFFFFFFFFFFFFFFFFFFFFFFFFFFFFFFFFFFFF AND DUP2 MSTORE PUSH1 0x20 ADD SWAP1 DUP2 MSTORE PUSH1 0x20 ADD PUSH1 0x0 KECCAK256 PUSH1 0x2 ADD PUSH1 0x0 CALLER PUSH20 0xFFFFFFFFFFFFFFFFFFFFFFFFFFFFFFFFFFFFFFFF AND PUSH20 0xFFFFFFFFFFFFFFFFFFFFFFFFFFFFFFFFFFFFFFFF AND DUP2 MSTORE PUSH1 0x20 ADD SWAP1 DUP2 MSTORE PUSH1 0x20 ADD PUSH1 0x0 KECCAK256 SLOAD SWAP4 POP PUSH2 0x1E25 DUP5 PUSH1 0x1 PUSH1 0x0 DUP10 PUSH20 0xFFFFFFFFFFFFFFFFFFFFFFFFFFFFFFFFFFFFFFFF AND PUSH20 0xFFFFFFFFFFFFFFFFFFFFFFFFFFFFFFFFFFFFFFFF AND DUP2 MSTORE PUSH1 0x20 ADD SWAP1 DUP2 MSTORE PUSH1 0x20 ADD PUSH1 0x0 KECCAK256 PUSH1 0x1 ADD SLOAD PUSH2 0x21C7 SWAP1 SWAP2 SWAP1 PUSH4 0xFFFFFFFF AND JUMP JUMPDEST PUSH1 0x1 PUSH1 0x0 DUP9 PUSH20 0xFFFFFFFFFFFFFFFFFFFFFFFFFFFFFFFFFFFFFFFF AND PUSH20 0xFFFFFFFFFFFFFFFFFFFFFFFFFFFFFFFFFFFFFFFF AND DUP2 MSTORE PUSH1 0x20 ADD SWAP1 DUP2 MSTORE PUSH1 0x20 ADD PUSH1 0x0 KECCAK256 PUSH1 0x1 ADD DUP2 SWAP1 SSTORE POP PUSH1 0x0 PUSH1 0x1 PUSH1 0x0 DUP9 PUSH20 0xFFFFFFFFFFFFFFFFFFFFFFFFFFFFFFFFFFFFFFFF AND PUSH20 0xFFFFFFFFFFFFFFFFFFFFFFFFFFFFFFFFFFFFFFFF AND DUP2 MSTORE PUSH1 0x20 ADD SWAP1 DUP2 MSTORE PUSH1 0x20 ADD PUSH1 0x0 KECCAK256 PUSH1 0x2 ADD PUSH1 0x0 CALLER PUSH20 0xFFFFFFFFFFFFFFFFFFFFFFFFFFFFFFFFFFFFFFFF AND PUSH20 0xFFFFFFFFFFFFFFFFFFFFFFFFFFFFFFFFFFFFFFFF AND DUP2 MSTORE PUSH1 0x20 ADD SWAP1 DUP2 MSTORE PUSH1 0x20 ADD PUSH1 0x0 KECCAK256 DUP2 SWAP1 SSTORE POP PUSH2 0x1F05 NUMBER PUSH1 0x8 SLOAD PUSH2 0x21A9 SWAP1 SWAP2 SWAP1 PUSH4 0xFFFFFFFF AND JUMP JUMPDEST SWAP3 POP PUSH2 0x1F6C DUP5 PUSH1 0x0 DUP1 CALLER PUSH20 0xFFFFFFFFFFFFFFFFFFFFFFFFFFFFFFFFFFFFFFFF AND PUSH20 0xFFFFFFFFFFFFFFFFFFFFFFFFFFFFFFFFFFFFFFFF AND DUP2 MSTORE PUSH1 0x20 ADD SWAP1 DUP2 MSTORE PUSH1 0x20 ADD PUSH1 0x0 KECCAK256 PUSH1 0x0 ADD PUSH1 0x0 DUP7 DUP2 MSTORE PUSH1 0x20 ADD SWAP1 DUP2 MSTORE PUSH1 0x20 ADD PUSH1 0x0 KECCAK256 SLOAD PUSH2 0x21A9 SWAP1 SWAP2 SWAP1 PUSH4 0xFFFFFFFF AND JUMP JUMPDEST PUSH1 0x0 DUP1 CALLER PUSH20 0xFFFFFFFFFFFFFFFFFFFFFFFFFFFFFFFFFFFFFFFF AND PUSH20 0xFFFFFFFFFFFFFFFFFFFFFFFFFFFFFFFFFFFFFFFF AND DUP2 MSTORE PUSH1 0x20 ADD SWAP1 DUP2 MSTORE PUSH1 0x20 ADD PUSH1 0x0 KECCAK256 PUSH1 0x0 ADD PUSH1 0x0 DUP6 DUP2 MSTORE PUSH1 0x20 ADD SWAP1 DUP2 MSTORE PUSH1 0x20 ADD PUSH1 0x0 KECCAK256 DUP2 SWAP1 SSTORE POP PUSH1 0x0 DUP1 CALLER PUSH20 0xFFFFFFFFFFFFFFFFFFFFFFFFFFFFFFFFFFFFFFFF AND PUSH20 0xFFFFFFFFFFFFFFFFFFFFFFFFFFFFFFFFFFFFFFFF AND DUP2 MSTORE PUSH1 0x20 ADD SWAP1 DUP2 MSTORE PUSH1 0x20 ADD PUSH1 0x0 KECCAK256 PUSH1 0x1 ADD DUP4 SWAP1 DUP1 PUSH1 0x1 DUP2 SLOAD ADD DUP1 DUP3 SSTORE DUP1 SWAP2 POP POP SWAP1 PUSH1 0x1 DUP3 SUB SWAP1 PUSH1 0x0 MSTORE PUSH1 0x20 PUSH1 0x0 KECCAK256 ADD PUSH1 0x0 SWAP1 SWAP2 SWAP3 SWAP1 SWAP2 SWAP1 SWAP2 POP SSTORE POP PUSH32 0x4EDF3E325D0063213A39F9085522994A1C44BEA5F39E7D63EF61260A1E58C6D3 CALLER DUP8 PUSH1 0x40 MLOAD DUP1 DUP4 PUSH20 0xFFFFFFFFFFFFFFFFFFFFFFFFFFFFFFFFFFFFFFFF AND PUSH20 0xFFFFFFFFFFFFFFFFFFFFFFFFFFFFFFFFFFFFFFFF AND DUP2 MSTORE PUSH1 0x20 ADD DUP3 PUSH20 0xFFFFFFFFFFFFFFFFFFFFFFFFFFFFFFFFFFFFFFFF AND PUSH20 0xFFFFFFFFFFFFFFFFFFFFFFFFFFFFFFFFFFFFFFFF AND DUP2 MSTORE PUSH1 0x20 ADD SWAP3 POP POP POP PUSH1 0x40 MLOAD DUP1 SWAP2 SUB SWAP1 LOG1 POP POP POP POP POP POP JUMP JUMPDEST PUSH1 0x0 PUSH1 0x1 PUSH1 0x0 DUP4 PUSH20 0xFFFFFFFFFFFFFFFFFFFFFFFFFFFFFFFFFFFFFFFF AND PUSH20 0xFFFFFFFFFFFFFFFFFFFFFFFFFFFFFFFFFFFFFFFF AND DUP2 MSTORE PUSH1 0x20 ADD SWAP1 DUP2 MSTORE PUSH1 0x20 ADD PUSH1 0x0 KECCAK256 PUSH1 0x0 ADD PUSH1 0x0 SWAP1 SLOAD SWAP1 PUSH2 0x100 EXP SWAP1 DIV PUSH20 0xFFFFFFFFFFFFFFFFFFFFFFFFFFFFFFFFFFFFFFFF AND SWAP1 POP SWAP2 SWAP1 POP JUMP JUMPDEST PUSH1 0x7 SLOAD DUP2 JUMP JUMPDEST PUSH1 0x8 SLOAD DUP2 JUMP JUMPDEST PUSH1 0x0 PUSH1 0x1 PUSH1 0x0 DUP4 PUSH20 0xFFFFFFFFFFFFFFFFFFFFFFFFFFFFFFFFFFFFFFFF AND PUSH20 0xFFFFFFFFFFFFFFFFFFFFFFFFFFFFFFFFFFFFFFFF AND DUP2 MSTORE PUSH1 0x20 ADD SWAP1 DUP2 MSTORE PUSH1 0x20 ADD PUSH1 0x0 KECCAK256 PUSH1 0x0 ADD PUSH1 0x14 SWAP1 SLOAD SWAP1 PUSH2 0x100 EXP SWAP1 DIV PUSH1 0xFF AND SWAP1 POP SWAP2 SWAP1 POP JUMP JUMPDEST PUSH1 0x5 SLOAD DUP2 JUMP JUMPDEST PUSH1 0x6 SLOAD DUP2 JUMP JUMPDEST PUSH1 0x0 DUP1 DUP3 DUP5 ADD SWAP1 POP DUP4 DUP2 LT ISZERO ISZERO ISZERO PUSH2 0x21BD JUMPI INVALID JUMPDEST DUP1 SWAP2 POP POP SWAP3 SWAP2 POP POP JUMP JUMPDEST PUSH1 0x0 DUP3 DUP3 GT ISZERO ISZERO ISZERO PUSH2 0x21D5 JUMPI INVALID JUMPDEST DUP2 DUP4 SUB SWAP1 POP SWAP3 SWAP2 POP POP JUMP STOP LOG1 PUSH6 0x627A7A723058 KECCAK256 DUP5 0xc5 MSTORE DUP16 ADDMOD 0xb2 0x23 PUSH9 0xD3DB09A2FF23AA22CF 0xf7 MOD CALLVALUE 0x2a PUSH21 0x87C44EB06DF2B4FAE0910029000000000000000000 "
				},
				"gasEstimates": {
					"creation": {
						"codeDepositCost": "1743200",
						"executionCost": "infinite",
						"totalCost": "infinite"
					},
					"external": {
						"candidateCount()": "636",
						"candidateWithdrawDelay()": "746",
						"candidates(uint256)": "940",
						"getCandidateCap(address)": "763",
						"getCandidateOwner(address)": "921",
						"getCandidates()": "infinite",
						"getVoterCap(address,address)": "822",
						"getVoters(address)": "infinite",
						"getWithdrawBlockNumbers()": "infinite",
						"getWithdrawCap(uint256)": "702",
						"isCandidate(address)": "1037",
						"maxValidatorNumber()": "724",
						"minCandidateCap()": "790",
						"minVoterCap()": "812",
						"propose(address)": "infinite",
						"resign(address)": "infinite",
						"unvote(address,uint256)": "infinite",
						"vote(address)": "infinite",
						"voterWithdrawDelay()": "658",
						"withdraw(uint256,uint256)": "infinite"
					}
				},
				"methodIdentifiers": {
					"candidateCount()": "a9a981a3",
					"candidateWithdrawDelay()": "d161c767",
					"candidates(uint256)": "3477ee2e",
					"getCandidateCap(address)": "58e7525f",
					"getCandidateOwner(address)": "b642facd",
					"getCandidates()": "06a49fce",
					"getVoterCap(address,address)": "302b6872",
					"getVoters(address)": "2d15cc04",
					"getWithdrawBlockNumbers()": "2f9c4bba",
					"getWithdrawCap(uint256)": "15febd68",
					"isCandidate(address)": "d51b9e93",
					"maxValidatorNumber()": "d09f1ab4",
					"minCandidateCap()": "d55b7dff",
					"minVoterCap()": "f8ac9dd5",
					"propose(address)": "01267951",
					"resign(address)": "ae6e43f5",
					"unvote(address,uint256)": "02aa9be2",
					"vote(address)": "6dd7d8ea",
					"voterWithdrawDelay()": "a9ff959e",
					"withdraw(uint256,uint256)": "441a3e70"
				}
			},
			"userdoc": {
				"methods": {}
			}
		}
	}
}