{
	"contracts/Glouki.sol": {
		"Glouki": {
			"abi": [
				{
					"constant": true,
					"inputs": [],
					"name": "name",
					"outputs": [
						{
							"name": "",
							"type": "string"
						}
					],
					"payable": false,
					"stateMutability": "view",
					"type": "function"
				},
				{
					"constant": false,
					"inputs": [
						{
							"name": "spender",
							"type": "address"
						},
						{
							"name": "value",
							"type": "uint256"
						}
					],
					"name": "approve",
					"outputs": [
						{
							"name": "",
							"type": "bool"
						}
					],
					"payable": false,
					"stateMutability": "nonpayable",
					"type": "function"
				},
				{
					"constant": true,
					"inputs": [],
					"name": "totalSupply",
					"outputs": [
						{
							"name": "",
							"type": "uint256"
						}
					],
					"payable": false,
					"stateMutability": "view",
					"type": "function"
				},
				{
					"constant": false,
					"inputs": [
						{
							"name": "sender",
							"type": "address"
						},
						{
							"name": "recipient",
							"type": "address"
						},
						{
							"name": "amount",
							"type": "uint256"
						}
					],
					"name": "transferFrom",
					"outputs": [
						{
							"name": "",
							"type": "bool"
						}
					],
					"payable": false,
					"stateMutability": "nonpayable",
					"type": "function"
				},
				{
					"constant": true,
					"inputs": [],
					"name": "decimals",
					"outputs": [
						{
							"name": "",
							"type": "uint8"
						}
					],
					"payable": false,
					"stateMutability": "view",
					"type": "function"
				},
				{
					"constant": false,
					"inputs": [
						{
							"name": "spender",
							"type": "address"
						},
						{
							"name": "addedValue",
							"type": "uint256"
						}
					],
					"name": "increaseAllowance",
					"outputs": [
						{
							"name": "",
							"type": "bool"
						}
					],
					"payable": false,
					"stateMutability": "nonpayable",
					"type": "function"
				},
				{
					"constant": false,
					"inputs": [
						{
							"name": "amount",
							"type": "uint256"
						}
					],
					"name": "burn",
					"outputs": [],
					"payable": false,
					"stateMutability": "nonpayable",
					"type": "function"
				},
				{
					"constant": true,
					"inputs": [
						{
							"name": "account",
							"type": "address"
						}
					],
					"name": "balanceOf",
					"outputs": [
						{
							"name": "",
							"type": "uint256"
						}
					],
					"payable": false,
					"stateMutability": "view",
					"type": "function"
				},
				{
					"constant": false,
					"inputs": [
						{
							"name": "account",
							"type": "address"
						},
						{
							"name": "amount",
							"type": "uint256"
						}
					],
					"name": "burnFrom",
					"outputs": [],
					"payable": false,
					"stateMutability": "nonpayable",
					"type": "function"
				},
				{
					"constant": true,
					"inputs": [],
					"name": "owner",
					"outputs": [
						{
							"name": "",
							"type": "address"
						}
					],
					"payable": false,
					"stateMutability": "view",
					"type": "function"
				},
				{
					"constant": true,
					"inputs": [],
					"name": "symbol",
					"outputs": [
						{
							"name": "",
							"type": "string"
						}
					],
					"payable": false,
					"stateMutability": "view",
					"type": "function"
				},
				{
					"constant": false,
					"inputs": [
						{
							"name": "value",
							"type": "uint256"
						}
					],
					"name": "mint",
					"outputs": [],
					"payable": false,
					"stateMutability": "nonpayable",
					"type": "function"
				},
				{
					"constant": false,
					"inputs": [
						{
							"name": "spender",
							"type": "address"
						},
						{
							"name": "subtractedValue",
							"type": "uint256"
						}
					],
					"name": "decreaseAllowance",
					"outputs": [
						{
							"name": "",
							"type": "bool"
						}
					],
					"payable": false,
					"stateMutability": "nonpayable",
					"type": "function"
				},
				{
					"constant": false,
					"inputs": [
						{
							"name": "recipient",
							"type": "address"
						},
						{
							"name": "amount",
							"type": "uint256"
						}
					],
					"name": "transfer",
					"outputs": [
						{
							"name": "",
							"type": "bool"
						}
					],
					"payable": false,
					"stateMutability": "nonpayable",
					"type": "function"
				},
				{
					"constant": true,
					"inputs": [
						{
							"name": "owner",
							"type": "address"
						},
						{
							"name": "spender",
							"type": "address"
						}
					],
					"name": "allowance",
					"outputs": [
						{
							"name": "",
							"type": "uint256"
						}
					],
					"payable": false,
					"stateMutability": "view",
					"type": "function"
				},
				{
					"constant": false,
					"inputs": [
						{
							"name": "newOwner",
							"type": "address"
						}
					],
					"name": "transferOwnership",
					"outputs": [],
					"payable": false,
					"stateMutability": "nonpayable",
					"type": "function"
				},
				{
					"inputs": [
						{
							"name": "name",
							"type": "string"
						},
						{
							"name": "symbol",
							"type": "string"
						},
						{
							"name": "decimals",
							"type": "uint8"
						}
					],
					"payable": false,
					"stateMutability": "nonpayable",
					"type": "constructor"
				},
				{
					"anonymous": false,
					"inputs": [
						{
							"indexed": true,
							"name": "from",
							"type": "address"
						},
						{
							"indexed": true,
							"name": "to",
							"type": "address"
						}
					],
					"name": "TransferOwnership",
					"type": "event"
				},
				{
					"anonymous": false,
					"inputs": [
						{
							"indexed": true,
							"name": "from",
							"type": "address"
						},
						{
							"indexed": true,
							"name": "to",
							"type": "address"
						},
						{
							"indexed": false,
							"name": "value",
							"type": "uint256"
						}
					],
					"name": "Transfer",
					"type": "event"
				},
				{
					"anonymous": false,
					"inputs": [
						{
							"indexed": true,
							"name": "owner",
							"type": "address"
						},
						{
							"indexed": true,
							"name": "spender",
							"type": "address"
						},
						{
							"indexed": false,
							"name": "value",
							"type": "uint256"
						}
					],
					"name": "Approval",
					"type": "event"
				}
			],
			"devdoc": {
				"methods": {
					"allowance(address,address)": {
						"details": "See `IZRC20.allowance`."
					},
					"approve(address,uint256)": {
						"details": "See `IZRC20.approve`.     * Requirements:     * - `spender` cannot be the zero address."
					},
					"balanceOf(address)": {
						"details": "See `IZRC20.balanceOf`."
					},
					"burn(uint256)": {
						"details": "Destoys `amount` tokens from the caller.     * See `ZRC20._burn`."
					},
					"burnFrom(address,uint256)": {
						"details": "See `ZRC20._burnFrom`."
					},
					"decimals()": {
						"details": "Returns the number of decimals used to get its user representation. For example, if `decimals` equals `2`, a balance of `505` tokens should be displayed to a user as `5,05` (`505 / 10 ** 2`).     * Tokens usually opt for a value of 18, imitating the relationship between Ether and Wei.     * > Note that this information is only used for _display_ purposes: it in no way affects any of the arithmetic of the contract, including `IZRC20.balanceOf` and `IZRC20.transfer`."
					},
					"decreaseAllowance(address,uint256)": {
						"details": "Atomically decreases the allowance granted to `spender` by the caller.     * This is an alternative to `approve` that can be used as a mitigation for problems described in `IZRC20.approve`.     * Emits an `Approval` event indicating the updated allowance.     * Requirements:     * - `spender` cannot be the zero address. - `spender` must have allowance for the caller of at least `subtractedValue`."
					},
					"increaseAllowance(address,uint256)": {
						"details": "Atomically increases the allowance granted to `spender` by the caller.     * This is an alternative to `approve` that can be used as a mitigation for problems described in `IZRC20.approve`.     * Emits an `Approval` event indicating the updated allowance.     * Requirements:     * - `spender` cannot be the zero address."
					},
					"name()": {
						"details": "Returns the name of the token."
					},
					"symbol()": {
						"details": "Returns the symbol of the token, usually a shorter version of the name."
					},
					"totalSupply()": {
						"details": "See `IZRC20.totalSupply`."
					},
					"transfer(address,uint256)": {
						"details": "See `IZRC20.transfer`.     * Requirements:     * - `recipient` cannot be the zero address. - the caller must have a balance of at least `amount`."
					},
					"transferFrom(address,address,uint256)": {
						"details": "See `IZRC20.transferFrom`.     * Emits an `Approval` event indicating the updated allowance.     * Requirements: - `sender` and `recipient` cannot be the zero address. - `sender` must have a balance of at least `value`. - the caller must have allowance for `sender`'s tokens of at least `amount`."
					},
					"transferOwnership(address)": {
						"details": "Allows the current owner to transfer control of the contract to a newOwner.",
						"params": {
							"newOwner": "The address to transfer ownership to."
						}
					}
				}
			},
			"evm": {
				"assembly": "    /* \"contracts/Glouki.sol\":4286:13087  contract Glouki is IZRC20 {... */\n  mstore(0x40, 0x80)\n    /* \"contracts/Glouki.sol\":4772:5023  constructor (string memory name, string memory symbol, uint8 decimals) public {... */\n  callvalue\n    /* \"--CODEGEN--\":8:17   */\n  dup1\n    /* \"--CODEGEN--\":5:7   */\n  iszero\n  tag_1\n  jumpi\n    /* \"--CODEGEN--\":30:31   */\n  0x0\n    /* \"--CODEGEN--\":27:28   */\n  dup1\n    /* \"--CODEGEN--\":20:32   */\n  revert\n    /* \"--CODEGEN--\":5:7   */\ntag_1:\n    /* \"contracts/Glouki.sol\":4772:5023  constructor (string memory name, string memory symbol, uint8 decimals) public {... */\n  pop\n  mload(0x40)\n  sub(codesize, bytecodeSize)\n  dup1\n  bytecodeSize\n  dup4\n  codecopy\n  dup2\n  add\n  0x40\n  swap1\n  dup2\n  mstore\n  dup2\n  mload\n  0x20\n  dup1\n  dup5\n  add\n  mload\n  swap3\n  dup5\n  add\n  mload\n  swap2\n  dup5\n  add\n    /* \"contracts/Glouki.sol\":4860:4872  _name = name */\n  dup1\n  mload\n    /* \"contracts/Glouki.sol\":4772:5023  constructor (string memory name, string memory symbol, uint8 decimals) public {... */\n  swap1\n  swap5\n  swap4\n  swap1\n  swap4\n  add\n  swap3\n    /* \"contracts/Glouki.sol\":4860:4872  _name = name */\n  tag_4\n  swap2\n    /* \"contracts/Glouki.sol\":4860:4865  _name */\n  0x2\n  swap2\n    /* \"contracts/Glouki.sol\":4860:4872  _name = name */\n  swap1\n  dup7\n  add\n  swap1\n  jump\t// in(tag_5)\ntag_4:\n  pop\n    /* \"contracts/Glouki.sol\":4882:4898  _symbol = symbol */\n  dup2\n  mload\n  tag_6\n  swap1\n    /* \"contracts/Glouki.sol\":4882:4889  _symbol */\n  0x3\n  swap1\n    /* \"contracts/Glouki.sol\":4882:4898  _symbol = symbol */\n  0x20\n  dup6\n  add\n  swap1\n  jump\t// in(tag_5)\ntag_6:\n  pop\n    /* \"contracts/Glouki.sol\":4908:4917  _decimals */\n  0x4\n    /* \"contracts/Glouki.sol\":4908:4928  _decimals = decimals */\n  dup1\n  sload\n    /* \"contracts/Glouki.sol\":4946:4956  msg.sender */\n  caller\n    /* \"contracts/Glouki.sol\":4908:4928  _decimals = decimals */\n  0x100\n    /* \"contracts/Glouki.sol\":4938:4956  owner = msg.sender */\n  swap1\n  dup2\n  mul\n  not(sub(exp(0x2, 0xa8), 0x100))\n    /* \"contracts/Glouki.sol\":4908:4928  _decimals = decimals */\n  0xff\n  dup7\n  and\n  not(0xff)\n  swap1\n  swap5\n  and\n  dup5\n  or\n    /* \"contracts/Glouki.sol\":4938:4956  owner = msg.sender */\n  and\n  or\n  swap3\n  dup4\n  swap1\n  sstore\n    /* \"contracts/Glouki.sol\":4966:5016  _mint(owner, 1700000000 * 10 ** uint256(decimals)) */\n  tag_7\n  swap3\n    /* \"contracts/Glouki.sol\":4972:4977  owner */\n  div\n  sub(exp(0x2, 0xa0), 0x1)\n  and\n  swap1\n    /* \"contracts/Glouki.sol\":4979:4989  1700000000 */\n  0x6553f100\n    /* \"contracts/Glouki.sol\":4992:4994  10 */\n  0xa\n    /* \"contracts/Glouki.sol\":4992:5015  10 ** uint256(decimals) */\n  swap2\n  swap1\n  swap2\n  exp\n    /* \"contracts/Glouki.sol\":4979:5015  1700000000 * 10 ** uint256(decimals) */\n  mul\n    /* \"contracts/Glouki.sol\":4966:4971  _mint */\n  0x100000000\n  tag_8\n  dup2\n  mul\n    /* \"contracts/Glouki.sol\":4966:5016  _mint(owner, 1700000000 * 10 ** uint256(decimals)) */\n  div\n  jump\t// in\ntag_7:\n    /* \"contracts/Glouki.sol\":4772:5023  constructor (string memory name, string memory symbol, uint8 decimals) public {... */\n  pop\n  pop\n  pop\n    /* \"contracts/Glouki.sol\":4286:13087  contract Glouki is IZRC20 {... */\n  jump(tag_9)\n    /* \"contracts/Glouki.sol\":10273:10574  function _mint(address account, uint256 amount) internal {... */\ntag_8:\n  sub(exp(0x2, 0xa0), 0x1)\n    /* \"contracts/Glouki.sol\":10348:10369  account != address(0) */\n  dup3\n  and\n  iszero\n  iszero\n    /* \"contracts/Glouki.sol\":10340:10405  require(account != address(0), \"ZRC20: mint to the zero address\") */\n  tag_11\n  jumpi\n  0x40\n  dup1\n  mload\n  0x8c379a000000000000000000000000000000000000000000000000000000000\n  dup2\n  mstore\n  0x20\n  0x4\n  dup3\n  add\n  mstore\n  0x1f\n  0x24\n  dup3\n  add\n  mstore\n  0x5a524332303a206d696e7420746f20746865207a65726f206164647265737300\n  0x44\n  dup3\n  add\n  mstore\n  swap1\n  mload\n  swap1\n  dup2\n  swap1\n  sub\n  0x64\n  add\n  swap1\n  revert\ntag_11:\n    /* \"contracts/Glouki.sol\":10430:10442  _totalSupply */\n  sload(0x5)\n    /* \"contracts/Glouki.sol\":10430:10454  _totalSupply.add(amount) */\n  tag_12\n  swap1\n    /* \"contracts/Glouki.sol\":10447:10453  amount */\n  dup3\n    /* \"contracts/Glouki.sol\":10430:10446  _totalSupply.add */\n  0x100000000\n  tag_0_92\n  tag_13\n  dup3\n  mul\n  or\n    /* \"contracts/Glouki.sol\":10430:10454  _totalSupply.add(amount) */\n  div\n  jump\t// in\ntag_12:\n    /* \"contracts/Glouki.sol\":10415:10427  _totalSupply */\n  0x5\n    /* \"contracts/Glouki.sol\":10415:10454  _totalSupply = _totalSupply.add(amount) */\n  sstore\n  sub(exp(0x2, 0xa0), 0x1)\n    /* \"contracts/Glouki.sol\":10485:10503  _balances[account] */\n  dup3\n  and\n    /* \"contracts/Glouki.sol\":10485:10494  _balances */\n  0x0\n    /* \"contracts/Glouki.sol\":10485:10503  _balances[account] */\n  swap1\n  dup2\n  mstore\n  0x20\n  dup2\n  swap1\n  mstore\n  0x40\n  swap1\n  keccak256\n  sload\n    /* \"contracts/Glouki.sol\":10485:10515  _balances[account].add(amount) */\n  tag_14\n  swap1\n    /* \"contracts/Glouki.sol\":10508:10514  amount */\n  dup3\n    /* \"contracts/Glouki.sol\":10485:10507  _balances[account].add */\n  0x100000000\n  tag_0_92\n  tag_13\n  dup3\n  mul\n  or\n    /* \"contracts/Glouki.sol\":10485:10515  _balances[account].add(amount) */\n  div\n  jump\t// in\ntag_14:\n  sub(exp(0x2, 0xa0), 0x1)\n    /* \"contracts/Glouki.sol\":10464:10482  _balances[account] */\n  dup4\n  and\n    /* \"contracts/Glouki.sol\":10464:10473  _balances */\n  0x0\n    /* \"contracts/Glouki.sol\":10464:10482  _balances[account] */\n  dup2\n  dup2\n  mstore\n  0x20\n  dup2\n  dup2\n  mstore\n  0x40\n  dup1\n  dup4\n  keccak256\n    /* \"contracts/Glouki.sol\":10464:10515  _balances[account] = _balances[account].add(amount) */\n  swap5\n  swap1\n  swap5\n  sstore\n    /* \"contracts/Glouki.sol\":10530:10567  Transfer(address(0), account, amount) */\n  dup4\n  mload\n  dup6\n  dup2\n  mstore\n  swap4\n  mload\n    /* \"contracts/Glouki.sol\":10464:10482  _balances[account] */\n  swap3\n  swap4\n    /* \"contracts/Glouki.sol\":10464:10473  _balances */\n  swap2\n  swap3\n    /* \"contracts/Glouki.sol\":10530:10567  Transfer(address(0), account, amount) */\n  0xddf252ad1be2c89b69c2b068fc378daa952ba7f163c4a11628f55a4df523b3ef\n  swap3\n  dup2\n  swap1\n  sub\n  swap1\n  swap2\n  add\n  swap1\n  log3\n    /* \"contracts/Glouki.sol\":10273:10574  function _mint(address account, uint256 amount) internal {... */\n  pop\n  pop\n  jump\t// out\n    /* \"contracts/Glouki.sol\":944:1120  function add(uint256 a, uint256 b) internal pure returns (uint256) {... */\ntag_13:\n    /* \"contracts/Glouki.sol\":1002:1009  uint256 */\n  0x0\n    /* \"contracts/Glouki.sol\":1033:1038  a + b */\n  dup3\n  dup3\n  add\n    /* \"contracts/Glouki.sol\":1056:1062  c >= a */\n  dup4\n  dup2\n  lt\n  iszero\n    /* \"contracts/Glouki.sol\":1048:1094  require(c >= a, \"SafeMath: addition overflow\") */\n  tag_16\n  jumpi\n  0x40\n  dup1\n  mload\n  0x8c379a000000000000000000000000000000000000000000000000000000000\n  dup2\n  mstore\n  0x20\n  0x4\n  dup3\n  add\n  mstore\n  0x1b\n  0x24\n  dup3\n  add\n  mstore\n  0x536166654d6174683a206164646974696f6e206f766572666c6f770000000000\n  0x44\n  dup3\n  add\n  mstore\n  swap1\n  mload\n  swap1\n  dup2\n  swap1\n  sub\n  0x64\n  add\n  swap1\n  revert\ntag_16:\n    /* \"contracts/Glouki.sol\":1112:1113  c */\n  swap4\n    /* \"contracts/Glouki.sol\":944:1120  function add(uint256 a, uint256 b) internal pure returns (uint256) {... */\n  swap3\n  pop\n  pop\n  pop\n  jump\t// out\n    /* \"contracts/Glouki.sol\":4286:13087  contract Glouki is IZRC20 {... */\ntag_5:\n  dup3\n  dup1\n  sload\n  0x1\n  dup2\n  0x1\n  and\n  iszero\n  0x100\n  mul\n  sub\n  and\n  0x2\n  swap1\n  div\n  swap1\n  0x0\n  mstore\n  keccak256(0x0, 0x20)\n  swap1\n  0x1f\n  add\n  0x20\n  swap1\n  div\n  dup2\n  add\n  swap3\n  dup3\n  0x1f\n  lt\n  tag_18\n  jumpi\n  dup1\n  mload\n  not(0xff)\n  and\n  dup4\n  dup1\n  add\n  or\n  dup6\n  sstore\n  jump(tag_20)\ntag_18:\n  dup3\n  dup1\n  add\n  0x1\n  add\n  dup6\n  sstore\n  dup3\n  iszero\n  tag_20\n  jumpi\n  swap2\n  dup3\n  add\ntag_19:\n  dup3\n  dup2\n  gt\n  iszero\n  tag_20\n  jumpi\n  dup3\n  mload\n  dup3\n  sstore\n  swap2\n  0x20\n  add\n  swap2\n  swap1\n  0x1\n  add\n  swap1\n  jump(tag_19)\ntag_20:\n  pop\n  tag_21\n  swap3\n  swap2\n  pop\n  jump\t// in(tag_22)\ntag_21:\n  pop\n  swap1\n  jump\t// out\ntag_22:\n  tag_23\n  swap2\n  swap1\ntag_24:\n  dup1\n  dup3\n  gt\n  iszero\n  tag_21\n  jumpi\n  0x0\n  dup2\n  sstore\n  0x1\n  add\n  jump(tag_24)\ntag_23:\n  swap1\n  jump\t// out\ntag_9:\n  dataSize(sub_0)\n  dup1\n  dataOffset(sub_0)\n  0x0\n  codecopy\n  0x0\n  return\nstop\n\nsub_0: assembly {\n        /* \"contracts/Glouki.sol\":4286:13087  contract Glouki is IZRC20 {... */\n      mstore(0x40, 0x80)\n      jumpi(tag_1, lt(calldatasize, 0x4))\n      and(div(calldataload(0x0), 0x100000000000000000000000000000000000000000000000000000000), 0xffffffff)\n      0x6fdde03\n      dup2\n      eq\n      tag_2\n      jumpi\n      dup1\n      0x95ea7b3\n      eq\n      tag_3\n      jumpi\n      dup1\n      0x18160ddd\n      eq\n      tag_4\n      jumpi\n      dup1\n      0x23b872dd\n      eq\n      tag_5\n      jumpi\n      dup1\n      0x313ce567\n      eq\n      tag_6\n      jumpi\n      dup1\n      0x39509351\n      eq\n      tag_7\n      jumpi\n      dup1\n      0x42966c68\n      eq\n      tag_8\n      jumpi\n      dup1\n      0x70a08231\n      eq\n      tag_9\n      jumpi\n      dup1\n      0x79cc6790\n      eq\n      tag_10\n      jumpi\n      dup1\n      0x8da5cb5b\n      eq\n      tag_11\n      jumpi\n      dup1\n      0x95d89b41\n      eq\n      tag_12\n      jumpi\n      dup1\n      0xa0712d68\n      eq\n      tag_13\n      jumpi\n      dup1\n      0xa457c2d7\n      eq\n      tag_14\n      jumpi\n      dup1\n      0xa9059cbb\n      eq\n      tag_15\n      jumpi\n      dup1\n      0xdd62ed3e\n      eq\n      tag_16\n      jumpi\n      dup1\n      0xf2fde38b\n      eq\n      tag_17\n      jumpi\n    tag_1:\n      0x0\n      dup1\n      revert\n        /* \"contracts/Glouki.sol\":5088:5169  function name() public view returns (string memory) {... */\n    tag_2:\n      callvalue\n        /* \"--CODEGEN--\":8:17   */\n      dup1\n        /* \"--CODEGEN--\":5:7   */\n      iszero\n      tag_18\n      jumpi\n        /* \"--CODEGEN--\":30:31   */\n      0x0\n        /* \"--CODEGEN--\":27:28   */\n      dup1\n        /* \"--CODEGEN--\":20:32   */\n      revert\n        /* \"--CODEGEN--\":5:7   */\n    tag_18:\n        /* \"contracts/Glouki.sol\":5088:5169  function name() public view returns (string memory) {... */\n      pop\n      tag_19\n      jump(tag_20)\n    tag_19:\n      0x40\n      dup1\n      mload\n      0x20\n      dup1\n      dup3\n      mstore\n      dup4\n      mload\n      dup2\n      dup4\n      add\n      mstore\n      dup4\n      mload\n      swap2\n      swap3\n      dup4\n      swap3\n      swap1\n      dup4\n      add\n      swap2\n      dup6\n      add\n      swap1\n      dup1\n      dup4\n      dup4\n      0x0\n        /* \"--CODEGEN--\":8:108   */\n    tag_21:\n        /* \"--CODEGEN--\":33:36   */\n      dup4\n        /* \"--CODEGEN--\":30:31   */\n      dup2\n        /* \"--CODEGEN--\":27:37   */\n      lt\n        /* \"--CODEGEN--\":8:108   */\n      iszero\n      tag_22\n      jumpi\n        /* \"--CODEGEN--\":90:101   */\n      dup2\n      dup2\n      add\n        /* \"--CODEGEN--\":84:102   */\n      mload\n        /* \"--CODEGEN--\":71:82   */\n      dup4\n      dup3\n      add\n        /* \"--CODEGEN--\":64:103   */\n      mstore\n        /* \"--CODEGEN--\":52:54   */\n      0x20\n        /* \"--CODEGEN--\":45:55   */\n      add\n        /* \"--CODEGEN--\":8:108   */\n      jump(tag_21)\n    tag_22:\n        /* \"--CODEGEN--\":12:26   */\n      pop\n        /* \"contracts/Glouki.sol\":5088:5169  function name() public view returns (string memory) {... */\n      pop\n      pop\n      pop\n      swap1\n      pop\n      swap1\n      dup2\n      add\n      swap1\n      0x1f\n      and\n      dup1\n      iszero\n      tag_24\n      jumpi\n      dup1\n      dup3\n      sub\n      dup1\n      mload\n      0x1\n      dup4\n      0x20\n      sub\n      0x100\n      exp\n      sub\n      not\n      and\n      dup2\n      mstore\n      0x20\n      add\n      swap2\n      pop\n    tag_24:\n      pop\n      swap3\n      pop\n      pop\n      pop\n      mload(0x40)\n      dup1\n      swap2\n      sub\n      swap1\n      return\n        /* \"contracts/Glouki.sol\":7037:7182  function approve(address spender, uint256 value) public returns (bool) {... */\n    tag_3:\n      callvalue\n        /* \"--CODEGEN--\":8:17   */\n      dup1\n        /* \"--CODEGEN--\":5:7   */\n      iszero\n      tag_25\n      jumpi\n        /* \"--CODEGEN--\":30:31   */\n      0x0\n        /* \"--CODEGEN--\":27:28   */\n      dup1\n        /* \"--CODEGEN--\":20:32   */\n      revert\n        /* \"--CODEGEN--\":5:7   */\n    tag_25:\n      pop\n        /* \"contracts/Glouki.sol\":7037:7182  function approve(address spender, uint256 value) public returns (bool) {... */\n      tag_26\n      and(calldataload(0x4), sub(exp(0x2, 0xa0), 0x1))\n      calldataload(0x24)\n      jump(tag_27)\n    tag_26:\n      0x40\n      dup1\n      mload\n      swap2\n      iszero\n      iszero\n      dup3\n      mstore\n      mload\n      swap1\n      dup2\n      swap1\n      sub\n      0x20\n      add\n      swap1\n      return\n        /* \"contracts/Glouki.sol\":6098:6187  function totalSupply() public view returns (uint256) {... */\n    tag_4:\n      callvalue\n        /* \"--CODEGEN--\":8:17   */\n      dup1\n        /* \"--CODEGEN--\":5:7   */\n      iszero\n      tag_28\n      jumpi\n        /* \"--CODEGEN--\":30:31   */\n      0x0\n        /* \"--CODEGEN--\":27:28   */\n      dup1\n        /* \"--CODEGEN--\":20:32   */\n      revert\n        /* \"--CODEGEN--\":5:7   */\n    tag_28:\n        /* \"contracts/Glouki.sol\":6098:6187  function totalSupply() public view returns (uint256) {... */\n      pop\n      tag_29\n      jump(tag_30)\n    tag_29:\n      0x40\n      dup1\n      mload\n      swap2\n      dup3\n      mstore\n      mload\n      swap1\n      dup2\n      swap1\n      sub\n      0x20\n      add\n      swap1\n      return\n        /* \"contracts/Glouki.sol\":7557:7809  function transferFrom(address sender, address recipient, uint256 amount) public returns (bool) {... */\n    tag_5:\n      callvalue\n        /* \"--CODEGEN--\":8:17   */\n      dup1\n        /* \"--CODEGEN--\":5:7   */\n      iszero\n      tag_31\n      jumpi\n        /* \"--CODEGEN--\":30:31   */\n      0x0\n        /* \"--CODEGEN--\":27:28   */\n      dup1\n        /* \"--CODEGEN--\":20:32   */\n      revert\n        /* \"--CODEGEN--\":5:7   */\n    tag_31:\n      pop\n        /* \"contracts/Glouki.sol\":7557:7809  function transferFrom(address sender, address recipient, uint256 amount) public returns (bool) {... */\n      tag_26\n      sub(exp(0x2, 0xa0), 0x1)\n      calldataload(0x4)\n      dup2\n      and\n      swap1\n      calldataload(0x24)\n      and\n      calldataload(0x44)\n      jump(tag_33)\n        /* \"contracts/Glouki.sol\":5922:6003  function decimals() public view returns (uint8) {... */\n    tag_6:\n      callvalue\n        /* \"--CODEGEN--\":8:17   */\n      dup1\n        /* \"--CODEGEN--\":5:7   */\n      iszero\n      tag_34\n      jumpi\n        /* \"--CODEGEN--\":30:31   */\n      0x0\n        /* \"--CODEGEN--\":27:28   */\n      dup1\n        /* \"--CODEGEN--\":20:32   */\n      revert\n        /* \"--CODEGEN--\":5:7   */\n    tag_34:\n        /* \"contracts/Glouki.sol\":5922:6003  function decimals() public view returns (uint8) {... */\n      pop\n      tag_35\n      jump(tag_36)\n    tag_35:\n      0x40\n      dup1\n      mload\n      0xff\n      swap1\n      swap3\n      and\n      dup3\n      mstore\n      mload\n      swap1\n      dup2\n      swap1\n      sub\n      0x20\n      add\n      swap1\n      return\n        /* \"contracts/Glouki.sol\":8204:8407  function increaseAllowance(address spender, uint256 addedValue) public returns (bool) {... */\n    tag_7:\n      callvalue\n        /* \"--CODEGEN--\":8:17   */\n      dup1\n        /* \"--CODEGEN--\":5:7   */\n      iszero\n      tag_37\n      jumpi\n        /* \"--CODEGEN--\":30:31   */\n      0x0\n        /* \"--CODEGEN--\":27:28   */\n      dup1\n        /* \"--CODEGEN--\":20:32   */\n      revert\n        /* \"--CODEGEN--\":5:7   */\n    tag_37:\n      pop\n        /* \"contracts/Glouki.sol\":8204:8407  function increaseAllowance(address spender, uint256 addedValue) public returns (bool) {... */\n      tag_26\n      and(calldataload(0x4), sub(exp(0x2, 0xa0), 0x1))\n      calldataload(0x24)\n      jump(tag_39)\n        /* \"contracts/Glouki.sol\":11436:11515  function burn(uint256 amount) public {... */\n    tag_8:\n      callvalue\n        /* \"--CODEGEN--\":8:17   */\n      dup1\n        /* \"--CODEGEN--\":5:7   */\n      iszero\n      tag_40\n      jumpi\n        /* \"--CODEGEN--\":30:31   */\n      0x0\n        /* \"--CODEGEN--\":27:28   */\n      dup1\n        /* \"--CODEGEN--\":20:32   */\n      revert\n        /* \"--CODEGEN--\":5:7   */\n    tag_40:\n      pop\n        /* \"contracts/Glouki.sol\":11436:11515  function burn(uint256 amount) public {... */\n      tag_41\n      calldataload(0x4)\n      jump(tag_42)\n    tag_41:\n      stop\n        /* \"contracts/Glouki.sol\":6245:6353  function balanceOf(address account) public view returns (uint256) {... */\n    tag_9:\n      callvalue\n        /* \"--CODEGEN--\":8:17   */\n      dup1\n        /* \"--CODEGEN--\":5:7   */\n      iszero\n      tag_43\n      jumpi\n        /* \"--CODEGEN--\":30:31   */\n      0x0\n        /* \"--CODEGEN--\":27:28   */\n      dup1\n        /* \"--CODEGEN--\":20:32   */\n      revert\n        /* \"--CODEGEN--\":5:7   */\n    tag_43:\n      pop\n        /* \"contracts/Glouki.sol\":6245:6353  function balanceOf(address account) public view returns (uint256) {... */\n      tag_29\n      and(calldataload(0x4), sub(exp(0x2, 0xa0), 0x1))\n      jump(tag_45)\n        /* \"contracts/Glouki.sol\":11572:11673  function burnFrom(address account, uint256 amount) public {... */\n    tag_10:\n      callvalue\n        /* \"--CODEGEN--\":8:17   */\n      dup1\n        /* \"--CODEGEN--\":5:7   */\n      iszero\n      tag_46\n      jumpi\n        /* \"--CODEGEN--\":30:31   */\n      0x0\n        /* \"--CODEGEN--\":27:28   */\n      dup1\n        /* \"--CODEGEN--\":20:32   */\n      revert\n        /* \"--CODEGEN--\":5:7   */\n    tag_46:\n      pop\n        /* \"contracts/Glouki.sol\":11572:11673  function burnFrom(address account, uint256 amount) public {... */\n      tag_41\n      and(calldataload(0x4), sub(exp(0x2, 0xa0), 0x1))\n      calldataload(0x24)\n      jump(tag_48)\n        /* \"contracts/Glouki.sol\":4563:4583  address public owner */\n    tag_11:\n      callvalue\n        /* \"--CODEGEN--\":8:17   */\n      dup1\n        /* \"--CODEGEN--\":5:7   */\n      iszero\n      tag_49\n      jumpi\n        /* \"--CODEGEN--\":30:31   */\n      0x0\n        /* \"--CODEGEN--\":27:28   */\n      dup1\n        /* \"--CODEGEN--\":20:32   */\n      revert\n        /* \"--CODEGEN--\":5:7   */\n    tag_49:\n        /* \"contracts/Glouki.sol\":4563:4583  address public owner */\n      pop\n      tag_50\n      jump(tag_51)\n    tag_50:\n      0x40\n      dup1\n      mload\n      sub(exp(0x2, 0xa0), 0x1)\n      swap1\n      swap3\n      and\n      dup3\n      mstore\n      mload\n      swap1\n      dup2\n      swap1\n      sub\n      0x20\n      add\n      swap1\n      return\n        /* \"contracts/Glouki.sol\":5282:5367  function symbol() public view returns (string memory) {... */\n    tag_12:\n      callvalue\n        /* \"--CODEGEN--\":8:17   */\n      dup1\n        /* \"--CODEGEN--\":5:7   */\n      iszero\n      tag_52\n      jumpi\n        /* \"--CODEGEN--\":30:31   */\n      0x0\n        /* \"--CODEGEN--\":27:28   */\n      dup1\n        /* \"--CODEGEN--\":20:32   */\n      revert\n        /* \"--CODEGEN--\":5:7   */\n    tag_52:\n        /* \"contracts/Glouki.sol\":5282:5367  function symbol() public view returns (string memory) {... */\n      pop\n      tag_19\n      jump(tag_54)\n        /* \"contracts/Glouki.sol\":12660:12738  function mint(uint256 value) public onlyOwner {... */\n    tag_13:\n      callvalue\n        /* \"--CODEGEN--\":8:17   */\n      dup1\n        /* \"--CODEGEN--\":5:7   */\n      iszero\n      tag_59\n      jumpi\n        /* \"--CODEGEN--\":30:31   */\n      0x0\n        /* \"--CODEGEN--\":27:28   */\n      dup1\n        /* \"--CODEGEN--\":20:32   */\n      revert\n        /* \"--CODEGEN--\":5:7   */\n    tag_59:\n      pop\n        /* \"contracts/Glouki.sol\":12660:12738  function mint(uint256 value) public onlyOwner {... */\n      tag_41\n      calldataload(0x4)\n      jump(tag_61)\n        /* \"contracts/Glouki.sol\":8894:9107  function decreaseAllowance(address spender, uint256 subtractedValue) public returns (bool) {... */\n    tag_14:\n      callvalue\n        /* \"--CODEGEN--\":8:17   */\n      dup1\n        /* \"--CODEGEN--\":5:7   */\n      iszero\n      tag_62\n      jumpi\n        /* \"--CODEGEN--\":30:31   */\n      0x0\n        /* \"--CODEGEN--\":27:28   */\n      dup1\n        /* \"--CODEGEN--\":20:32   */\n      revert\n        /* \"--CODEGEN--\":5:7   */\n    tag_62:\n      pop\n        /* \"contracts/Glouki.sol\":8894:9107  function decreaseAllowance(address spender, uint256 subtractedValue) public returns (bool) {... */\n      tag_26\n      and(calldataload(0x4), sub(exp(0x2, 0xa0), 0x1))\n      calldataload(0x24)\n      jump(tag_64)\n        /* \"contracts/Glouki.sol\":6556:6709  function transfer(address recipient, uint256 amount) public returns (bool) {... */\n    tag_15:\n      callvalue\n        /* \"--CODEGEN--\":8:17   */\n      dup1\n        /* \"--CODEGEN--\":5:7   */\n      iszero\n      tag_65\n      jumpi\n        /* \"--CODEGEN--\":30:31   */\n      0x0\n        /* \"--CODEGEN--\":27:28   */\n      dup1\n        /* \"--CODEGEN--\":20:32   */\n      revert\n        /* \"--CODEGEN--\":5:7   */\n    tag_65:\n      pop\n        /* \"contracts/Glouki.sol\":6556:6709  function transfer(address recipient, uint256 amount) public returns (bool) {... */\n      tag_26\n      and(calldataload(0x4), sub(exp(0x2, 0xa0), 0x1))\n      calldataload(0x24)\n      jump(tag_67)\n        /* \"contracts/Glouki.sol\":6767:6899  function allowance(address owner, address spender) public view returns (uint256) {... */\n    tag_16:\n      callvalue\n        /* \"--CODEGEN--\":8:17   */\n      dup1\n        /* \"--CODEGEN--\":5:7   */\n      iszero\n      tag_68\n      jumpi\n        /* \"--CODEGEN--\":30:31   */\n      0x0\n        /* \"--CODEGEN--\":27:28   */\n      dup1\n        /* \"--CODEGEN--\":20:32   */\n      revert\n        /* \"--CODEGEN--\":5:7   */\n    tag_68:\n      pop\n        /* \"contracts/Glouki.sol\":6767:6899  function allowance(address owner, address spender) public view returns (uint256) {... */\n      tag_29\n      sub(exp(0x2, 0xa0), 0x1)\n      calldataload(0x4)\n      dup2\n      and\n      swap1\n      calldataload(0x24)\n      and\n      jump(tag_70)\n        /* \"contracts/Glouki.sol\":12906:13085  function transferOwnership(address newOwner) public onlyOwner {... */\n    tag_17:\n      callvalue\n        /* \"--CODEGEN--\":8:17   */\n      dup1\n        /* \"--CODEGEN--\":5:7   */\n      iszero\n      tag_71\n      jumpi\n        /* \"--CODEGEN--\":30:31   */\n      0x0\n        /* \"--CODEGEN--\":27:28   */\n      dup1\n        /* \"--CODEGEN--\":20:32   */\n      revert\n        /* \"--CODEGEN--\":5:7   */\n    tag_71:\n      pop\n        /* \"contracts/Glouki.sol\":12906:13085  function transferOwnership(address newOwner) public onlyOwner {... */\n      tag_41\n      and(calldataload(0x4), sub(exp(0x2, 0xa0), 0x1))\n      jump(tag_73)\n        /* \"contracts/Glouki.sol\":5088:5169  function name() public view returns (string memory) {... */\n    tag_20:\n        /* \"contracts/Glouki.sol\":5157:5162  _name */\n      0x2\n        /* \"contracts/Glouki.sol\":5150:5162  return _name */\n      dup1\n      sload\n      0x40\n      dup1\n      mload\n      0x20\n      0x1f\n      not(0x0)\n      0x100\n      0x1\n      dup8\n      and\n      iszero\n      mul\n      add\n      swap1\n      swap5\n      and\n      dup6\n      swap1\n      div\n      swap4\n      dup5\n      add\n      dup2\n      swap1\n      div\n      dup2\n      mul\n      dup3\n      add\n      dup2\n      add\n      swap1\n      swap3\n      mstore\n      dup3\n      dup2\n      mstore\n        /* \"contracts/Glouki.sol\":5125:5131  string */\n      0x60\n      swap4\n        /* \"contracts/Glouki.sol\":5150:5162  return _name */\n      swap1\n      swap3\n        /* \"contracts/Glouki.sol\":5157:5162  _name */\n      swap1\n      swap2\n        /* \"contracts/Glouki.sol\":5150:5162  return _name */\n      dup4\n      add\n        /* \"contracts/Glouki.sol\":5157:5162  _name */\n      dup3\n        /* \"contracts/Glouki.sol\":5150:5162  return _name */\n      dup3\n      dup1\n      iszero\n      tag_75\n      jumpi\n      dup1\n      0x1f\n      lt\n      tag_76\n      jumpi\n      0x100\n      dup1\n      dup4\n      sload\n      div\n      mul\n      dup4\n      mstore\n      swap2\n      0x20\n      add\n      swap2\n      jump(tag_75)\n    tag_76:\n      dup3\n      add\n      swap2\n      swap1\n      0x0\n      mstore\n      keccak256(0x0, 0x20)\n      swap1\n    tag_77:\n      dup2\n      sload\n      dup2\n      mstore\n      swap1\n      0x1\n      add\n      swap1\n      0x20\n      add\n      dup1\n      dup4\n      gt\n      tag_77\n      jumpi\n      dup3\n      swap1\n      sub\n      0x1f\n      and\n      dup3\n      add\n      swap2\n    tag_75:\n      pop\n      pop\n      pop\n      pop\n      pop\n      swap1\n      pop\n        /* \"contracts/Glouki.sol\":5088:5169  function name() public view returns (string memory) {... */\n      swap1\n      jump\t// out\n        /* \"contracts/Glouki.sol\":7037:7182  function approve(address spender, uint256 value) public returns (bool) {... */\n    tag_27:\n        /* \"contracts/Glouki.sol\":7102:7106  bool */\n      0x0\n        /* \"contracts/Glouki.sol\":7118:7154  _approve(msg.sender, spender, value) */\n      tag_79\n        /* \"contracts/Glouki.sol\":7127:7137  msg.sender */\n      caller\n        /* \"contracts/Glouki.sol\":7139:7146  spender */\n      dup5\n        /* \"contracts/Glouki.sol\":7148:7153  value */\n      dup5\n        /* \"contracts/Glouki.sol\":7118:7126  _approve */\n      tag_80\n        /* \"contracts/Glouki.sol\":7118:7154  _approve(msg.sender, spender, value) */\n      jump\t// in\n    tag_79:\n      pop\n        /* \"contracts/Glouki.sol\":7171:7175  true */\n      0x1\n        /* \"contracts/Glouki.sol\":7037:7182  function approve(address spender, uint256 value) public returns (bool) {... */\n      swap3\n      swap2\n      pop\n      pop\n      jump\t// out\n        /* \"contracts/Glouki.sol\":6098:6187  function totalSupply() public view returns (uint256) {... */\n    tag_30:\n        /* \"contracts/Glouki.sol\":6168:6180  _totalSupply */\n      sload(0x5)\n        /* \"contracts/Glouki.sol\":6098:6187  function totalSupply() public view returns (uint256) {... */\n      swap1\n      jump\t// out\n        /* \"contracts/Glouki.sol\":7557:7809  function transferFrom(address sender, address recipient, uint256 amount) public returns (bool) {... */\n    tag_33:\n        /* \"contracts/Glouki.sol\":7646:7650  bool */\n      0x0\n        /* \"contracts/Glouki.sol\":7662:7698  _transfer(sender, recipient, amount) */\n      tag_83\n        /* \"contracts/Glouki.sol\":7672:7678  sender */\n      dup5\n        /* \"contracts/Glouki.sol\":7680:7689  recipient */\n      dup5\n        /* \"contracts/Glouki.sol\":7691:7697  amount */\n      dup5\n        /* \"contracts/Glouki.sol\":7662:7671  _transfer */\n      tag_84\n        /* \"contracts/Glouki.sol\":7662:7698  _transfer(sender, recipient, amount) */\n      jump\t// in\n    tag_83:\n      sub(exp(0x2, 0xa0), 0x1)\n        /* \"contracts/Glouki.sol\":7737:7756  _allowances[sender] */\n      dup5\n      and\n      0x0\n      swap1\n      dup2\n      mstore\n        /* \"contracts/Glouki.sol\":7737:7748  _allowances */\n      0x1\n        /* \"contracts/Glouki.sol\":7737:7756  _allowances[sender] */\n      0x20\n      swap1\n      dup2\n      mstore\n      0x40\n      dup1\n      dup4\n      keccak256\n        /* \"contracts/Glouki.sol\":7725:7735  msg.sender */\n      caller\n        /* \"contracts/Glouki.sol\":7737:7768  _allowances[sender][msg.sender] */\n      dup1\n      dup6\n      mstore\n      swap3\n      mstore\n      swap1\n      swap2\n      keccak256\n      sload\n        /* \"contracts/Glouki.sol\":7708:7781  _approve(sender, msg.sender, _allowances[sender][msg.sender].sub(amount)) */\n      tag_85\n      swap2\n        /* \"contracts/Glouki.sol\":7717:7723  sender */\n      dup7\n      swap2\n        /* \"contracts/Glouki.sol\":7737:7780  _allowances[sender][msg.sender].sub(amount) */\n      tag_86\n      swap1\n        /* \"contracts/Glouki.sol\":7773:7779  amount */\n      dup7\n        /* \"contracts/Glouki.sol\":7737:7780  _allowances[sender][msg.sender].sub(amount) */\n      0xffffffff\n        /* \"contracts/Glouki.sol\":7737:7772  _allowances[sender][msg.sender].sub */\n      tag_87\n        /* \"contracts/Glouki.sol\":7737:7780  _allowances[sender][msg.sender].sub(amount) */\n      and\n      jump\t// in\n    tag_86:\n        /* \"contracts/Glouki.sol\":7708:7716  _approve */\n      tag_80\n        /* \"contracts/Glouki.sol\":7708:7781  _approve(sender, msg.sender, _allowances[sender][msg.sender].sub(amount)) */\n      jump\t// in\n    tag_85:\n      pop\n        /* \"contracts/Glouki.sol\":7798:7802  true */\n      0x1\n        /* \"contracts/Glouki.sol\":7557:7809  function transferFrom(address sender, address recipient, uint256 amount) public returns (bool) {... */\n      swap4\n      swap3\n      pop\n      pop\n      pop\n      jump\t// out\n        /* \"contracts/Glouki.sol\":5922:6003  function decimals() public view returns (uint8) {... */\n    tag_36:\n        /* \"contracts/Glouki.sol\":5987:5996  _decimals */\n      and(0xff, sload(0x4))\n        /* \"contracts/Glouki.sol\":5922:6003  function decimals() public view returns (uint8) {... */\n      swap1\n      jump\t// out\n        /* \"contracts/Glouki.sol\":8204:8407  function increaseAllowance(address spender, uint256 addedValue) public returns (bool) {... */\n    tag_39:\n        /* \"contracts/Glouki.sol\":8309:8319  msg.sender */\n      caller\n        /* \"contracts/Glouki.sol\":8284:8288  bool */\n      0x0\n        /* \"contracts/Glouki.sol\":8330:8353  _allowances[msg.sender] */\n      dup2\n      dup2\n      mstore\n        /* \"contracts/Glouki.sol\":8330:8341  _allowances */\n      0x1\n        /* \"contracts/Glouki.sol\":8330:8353  _allowances[msg.sender] */\n      0x20\n      swap1\n      dup2\n      mstore\n      0x40\n      dup1\n      dup4\n      keccak256\n      sub(exp(0x2, 0xa0), 0x1)\n        /* \"contracts/Glouki.sol\":8330:8362  _allowances[msg.sender][spender] */\n      dup8\n      and\n      dup5\n      mstore\n      swap1\n      swap2\n      mstore\n      dup2\n      keccak256\n      sload\n        /* \"contracts/Glouki.sol\":8284:8288  bool */\n      swap1\n      swap2\n        /* \"contracts/Glouki.sol\":8300:8379  _approve(msg.sender, spender, _allowances[msg.sender][spender].add(addedValue)) */\n      tag_79\n      swap2\n        /* \"contracts/Glouki.sol\":8321:8328  spender */\n      dup6\n      swap1\n        /* \"contracts/Glouki.sol\":8330:8378  _allowances[msg.sender][spender].add(addedValue) */\n      tag_86\n      swap1\n        /* \"contracts/Glouki.sol\":8367:8377  addedValue */\n      dup7\n        /* \"contracts/Glouki.sol\":8330:8378  _allowances[msg.sender][spender].add(addedValue) */\n      0xffffffff\n        /* \"contracts/Glouki.sol\":8330:8366  _allowances[msg.sender][spender].add */\n      tag_92\n        /* \"contracts/Glouki.sol\":8330:8378  _allowances[msg.sender][spender].add(addedValue) */\n      and\n      jump\t// in\n        /* \"contracts/Glouki.sol\":11436:11515  function burn(uint256 amount) public {... */\n    tag_42:\n        /* \"contracts/Glouki.sol\":11483:11508  _burn(msg.sender, amount) */\n      tag_94\n        /* \"contracts/Glouki.sol\":11489:11499  msg.sender */\n      caller\n        /* \"contracts/Glouki.sol\":11501:11507  amount */\n      dup3\n        /* \"contracts/Glouki.sol\":11483:11488  _burn */\n      tag_95\n        /* \"contracts/Glouki.sol\":11483:11508  _burn(msg.sender, amount) */\n      jump\t// in\n    tag_94:\n        /* \"contracts/Glouki.sol\":11436:11515  function burn(uint256 amount) public {... */\n      pop\n      jump\t// out\n        /* \"contracts/Glouki.sol\":6245:6353  function balanceOf(address account) public view returns (uint256) {... */\n    tag_45:\n      sub(exp(0x2, 0xa0), 0x1)\n        /* \"contracts/Glouki.sol\":6328:6346  _balances[account] */\n      and\n        /* \"contracts/Glouki.sol\":6302:6309  uint256 */\n      0x0\n        /* \"contracts/Glouki.sol\":6328:6346  _balances[account] */\n      swap1\n      dup2\n      mstore\n      0x20\n      dup2\n      swap1\n      mstore\n      0x40\n      swap1\n      keccak256\n      sload\n      swap1\n        /* \"contracts/Glouki.sol\":6245:6353  function balanceOf(address account) public view returns (uint256) {... */\n      jump\t// out\n        /* \"contracts/Glouki.sol\":11572:11673  function burnFrom(address account, uint256 amount) public {... */\n    tag_48:\n        /* \"contracts/Glouki.sol\":11640:11666  _burnFrom(account, amount) */\n      tag_98\n        /* \"contracts/Glouki.sol\":11650:11657  account */\n      dup3\n        /* \"contracts/Glouki.sol\":11659:11665  amount */\n      dup3\n        /* \"contracts/Glouki.sol\":11640:11649  _burnFrom */\n      tag_99\n        /* \"contracts/Glouki.sol\":11640:11666  _burnFrom(account, amount) */\n      jump\t// in\n    tag_98:\n        /* \"contracts/Glouki.sol\":11572:11673  function burnFrom(address account, uint256 amount) public {... */\n      pop\n      pop\n      jump\t// out\n        /* \"contracts/Glouki.sol\":4563:4583  address public owner */\n    tag_51:\n      sload(0x4)\n      0x100\n      swap1\n      div\n      sub(exp(0x2, 0xa0), 0x1)\n      and\n      dup2\n      jump\t// out\n        /* \"contracts/Glouki.sol\":5282:5367  function symbol() public view returns (string memory) {... */\n    tag_54:\n        /* \"contracts/Glouki.sol\":5353:5360  _symbol */\n      0x3\n        /* \"contracts/Glouki.sol\":5346:5360  return _symbol */\n      dup1\n      sload\n      0x40\n      dup1\n      mload\n      0x20\n      0x1f\n      0x2\n      not(0x0)\n      0x100\n      0x1\n      dup9\n      and\n      iszero\n      mul\n      add\n      swap1\n      swap6\n      and\n      swap5\n      swap1\n      swap5\n      div\n      swap4\n      dup5\n      add\n      dup2\n      swap1\n      div\n      dup2\n      mul\n      dup3\n      add\n      dup2\n      add\n      swap1\n      swap3\n      mstore\n      dup3\n      dup2\n      mstore\n        /* \"contracts/Glouki.sol\":5321:5327  string */\n      0x60\n      swap4\n        /* \"contracts/Glouki.sol\":5346:5360  return _symbol */\n      swap1\n      swap3\n        /* \"contracts/Glouki.sol\":5353:5360  _symbol */\n      swap1\n      swap2\n        /* \"contracts/Glouki.sol\":5346:5360  return _symbol */\n      dup4\n      add\n        /* \"contracts/Glouki.sol\":5353:5360  _symbol */\n      dup3\n        /* \"contracts/Glouki.sol\":5346:5360  return _symbol */\n      dup3\n      dup1\n      iszero\n      tag_75\n      jumpi\n      dup1\n      0x1f\n      lt\n      tag_76\n      jumpi\n      0x100\n      dup1\n      dup4\n      sload\n      div\n      mul\n      dup4\n      mstore\n      swap2\n      0x20\n      add\n      swap2\n      jump(tag_75)\n        /* \"contracts/Glouki.sol\":12660:12738  function mint(uint256 value) public onlyOwner {... */\n    tag_61:\n        /* \"contracts/Glouki.sol\":4715:4720  owner */\n      sload(0x4)\n      0x100\n      swap1\n      div\n      sub(exp(0x2, 0xa0), 0x1)\n      and\n        /* \"contracts/Glouki.sol\":4701:4711  msg.sender */\n      caller\n        /* \"contracts/Glouki.sol\":4701:4720  msg.sender == owner */\n      eq\n        /* \"contracts/Glouki.sol\":4693:4748  require(msg.sender == owner, \"Sender is not the owner\") */\n      tag_105\n      jumpi\n      0x40\n      dup1\n      mload\n      mul(0x461bcd, exp(0x2, 0xe5))\n      dup2\n      mstore\n      0x20\n      0x4\n      dup3\n      add\n      mstore\n      0x17\n      0x24\n      dup3\n      add\n      mstore\n      0x53656e646572206973206e6f7420746865206f776e6572000000000000000000\n      0x44\n      dup3\n      add\n      mstore\n      swap1\n      mload\n      swap1\n      dup2\n      swap1\n      sub\n      0x64\n      add\n      swap1\n      revert\n    tag_105:\n        /* \"contracts/Glouki.sol\":12710:12734  _mint(msg.sender, value) */\n      tag_94\n        /* \"contracts/Glouki.sol\":12716:12726  msg.sender */\n      caller\n        /* \"contracts/Glouki.sol\":12728:12733  value */\n      dup3\n        /* \"contracts/Glouki.sol\":12710:12715  _mint */\n      tag_108\n        /* \"contracts/Glouki.sol\":12710:12734  _mint(msg.sender, value) */\n      jump\t// in\n        /* \"contracts/Glouki.sol\":8894:9107  function decreaseAllowance(address spender, uint256 subtractedValue) public returns (bool) {... */\n    tag_64:\n        /* \"contracts/Glouki.sol\":9004:9014  msg.sender */\n      caller\n        /* \"contracts/Glouki.sol\":8979:8983  bool */\n      0x0\n        /* \"contracts/Glouki.sol\":9025:9048  _allowances[msg.sender] */\n      dup2\n      dup2\n      mstore\n        /* \"contracts/Glouki.sol\":9025:9036  _allowances */\n      0x1\n        /* \"contracts/Glouki.sol\":9025:9048  _allowances[msg.sender] */\n      0x20\n      swap1\n      dup2\n      mstore\n      0x40\n      dup1\n      dup4\n      keccak256\n      sub(exp(0x2, 0xa0), 0x1)\n        /* \"contracts/Glouki.sol\":9025:9057  _allowances[msg.sender][spender] */\n      dup8\n      and\n      dup5\n      mstore\n      swap1\n      swap2\n      mstore\n      dup2\n      keccak256\n      sload\n        /* \"contracts/Glouki.sol\":8979:8983  bool */\n      swap1\n      swap2\n        /* \"contracts/Glouki.sol\":8995:9079  _approve(msg.sender, spender, _allowances[msg.sender][spender].sub(subtractedValue)) */\n      tag_79\n      swap2\n        /* \"contracts/Glouki.sol\":9016:9023  spender */\n      dup6\n      swap1\n        /* \"contracts/Glouki.sol\":9025:9078  _allowances[msg.sender][spender].sub(subtractedValue) */\n      tag_86\n      swap1\n        /* \"contracts/Glouki.sol\":9062:9077  subtractedValue */\n      dup7\n        /* \"contracts/Glouki.sol\":9025:9078  _allowances[msg.sender][spender].sub(subtractedValue) */\n      0xffffffff\n        /* \"contracts/Glouki.sol\":9025:9061  _allowances[msg.sender][spender].sub */\n      tag_87\n        /* \"contracts/Glouki.sol\":9025:9078  _allowances[msg.sender][spender].sub(subtractedValue) */\n      and\n      jump\t// in\n        /* \"contracts/Glouki.sol\":6556:6709  function transfer(address recipient, uint256 amount) public returns (bool) {... */\n    tag_67:\n        /* \"contracts/Glouki.sol\":6625:6629  bool */\n      0x0\n        /* \"contracts/Glouki.sol\":6641:6681  _transfer(msg.sender, recipient, amount) */\n      tag_79\n        /* \"contracts/Glouki.sol\":6651:6661  msg.sender */\n      caller\n        /* \"contracts/Glouki.sol\":6663:6672  recipient */\n      dup5\n        /* \"contracts/Glouki.sol\":6674:6680  amount */\n      dup5\n        /* \"contracts/Glouki.sol\":6641:6650  _transfer */\n      tag_84\n        /* \"contracts/Glouki.sol\":6641:6681  _transfer(msg.sender, recipient, amount) */\n      jump\t// in\n        /* \"contracts/Glouki.sol\":6767:6899  function allowance(address owner, address spender) public view returns (uint256) {... */\n    tag_70:\n      sub(exp(0x2, 0xa0), 0x1)\n        /* \"contracts/Glouki.sol\":6865:6883  _allowances[owner] */\n      swap2\n      dup3\n      and\n        /* \"contracts/Glouki.sol\":6839:6846  uint256 */\n      0x0\n        /* \"contracts/Glouki.sol\":6865:6883  _allowances[owner] */\n      swap1\n      dup2\n      mstore\n        /* \"contracts/Glouki.sol\":6865:6876  _allowances */\n      0x1\n        /* \"contracts/Glouki.sol\":6865:6883  _allowances[owner] */\n      0x20\n      swap1\n      dup2\n      mstore\n      0x40\n      dup1\n      dup4\n      keccak256\n        /* \"contracts/Glouki.sol\":6865:6892  _allowances[owner][spender] */\n      swap4\n      swap1\n      swap5\n      and\n      dup3\n      mstore\n      swap2\n      swap1\n      swap2\n      mstore\n      keccak256\n      sload\n      swap1\n        /* \"contracts/Glouki.sol\":6767:6899  function allowance(address owner, address spender) public view returns (uint256) {... */\n      jump\t// out\n        /* \"contracts/Glouki.sol\":12906:13085  function transferOwnership(address newOwner) public onlyOwner {... */\n    tag_73:\n        /* \"contracts/Glouki.sol\":4715:4720  owner */\n      sload(0x4)\n      0x100\n      swap1\n      div\n      sub(exp(0x2, 0xa0), 0x1)\n      and\n        /* \"contracts/Glouki.sol\":4701:4711  msg.sender */\n      caller\n        /* \"contracts/Glouki.sol\":4701:4720  msg.sender == owner */\n      eq\n        /* \"contracts/Glouki.sol\":4693:4748  require(msg.sender == owner, \"Sender is not the owner\") */\n      tag_116\n      jumpi\n      0x40\n      dup1\n      mload\n      mul(0x461bcd, exp(0x2, 0xe5))\n      dup2\n      mstore\n      0x20\n      0x4\n      dup3\n      add\n      mstore\n      0x17\n      0x24\n      dup3\n      add\n      mstore\n      0x53656e646572206973206e6f7420746865206f776e6572000000000000000000\n      0x44\n      dup3\n      add\n      mstore\n      swap1\n      mload\n      swap1\n      dup2\n      swap1\n      sub\n      0x64\n      add\n      swap1\n      revert\n    tag_116:\n      sub(exp(0x2, 0xa0), 0x1)\n        /* \"contracts/Glouki.sol\":12984:13006  newOwner != address(0) */\n      dup2\n      and\n      iszero\n      iszero\n        /* \"contracts/Glouki.sol\":12976:13007  require(newOwner != address(0)) */\n      tag_118\n      jumpi\n      0x0\n      dup1\n      revert\n    tag_118:\n        /* \"contracts/Glouki.sol\":13015:13020  owner */\n      0x4\n        /* \"contracts/Glouki.sol\":13015:13031  owner = newOwner */\n      dup1\n      sload\n      not(0xffffffffffffffffffffffffffffffffffffffff00)\n      and\n      0x100\n      sub(exp(0x2, 0xa0), 0x1)\n      dup5\n      dup2\n      and\n      dup3\n      dup2\n      mul\n      swap4\n      swap1\n      swap4\n      or\n      swap4\n      dup5\n      swap1\n      sstore\n        /* \"contracts/Glouki.sol\":13044:13078  TransferOwnership(owner, newOwner) */\n      mload(0x40)\n        /* \"contracts/Glouki.sol\":13015:13031  owner = newOwner */\n      swap3\n      swap4\n        /* \"contracts/Glouki.sol\":13062:13067  owner */\n      swap2\n      swap1\n      swap2\n      div\n      and\n      swap1\n        /* \"contracts/Glouki.sol\":13044:13078  TransferOwnership(owner, newOwner) */\n      0x5c486528ec3e3f0ea91181cff8116f02bfa350e03b8b6f12e00765adbb5af85c\n      swap1\n      0x0\n      swap1\n      log3\n        /* \"contracts/Glouki.sol\":12906:13085  function transferOwnership(address newOwner) public onlyOwner {... */\n      pop\n      jump\t// out\n        /* \"contracts/Glouki.sol\":10999:11328  function _approve(address owner, address spender, uint256 value) internal {... */\n    tag_80:\n      sub(exp(0x2, 0xa0), 0x1)\n        /* \"contracts/Glouki.sol\":11091:11110  owner != address(0) */\n      dup4\n      and\n      iszero\n      iszero\n        /* \"contracts/Glouki.sol\":11083:11151  require(owner != address(0), \"ZRC20: approve from the zero address\") */\n      tag_120\n      jumpi\n      0x40\n      dup1\n      mload\n      mul(0x461bcd, exp(0x2, 0xe5))\n      dup2\n      mstore\n      0x20\n      0x4\n      dup3\n      add\n      mstore\n      0x24\n      dup1\n      dup3\n      add\n      mstore\n      0x5a524332303a20617070726f76652066726f6d20746865207a65726f20616464\n      0x44\n      dup3\n      add\n      mstore\n      0x7265737300000000000000000000000000000000000000000000000000000000\n      0x64\n      dup3\n      add\n      mstore\n      swap1\n      mload\n      swap1\n      dup2\n      swap1\n      sub\n      0x84\n      add\n      swap1\n      revert\n    tag_120:\n      sub(exp(0x2, 0xa0), 0x1)\n        /* \"contracts/Glouki.sol\":11169:11190  spender != address(0) */\n      dup3\n      and\n      iszero\n      iszero\n        /* \"contracts/Glouki.sol\":11161:11229  require(spender != address(0), \"ZRC20: approve to the zero address\") */\n      tag_121\n      jumpi\n      0x40\n      dup1\n      mload\n      mul(0x461bcd, exp(0x2, 0xe5))\n      dup2\n      mstore\n      0x20\n      0x4\n      dup3\n      add\n      mstore\n      0x22\n      0x24\n      dup3\n      add\n      mstore\n      0x5a524332303a20617070726f766520746f20746865207a65726f206164647265\n      0x44\n      dup3\n      add\n      mstore\n      0x7373000000000000000000000000000000000000000000000000000000000000\n      0x64\n      dup3\n      add\n      mstore\n      swap1\n      mload\n      swap1\n      dup2\n      swap1\n      sub\n      0x84\n      add\n      swap1\n      revert\n    tag_121:\n      sub(exp(0x2, 0xa0), 0x1)\n        /* \"contracts/Glouki.sol\":11240:11258  _allowances[owner] */\n      dup1\n      dup5\n      and\n      0x0\n      dup2\n      dup2\n      mstore\n        /* \"contracts/Glouki.sol\":11240:11251  _allowances */\n      0x1\n        /* \"contracts/Glouki.sol\":11240:11258  _allowances[owner] */\n      0x20\n      swap1\n      dup2\n      mstore\n      0x40\n      dup1\n      dup4\n      keccak256\n        /* \"contracts/Glouki.sol\":11240:11267  _allowances[owner][spender] */\n      swap5\n      dup8\n      and\n      dup1\n      dup5\n      mstore\n      swap5\n      dup3\n      mstore\n      swap2\n      dup3\n      swap1\n      keccak256\n        /* \"contracts/Glouki.sol\":11240:11275  _allowances[owner][spender] = value */\n      dup6\n      swap1\n      sstore\n        /* \"contracts/Glouki.sol\":11290:11321  Approval(owner, spender, value) */\n      dup2\n      mload\n      dup6\n      dup2\n      mstore\n      swap2\n      mload\n      0x8c5be1e5ebec7d5bd14f71427d1e84f3dd0314c0f7b2291e5b200ac8c7c3b925\n      swap3\n      dup2\n      swap1\n      sub\n      swap1\n      swap2\n      add\n      swap1\n      log3\n        /* \"contracts/Glouki.sol\":10999:11328  function _approve(address owner, address spender, uint256 value) internal {... */\n      pop\n      pop\n      pop\n      jump\t// out\n        /* \"contracts/Glouki.sol\":9581:10003  function _transfer(address sender, address recipient, uint256 amount) internal {... */\n    tag_84:\n      sub(exp(0x2, 0xa0), 0x1)\n        /* \"contracts/Glouki.sol\":9678:9698  sender != address(0) */\n      dup4\n      and\n      iszero\n      iszero\n        /* \"contracts/Glouki.sol\":9670:9740  require(sender != address(0), \"ZRC20: transfer from the zero address\") */\n      tag_123\n      jumpi\n      0x40\n      dup1\n      mload\n      mul(0x461bcd, exp(0x2, 0xe5))\n      dup2\n      mstore\n      0x20\n      0x4\n      dup3\n      add\n      mstore\n      0x25\n      0x24\n      dup3\n      add\n      mstore\n      0x5a524332303a207472616e736665722066726f6d20746865207a65726f206164\n      0x44\n      dup3\n      add\n      mstore\n      0x6472657373000000000000000000000000000000000000000000000000000000\n      0x64\n      dup3\n      add\n      mstore\n      swap1\n      mload\n      swap1\n      dup2\n      swap1\n      sub\n      0x84\n      add\n      swap1\n      revert\n    tag_123:\n      sub(exp(0x2, 0xa0), 0x1)\n        /* \"contracts/Glouki.sol\":9758:9781  recipient != address(0) */\n      dup3\n      and\n      iszero\n      iszero\n        /* \"contracts/Glouki.sol\":9750:9821  require(recipient != address(0), \"ZRC20: transfer to the zero address\") */\n      tag_124\n      jumpi\n      0x40\n      dup1\n      mload\n      mul(0x461bcd, exp(0x2, 0xe5))\n      dup2\n      mstore\n      0x20\n      0x4\n      dup3\n      add\n      mstore\n      0x23\n      0x24\n      dup3\n      add\n      mstore\n      0x5a524332303a207472616e7366657220746f20746865207a65726f2061646472\n      0x44\n      dup3\n      add\n      mstore\n      0x6573730000000000000000000000000000000000000000000000000000000000\n      0x64\n      dup3\n      add\n      mstore\n      swap1\n      mload\n      swap1\n      dup2\n      swap1\n      sub\n      0x84\n      add\n      swap1\n      revert\n    tag_124:\n      sub(exp(0x2, 0xa0), 0x1)\n        /* \"contracts/Glouki.sol\":9852:9869  _balances[sender] */\n      dup4\n      and\n        /* \"contracts/Glouki.sol\":9852:9861  _balances */\n      0x0\n        /* \"contracts/Glouki.sol\":9852:9869  _balances[sender] */\n      swap1\n      dup2\n      mstore\n      0x20\n      dup2\n      swap1\n      mstore\n      0x40\n      swap1\n      keccak256\n      sload\n        /* \"contracts/Glouki.sol\":9852:9881  _balances[sender].sub(amount) */\n      tag_125\n      swap1\n        /* \"contracts/Glouki.sol\":9874:9880  amount */\n      dup3\n        /* \"contracts/Glouki.sol\":9852:9881  _balances[sender].sub(amount) */\n      0xffffffff\n        /* \"contracts/Glouki.sol\":9852:9873  _balances[sender].sub */\n      tag_87\n        /* \"contracts/Glouki.sol\":9852:9881  _balances[sender].sub(amount) */\n      and\n      jump\t// in\n    tag_125:\n      sub(exp(0x2, 0xa0), 0x1)\n        /* \"contracts/Glouki.sol\":9832:9849  _balances[sender] */\n      dup1\n      dup6\n      and\n        /* \"contracts/Glouki.sol\":9832:9841  _balances */\n      0x0\n        /* \"contracts/Glouki.sol\":9832:9849  _balances[sender] */\n      swap1\n      dup2\n      mstore\n      0x20\n      dup2\n      swap1\n      mstore\n      0x40\n      dup1\n      dup3\n      keccak256\n        /* \"contracts/Glouki.sol\":9832:9881  _balances[sender] = _balances[sender].sub(amount) */\n      swap4\n      swap1\n      swap4\n      sstore\n        /* \"contracts/Glouki.sol\":9914:9934  _balances[recipient] */\n      swap1\n      dup5\n      and\n      dup2\n      mstore\n      keccak256\n      sload\n        /* \"contracts/Glouki.sol\":9914:9946  _balances[recipient].add(amount) */\n      tag_126\n      swap1\n        /* \"contracts/Glouki.sol\":9939:9945  amount */\n      dup3\n        /* \"contracts/Glouki.sol\":9914:9946  _balances[recipient].add(amount) */\n      0xffffffff\n        /* \"contracts/Glouki.sol\":9914:9938  _balances[recipient].add */\n      tag_92\n        /* \"contracts/Glouki.sol\":9914:9946  _balances[recipient].add(amount) */\n      and\n      jump\t// in\n    tag_126:\n      sub(exp(0x2, 0xa0), 0x1)\n        /* \"contracts/Glouki.sol\":9891:9911  _balances[recipient] */\n      dup1\n      dup5\n      and\n        /* \"contracts/Glouki.sol\":9891:9900  _balances */\n      0x0\n        /* \"contracts/Glouki.sol\":9891:9911  _balances[recipient] */\n      dup2\n      dup2\n      mstore\n      0x20\n      dup2\n      dup2\n      mstore\n      0x40\n      swap2\n      dup3\n      swap1\n      keccak256\n        /* \"contracts/Glouki.sol\":9891:9946  _balances[recipient] = _balances[recipient].add(amount) */\n      swap5\n      swap1\n      swap5\n      sstore\n        /* \"contracts/Glouki.sol\":9961:9996  Transfer(sender, recipient, amount) */\n      dup1\n      mload\n      dup6\n      dup2\n      mstore\n      swap1\n      mload\n        /* \"contracts/Glouki.sol\":9891:9911  _balances[recipient] */\n      swap2\n      swap4\n        /* \"contracts/Glouki.sol\":9961:9996  Transfer(sender, recipient, amount) */\n      swap3\n      dup8\n      and\n      swap3\n      0xddf252ad1be2c89b69c2b068fc378daa952ba7f163c4a11628f55a4df523b3ef\n      swap3\n      swap2\n      dup3\n      swap1\n      sub\n      add\n      swap1\n      log3\n        /* \"contracts/Glouki.sol\":9581:10003  function _transfer(address sender, address recipient, uint256 amount) internal {... */\n      pop\n      pop\n      pop\n      jump\t// out\n        /* \"contracts/Glouki.sol\":1384:1563  function sub(uint256 a, uint256 b) internal pure returns (uint256) {... */\n    tag_87:\n        /* \"contracts/Glouki.sol\":1442:1449  uint256 */\n      0x0\n      dup1\n        /* \"contracts/Glouki.sol\":1469:1475  b <= a */\n      dup4\n      dup4\n      gt\n      iszero\n        /* \"contracts/Glouki.sol\":1461:1510  require(b <= a, \"SafeMath: subtraction overflow\") */\n      tag_128\n      jumpi\n      0x40\n      dup1\n      mload\n      mul(0x461bcd, exp(0x2, 0xe5))\n      dup2\n      mstore\n      0x20\n      0x4\n      dup3\n      add\n      mstore\n      0x1e\n      0x24\n      dup3\n      add\n      mstore\n      0x536166654d6174683a207375627472616374696f6e206f766572666c6f770000\n      0x44\n      dup3\n      add\n      mstore\n      swap1\n      mload\n      swap1\n      dup2\n      swap1\n      sub\n      0x64\n      add\n      swap1\n      revert\n    tag_128:\n      pop\n      pop\n        /* \"contracts/Glouki.sol\":1532:1537  a - b */\n      swap1\n      sub\n      swap1\n        /* \"contracts/Glouki.sol\":1384:1563  function sub(uint256 a, uint256 b) internal pure returns (uint256) {... */\n      jump\t// out\n        /* \"contracts/Glouki.sol\":944:1120  function add(uint256 a, uint256 b) internal pure returns (uint256) {... */\n    tag_92:\n        /* \"contracts/Glouki.sol\":1002:1009  uint256 */\n      0x0\n        /* \"contracts/Glouki.sol\":1033:1038  a + b */\n      dup3\n      dup3\n      add\n        /* \"contracts/Glouki.sol\":1056:1062  c >= a */\n      dup4\n      dup2\n      lt\n      iszero\n        /* \"contracts/Glouki.sol\":1048:1094  require(c >= a, \"SafeMath: addition overflow\") */\n      tag_130\n      jumpi\n      0x40\n      dup1\n      mload\n      mul(0x461bcd, exp(0x2, 0xe5))\n      dup2\n      mstore\n      0x20\n      0x4\n      dup3\n      add\n      mstore\n      0x1b\n      0x24\n      dup3\n      add\n      mstore\n      0x536166654d6174683a206164646974696f6e206f766572666c6f770000000000\n      0x44\n      dup3\n      add\n      mstore\n      swap1\n      mload\n      swap1\n      dup2\n      swap1\n      sub\n      0x64\n      add\n      swap1\n      revert\n    tag_130:\n        /* \"contracts/Glouki.sol\":1112:1113  c */\n      swap4\n        /* \"contracts/Glouki.sol\":944:1120  function add(uint256 a, uint256 b) internal pure returns (uint256) {... */\n      swap3\n      pop\n      pop\n      pop\n      jump\t// out\n        /* \"contracts/Glouki.sol\":11992:12292  function _burn(address account, uint256 value) internal {... */\n    tag_95:\n      sub(exp(0x2, 0xa0), 0x1)\n        /* \"contracts/Glouki.sol\":12066:12087  account != address(0) */\n      dup3\n      and\n      iszero\n      iszero\n        /* \"contracts/Glouki.sol\":12058:12125  require(account != address(0), \"ZRC20: burn from the zero address\") */\n      tag_132\n      jumpi\n      0x40\n      dup1\n      mload\n      mul(0x461bcd, exp(0x2, 0xe5))\n      dup2\n      mstore\n      0x20\n      0x4\n      dup3\n      add\n      mstore\n      0x21\n      0x24\n      dup3\n      add\n      mstore\n      0x5a524332303a206275726e2066726f6d20746865207a65726f20616464726573\n      0x44\n      dup3\n      add\n      mstore\n      0x7300000000000000000000000000000000000000000000000000000000000000\n      0x64\n      dup3\n      add\n      mstore\n      swap1\n      mload\n      swap1\n      dup2\n      swap1\n      sub\n      0x84\n      add\n      swap1\n      revert\n    tag_132:\n        /* \"contracts/Glouki.sol\":12151:12163  _totalSupply */\n      sload(0x5)\n        /* \"contracts/Glouki.sol\":12151:12174  _totalSupply.sub(value) */\n      tag_133\n      swap1\n        /* \"contracts/Glouki.sol\":12168:12173  value */\n      dup3\n        /* \"contracts/Glouki.sol\":12151:12174  _totalSupply.sub(value) */\n      0xffffffff\n        /* \"contracts/Glouki.sol\":12151:12167  _totalSupply.sub */\n      tag_87\n        /* \"contracts/Glouki.sol\":12151:12174  _totalSupply.sub(value) */\n      and\n      jump\t// in\n    tag_133:\n        /* \"contracts/Glouki.sol\":12136:12148  _totalSupply */\n      0x5\n        /* \"contracts/Glouki.sol\":12136:12174  _totalSupply = _totalSupply.sub(value) */\n      sstore\n      sub(exp(0x2, 0xa0), 0x1)\n        /* \"contracts/Glouki.sol\":12205:12223  _balances[account] */\n      dup3\n      and\n        /* \"contracts/Glouki.sol\":12205:12214  _balances */\n      0x0\n        /* \"contracts/Glouki.sol\":12205:12223  _balances[account] */\n      swap1\n      dup2\n      mstore\n      0x20\n      dup2\n      swap1\n      mstore\n      0x40\n      swap1\n      keccak256\n      sload\n        /* \"contracts/Glouki.sol\":12205:12234  _balances[account].sub(value) */\n      tag_134\n      swap1\n        /* \"contracts/Glouki.sol\":12228:12233  value */\n      dup3\n        /* \"contracts/Glouki.sol\":12205:12234  _balances[account].sub(value) */\n      0xffffffff\n        /* \"contracts/Glouki.sol\":12205:12227  _balances[account].sub */\n      tag_87\n        /* \"contracts/Glouki.sol\":12205:12234  _balances[account].sub(value) */\n      and\n      jump\t// in\n    tag_134:\n      sub(exp(0x2, 0xa0), 0x1)\n        /* \"contracts/Glouki.sol\":12184:12202  _balances[account] */\n      dup4\n      and\n        /* \"contracts/Glouki.sol\":12184:12193  _balances */\n      0x0\n        /* \"contracts/Glouki.sol\":12184:12202  _balances[account] */\n      dup2\n      dup2\n      mstore\n      0x20\n      dup2\n      dup2\n      mstore\n      0x40\n      dup1\n      dup4\n      keccak256\n        /* \"contracts/Glouki.sol\":12184:12234  _balances[account] = _balances[account].sub(value) */\n      swap5\n      swap1\n      swap5\n      sstore\n        /* \"contracts/Glouki.sol\":12249:12285  Transfer(account, address(0), value) */\n      dup4\n      mload\n      dup6\n      dup2\n      mstore\n      swap4\n      mload\n        /* \"contracts/Glouki.sol\":12184:12193  _balances */\n      swap2\n      swap4\n        /* \"contracts/Glouki.sol\":12249:12285  Transfer(account, address(0), value) */\n      0xddf252ad1be2c89b69c2b068fc378daa952ba7f163c4a11628f55a4df523b3ef\n      swap3\n      swap1\n      dup2\n      swap1\n      sub\n      swap1\n      swap2\n      add\n      swap1\n      log3\n        /* \"contracts/Glouki.sol\":11992:12292  function _burn(address account, uint256 value) internal {... */\n      pop\n      pop\n      jump\t// out\n        /* \"contracts/Glouki.sol\":12469:12654  function _burnFrom(address account, uint256 amount) internal {... */\n    tag_99:\n        /* \"contracts/Glouki.sol\":12540:12562  _burn(account, amount) */\n      tag_136\n        /* \"contracts/Glouki.sol\":12546:12553  account */\n      dup3\n        /* \"contracts/Glouki.sol\":12555:12561  amount */\n      dup3\n        /* \"contracts/Glouki.sol\":12540:12545  _burn */\n      tag_95\n        /* \"contracts/Glouki.sol\":12540:12562  _burn(account, amount) */\n      jump\t// in\n    tag_136:\n      sub(exp(0x2, 0xa0), 0x1)\n        /* \"contracts/Glouki.sol\":12602:12622  _allowances[account] */\n      dup3\n      and\n      0x0\n      swap1\n      dup2\n      mstore\n        /* \"contracts/Glouki.sol\":12602:12613  _allowances */\n      0x1\n        /* \"contracts/Glouki.sol\":12602:12622  _allowances[account] */\n      0x20\n      swap1\n      dup2\n      mstore\n      0x40\n      dup1\n      dup4\n      keccak256\n        /* \"contracts/Glouki.sol\":12590:12600  msg.sender */\n      caller\n        /* \"contracts/Glouki.sol\":12602:12634  _allowances[account][msg.sender] */\n      dup1\n      dup6\n      mstore\n      swap3\n      mstore\n      swap1\n      swap2\n      keccak256\n      sload\n        /* \"contracts/Glouki.sol\":12572:12647  _approve(account, msg.sender, _allowances[account][msg.sender].sub(amount)) */\n      tag_98\n      swap2\n        /* \"contracts/Glouki.sol\":12581:12588  account */\n      dup5\n      swap2\n        /* \"contracts/Glouki.sol\":12602:12646  _allowances[account][msg.sender].sub(amount) */\n      tag_86\n      swap1\n        /* \"contracts/Glouki.sol\":12639:12645  amount */\n      dup6\n        /* \"contracts/Glouki.sol\":12602:12646  _allowances[account][msg.sender].sub(amount) */\n      0xffffffff\n        /* \"contracts/Glouki.sol\":12602:12638  _allowances[account][msg.sender].sub */\n      tag_87\n        /* \"contracts/Glouki.sol\":12602:12646  _allowances[account][msg.sender].sub(amount) */\n      and\n      jump\t// in\n        /* \"contracts/Glouki.sol\":10273:10574  function _mint(address account, uint256 amount) internal {... */\n    tag_108:\n      sub(exp(0x2, 0xa0), 0x1)\n        /* \"contracts/Glouki.sol\":10348:10369  account != address(0) */\n      dup3\n      and\n      iszero\n      iszero\n        /* \"contracts/Glouki.sol\":10340:10405  require(account != address(0), \"ZRC20: mint to the zero address\") */\n      tag_140\n      jumpi\n      0x40\n      dup1\n      mload\n      mul(0x461bcd, exp(0x2, 0xe5))\n      dup2\n      mstore\n      0x20\n      0x4\n      dup3\n      add\n      mstore\n      0x1f\n      0x24\n      dup3\n      add\n      mstore\n      0x5a524332303a206d696e7420746f20746865207a65726f206164647265737300\n      0x44\n      dup3\n      add\n      mstore\n      swap1\n      mload\n      swap1\n      dup2\n      swap1\n      sub\n      0x64\n      add\n      swap1\n      revert\n    tag_140:\n        /* \"contracts/Glouki.sol\":10430:10442  _totalSupply */\n      sload(0x5)\n        /* \"contracts/Glouki.sol\":10430:10454  _totalSupply.add(amount) */\n      tag_141\n      swap1\n        /* \"contracts/Glouki.sol\":10447:10453  amount */\n      dup3\n        /* \"contracts/Glouki.sol\":10430:10454  _totalSupply.add(amount) */\n      0xffffffff\n        /* \"contracts/Glouki.sol\":10430:10446  _totalSupply.add */\n      tag_92\n        /* \"contracts/Glouki.sol\":10430:10454  _totalSupply.add(amount) */\n      and\n      jump\t// in\n    tag_141:\n        /* \"contracts/Glouki.sol\":10415:10427  _totalSupply */\n      0x5\n        /* \"contracts/Glouki.sol\":10415:10454  _totalSupply = _totalSupply.add(amount) */\n      sstore\n      sub(exp(0x2, 0xa0), 0x1)\n        /* \"contracts/Glouki.sol\":10485:10503  _balances[account] */\n      dup3\n      and\n        /* \"contracts/Glouki.sol\":10485:10494  _balances */\n      0x0\n        /* \"contracts/Glouki.sol\":10485:10503  _balances[account] */\n      swap1\n      dup2\n      mstore\n      0x20\n      dup2\n      swap1\n      mstore\n      0x40\n      swap1\n      keccak256\n      sload\n        /* \"contracts/Glouki.sol\":10485:10515  _balances[account].add(amount) */\n      tag_142\n      swap1\n        /* \"contracts/Glouki.sol\":10508:10514  amount */\n      dup3\n        /* \"contracts/Glouki.sol\":10485:10515  _balances[account].add(amount) */\n      0xffffffff\n        /* \"contracts/Glouki.sol\":10485:10507  _balances[account].add */\n      tag_92\n        /* \"contracts/Glouki.sol\":10485:10515  _balances[account].add(amount) */\n      and\n      jump\t// in\n    tag_142:\n      sub(exp(0x2, 0xa0), 0x1)\n        /* \"contracts/Glouki.sol\":10464:10482  _balances[account] */\n      dup4\n      and\n        /* \"contracts/Glouki.sol\":10464:10473  _balances */\n      0x0\n        /* \"contracts/Glouki.sol\":10464:10482  _balances[account] */\n      dup2\n      dup2\n      mstore\n      0x20\n      dup2\n      dup2\n      mstore\n      0x40\n      dup1\n      dup4\n      keccak256\n        /* \"contracts/Glouki.sol\":10464:10515  _balances[account] = _balances[account].add(amount) */\n      swap5\n      swap1\n      swap5\n      sstore\n        /* \"contracts/Glouki.sol\":10530:10567  Transfer(address(0), account, amount) */\n      dup4\n      mload\n      dup6\n      dup2\n      mstore\n      swap4\n      mload\n        /* \"contracts/Glouki.sol\":10464:10482  _balances[account] */\n      swap3\n      swap4\n        /* \"contracts/Glouki.sol\":10464:10473  _balances */\n      swap2\n      swap3\n        /* \"contracts/Glouki.sol\":10530:10567  Transfer(address(0), account, amount) */\n      0xddf252ad1be2c89b69c2b068fc378daa952ba7f163c4a11628f55a4df523b3ef\n      swap3\n      dup2\n      swap1\n      sub\n      swap1\n      swap2\n      add\n      swap1\n      log3\n        /* \"contracts/Glouki.sol\":10273:10574  function _mint(address account, uint256 amount) internal {... */\n      pop\n      pop\n      jump\t// out\n\n    auxdata: 0xa165627a7a72305820e2941f9825cb34a197635989040e46546effeb1bc8338b986e6d99a1a1eed85c0029\n}\n",
				"bytecode": {
					"linkReferences": {},
					"object": "60806040523480156200001157600080fd5b50604051620010e7380380620010e783398101604090815281516020808401519284015191840180519094939093019262000053916002919086019062000262565b5081516200006990600390602085019062000262565b50600480543361010090810261010060a860020a031960ff861660ff199094168417161792839055620000bc9204600160a060020a031690636553f100600a9190910a02640100000000620000c5810204565b50505062000307565b600160a060020a03821615156200013d57604080517f08c379a000000000000000000000000000000000000000000000000000000000815260206004820152601f60248201527f5a524332303a206d696e7420746f20746865207a65726f206164647265737300604482015290519081900360640190fd5b6005546200015a908264010000000062000aec620001e682021704565b600555600160a060020a03821660009081526020819052604090205462000190908264010000000062000aec620001e682021704565b600160a060020a0383166000818152602081815260408083209490945583518581529351929391927fddf252ad1be2c89b69c2b068fc378daa952ba7f163c4a11628f55a4df523b3ef9281900390910190a35050565b6000828201838110156200025b57604080517f08c379a000000000000000000000000000000000000000000000000000000000815260206004820152601b60248201527f536166654d6174683a206164646974696f6e206f766572666c6f770000000000604482015290519081900360640190fd5b9392505050565b828054600181600116156101000203166002900490600052602060002090601f016020900481019282601f10620002a557805160ff1916838001178555620002d5565b82800160010185558215620002d5579182015b82811115620002d5578251825591602001919060010190620002b8565b50620002e3929150620002e7565b5090565b6200030491905b80821115620002e35760008155600101620002ee565b90565b610dd080620003176000396000f3006080604052600436106100e55763ffffffff7c010000000000000000000000000000000000000000000000000000000060003504166306fdde0381146100ea578063095ea7b31461017457806318160ddd146101ac57806323b872dd146101d3578063313ce567146101fd578063395093511461022857806342966c681461024c57806370a082311461026657806379cc6790146102875780638da5cb5b146102ab57806395d89b41146102dc578063a0712d68146102f1578063a457c2d714610309578063a9059cbb1461032d578063dd62ed3e14610351578063f2fde38b14610378575b600080fd5b3480156100f657600080fd5b506100ff610399565b6040805160208082528351818301528351919283929083019185019080838360005b83811015610139578181015183820152602001610121565b50505050905090810190601f1680156101665780820380516001836020036101000a031916815260200191505b509250505060405180910390f35b34801561018057600080fd5b50610198600160a060020a036004351660243561042c565b604080519115158252519081900360200190f35b3480156101b857600080fd5b506101c1610442565b60408051918252519081900360200190f35b3480156101df57600080fd5b50610198600160a060020a0360043581169060243516604435610448565b34801561020957600080fd5b5061021261049f565b6040805160ff9092168252519081900360200190f35b34801561023457600080fd5b50610198600160a060020a03600435166024356104a8565b34801561025857600080fd5b506102646004356104e4565b005b34801561027257600080fd5b506101c1600160a060020a03600435166104f1565b34801561029357600080fd5b50610264600160a060020a036004351660243561050c565b3480156102b757600080fd5b506102c061051a565b60408051600160a060020a039092168252519081900360200190f35b3480156102e857600080fd5b506100ff61052e565b3480156102fd57600080fd5b5061026460043561058f565b34801561031557600080fd5b50610198600160a060020a0360043516602435610600565b34801561033957600080fd5b50610198600160a060020a036004351660243561063c565b34801561035d57600080fd5b506101c1600160a060020a0360043581169060243516610649565b34801561038457600080fd5b50610264600160a060020a0360043516610674565b60028054604080516020601f60001961010060018716150201909416859004938401819004810282018101909252828152606093909290918301828280156104225780601f106103f757610100808354040283529160200191610422565b820191906000526020600020905b81548152906001019060200180831161040557829003601f168201915b5050505050905090565b6000610439338484610759565b50600192915050565b60055490565b60006104558484846108c6565b600160a060020a038416600090815260016020908152604080832033808552925290912054610495918691610490908663ffffffff610a8a16565b610759565b5060019392505050565b60045460ff1690565b336000818152600160209081526040808320600160a060020a03871684529091528120549091610439918590610490908663ffffffff610aec16565b6104ee3382610b50565b50565b600160a060020a031660009081526020819052604090205490565b6105168282610c6a565b5050565b6004546101009004600160a060020a031681565b60038054604080516020601f60026000196101006001881615020190951694909404938401819004810282018101909252828152606093909290918301828280156104225780601f106103f757610100808354040283529160200191610422565b6004546101009004600160a060020a031633146105f6576040805160e560020a62461bcd02815260206004820152601760248201527f53656e646572206973206e6f7420746865206f776e6572000000000000000000604482015290519081900360640190fd5b6104ee3382610caf565b336000818152600160209081526040808320600160a060020a03871684529091528120549091610439918590610490908663ffffffff610a8a16565b60006104393384846108c6565b600160a060020a03918216600090815260016020908152604080832093909416825291909152205490565b6004546101009004600160a060020a031633146106db576040805160e560020a62461bcd02815260206004820152601760248201527f53656e646572206973206e6f7420746865206f776e6572000000000000000000604482015290519081900360640190fd5b600160a060020a03811615156106f057600080fd5b6004805474ffffffffffffffffffffffffffffffffffffffff001916610100600160a060020a03848116828102939093179384905560405192939190910416907f5c486528ec3e3f0ea91181cff8116f02bfa350e03b8b6f12e00765adbb5af85c90600090a350565b600160a060020a03831615156107de576040805160e560020a62461bcd028152602060048201526024808201527f5a524332303a20617070726f76652066726f6d20746865207a65726f2061646460448201527f7265737300000000000000000000000000000000000000000000000000000000606482015290519081900360840190fd5b600160a060020a0382161515610864576040805160e560020a62461bcd02815260206004820152602260248201527f5a524332303a20617070726f766520746f20746865207a65726f20616464726560448201527f7373000000000000000000000000000000000000000000000000000000000000606482015290519081900360840190fd5b600160a060020a03808416600081815260016020908152604080832094871680845294825291829020859055815185815291517f8c5be1e5ebec7d5bd14f71427d1e84f3dd0314c0f7b2291e5b200ac8c7c3b9259281900390910190a3505050565b600160a060020a038316151561094c576040805160e560020a62461bcd02815260206004820152602560248201527f5a524332303a207472616e736665722066726f6d20746865207a65726f20616460448201527f6472657373000000000000000000000000000000000000000000000000000000606482015290519081900360840190fd5b600160a060020a03821615156109d2576040805160e560020a62461bcd02815260206004820152602360248201527f5a524332303a207472616e7366657220746f20746865207a65726f206164647260448201527f6573730000000000000000000000000000000000000000000000000000000000606482015290519081900360840190fd5b600160a060020a0383166000908152602081905260409020546109fb908263ffffffff610a8a16565b600160a060020a038085166000908152602081905260408082209390935590841681522054610a30908263ffffffff610aec16565b600160a060020a038084166000818152602081815260409182902094909455805185815290519193928716927fddf252ad1be2c89b69c2b068fc378daa952ba7f163c4a11628f55a4df523b3ef92918290030190a3505050565b60008083831115610ae5576040805160e560020a62461bcd02815260206004820152601e60248201527f536166654d6174683a207375627472616374696f6e206f766572666c6f770000604482015290519081900360640190fd5b5050900390565b600082820183811015610b49576040805160e560020a62461bcd02815260206004820152601b60248201527f536166654d6174683a206164646974696f6e206f766572666c6f770000000000604482015290519081900360640190fd5b9392505050565b600160a060020a0382161515610bd6576040805160e560020a62461bcd02815260206004820152602160248201527f5a524332303a206275726e2066726f6d20746865207a65726f2061646472657360448201527f7300000000000000000000000000000000000000000000000000000000000000606482015290519081900360840190fd5b600554610be9908263ffffffff610a8a16565b600555600160a060020a038216600090815260208190526040902054610c15908263ffffffff610a8a16565b600160a060020a038316600081815260208181526040808320949094558351858152935191937fddf252ad1be2c89b69c2b068fc378daa952ba7f163c4a11628f55a4df523b3ef929081900390910190a35050565b610c748282610b50565b600160a060020a038216600090815260016020908152604080832033808552925290912054610516918491610490908563ffffffff610a8a16565b600160a060020a0382161515610d0f576040805160e560020a62461bcd02815260206004820152601f60248201527f5a524332303a206d696e7420746f20746865207a65726f206164647265737300604482015290519081900360640190fd5b600554610d22908263ffffffff610aec16565b600555600160a060020a038216600090815260208190526040902054610d4e908263ffffffff610aec16565b600160a060020a0383166000818152602081815260408083209490945583518581529351929391927fddf252ad1be2c89b69c2b068fc378daa952ba7f163c4a11628f55a4df523b3ef9281900390910190a350505600a165627a7a72305820e2941f9825cb34a197635989040e46546effeb1bc8338b986e6d99a1a1eed85c0029",
					"opcodes": "PUSH1 0x80 PUSH1 0x40 MSTORE CALLVALUE DUP1 ISZERO PUSH3 0x11 JUMPI PUSH1 0x0 DUP1 REVERT JUMPDEST POP PUSH1 0x40 MLOAD PUSH3 0x10E7 CODESIZE SUB DUP1 PUSH3 0x10E7 DUP4 CODECOPY DUP2 ADD PUSH1 0x40 SWAP1 DUP2 MSTORE DUP2 MLOAD PUSH1 0x20 DUP1 DUP5 ADD MLOAD SWAP3 DUP5 ADD MLOAD SWAP2 DUP5 ADD DUP1 MLOAD SWAP1 SWAP5 SWAP4 SWAP1 SWAP4 ADD SWAP3 PUSH3 0x53 SWAP2 PUSH1 0x2 SWAP2 SWAP1 DUP7 ADD SWAP1 PUSH3 0x262 JUMP JUMPDEST POP DUP2 MLOAD PUSH3 0x69 SWAP1 PUSH1 0x3 SWAP1 PUSH1 0x20 DUP6 ADD SWAP1 PUSH3 0x262 JUMP JUMPDEST POP PUSH1 0x4 DUP1 SLOAD CALLER PUSH2 0x100 SWAP1 DUP2 MUL PUSH2 0x100 PUSH1 0xA8 PUSH1 0x2 EXP SUB NOT PUSH1 0xFF DUP7 AND PUSH1 0xFF NOT SWAP1 SWAP5 AND DUP5 OR AND OR SWAP3 DUP4 SWAP1 SSTORE PUSH3 0xBC SWAP3 DIV PUSH1 0x1 PUSH1 0xA0 PUSH1 0x2 EXP SUB AND SWAP1 PUSH4 0x6553F100 PUSH1 0xA SWAP2 SWAP1 SWAP2 EXP MUL PUSH5 0x100000000 PUSH3 0xC5 DUP2 MUL DIV JUMP JUMPDEST POP POP POP PUSH3 0x307 JUMP JUMPDEST PUSH1 0x1 PUSH1 0xA0 PUSH1 0x2 EXP SUB DUP3 AND ISZERO ISZERO PUSH3 0x13D JUMPI PUSH1 0x40 DUP1 MLOAD PUSH32 0x8C379A000000000000000000000000000000000000000000000000000000000 DUP2 MSTORE PUSH1 0x20 PUSH1 0x4 DUP3 ADD MSTORE PUSH1 0x1F PUSH1 0x24 DUP3 ADD MSTORE PUSH32 0x5A524332303A206D696E7420746F20746865207A65726F206164647265737300 PUSH1 0x44 DUP3 ADD MSTORE SWAP1 MLOAD SWAP1 DUP2 SWAP1 SUB PUSH1 0x64 ADD SWAP1 REVERT JUMPDEST PUSH1 0x5 SLOAD PUSH3 0x15A SWAP1 DUP3 PUSH5 0x100000000 PUSH3 0xAEC PUSH3 0x1E6 DUP3 MUL OR DIV JUMP JUMPDEST PUSH1 0x5 SSTORE PUSH1 0x1 PUSH1 0xA0 PUSH1 0x2 EXP SUB DUP3 AND PUSH1 0x0 SWAP1 DUP2 MSTORE PUSH1 0x20 DUP2 SWAP1 MSTORE PUSH1 0x40 SWAP1 KECCAK256 SLOAD PUSH3 0x190 SWAP1 DUP3 PUSH5 0x100000000 PUSH3 0xAEC PUSH3 0x1E6 DUP3 MUL OR DIV JUMP JUMPDEST PUSH1 0x1 PUSH1 0xA0 PUSH1 0x2 EXP SUB DUP4 AND PUSH1 0x0 DUP2 DUP2 MSTORE PUSH1 0x20 DUP2 DUP2 MSTORE PUSH1 0x40 DUP1 DUP4 KECCAK256 SWAP5 SWAP1 SWAP5 SSTORE DUP4 MLOAD DUP6 DUP2 MSTORE SWAP4 MLOAD SWAP3 SWAP4 SWAP2 SWAP3 PUSH32 0xDDF252AD1BE2C89B69C2B068FC378DAA952BA7F163C4A11628F55A4DF523B3EF SWAP3 DUP2 SWAP1 SUB SWAP1 SWAP2 ADD SWAP1 LOG3 POP POP JUMP JUMPDEST PUSH1 0x0 DUP3 DUP3 ADD DUP4 DUP2 LT ISZERO PUSH3 0x25B JUMPI PUSH1 0x40 DUP1 MLOAD PUSH32 0x8C379A000000000000000000000000000000000000000000000000000000000 DUP2 MSTORE PUSH1 0x20 PUSH1 0x4 DUP3 ADD MSTORE PUSH1 0x1B PUSH1 0x24 DUP3 ADD MSTORE PUSH32 0x536166654D6174683A206164646974696F6E206F766572666C6F770000000000 PUSH1 0x44 DUP3 ADD MSTORE SWAP1 MLOAD SWAP1 DUP2 SWAP1 SUB PUSH1 0x64 ADD SWAP1 REVERT JUMPDEST SWAP4 SWAP3 POP POP POP JUMP JUMPDEST DUP3 DUP1 SLOAD PUSH1 0x1 DUP2 PUSH1 0x1 AND ISZERO PUSH2 0x100 MUL SUB AND PUSH1 0x2 SWAP1 DIV SWAP1 PUSH1 0x0 MSTORE PUSH1 0x20 PUSH1 0x0 KECCAK256 SWAP1 PUSH1 0x1F ADD PUSH1 0x20 SWAP1 DIV DUP2 ADD SWAP3 DUP3 PUSH1 0x1F LT PUSH3 0x2A5 JUMPI DUP1 MLOAD PUSH1 0xFF NOT AND DUP4 DUP1 ADD OR DUP6 SSTORE PUSH3 0x2D5 JUMP JUMPDEST DUP3 DUP1 ADD PUSH1 0x1 ADD DUP6 SSTORE DUP3 ISZERO PUSH3 0x2D5 JUMPI SWAP2 DUP3 ADD JUMPDEST DUP3 DUP2 GT ISZERO PUSH3 0x2D5 JUMPI DUP3 MLOAD DUP3 SSTORE SWAP2 PUSH1 0x20 ADD SWAP2 SWAP1 PUSH1 0x1 ADD SWAP1 PUSH3 0x2B8 JUMP JUMPDEST POP PUSH3 0x2E3 SWAP3 SWAP2 POP PUSH3 0x2E7 JUMP JUMPDEST POP SWAP1 JUMP JUMPDEST PUSH3 0x304 SWAP2 SWAP1 JUMPDEST DUP1 DUP3 GT ISZERO PUSH3 0x2E3 JUMPI PUSH1 0x0 DUP2 SSTORE PUSH1 0x1 ADD PUSH3 0x2EE JUMP JUMPDEST SWAP1 JUMP JUMPDEST PUSH2 0xDD0 DUP1 PUSH3 0x317 PUSH1 0x0 CODECOPY PUSH1 0x0 RETURN STOP PUSH1 0x80 PUSH1 0x40 MSTORE PUSH1 0x4 CALLDATASIZE LT PUSH2 0xE5 JUMPI PUSH4 0xFFFFFFFF PUSH29 0x100000000000000000000000000000000000000000000000000000000 PUSH1 0x0 CALLDATALOAD DIV AND PUSH4 0x6FDDE03 DUP2 EQ PUSH2 0xEA JUMPI DUP1 PUSH4 0x95EA7B3 EQ PUSH2 0x174 JUMPI DUP1 PUSH4 0x18160DDD EQ PUSH2 0x1AC JUMPI DUP1 PUSH4 0x23B872DD EQ PUSH2 0x1D3 JUMPI DUP1 PUSH4 0x313CE567 EQ PUSH2 0x1FD JUMPI DUP1 PUSH4 0x39509351 EQ PUSH2 0x228 JUMPI DUP1 PUSH4 0x42966C68 EQ PUSH2 0x24C JUMPI DUP1 PUSH4 0x70A08231 EQ PUSH2 0x266 JUMPI DUP1 PUSH4 0x79CC6790 EQ PUSH2 0x287 JUMPI DUP1 PUSH4 0x8DA5CB5B EQ PUSH2 0x2AB JUMPI DUP1 PUSH4 0x95D89B41 EQ PUSH2 0x2DC JUMPI DUP1 PUSH4 0xA0712D68 EQ PUSH2 0x2F1 JUMPI DUP1 PUSH4 0xA457C2D7 EQ PUSH2 0x309 JUMPI DUP1 PUSH4 0xA9059CBB EQ PUSH2 0x32D JUMPI DUP1 PUSH4 0xDD62ED3E EQ PUSH2 0x351 JUMPI DUP1 PUSH4 0xF2FDE38B EQ PUSH2 0x378 JUMPI JUMPDEST PUSH1 0x0 DUP1 REVERT JUMPDEST CALLVALUE DUP1 ISZERO PUSH2 0xF6 JUMPI PUSH1 0x0 DUP1 REVERT JUMPDEST POP PUSH2 0xFF PUSH2 0x399 JUMP JUMPDEST PUSH1 0x40 DUP1 MLOAD PUSH1 0x20 DUP1 DUP3 MSTORE DUP4 MLOAD DUP2 DUP4 ADD MSTORE DUP4 MLOAD SWAP2 SWAP3 DUP4 SWAP3 SWAP1 DUP4 ADD SWAP2 DUP6 ADD SWAP1 DUP1 DUP4 DUP4 PUSH1 0x0 JUMPDEST DUP4 DUP2 LT ISZERO PUSH2 0x139 JUMPI DUP2 DUP2 ADD MLOAD DUP4 DUP3 ADD MSTORE PUSH1 0x20 ADD PUSH2 0x121 JUMP JUMPDEST POP POP POP POP SWAP1 POP SWAP1 DUP2 ADD SWAP1 PUSH1 0x1F AND DUP1 ISZERO PUSH2 0x166 JUMPI DUP1 DUP3 SUB DUP1 MLOAD PUSH1 0x1 DUP4 PUSH1 0x20 SUB PUSH2 0x100 EXP SUB NOT AND DUP2 MSTORE PUSH1 0x20 ADD SWAP2 POP JUMPDEST POP SWAP3 POP POP POP PUSH1 0x40 MLOAD DUP1 SWAP2 SUB SWAP1 RETURN JUMPDEST CALLVALUE DUP1 ISZERO PUSH2 0x180 JUMPI PUSH1 0x0 DUP1 REVERT JUMPDEST POP PUSH2 0x198 PUSH1 0x1 PUSH1 0xA0 PUSH1 0x2 EXP SUB PUSH1 0x4 CALLDATALOAD AND PUSH1 0x24 CALLDATALOAD PUSH2 0x42C JUMP JUMPDEST PUSH1 0x40 DUP1 MLOAD SWAP2 ISZERO ISZERO DUP3 MSTORE MLOAD SWAP1 DUP2 SWAP1 SUB PUSH1 0x20 ADD SWAP1 RETURN JUMPDEST CALLVALUE DUP1 ISZERO PUSH2 0x1B8 JUMPI PUSH1 0x0 DUP1 REVERT JUMPDEST POP PUSH2 0x1C1 PUSH2 0x442 JUMP JUMPDEST PUSH1 0x40 DUP1 MLOAD SWAP2 DUP3 MSTORE MLOAD SWAP1 DUP2 SWAP1 SUB PUSH1 0x20 ADD SWAP1 RETURN JUMPDEST CALLVALUE DUP1 ISZERO PUSH2 0x1DF JUMPI PUSH1 0x0 DUP1 REVERT JUMPDEST POP PUSH2 0x198 PUSH1 0x1 PUSH1 0xA0 PUSH1 0x2 EXP SUB PUSH1 0x4 CALLDATALOAD DUP2 AND SWAP1 PUSH1 0x24 CALLDATALOAD AND PUSH1 0x44 CALLDATALOAD PUSH2 0x448 JUMP JUMPDEST CALLVALUE DUP1 ISZERO PUSH2 0x209 JUMPI PUSH1 0x0 DUP1 REVERT JUMPDEST POP PUSH2 0x212 PUSH2 0x49F JUMP JUMPDEST PUSH1 0x40 DUP1 MLOAD PUSH1 0xFF SWAP1 SWAP3 AND DUP3 MSTORE MLOAD SWAP1 DUP2 SWAP1 SUB PUSH1 0x20 ADD SWAP1 RETURN JUMPDEST CALLVALUE DUP1 ISZERO PUSH2 0x234 JUMPI PUSH1 0x0 DUP1 REVERT JUMPDEST POP PUSH2 0x198 PUSH1 0x1 PUSH1 0xA0 PUSH1 0x2 EXP SUB PUSH1 0x4 CALLDATALOAD AND PUSH1 0x24 CALLDATALOAD PUSH2 0x4A8 JUMP JUMPDEST CALLVALUE DUP1 ISZERO PUSH2 0x258 JUMPI PUSH1 0x0 DUP1 REVERT JUMPDEST POP PUSH2 0x264 PUSH1 0x4 CALLDATALOAD PUSH2 0x4E4 JUMP JUMPDEST STOP JUMPDEST CALLVALUE DUP1 ISZERO PUSH2 0x272 JUMPI PUSH1 0x0 DUP1 REVERT JUMPDEST POP PUSH2 0x1C1 PUSH1 0x1 PUSH1 0xA0 PUSH1 0x2 EXP SUB PUSH1 0x4 CALLDATALOAD AND PUSH2 0x4F1 JUMP JUMPDEST CALLVALUE DUP1 ISZERO PUSH2 0x293 JUMPI PUSH1 0x0 DUP1 REVERT JUMPDEST POP PUSH2 0x264 PUSH1 0x1 PUSH1 0xA0 PUSH1 0x2 EXP SUB PUSH1 0x4 CALLDATALOAD AND PUSH1 0x24 CALLDATALOAD PUSH2 0x50C JUMP JUMPDEST CALLVALUE DUP1 ISZERO PUSH2 0x2B7 JUMPI PUSH1 0x0 DUP1 REVERT JUMPDEST POP PUSH2 0x2C0 PUSH2 0x51A JUMP JUMPDEST PUSH1 0x40 DUP1 MLOAD PUSH1 0x1 PUSH1 0xA0 PUSH1 0x2 EXP SUB SWAP1 SWAP3 AND DUP3 MSTORE MLOAD SWAP1 DUP2 SWAP1 SUB PUSH1 0x20 ADD SWAP1 RETURN JUMPDEST CALLVALUE DUP1 ISZERO PUSH2 0x2E8 JUMPI PUSH1 0x0 DUP1 REVERT JUMPDEST POP PUSH2 0xFF PUSH2 0x52E JUMP JUMPDEST CALLVALUE DUP1 ISZERO PUSH2 0x2FD JUMPI PUSH1 0x0 DUP1 REVERT JUMPDEST POP PUSH2 0x264 PUSH1 0x4 CALLDATALOAD PUSH2 0x58F JUMP JUMPDEST CALLVALUE DUP1 ISZERO PUSH2 0x315 JUMPI PUSH1 0x0 DUP1 REVERT JUMPDEST POP PUSH2 0x198 PUSH1 0x1 PUSH1 0xA0 PUSH1 0x2 EXP SUB PUSH1 0x4 CALLDATALOAD AND PUSH1 0x24 CALLDATALOAD PUSH2 0x600 JUMP JUMPDEST CALLVALUE DUP1 ISZERO PUSH2 0x339 JUMPI PUSH1 0x0 DUP1 REVERT JUMPDEST POP PUSH2 0x198 PUSH1 0x1 PUSH1 0xA0 PUSH1 0x2 EXP SUB PUSH1 0x4 CALLDATALOAD AND PUSH1 0x24 CALLDATALOAD PUSH2 0x63C JUMP JUMPDEST CALLVALUE DUP1 ISZERO PUSH2 0x35D JUMPI PUSH1 0x0 DUP1 REVERT JUMPDEST POP PUSH2 0x1C1 PUSH1 0x1 PUSH1 0xA0 PUSH1 0x2 EXP SUB PUSH1 0x4 CALLDATALOAD DUP2 AND SWAP1 PUSH1 0x24 CALLDATALOAD AND PUSH2 0x649 JUMP JUMPDEST CALLVALUE DUP1 ISZERO PUSH2 0x384 JUMPI PUSH1 0x0 DUP1 REVERT JUMPDEST POP PUSH2 0x264 PUSH1 0x1 PUSH1 0xA0 PUSH1 0x2 EXP SUB PUSH1 0x4 CALLDATALOAD AND PUSH2 0x674 JUMP JUMPDEST PUSH1 0x2 DUP1 SLOAD PUSH1 0x40 DUP1 MLOAD PUSH1 0x20 PUSH1 0x1F PUSH1 0x0 NOT PUSH2 0x100 PUSH1 0x1 DUP8 AND ISZERO MUL ADD SWAP1 SWAP5 AND DUP6 SWAP1 DIV SWAP4 DUP5 ADD DUP2 SWAP1 DIV DUP2 MUL DUP3 ADD DUP2 ADD SWAP1 SWAP3 MSTORE DUP3 DUP2 MSTORE PUSH1 0x60 SWAP4 SWAP1 SWAP3 SWAP1 SWAP2 DUP4 ADD DUP3 DUP3 DUP1 ISZERO PUSH2 0x422 JUMPI DUP1 PUSH1 0x1F LT PUSH2 0x3F7 JUMPI PUSH2 0x100 DUP1 DUP4 SLOAD DIV MUL DUP4 MSTORE SWAP2 PUSH1 0x20 ADD SWAP2 PUSH2 0x422 JUMP JUMPDEST DUP3 ADD SWAP2 SWAP1 PUSH1 0x0 MSTORE PUSH1 0x20 PUSH1 0x0 KECCAK256 SWAP1 JUMPDEST DUP2 SLOAD DUP2 MSTORE SWAP1 PUSH1 0x1 ADD SWAP1 PUSH1 0x20 ADD DUP1 DUP4 GT PUSH2 0x405 JUMPI DUP3 SWAP1 SUB PUSH1 0x1F AND DUP3 ADD SWAP2 JUMPDEST POP POP POP POP POP SWAP1 POP SWAP1 JUMP JUMPDEST PUSH1 0x0 PUSH2 0x439 CALLER DUP5 DUP5 PUSH2 0x759 JUMP JUMPDEST POP PUSH1 0x1 SWAP3 SWAP2 POP POP JUMP JUMPDEST PUSH1 0x5 SLOAD SWAP1 JUMP JUMPDEST PUSH1 0x0 PUSH2 0x455 DUP5 DUP5 DUP5 PUSH2 0x8C6 JUMP JUMPDEST PUSH1 0x1 PUSH1 0xA0 PUSH1 0x2 EXP SUB DUP5 AND PUSH1 0x0 SWAP1 DUP2 MSTORE PUSH1 0x1 PUSH1 0x20 SWAP1 DUP2 MSTORE PUSH1 0x40 DUP1 DUP4 KECCAK256 CALLER DUP1 DUP6 MSTORE SWAP3 MSTORE SWAP1 SWAP2 KECCAK256 SLOAD PUSH2 0x495 SWAP2 DUP7 SWAP2 PUSH2 0x490 SWAP1 DUP7 PUSH4 0xFFFFFFFF PUSH2 0xA8A AND JUMP JUMPDEST PUSH2 0x759 JUMP JUMPDEST POP PUSH1 0x1 SWAP4 SWAP3 POP POP POP JUMP JUMPDEST PUSH1 0x4 SLOAD PUSH1 0xFF AND SWAP1 JUMP JUMPDEST CALLER PUSH1 0x0 DUP2 DUP2 MSTORE PUSH1 0x1 PUSH1 0x20 SWAP1 DUP2 MSTORE PUSH1 0x40 DUP1 DUP4 KECCAK256 PUSH1 0x1 PUSH1 0xA0 PUSH1 0x2 EXP SUB DUP8 AND DUP5 MSTORE SWAP1 SWAP2 MSTORE DUP2 KECCAK256 SLOAD SWAP1 SWAP2 PUSH2 0x439 SWAP2 DUP6 SWAP1 PUSH2 0x490 SWAP1 DUP7 PUSH4 0xFFFFFFFF PUSH2 0xAEC AND JUMP JUMPDEST PUSH2 0x4EE CALLER DUP3 PUSH2 0xB50 JUMP JUMPDEST POP JUMP JUMPDEST PUSH1 0x1 PUSH1 0xA0 PUSH1 0x2 EXP SUB AND PUSH1 0x0 SWAP1 DUP2 MSTORE PUSH1 0x20 DUP2 SWAP1 MSTORE PUSH1 0x40 SWAP1 KECCAK256 SLOAD SWAP1 JUMP JUMPDEST PUSH2 0x516 DUP3 DUP3 PUSH2 0xC6A JUMP JUMPDEST POP POP JUMP JUMPDEST PUSH1 0x4 SLOAD PUSH2 0x100 SWAP1 DIV PUSH1 0x1 PUSH1 0xA0 PUSH1 0x2 EXP SUB AND DUP2 JUMP JUMPDEST PUSH1 0x3 DUP1 SLOAD PUSH1 0x40 DUP1 MLOAD PUSH1 0x20 PUSH1 0x1F PUSH1 0x2 PUSH1 0x0 NOT PUSH2 0x100 PUSH1 0x1 DUP9 AND ISZERO MUL ADD SWAP1 SWAP6 AND SWAP5 SWAP1 SWAP5 DIV SWAP4 DUP5 ADD DUP2 SWAP1 DIV DUP2 MUL DUP3 ADD DUP2 ADD SWAP1 SWAP3 MSTORE DUP3 DUP2 MSTORE PUSH1 0x60 SWAP4 SWAP1 SWAP3 SWAP1 SWAP2 DUP4 ADD DUP3 DUP3 DUP1 ISZERO PUSH2 0x422 JUMPI DUP1 PUSH1 0x1F LT PUSH2 0x3F7 JUMPI PUSH2 0x100 DUP1 DUP4 SLOAD DIV MUL DUP4 MSTORE SWAP2 PUSH1 0x20 ADD SWAP2 PUSH2 0x422 JUMP JUMPDEST PUSH1 0x4 SLOAD PUSH2 0x100 SWAP1 DIV PUSH1 0x1 PUSH1 0xA0 PUSH1 0x2 EXP SUB AND CALLER EQ PUSH2 0x5F6 JUMPI PUSH1 0x40 DUP1 MLOAD PUSH1 0xE5 PUSH1 0x2 EXP PUSH3 0x461BCD MUL DUP2 MSTORE PUSH1 0x20 PUSH1 0x4 DUP3 ADD MSTORE PUSH1 0x17 PUSH1 0x24 DUP3 ADD MSTORE PUSH32 0x53656E646572206973206E6F7420746865206F776E6572000000000000000000 PUSH1 0x44 DUP3 ADD MSTORE SWAP1 MLOAD SWAP1 DUP2 SWAP1 SUB PUSH1 0x64 ADD SWAP1 REVERT JUMPDEST PUSH2 0x4EE CALLER DUP3 PUSH2 0xCAF JUMP JUMPDEST CALLER PUSH1 0x0 DUP2 DUP2 MSTORE PUSH1 0x1 PUSH1 0x20 SWAP1 DUP2 MSTORE PUSH1 0x40 DUP1 DUP4 KECCAK256 PUSH1 0x1 PUSH1 0xA0 PUSH1 0x2 EXP SUB DUP8 AND DUP5 MSTORE SWAP1 SWAP2 MSTORE DUP2 KECCAK256 SLOAD SWAP1 SWAP2 PUSH2 0x439 SWAP2 DUP6 SWAP1 PUSH2 0x490 SWAP1 DUP7 PUSH4 0xFFFFFFFF PUSH2 0xA8A AND JUMP JUMPDEST PUSH1 0x0 PUSH2 0x439 CALLER DUP5 DUP5 PUSH2 0x8C6 JUMP JUMPDEST PUSH1 0x1 PUSH1 0xA0 PUSH1 0x2 EXP SUB SWAP2 DUP3 AND PUSH1 0x0 SWAP1 DUP2 MSTORE PUSH1 0x1 PUSH1 0x20 SWAP1 DUP2 MSTORE PUSH1 0x40 DUP1 DUP4 KECCAK256 SWAP4 SWAP1 SWAP5 AND DUP3 MSTORE SWAP2 SWAP1 SWAP2 MSTORE KECCAK256 SLOAD SWAP1 JUMP JUMPDEST PUSH1 0x4 SLOAD PUSH2 0x100 SWAP1 DIV PUSH1 0x1 PUSH1 0xA0 PUSH1 0x2 EXP SUB AND CALLER EQ PUSH2 0x6DB JUMPI PUSH1 0x40 DUP1 MLOAD PUSH1 0xE5 PUSH1 0x2 EXP PUSH3 0x461BCD MUL DUP2 MSTORE PUSH1 0x20 PUSH1 0x4 DUP3 ADD MSTORE PUSH1 0x17 PUSH1 0x24 DUP3 ADD MSTORE PUSH32 0x53656E646572206973206E6F7420746865206F776E6572000000000000000000 PUSH1 0x44 DUP3 ADD MSTORE SWAP1 MLOAD SWAP1 DUP2 SWAP1 SUB PUSH1 0x64 ADD SWAP1 REVERT JUMPDEST PUSH1 0x1 PUSH1 0xA0 PUSH1 0x2 EXP SUB DUP2 AND ISZERO ISZERO PUSH2 0x6F0 JUMPI PUSH1 0x0 DUP1 REVERT JUMPDEST PUSH1 0x4 DUP1 SLOAD PUSH21 0xFFFFFFFFFFFFFFFFFFFFFFFFFFFFFFFFFFFFFFFF00 NOT AND PUSH2 0x100 PUSH1 0x1 PUSH1 0xA0 PUSH1 0x2 EXP SUB DUP5 DUP2 AND DUP3 DUP2 MUL SWAP4 SWAP1 SWAP4 OR SWAP4 DUP5 SWAP1 SSTORE PUSH1 0x40 MLOAD SWAP3 SWAP4 SWAP2 SWAP1 SWAP2 DIV AND SWAP1 PUSH32 0x5C486528EC3E3F0EA91181CFF8116F02BFA350E03B8B6F12E00765ADBB5AF85C SWAP1 PUSH1 0x0 SWAP1 LOG3 POP JUMP JUMPDEST PUSH1 0x1 PUSH1 0xA0 PUSH1 0x2 EXP SUB DUP4 AND ISZERO ISZERO PUSH2 0x7DE JUMPI PUSH1 0x40 DUP1 MLOAD PUSH1 0xE5 PUSH1 0x2 EXP PUSH3 0x461BCD MUL DUP2 MSTORE PUSH1 0x20 PUSH1 0x4 DUP3 ADD MSTORE PUSH1 0x24 DUP1 DUP3 ADD MSTORE PUSH32 0x5A524332303A20617070726F76652066726F6D20746865207A65726F20616464 PUSH1 0x44 DUP3 ADD MSTORE PUSH32 0x7265737300000000000000000000000000000000000000000000000000000000 PUSH1 0x64 DUP3 ADD MSTORE SWAP1 MLOAD SWAP1 DUP2 SWAP1 SUB PUSH1 0x84 ADD SWAP1 REVERT JUMPDEST PUSH1 0x1 PUSH1 0xA0 PUSH1 0x2 EXP SUB DUP3 AND ISZERO ISZERO PUSH2 0x864 JUMPI PUSH1 0x40 DUP1 MLOAD PUSH1 0xE5 PUSH1 0x2 EXP PUSH3 0x461BCD MUL DUP2 MSTORE PUSH1 0x20 PUSH1 0x4 DUP3 ADD MSTORE PUSH1 0x22 PUSH1 0x24 DUP3 ADD MSTORE PUSH32 0x5A524332303A20617070726F766520746F20746865207A65726F206164647265 PUSH1 0x44 DUP3 ADD MSTORE PUSH32 0x7373000000000000000000000000000000000000000000000000000000000000 PUSH1 0x64 DUP3 ADD MSTORE SWAP1 MLOAD SWAP1 DUP2 SWAP1 SUB PUSH1 0x84 ADD SWAP1 REVERT JUMPDEST PUSH1 0x1 PUSH1 0xA0 PUSH1 0x2 EXP SUB DUP1 DUP5 AND PUSH1 0x0 DUP2 DUP2 MSTORE PUSH1 0x1 PUSH1 0x20 SWAP1 DUP2 MSTORE PUSH1 0x40 DUP1 DUP4 KECCAK256 SWAP5 DUP8 AND DUP1 DUP5 MSTORE SWAP5 DUP3 MSTORE SWAP2 DUP3 SWAP1 KECCAK256 DUP6 SWAP1 SSTORE DUP2 MLOAD DUP6 DUP2 MSTORE SWAP2 MLOAD PUSH32 0x8C5BE1E5EBEC7D5BD14F71427D1E84F3DD0314C0F7B2291E5B200AC8C7C3B925 SWAP3 DUP2 SWAP1 SUB SWAP1 SWAP2 ADD SWAP1 LOG3 POP POP POP JUMP JUMPDEST PUSH1 0x1 PUSH1 0xA0 PUSH1 0x2 EXP SUB DUP4 AND ISZERO ISZERO PUSH2 0x94C JUMPI PUSH1 0x40 DUP1 MLOAD PUSH1 0xE5 PUSH1 0x2 EXP PUSH3 0x461BCD MUL DUP2 MSTORE PUSH1 0x20 PUSH1 0x4 DUP3 ADD MSTORE PUSH1 0x25 PUSH1 0x24 DUP3 ADD MSTORE PUSH32 0x5A524332303A207472616E736665722066726F6D20746865207A65726F206164 PUSH1 0x44 DUP3 ADD MSTORE PUSH32 0x6472657373000000000000000000000000000000000000000000000000000000 PUSH1 0x64 DUP3 ADD MSTORE SWAP1 MLOAD SWAP1 DUP2 SWAP1 SUB PUSH1 0x84 ADD SWAP1 REVERT JUMPDEST PUSH1 0x1 PUSH1 0xA0 PUSH1 0x2 EXP SUB DUP3 AND ISZERO ISZERO PUSH2 0x9D2 JUMPI PUSH1 0x40 DUP1 MLOAD PUSH1 0xE5 PUSH1 0x2 EXP PUSH3 0x461BCD MUL DUP2 MSTORE PUSH1 0x20 PUSH1 0x4 DUP3 ADD MSTORE PUSH1 0x23 PUSH1 0x24 DUP3 ADD MSTORE PUSH32 0x5A524332303A207472616E7366657220746F20746865207A65726F2061646472 PUSH1 0x44 DUP3 ADD MSTORE PUSH32 0x6573730000000000000000000000000000000000000000000000000000000000 PUSH1 0x64 DUP3 ADD MSTORE SWAP1 MLOAD SWAP1 DUP2 SWAP1 SUB PUSH1 0x84 ADD SWAP1 REVERT JUMPDEST PUSH1 0x1 PUSH1 0xA0 PUSH1 0x2 EXP SUB DUP4 AND PUSH1 0x0 SWAP1 DUP2 MSTORE PUSH1 0x20 DUP2 SWAP1 MSTORE PUSH1 0x40 SWAP1 KECCAK256 SLOAD PUSH2 0x9FB SWAP1 DUP3 PUSH4 0xFFFFFFFF PUSH2 0xA8A AND JUMP JUMPDEST PUSH1 0x1 PUSH1 0xA0 PUSH1 0x2 EXP SUB DUP1 DUP6 AND PUSH1 0x0 SWAP1 DUP2 MSTORE PUSH1 0x20 DUP2 SWAP1 MSTORE PUSH1 0x40 DUP1 DUP3 KECCAK256 SWAP4 SWAP1 SWAP4 SSTORE SWAP1 DUP5 AND DUP2 MSTORE KECCAK256 SLOAD PUSH2 0xA30 SWAP1 DUP3 PUSH4 0xFFFFFFFF PUSH2 0xAEC AND JUMP JUMPDEST PUSH1 0x1 PUSH1 0xA0 PUSH1 0x2 EXP SUB DUP1 DUP5 AND PUSH1 0x0 DUP2 DUP2 MSTORE PUSH1 0x20 DUP2 DUP2 MSTORE PUSH1 0x40 SWAP2 DUP3 SWAP1 KECCAK256 SWAP5 SWAP1 SWAP5 SSTORE DUP1 MLOAD DUP6 DUP2 MSTORE SWAP1 MLOAD SWAP2 SWAP4 SWAP3 DUP8 AND SWAP3 PUSH32 0xDDF252AD1BE2C89B69C2B068FC378DAA952BA7F163C4A11628F55A4DF523B3EF SWAP3 SWAP2 DUP3 SWAP1 SUB ADD SWAP1 LOG3 POP POP POP JUMP JUMPDEST PUSH1 0x0 DUP1 DUP4 DUP4 GT ISZERO PUSH2 0xAE5 JUMPI PUSH1 0x40 DUP1 MLOAD PUSH1 0xE5 PUSH1 0x2 EXP PUSH3 0x461BCD MUL DUP2 MSTORE PUSH1 0x20 PUSH1 0x4 DUP3 ADD MSTORE PUSH1 0x1E PUSH1 0x24 DUP3 ADD MSTORE PUSH32 0x536166654D6174683A207375627472616374696F6E206F766572666C6F770000 PUSH1 0x44 DUP3 ADD MSTORE SWAP1 MLOAD SWAP1 DUP2 SWAP1 SUB PUSH1 0x64 ADD SWAP1 REVERT JUMPDEST POP POP SWAP1 SUB SWAP1 JUMP JUMPDEST PUSH1 0x0 DUP3 DUP3 ADD DUP4 DUP2 LT ISZERO PUSH2 0xB49 JUMPI PUSH1 0x40 DUP1 MLOAD PUSH1 0xE5 PUSH1 0x2 EXP PUSH3 0x461BCD MUL DUP2 MSTORE PUSH1 0x20 PUSH1 0x4 DUP3 ADD MSTORE PUSH1 0x1B PUSH1 0x24 DUP3 ADD MSTORE PUSH32 0x536166654D6174683A206164646974696F6E206F766572666C6F770000000000 PUSH1 0x44 DUP3 ADD MSTORE SWAP1 MLOAD SWAP1 DUP2 SWAP1 SUB PUSH1 0x64 ADD SWAP1 REVERT JUMPDEST SWAP4 SWAP3 POP POP POP JUMP JUMPDEST PUSH1 0x1 PUSH1 0xA0 PUSH1 0x2 EXP SUB DUP3 AND ISZERO ISZERO PUSH2 0xBD6 JUMPI PUSH1 0x40 DUP1 MLOAD PUSH1 0xE5 PUSH1 0x2 EXP PUSH3 0x461BCD MUL DUP2 MSTORE PUSH1 0x20 PUSH1 0x4 DUP3 ADD MSTORE PUSH1 0x21 PUSH1 0x24 DUP3 ADD MSTORE PUSH32 0x5A524332303A206275726E2066726F6D20746865207A65726F20616464726573 PUSH1 0x44 DUP3 ADD MSTORE PUSH32 0x7300000000000000000000000000000000000000000000000000000000000000 PUSH1 0x64 DUP3 ADD MSTORE SWAP1 MLOAD SWAP1 DUP2 SWAP1 SUB PUSH1 0x84 ADD SWAP1 REVERT JUMPDEST PUSH1 0x5 SLOAD PUSH2 0xBE9 SWAP1 DUP3 PUSH4 0xFFFFFFFF PUSH2 0xA8A AND JUMP JUMPDEST PUSH1 0x5 SSTORE PUSH1 0x1 PUSH1 0xA0 PUSH1 0x2 EXP SUB DUP3 AND PUSH1 0x0 SWAP1 DUP2 MSTORE PUSH1 0x20 DUP2 SWAP1 MSTORE PUSH1 0x40 SWAP1 KECCAK256 SLOAD PUSH2 0xC15 SWAP1 DUP3 PUSH4 0xFFFFFFFF PUSH2 0xA8A AND JUMP JUMPDEST PUSH1 0x1 PUSH1 0xA0 PUSH1 0x2 EXP SUB DUP4 AND PUSH1 0x0 DUP2 DUP2 MSTORE PUSH1 0x20 DUP2 DUP2 MSTORE PUSH1 0x40 DUP1 DUP4 KECCAK256 SWAP5 SWAP1 SWAP5 SSTORE DUP4 MLOAD DUP6 DUP2 MSTORE SWAP4 MLOAD SWAP2 SWAP4 PUSH32 0xDDF252AD1BE2C89B69C2B068FC378DAA952BA7F163C4A11628F55A4DF523B3EF SWAP3 SWAP1 DUP2 SWAP1 SUB SWAP1 SWAP2 ADD SWAP1 LOG3 POP POP JUMP JUMPDEST PUSH2 0xC74 DUP3 DUP3 PUSH2 0xB50 JUMP JUMPDEST PUSH1 0x1 PUSH1 0xA0 PUSH1 0x2 EXP SUB DUP3 AND PUSH1 0x0 SWAP1 DUP2 MSTORE PUSH1 0x1 PUSH1 0x20 SWAP1 DUP2 MSTORE PUSH1 0x40 DUP1 DUP4 KECCAK256 CALLER DUP1 DUP6 MSTORE SWAP3 MSTORE SWAP1 SWAP2 KECCAK256 SLOAD PUSH2 0x516 SWAP2 DUP5 SWAP2 PUSH2 0x490 SWAP1 DUP6 PUSH4 0xFFFFFFFF PUSH2 0xA8A AND JUMP JUMPDEST PUSH1 0x1 PUSH1 0xA0 PUSH1 0x2 EXP SUB DUP3 AND ISZERO ISZERO PUSH2 0xD0F JUMPI PUSH1 0x40 DUP1 MLOAD PUSH1 0xE5 PUSH1 0x2 EXP PUSH3 0x461BCD MUL DUP2 MSTORE PUSH1 0x20 PUSH1 0x4 DUP3 ADD MSTORE PUSH1 0x1F PUSH1 0x24 DUP3 ADD MSTORE PUSH32 0x5A524332303A206D696E7420746F20746865207A65726F206164647265737300 PUSH1 0x44 DUP3 ADD MSTORE SWAP1 MLOAD SWAP1 DUP2 SWAP1 SUB PUSH1 0x64 ADD SWAP1 REVERT JUMPDEST PUSH1 0x5 SLOAD PUSH2 0xD22 SWAP1 DUP3 PUSH4 0xFFFFFFFF PUSH2 0xAEC AND JUMP JUMPDEST PUSH1 0x5 SSTORE PUSH1 0x1 PUSH1 0xA0 PUSH1 0x2 EXP SUB DUP3 AND PUSH1 0x0 SWAP1 DUP2 MSTORE PUSH1 0x20 DUP2 SWAP1 MSTORE PUSH1 0x40 SWAP1 KECCAK256 SLOAD PUSH2 0xD4E SWAP1 DUP3 PUSH4 0xFFFFFFFF PUSH2 0xAEC AND JUMP JUMPDEST PUSH1 0x1 PUSH1 0xA0 PUSH1 0x2 EXP SUB DUP4 AND PUSH1 0x0 DUP2 DUP2 MSTORE PUSH1 0x20 DUP2 DUP2 MSTORE PUSH1 0x40 DUP1 DUP4 KECCAK256 SWAP5 SWAP1 SWAP5 SSTORE DUP4 MLOAD DUP6 DUP2 MSTORE SWAP4 MLOAD SWAP3 SWAP4 SWAP2 SWAP3 PUSH32 0xDDF252AD1BE2C89B69C2B068FC378DAA952BA7F163C4A11628F55A4DF523B3EF SWAP3 DUP2 SWAP1 SUB SWAP1 SWAP2 ADD SWAP1 LOG3 POP POP JUMP STOP LOG1 PUSH6 0x627A7A723058 KECCAK256 0xe2 SWAP5 0x1f SWAP9 0x25 0xcb CALLVALUE LOG1 SWAP8 PUSH4 0x5989040E 0x46 SLOAD PUSH15 0xFFEB1BC8338B986E6D99A1A1EED85C STOP 0x29 "
				},
				"gasEstimates": {
					"creation": {
						"codeDepositCost": "707200",
						"executionCost": "infinite",
						"totalCost": "infinite"
					},
					"external": {
						"allowance(address,address)": "1016",
						"approve(address,uint256)": "22592",
						"balanceOf(address)": "763",
						"burn(uint256)": "infinite",
						"burnFrom(address,uint256)": "infinite",
						"decimals()": "487",
						"decreaseAllowance(address,uint256)": "infinite",
						"increaseAllowance(address,uint256)": "infinite",
						"mint(uint256)": "infinite",
						"name()": "infinite",
						"owner()": "746",
						"symbol()": "infinite",
						"totalSupply()": "428",
						"transfer(address,uint256)": "infinite",
						"transferFrom(address,address,uint256)": "infinite",
						"transferOwnership(address)": "22824"
					},
					"internal": {
						"_approve(address,address,uint256)": "infinite",
						"_burn(address,uint256)": "infinite",
						"_burnFrom(address,uint256)": "infinite",
						"_mint(address,uint256)": "infinite",
						"_transfer(address,address,uint256)": "infinite"
					}
				},
				"methodIdentifiers": {
					"allowance(address,address)": "dd62ed3e",
					"approve(address,uint256)": "095ea7b3",
					"balanceOf(address)": "70a08231",
					"burn(uint256)": "42966c68",
					"burnFrom(address,uint256)": "79cc6790",
					"decimals()": "313ce567",
					"decreaseAllowance(address,uint256)": "a457c2d7",
					"increaseAllowance(address,uint256)": "39509351",
					"mint(uint256)": "a0712d68",
					"name()": "06fdde03",
					"owner()": "8da5cb5b",
					"symbol()": "95d89b41",
					"totalSupply()": "18160ddd",
					"transfer(address,uint256)": "a9059cbb",
					"transferFrom(address,address,uint256)": "23b872dd",
					"transferOwnership(address)": "f2fde38b"
				}
			},
			"userdoc": {
				"methods": {}
			}
		}
	}
}