{
	"contracts/02_BankContract.sol": {
		"Bank": {
			"abi": [
				{
					"constant": false,
					"inputs": [
						{
							"name": "amount",
							"type": "uint256"
						}
					],
					"name": "checkValue",
					"outputs": [
						{
							"name": "",
							"type": "bool"
						}
					],
					"payable": false,
					"stateMutability": "nonpayable",
					"type": "function"
				},
				{
					"constant": false,
					"inputs": [],
					"name": "balance",
					"outputs": [
						{
							"name": "",
							"type": "uint256"
						}
					],
					"payable": false,
					"stateMutability": "nonpayable",
					"type": "function"
				},
				{
					"constant": false,
					"inputs": [
						{
							"name": "amount",
							"type": "uint256"
						}
					],
					"name": "deposit",
					"outputs": [],
					"payable": false,
					"stateMutability": "nonpayable",
					"type": "function"
				},
				{
					"constant": false,
					"inputs": [],
					"name": "loan",
					"outputs": [
						{
							"name": "",
							"type": "bool"
						}
					],
					"payable": false,
					"stateMutability": "nonpayable",
					"type": "function"
				},
				{
					"constant": false,
					"inputs": [
						{
							"name": "amount",
							"type": "uint256"
						}
					],
					"name": "withdrawl",
					"outputs": [],
					"payable": false,
					"stateMutability": "nonpayable",
					"type": "function"
				},
				{
					"inputs": [
						{
							"name": "amount",
							"type": "uint256"
						}
					],
					"payable": false,
					"stateMutability": "nonpayable",
					"type": "constructor"
				}
			],
			"devdoc": {
				"methods": {}
			},
			"evm": {
				"assembly": "    /* \"contracts/02_BankContract.sol\":140:622  contract Bank is Regulator{... */\n  mstore(0x40, 0x80)\n    /* \"contracts/02_BankContract.sol\":198:261  constructor  (uint amount) public {... */\n  callvalue\n    /* \"--CODEGEN--\":8:17   */\n  dup1\n    /* \"--CODEGEN--\":5:7   */\n  iszero\n  tag_1\n  jumpi\n    /* \"--CODEGEN--\":30:31   */\n  0x0\n    /* \"--CODEGEN--\":27:28   */\n  dup1\n    /* \"--CODEGEN--\":20:32   */\n  revert\n    /* \"--CODEGEN--\":5:7   */\ntag_1:\n    /* \"contracts/02_BankContract.sol\":198:261  constructor  (uint amount) public {... */\n  pop\n  mload(0x40)\n  0x20\n  dup1\n  bytecodeSize\n  dup4\n  codecopy\n  dup2\n  add\n  dup1\n  0x40\n  mstore\n  dup2\n  add\n  swap1\n  dup1\n  dup1\n  mload\n  swap1\n  0x20\n  add\n  swap1\n  swap3\n  swap2\n  swap1\n  pop\n  pop\n  pop\n    /* \"contracts/02_BankContract.sol\":248:254  amount */\n  dup1\n    /* \"contracts/02_BankContract.sol\":242:247  value */\n  0x0\n    /* \"contracts/02_BankContract.sol\":242:254  value=amount */\n  dup2\n  swap1\n  sstore\n  pop\n    /* \"contracts/02_BankContract.sol\":198:261  constructor  (uint amount) public {... */\n  pop\n    /* \"contracts/02_BankContract.sol\":140:622  contract Bank is Regulator{... */\n  dataSize(sub_0)\n  dup1\n  dataOffset(sub_0)\n  0x0\n  codecopy\n  0x0\n  return\nstop\n\nsub_0: assembly {\n        /* \"contracts/02_BankContract.sol\":140:622  contract Bank is Regulator{... */\n      mstore(0x40, 0x80)\n      jumpi(tag_1, lt(calldatasize, 0x4))\n      calldataload(0x0)\n      0x100000000000000000000000000000000000000000000000000000000\n      swap1\n      div\n      0xffffffff\n      and\n      dup1\n      0x18db62fb\n      eq\n      tag_2\n      jumpi\n      dup1\n      0xb69ef8a8\n      eq\n      tag_3\n      jumpi\n      dup1\n      0xb6b55f25\n      eq\n      tag_4\n      jumpi\n      dup1\n      0xd285b7b4\n      eq\n      tag_5\n      jumpi\n      dup1\n      0xe4480dd8\n      eq\n      tag_6\n      jumpi\n    tag_1:\n      0x0\n      dup1\n      revert\n        /* \"contracts/02_BankContract.sol\":467:551  function checkValue(uint amount) returns (bool){... */\n    tag_2:\n      callvalue\n        /* \"--CODEGEN--\":8:17   */\n      dup1\n        /* \"--CODEGEN--\":5:7   */\n      iszero\n      tag_7\n      jumpi\n        /* \"--CODEGEN--\":30:31   */\n      0x0\n        /* \"--CODEGEN--\":27:28   */\n      dup1\n        /* \"--CODEGEN--\":20:32   */\n      revert\n        /* \"--CODEGEN--\":5:7   */\n    tag_7:\n        /* \"contracts/02_BankContract.sol\":467:551  function checkValue(uint amount) returns (bool){... */\n      pop\n      tag_8\n      0x4\n      dup1\n      calldatasize\n      sub\n      dup2\n      add\n      swap1\n      dup1\n      dup1\n      calldataload\n      swap1\n      0x20\n      add\n      swap1\n      swap3\n      swap2\n      swap1\n      pop\n      pop\n      pop\n      jump(tag_9)\n    tag_8:\n      mload(0x40)\n      dup1\n      dup3\n      iszero\n      iszero\n      iszero\n      iszero\n      dup2\n      mstore\n      0x20\n      add\n      swap2\n      pop\n      pop\n      mload(0x40)\n      dup1\n      swap2\n      sub\n      swap1\n      return\n        /* \"contracts/02_BankContract.sol\":399:461  function balance() returns (uint){... */\n    tag_3:\n      callvalue\n        /* \"--CODEGEN--\":8:17   */\n      dup1\n        /* \"--CODEGEN--\":5:7   */\n      iszero\n      tag_10\n      jumpi\n        /* \"--CODEGEN--\":30:31   */\n      0x0\n        /* \"--CODEGEN--\":27:28   */\n      dup1\n        /* \"--CODEGEN--\":20:32   */\n      revert\n        /* \"--CODEGEN--\":5:7   */\n    tag_10:\n        /* \"contracts/02_BankContract.sol\":399:461  function balance() returns (uint){... */\n      pop\n      tag_11\n      jump(tag_12)\n    tag_11:\n      mload(0x40)\n      dup1\n      dup3\n      dup2\n      mstore\n      0x20\n      add\n      swap2\n      pop\n      pop\n      mload(0x40)\n      dup1\n      swap2\n      sub\n      swap1\n      return\n        /* \"contracts/02_BankContract.sol\":267:326  function deposit(uint amount){... */\n    tag_4:\n      callvalue\n        /* \"--CODEGEN--\":8:17   */\n      dup1\n        /* \"--CODEGEN--\":5:7   */\n      iszero\n      tag_13\n      jumpi\n        /* \"--CODEGEN--\":30:31   */\n      0x0\n        /* \"--CODEGEN--\":27:28   */\n      dup1\n        /* \"--CODEGEN--\":20:32   */\n      revert\n        /* \"--CODEGEN--\":5:7   */\n    tag_13:\n        /* \"contracts/02_BankContract.sol\":267:326  function deposit(uint amount){... */\n      pop\n      tag_14\n      0x4\n      dup1\n      calldatasize\n      sub\n      dup2\n      add\n      swap1\n      dup1\n      dup1\n      calldataload\n      swap1\n      0x20\n      add\n      swap1\n      swap3\n      swap2\n      swap1\n      pop\n      pop\n      pop\n      jump(tag_15)\n    tag_14:\n      stop\n        /* \"contracts/02_BankContract.sol\":557:618  function loan() returns (bool){... */\n    tag_5:\n      callvalue\n        /* \"--CODEGEN--\":8:17   */\n      dup1\n        /* \"--CODEGEN--\":5:7   */\n      iszero\n      tag_16\n      jumpi\n        /* \"--CODEGEN--\":30:31   */\n      0x0\n        /* \"--CODEGEN--\":27:28   */\n      dup1\n        /* \"--CODEGEN--\":20:32   */\n      revert\n        /* \"--CODEGEN--\":5:7   */\n    tag_16:\n        /* \"contracts/02_BankContract.sol\":557:618  function loan() returns (bool){... */\n      pop\n      tag_17\n      jump(tag_18)\n    tag_17:\n      mload(0x40)\n      dup1\n      dup3\n      iszero\n      iszero\n      iszero\n      iszero\n      dup2\n      mstore\n      0x20\n      add\n      swap2\n      pop\n      pop\n      mload(0x40)\n      dup1\n      swap2\n      sub\n      swap1\n      return\n        /* \"contracts/02_BankContract.sol\":332:393  function withdrawl(uint amount){... */\n    tag_6:\n      callvalue\n        /* \"--CODEGEN--\":8:17   */\n      dup1\n        /* \"--CODEGEN--\":5:7   */\n      iszero\n      tag_19\n      jumpi\n        /* \"--CODEGEN--\":30:31   */\n      0x0\n        /* \"--CODEGEN--\":27:28   */\n      dup1\n        /* \"--CODEGEN--\":20:32   */\n      revert\n        /* \"--CODEGEN--\":5:7   */\n    tag_19:\n        /* \"contracts/02_BankContract.sol\":332:393  function withdrawl(uint amount){... */\n      pop\n      tag_20\n      0x4\n      dup1\n      calldatasize\n      sub\n      dup2\n      add\n      swap1\n      dup1\n      dup1\n      calldataload\n      swap1\n      0x20\n      add\n      swap1\n      swap3\n      swap2\n      swap1\n      pop\n      pop\n      pop\n      jump(tag_21)\n    tag_20:\n      stop\n        /* \"contracts/02_BankContract.sol\":467:551  function checkValue(uint amount) returns (bool){... */\n    tag_9:\n        /* \"contracts/02_BankContract.sol\":509:513  bool */\n      0x0\n        /* \"contracts/02_BankContract.sol\":538:544  amount */\n      dup2\n        /* \"contracts/02_BankContract.sol\":531:536  value */\n      sload(0x0)\n        /* \"contracts/02_BankContract.sol\":531:544  value>=amount */\n      lt\n      iszero\n        /* \"contracts/02_BankContract.sol\":524:544  return value>=amount */\n      swap1\n      pop\n        /* \"contracts/02_BankContract.sol\":467:551  function checkValue(uint amount) returns (bool){... */\n      swap2\n      swap1\n      pop\n      jump\t// out\n        /* \"contracts/02_BankContract.sol\":399:461  function balance() returns (uint){... */\n    tag_12:\n        /* \"contracts/02_BankContract.sol\":427:431  uint */\n      0x0\n        /* \"contracts/02_BankContract.sol\":449:454  value */\n      dup1\n      sload\n        /* \"contracts/02_BankContract.sol\":442:454  return value */\n      swap1\n      pop\n        /* \"contracts/02_BankContract.sol\":399:461  function balance() returns (uint){... */\n      swap1\n      jump\t// out\n        /* \"contracts/02_BankContract.sol\":267:326  function deposit(uint amount){... */\n    tag_15:\n        /* \"contracts/02_BankContract.sol\":313:319  amount */\n      dup1\n        /* \"contracts/02_BankContract.sol\":306:311  value */\n      0x0\n      dup1\n        /* \"contracts/02_BankContract.sol\":306:319  value+=amount */\n      dup3\n      dup3\n      sload\n      add\n      swap3\n      pop\n      pop\n      dup2\n      swap1\n      sstore\n      pop\n        /* \"contracts/02_BankContract.sol\":267:326  function deposit(uint amount){... */\n      pop\n      jump\t// out\n        /* \"contracts/02_BankContract.sol\":557:618  function loan() returns (bool){... */\n    tag_18:\n        /* \"contracts/02_BankContract.sol\":582:586  bool */\n      0x0\n        /* \"contracts/02_BankContract.sol\":610:611  0 */\n      dup1\n        /* \"contracts/02_BankContract.sol\":604:609  value */\n      sload(0x0)\n        /* \"contracts/02_BankContract.sol\":604:611  value>0 */\n      gt\n        /* \"contracts/02_BankContract.sol\":597:611  return value>0 */\n      swap1\n      pop\n        /* \"contracts/02_BankContract.sol\":557:618  function loan() returns (bool){... */\n      swap1\n      jump\t// out\n        /* \"contracts/02_BankContract.sol\":332:393  function withdrawl(uint amount){... */\n    tag_21:\n        /* \"contracts/02_BankContract.sol\":380:386  amount */\n      dup1\n        /* \"contracts/02_BankContract.sol\":373:378  value */\n      0x0\n      dup1\n        /* \"contracts/02_BankContract.sol\":373:386  value-=amount */\n      dup3\n      dup3\n      sload\n      sub\n      swap3\n      pop\n      pop\n      dup2\n      swap1\n      sstore\n      pop\n        /* \"contracts/02_BankContract.sol\":332:393  function withdrawl(uint amount){... */\n      pop\n      jump\t// out\n\n    auxdata: 0xa165627a7a72305820596548fcb39f43921aeb23c8603dd80352dbdd80542886bc30297c548b7ff9fd0029\n}\n",
				"bytecode": {
					"linkReferences": {},
					"object": "608060405234801561001057600080fd5b506040516020806102298339810180604052810190808051906020019092919050505080600081905550506101df8061004a6000396000f30060806040526004361061006d576000357c0100000000000000000000000000000000000000000000000000000000900463ffffffff16806318db62fb14610072578063b69ef8a8146100b7578063b6b55f25146100e2578063d285b7b41461010f578063e4480dd81461013e575b600080fd5b34801561007e57600080fd5b5061009d6004803603810190808035906020019092919050505061016b565b604051808215151515815260200191505060405180910390f35b3480156100c357600080fd5b506100cc61017a565b6040518082815260200191505060405180910390f35b3480156100ee57600080fd5b5061010d60048036038101908080359060200190929190505050610183565b005b34801561011b57600080fd5b50610124610195565b604051808215151515815260200191505060405180910390f35b34801561014a57600080fd5b50610169600480360381019080803590602001909291905050506101a1565b005b60008160005410159050919050565b60008054905090565b80600080828254019250508190555050565b60008060005411905090565b806000808282540392505081905550505600a165627a7a72305820596548fcb39f43921aeb23c8603dd80352dbdd80542886bc30297c548b7ff9fd0029",
					"opcodes": "PUSH1 0x80 PUSH1 0x40 MSTORE CALLVALUE DUP1 ISZERO PUSH2 0x10 JUMPI PUSH1 0x0 DUP1 REVERT JUMPDEST POP PUSH1 0x40 MLOAD PUSH1 0x20 DUP1 PUSH2 0x229 DUP4 CODECOPY DUP2 ADD DUP1 PUSH1 0x40 MSTORE DUP2 ADD SWAP1 DUP1 DUP1 MLOAD SWAP1 PUSH1 0x20 ADD SWAP1 SWAP3 SWAP2 SWAP1 POP POP POP DUP1 PUSH1 0x0 DUP2 SWAP1 SSTORE POP POP PUSH2 0x1DF DUP1 PUSH2 0x4A PUSH1 0x0 CODECOPY PUSH1 0x0 RETURN STOP PUSH1 0x80 PUSH1 0x40 MSTORE PUSH1 0x4 CALLDATASIZE LT PUSH2 0x6D JUMPI PUSH1 0x0 CALLDATALOAD PUSH29 0x100000000000000000000000000000000000000000000000000000000 SWAP1 DIV PUSH4 0xFFFFFFFF AND DUP1 PUSH4 0x18DB62FB EQ PUSH2 0x72 JUMPI DUP1 PUSH4 0xB69EF8A8 EQ PUSH2 0xB7 JUMPI DUP1 PUSH4 0xB6B55F25 EQ PUSH2 0xE2 JUMPI DUP1 PUSH4 0xD285B7B4 EQ PUSH2 0x10F JUMPI DUP1 PUSH4 0xE4480DD8 EQ PUSH2 0x13E JUMPI JUMPDEST PUSH1 0x0 DUP1 REVERT JUMPDEST CALLVALUE DUP1 ISZERO PUSH2 0x7E JUMPI PUSH1 0x0 DUP1 REVERT JUMPDEST POP PUSH2 0x9D PUSH1 0x4 DUP1 CALLDATASIZE SUB DUP2 ADD SWAP1 DUP1 DUP1 CALLDATALOAD SWAP1 PUSH1 0x20 ADD SWAP1 SWAP3 SWAP2 SWAP1 POP POP POP PUSH2 0x16B JUMP JUMPDEST PUSH1 0x40 MLOAD DUP1 DUP3 ISZERO ISZERO ISZERO ISZERO DUP2 MSTORE PUSH1 0x20 ADD SWAP2 POP POP PUSH1 0x40 MLOAD DUP1 SWAP2 SUB SWAP1 RETURN JUMPDEST CALLVALUE DUP1 ISZERO PUSH2 0xC3 JUMPI PUSH1 0x0 DUP1 REVERT JUMPDEST POP PUSH2 0xCC PUSH2 0x17A JUMP JUMPDEST PUSH1 0x40 MLOAD DUP1 DUP3 DUP2 MSTORE PUSH1 0x20 ADD SWAP2 POP POP PUSH1 0x40 MLOAD DUP1 SWAP2 SUB SWAP1 RETURN JUMPDEST CALLVALUE DUP1 ISZERO PUSH2 0xEE JUMPI PUSH1 0x0 DUP1 REVERT JUMPDEST POP PUSH2 0x10D PUSH1 0x4 DUP1 CALLDATASIZE SUB DUP2 ADD SWAP1 DUP1 DUP1 CALLDATALOAD SWAP1 PUSH1 0x20 ADD SWAP1 SWAP3 SWAP2 SWAP1 POP POP POP PUSH2 0x183 JUMP JUMPDEST STOP JUMPDEST CALLVALUE DUP1 ISZERO PUSH2 0x11B JUMPI PUSH1 0x0 DUP1 REVERT JUMPDEST POP PUSH2 0x124 PUSH2 0x195 JUMP JUMPDEST PUSH1 0x40 MLOAD DUP1 DUP3 ISZERO ISZERO ISZERO ISZERO DUP2 MSTORE PUSH1 0x20 ADD SWAP2 POP POP PUSH1 0x40 MLOAD DUP1 SWAP2 SUB SWAP1 RETURN JUMPDEST CALLVALUE DUP1 ISZERO PUSH2 0x14A JUMPI PUSH1 0x0 DUP1 REVERT JUMPDEST POP PUSH2 0x169 PUSH1 0x4 DUP1 CALLDATASIZE SUB DUP2 ADD SWAP1 DUP1 DUP1 CALLDATALOAD SWAP1 PUSH1 0x20 ADD SWAP1 SWAP3 SWAP2 SWAP1 POP POP POP PUSH2 0x1A1 JUMP JUMPDEST STOP JUMPDEST PUSH1 0x0 DUP2 PUSH1 0x0 SLOAD LT ISZERO SWAP1 POP SWAP2 SWAP1 POP JUMP JUMPDEST PUSH1 0x0 DUP1 SLOAD SWAP1 POP SWAP1 JUMP JUMPDEST DUP1 PUSH1 0x0 DUP1 DUP3 DUP3 SLOAD ADD SWAP3 POP POP DUP2 SWAP1 SSTORE POP POP JUMP JUMPDEST PUSH1 0x0 DUP1 PUSH1 0x0 SLOAD GT SWAP1 POP SWAP1 JUMP JUMPDEST DUP1 PUSH1 0x0 DUP1 DUP3 DUP3 SLOAD SUB SWAP3 POP POP DUP2 SWAP1 SSTORE POP POP JUMP STOP LOG1 PUSH6 0x627A7A723058 KECCAK256 MSIZE PUSH6 0x48FCB39F4392 BYTE 0xeb 0x23 0xc8 PUSH1 0x3D 0xd8 SUB MSTORE 0xdb 0xdd DUP1 SLOAD 0x28 DUP7 0xbc ADDRESS 0x29 PUSH29 0x548B7FF9FD002900000000000000000000000000000000000000000000 "
				},
				"gasEstimates": {
					"creation": {
						"codeDepositCost": "95800",
						"executionCost": "20241",
						"totalCost": "116041"
					},
					"external": {
						"balance()": "424",
						"checkValue(uint256)": "484",
						"deposit(uint256)": "20468",
						"loan()": "486",
						"withdrawl(uint256)": "20512"
					}
				},
				"methodIdentifiers": {
					"balance()": "b69ef8a8",
					"checkValue(uint256)": "18db62fb",
					"deposit(uint256)": "b6b55f25",
					"loan()": "d285b7b4",
					"withdrawl(uint256)": "e4480dd8"
				}
			},
			"userdoc": {
				"methods": {}
			}
		}
	}
}