{
	"data": {
		"bytecode": {
			"linkReferences": {},
			"object": "6080604052348015600f57600080fd5b5060868061001e6000396000f300608060405260043610603f576000357c0100000000000000000000000000000000000000000000000000000000900463ffffffff168063f8a8fd6d146044575b600080fd5b348015604f57600080fd5b5060566058565b005b5600a165627a7a72305820ee2f9e7c39dcbd99b50f4047397c548faccd169074b6e52ef8a02dda2886994c0029",
			"opcodes": "PUSH1 0x80 PUSH1 0x40 MSTORE CALLVALUE DUP1 ISZERO PUSH1 0xF JUMPI PUSH1 0x0 DUP1 REVERT JUMPDEST POP PUSH1 0x86 DUP1 PUSH2 0x1E PUSH1 0x0 CODECOPY PUSH1 0x0 RETURN STOP PUSH1 0x80 PUSH1 0x40 MSTORE PUSH1 0x4 CALLDATASIZE LT PUSH1 0x3F JUMPI PUSH1 0x0 CALLDATALOAD PUSH29 0x100000000000000000000000000000000000000000000000000000000 SWAP1 DIV PUSH4 0xFFFFFFFF AND DUP1 PUSH4 0xF8A8FD6D EQ PUSH1 0x44 JUMPI JUMPDEST PUSH1 0x0 DUP1 REVERT JUMPDEST CALLVALUE DUP1 ISZERO PUSH1 0x4F JUMPI PUSH1 0x0 DUP1 REVERT JUMPDEST POP PUSH1 0x56 PUSH1 0x58 JUMP JUMPDEST STOP JUMPDEST JUMP STOP LOG1 PUSH6 0x627A7A723058 KECCAK256 0xee 0x2f SWAP15 PUSH29 0x39DCBD99B50F4047397C548FACCD169074B6E52EF8A02DDA2886994C00 0x29 "
		},
		"gasEstimates": {
			"creation": {
				"codeDepositCost": "26800",
				"executionCost": "81",
				"totalCost": "26881"
			},
			"external": {
				"test()": "133"
			}
		},
		"methodIdentifiers": {
			"test()": "f8a8fd6d"
		}
	},
	"abi": [
		{
			"constant": false,
			"inputs": [],
			"name": "test",
			"outputs": [],
			"payable": false,
			"stateMutability": "nonpayable",
			"type": "function"
		}
	]
}