{
	"contracts/import/library.sol": {
		"IntExtended": {
			"abi": [
				{
					"constant": false,
					"inputs": [
						{
							"name": "_self",
							"type": "uint256"
						}
					],
					"name": "increament",
					"outputs": [
						{
							"name": "",
							"type": "uint256"
						}
					],
					"payable": false,
					"stateMutability": "nonpayable",
					"type": "function"
				},
				{
					"constant": false,
					"inputs": [
						{
							"name": "_self",
							"type": "uint256"
						}
					],
					"name": "decrement",
					"outputs": [
						{
							"name": "",
							"type": "uint256"
						}
					],
					"payable": false,
					"stateMutability": "nonpayable",
					"type": "function"
				},
				{
					"constant": false,
					"inputs": [
						{
							"name": "_self",
							"type": "uint256"
						},
						{
							"name": "value",
							"type": "uint256"
						}
					],
					"name": "incrementByValue",
					"outputs": [
						{
							"name": "",
							"type": "uint256"
						}
					],
					"payable": false,
					"stateMutability": "nonpayable",
					"type": "function"
				},
				{
					"constant": false,
					"inputs": [
						{
							"name": "_self",
							"type": "uint256"
						},
						{
							"name": "value",
							"type": "uint256"
						}
					],
					"name": "decrementByValue",
					"outputs": [
						{
							"name": "",
							"type": "uint256"
						}
					],
					"payable": false,
					"stateMutability": "nonpayable",
					"type": "function"
				}
			],
			"devdoc": {
				"methods": {}
			},
			"evm": {
				"assembly": "    /* \"contracts/import/library.sol\":26:420  library IntExtended{... */\n  dataSize(sub_0)\n  dataOffset(sub_0)\n    /* \"--CODEGEN--\":132:134   */\n  0xb\n    /* \"--CODEGEN--\":166:173   */\n  dup3\n    /* \"--CODEGEN--\":155:164   */\n  dup3\n    /* \"--CODEGEN--\":146:153   */\n  dup3\n    /* \"--CODEGEN--\":137:174   */\n  codecopy\n    /* \"--CODEGEN--\":252:259   */\n  dup1\n    /* \"--CODEGEN--\":246:260   */\n  mload\n    /* \"--CODEGEN--\":243:244   */\n  0x0\n    /* \"--CODEGEN--\":238:261   */\n  byte\n    /* \"--CODEGEN--\":232:236   */\n  0x73\n    /* \"--CODEGEN--\":229:262   */\n  eq\n    /* \"--CODEGEN--\":270:271   */\n  0x0\n    /* \"--CODEGEN--\":265:285   */\n  dup2\n  eq\n  tag_2\n  jumpi\n    /* \"--CODEGEN--\":222:285   */\n  jump(tag_1)\n    /* \"--CODEGEN--\":265:285   */\ntag_2:\n    /* \"--CODEGEN--\":274:283   */\n  invalid\n    /* \"--CODEGEN--\":222:285   */\ntag_1:\n  pop\n    /* \"--CODEGEN--\":298:307   */\n  address\n    /* \"--CODEGEN--\":295:296   */\n  0x0\n    /* \"--CODEGEN--\":288:308   */\n  mstore\n    /* \"--CODEGEN--\":328:332   */\n  0x73\n    /* \"--CODEGEN--\":319:326   */\n  dup2\n    /* \"--CODEGEN--\":311:333   */\n  mstore8\n    /* \"--CODEGEN--\":352:359   */\n  dup3\n    /* \"--CODEGEN--\":343:350   */\n  dup2\n    /* \"--CODEGEN--\":336:360   */\n  return\nstop\n\nsub_0: assembly {\n        /* \"contracts/import/library.sol\":26:420  library IntExtended{... */\n      eq(address, deployTimeAddress())\n      mstore(0x40, 0x80)\n      jumpi(tag_1, lt(calldatasize, 0x4))\n      calldataload(0x0)\n      0x100000000000000000000000000000000000000000000000000000000\n      swap1\n      div\n      0xffffffff\n      and\n      dup1\n      0xd4e4992\n      eq\n      tag_2\n      jumpi\n      dup1\n      0x3a9ebefd\n      eq\n      tag_3\n      jumpi\n      dup1\n      0x7669a640\n      eq\n      tag_4\n      jumpi\n      dup1\n      0xdccce74d\n      eq\n      tag_5\n      jumpi\n    tag_1:\n      0x0\n      dup1\n      revert\n        /* \"contracts/import/library.sol\":51:128  function increament(uint _self) returns (uint){... */\n    tag_2:\n      dup2\n        /* \"--CODEGEN--\":8:17   */\n      dup1\n        /* \"--CODEGEN--\":5:7   */\n      iszero\n      tag_6\n      jumpi\n        /* \"--CODEGEN--\":30:31   */\n      0x0\n        /* \"--CODEGEN--\":27:28   */\n      dup1\n        /* \"--CODEGEN--\":20:32   */\n      revert\n        /* \"--CODEGEN--\":5:7   */\n    tag_6:\n        /* \"contracts/import/library.sol\":51:128  function increament(uint _self) returns (uint){... */\n      pop\n      tag_7\n      0x4\n      dup1\n      calldatasize\n      sub\n      dup2\n      add\n      swap1\n      dup1\n      dup1\n      calldataload\n      swap1\n      0x20\n      add\n      swap1\n      swap3\n      swap2\n      swap1\n      pop\n      pop\n      pop\n      jump(tag_8)\n    tag_7:\n      mload(0x40)\n      dup1\n      dup3\n      dup2\n      mstore\n      0x20\n      add\n      swap2\n      pop\n      pop\n      mload(0x40)\n      dup1\n      swap2\n      sub\n      swap1\n      return\n        /* \"contracts/import/library.sol\":134:210  function decrement(uint _self) returns (uint){... */\n    tag_3:\n      dup2\n        /* \"--CODEGEN--\":8:17   */\n      dup1\n        /* \"--CODEGEN--\":5:7   */\n      iszero\n      tag_9\n      jumpi\n        /* \"--CODEGEN--\":30:31   */\n      0x0\n        /* \"--CODEGEN--\":27:28   */\n      dup1\n        /* \"--CODEGEN--\":20:32   */\n      revert\n        /* \"--CODEGEN--\":5:7   */\n    tag_9:\n        /* \"contracts/import/library.sol\":134:210  function decrement(uint _self) returns (uint){... */\n      pop\n      tag_10\n      0x4\n      dup1\n      calldatasize\n      sub\n      dup2\n      add\n      swap1\n      dup1\n      dup1\n      calldataload\n      swap1\n      0x20\n      add\n      swap1\n      swap3\n      swap2\n      swap1\n      pop\n      pop\n      pop\n      jump(tag_11)\n    tag_10:\n      mload(0x40)\n      dup1\n      dup3\n      dup2\n      mstore\n      0x20\n      add\n      swap2\n      pop\n      pop\n      mload(0x40)\n      dup1\n      swap2\n      sub\n      swap1\n      return\n        /* \"contracts/import/library.sol\":216:314  function incrementByValue(uint _self,uint value) returns (uint){... */\n    tag_4:\n      dup2\n        /* \"--CODEGEN--\":8:17   */\n      dup1\n        /* \"--CODEGEN--\":5:7   */\n      iszero\n      tag_12\n      jumpi\n        /* \"--CODEGEN--\":30:31   */\n      0x0\n        /* \"--CODEGEN--\":27:28   */\n      dup1\n        /* \"--CODEGEN--\":20:32   */\n      revert\n        /* \"--CODEGEN--\":5:7   */\n    tag_12:\n        /* \"contracts/import/library.sol\":216:314  function incrementByValue(uint _self,uint value) returns (uint){... */\n      pop\n      tag_13\n      0x4\n      dup1\n      calldatasize\n      sub\n      dup2\n      add\n      swap1\n      dup1\n      dup1\n      calldataload\n      swap1\n      0x20\n      add\n      swap1\n      swap3\n      swap2\n      swap1\n      dup1\n      calldataload\n      swap1\n      0x20\n      add\n      swap1\n      swap3\n      swap2\n      swap1\n      pop\n      pop\n      pop\n      jump(tag_14)\n    tag_13:\n      mload(0x40)\n      dup1\n      dup3\n      dup2\n      mstore\n      0x20\n      add\n      swap2\n      pop\n      pop\n      mload(0x40)\n      dup1\n      swap2\n      sub\n      swap1\n      return\n        /* \"contracts/import/library.sol\":320:418  function decrementByValue(uint _self,uint value) returns (uint){... */\n    tag_5:\n      dup2\n        /* \"--CODEGEN--\":8:17   */\n      dup1\n        /* \"--CODEGEN--\":5:7   */\n      iszero\n      tag_15\n      jumpi\n        /* \"--CODEGEN--\":30:31   */\n      0x0\n        /* \"--CODEGEN--\":27:28   */\n      dup1\n        /* \"--CODEGEN--\":20:32   */\n      revert\n        /* \"--CODEGEN--\":5:7   */\n    tag_15:\n        /* \"contracts/import/library.sol\":320:418  function decrementByValue(uint _self,uint value) returns (uint){... */\n      pop\n      tag_16\n      0x4\n      dup1\n      calldatasize\n      sub\n      dup2\n      add\n      swap1\n      dup1\n      dup1\n      calldataload\n      swap1\n      0x20\n      add\n      swap1\n      swap3\n      swap2\n      swap1\n      dup1\n      calldataload\n      swap1\n      0x20\n      add\n      swap1\n      swap3\n      swap2\n      swap1\n      pop\n      pop\n      pop\n      jump(tag_17)\n    tag_16:\n      mload(0x40)\n      dup1\n      dup3\n      dup2\n      mstore\n      0x20\n      add\n      swap2\n      pop\n      pop\n      mload(0x40)\n      dup1\n      swap2\n      sub\n      swap1\n      return\n        /* \"contracts/import/library.sol\":51:128  function increament(uint _self) returns (uint){... */\n    tag_8:\n        /* \"contracts/import/library.sol\":92:96  uint */\n      0x0\n        /* \"contracts/import/library.sol\":120:121  1 */\n      0x1\n        /* \"contracts/import/library.sol\":114:119  _self */\n      dup3\n        /* \"contracts/import/library.sol\":114:121  _self+1 */\n      add\n        /* \"contracts/import/library.sol\":107:121  return _self+1 */\n      swap1\n      pop\n        /* \"contracts/import/library.sol\":51:128  function increament(uint _self) returns (uint){... */\n      swap2\n      swap1\n      pop\n      jump\t// out\n        /* \"contracts/import/library.sol\":134:210  function decrement(uint _self) returns (uint){... */\n    tag_11:\n        /* \"contracts/import/library.sol\":174:178  uint */\n      0x0\n        /* \"contracts/import/library.sol\":202:203  1 */\n      0x1\n        /* \"contracts/import/library.sol\":196:201  _self */\n      dup3\n        /* \"contracts/import/library.sol\":196:203  _self-1 */\n      sub\n        /* \"contracts/import/library.sol\":189:203  return _self-1 */\n      swap1\n      pop\n        /* \"contracts/import/library.sol\":134:210  function decrement(uint _self) returns (uint){... */\n      swap2\n      swap1\n      pop\n      jump\t// out\n        /* \"contracts/import/library.sol\":216:314  function incrementByValue(uint _self,uint value) returns (uint){... */\n    tag_14:\n        /* \"contracts/import/library.sol\":274:278  uint */\n      0x0\n        /* \"contracts/import/library.sol\":302:307  value */\n      dup2\n        /* \"contracts/import/library.sol\":296:301  _self */\n      dup4\n        /* \"contracts/import/library.sol\":296:307  _self+value */\n      add\n        /* \"contracts/import/library.sol\":289:307  return _self+value */\n      swap1\n      pop\n        /* \"contracts/import/library.sol\":216:314  function incrementByValue(uint _self,uint value) returns (uint){... */\n      swap3\n      swap2\n      pop\n      pop\n      jump\t// out\n        /* \"contracts/import/library.sol\":320:418  function decrementByValue(uint _self,uint value) returns (uint){... */\n    tag_17:\n        /* \"contracts/import/library.sol\":378:382  uint */\n      0x0\n        /* \"contracts/import/library.sol\":406:411  value */\n      dup2\n        /* \"contracts/import/library.sol\":400:405  _self */\n      dup4\n        /* \"contracts/import/library.sol\":400:411  _self-value */\n      sub\n        /* \"contracts/import/library.sol\":393:411  return _self-value */\n      swap1\n      pop\n        /* \"contracts/import/library.sol\":320:418  function decrementByValue(uint _self,uint value) returns (uint){... */\n      swap3\n      swap2\n      pop\n      pop\n      jump\t// out\n\n    auxdata: 0xa165627a7a7230582013dc89a20dbccb471504b9c83649d4f530033b19c57419abb390e1bedd2208ba0029\n}\n",
				"bytecode": {
					"linkReferences": {},
					"object": "6101f6610030600b82828239805160001a6073146000811461002057610022565bfe5b5030600052607381538281f3007300000000000000000000000000000000000000003014608060405260043610610079576000357c0100000000000000000000000000000000000000000000000000000000900463ffffffff1680630d4e49921461007e5780633a9ebefd146100bf5780637669a64014610100578063dccce74d1461014b575b600080fd5b81801561008a57600080fd5b506100a960048036038101908080359060200190929190505050610196565b6040518082815260200191505060405180910390f35b8180156100cb57600080fd5b506100ea600480360381019080803590602001909291905050506101a3565b6040518082815260200191505060405180910390f35b81801561010c57600080fd5b5061013560048036038101908080359060200190929190803590602001909291905050506101b0565b6040518082815260200191505060405180910390f35b81801561015757600080fd5b5061018060048036038101908080359060200190929190803590602001909291905050506101bd565b6040518082815260200191505060405180910390f35b6000600182019050919050565b6000600182039050919050565b6000818301905092915050565b60008183039050929150505600a165627a7a7230582013dc89a20dbccb471504b9c83649d4f530033b19c57419abb390e1bedd2208ba0029",
					"opcodes": "PUSH2 0x1F6 PUSH2 0x30 PUSH1 0xB DUP3 DUP3 DUP3 CODECOPY DUP1 MLOAD PUSH1 0x0 BYTE PUSH1 0x73 EQ PUSH1 0x0 DUP2 EQ PUSH2 0x20 JUMPI PUSH2 0x22 JUMP JUMPDEST INVALID JUMPDEST POP ADDRESS PUSH1 0x0 MSTORE PUSH1 0x73 DUP2 MSTORE8 DUP3 DUP2 RETURN STOP PUSH20 0x0 ADDRESS EQ PUSH1 0x80 PUSH1 0x40 MSTORE PUSH1 0x4 CALLDATASIZE LT PUSH2 0x79 JUMPI PUSH1 0x0 CALLDATALOAD PUSH29 0x100000000000000000000000000000000000000000000000000000000 SWAP1 DIV PUSH4 0xFFFFFFFF AND DUP1 PUSH4 0xD4E4992 EQ PUSH2 0x7E JUMPI DUP1 PUSH4 0x3A9EBEFD EQ PUSH2 0xBF JUMPI DUP1 PUSH4 0x7669A640 EQ PUSH2 0x100 JUMPI DUP1 PUSH4 0xDCCCE74D EQ PUSH2 0x14B JUMPI JUMPDEST PUSH1 0x0 DUP1 REVERT JUMPDEST DUP2 DUP1 ISZERO PUSH2 0x8A JUMPI PUSH1 0x0 DUP1 REVERT JUMPDEST POP PUSH2 0xA9 PUSH1 0x4 DUP1 CALLDATASIZE SUB DUP2 ADD SWAP1 DUP1 DUP1 CALLDATALOAD SWAP1 PUSH1 0x20 ADD SWAP1 SWAP3 SWAP2 SWAP1 POP POP POP PUSH2 0x196 JUMP JUMPDEST PUSH1 0x40 MLOAD DUP1 DUP3 DUP2 MSTORE PUSH1 0x20 ADD SWAP2 POP POP PUSH1 0x40 MLOAD DUP1 SWAP2 SUB SWAP1 RETURN JUMPDEST DUP2 DUP1 ISZERO PUSH2 0xCB JUMPI PUSH1 0x0 DUP1 REVERT JUMPDEST POP PUSH2 0xEA PUSH1 0x4 DUP1 CALLDATASIZE SUB DUP2 ADD SWAP1 DUP1 DUP1 CALLDATALOAD SWAP1 PUSH1 0x20 ADD SWAP1 SWAP3 SWAP2 SWAP1 POP POP POP PUSH2 0x1A3 JUMP JUMPDEST PUSH1 0x40 MLOAD DUP1 DUP3 DUP2 MSTORE PUSH1 0x20 ADD SWAP2 POP POP PUSH1 0x40 MLOAD DUP1 SWAP2 SUB SWAP1 RETURN JUMPDEST DUP2 DUP1 ISZERO PUSH2 0x10C JUMPI PUSH1 0x0 DUP1 REVERT JUMPDEST POP PUSH2 0x135 PUSH1 0x4 DUP1 CALLDATASIZE SUB DUP2 ADD SWAP1 DUP1 DUP1 CALLDATALOAD SWAP1 PUSH1 0x20 ADD SWAP1 SWAP3 SWAP2 SWAP1 DUP1 CALLDATALOAD SWAP1 PUSH1 0x20 ADD SWAP1 SWAP3 SWAP2 SWAP1 POP POP POP PUSH2 0x1B0 JUMP JUMPDEST PUSH1 0x40 MLOAD DUP1 DUP3 DUP2 MSTORE PUSH1 0x20 ADD SWAP2 POP POP PUSH1 0x40 MLOAD DUP1 SWAP2 SUB SWAP1 RETURN JUMPDEST DUP2 DUP1 ISZERO PUSH2 0x157 JUMPI PUSH1 0x0 DUP1 REVERT JUMPDEST POP PUSH2 0x180 PUSH1 0x4 DUP1 CALLDATASIZE SUB DUP2 ADD SWAP1 DUP1 DUP1 CALLDATALOAD SWAP1 PUSH1 0x20 ADD SWAP1 SWAP3 SWAP2 SWAP1 DUP1 CALLDATALOAD SWAP1 PUSH1 0x20 ADD SWAP1 SWAP3 SWAP2 SWAP1 POP POP POP PUSH2 0x1BD JUMP JUMPDEST PUSH1 0x40 MLOAD DUP1 DUP3 DUP2 MSTORE PUSH1 0x20 ADD SWAP2 POP POP PUSH1 0x40 MLOAD DUP1 SWAP2 SUB SWAP1 RETURN JUMPDEST PUSH1 0x0 PUSH1 0x1 DUP3 ADD SWAP1 POP SWAP2 SWAP1 POP JUMP JUMPDEST PUSH1 0x0 PUSH1 0x1 DUP3 SUB SWAP1 POP SWAP2 SWAP1 POP JUMP JUMPDEST PUSH1 0x0 DUP2 DUP4 ADD SWAP1 POP SWAP3 SWAP2 POP POP JUMP JUMPDEST PUSH1 0x0 DUP2 DUP4 SUB SWAP1 POP SWAP3 SWAP2 POP POP JUMP STOP LOG1 PUSH6 0x627A7A723058 KECCAK256 SGT 0xdc DUP10 LOG2 0xd 0xbc 0xcb 0x47 ISZERO DIV 0xb9 0xc8 CALLDATASIZE 0x49 0xd4 0xf5 ADDRESS SUB EXTCODESIZE NOT 0xc5 PUSH21 0x19ABB390E1BEDD2208BA0029000000000000000000 "
				},
				"gasEstimates": {
					"creation": {
						"codeDepositCost": "100400",
						"executionCost": "197",
						"totalCost": "100597"
					},
					"external": {
						"decrement(uint256)": "300",
						"decrementByValue(uint256,uint256)": "373",
						"increament(uint256)": "278",
						"incrementByValue(uint256,uint256)": "351"
					}
				},
				"methodIdentifiers": {
					"decrement(uint256)": "3a9ebefd",
					"decrementByValue(uint256,uint256)": "dccce74d",
					"increament(uint256)": "0d4e4992",
					"incrementByValue(uint256,uint256)": "7669a640"
				}
			},
			"userdoc": {
				"methods": {}
			}
		}
	}
}